{
  "contractName": "Color",
  "abi": [
    {
      "inputs": [],
      "stateMutability": "nonpayable",
      "type": "constructor"
    },
    {
      "anonymous": false,
      "inputs": [
        {
          "indexed": true,
          "internalType": "address",
          "name": "owner",
          "type": "address"
        },
        {
          "indexed": true,
          "internalType": "address",
          "name": "approved",
          "type": "address"
        },
        {
          "indexed": true,
          "internalType": "uint256",
          "name": "tokenId",
          "type": "uint256"
        }
      ],
      "name": "Approval",
      "type": "event"
    },
    {
      "anonymous": false,
      "inputs": [
        {
          "indexed": true,
          "internalType": "address",
          "name": "owner",
          "type": "address"
        },
        {
          "indexed": true,
          "internalType": "address",
          "name": "operator",
          "type": "address"
        },
        {
          "indexed": false,
          "internalType": "bool",
          "name": "approved",
          "type": "bool"
        }
      ],
      "name": "ApprovalForAll",
      "type": "event"
    },
    {
      "anonymous": false,
      "inputs": [
        {
          "indexed": true,
          "internalType": "address",
          "name": "by",
          "type": "address"
        }
      ],
      "name": "ClearCanvas",
      "type": "event"
    },
    {
      "anonymous": false,
      "inputs": [
        {
          "indexed": true,
          "internalType": "address",
          "name": "previousOwner",
          "type": "address"
        },
        {
          "indexed": true,
          "internalType": "address",
          "name": "newOwner",
          "type": "address"
        }
      ],
      "name": "OwnershipTransferred",
      "type": "event"
    },
    {
      "anonymous": false,
      "inputs": [
        {
          "indexed": true,
          "internalType": "uint256",
          "name": "changedPixel",
          "type": "uint256"
        },
        {
          "indexed": false,
          "internalType": "string",
          "name": "from",
          "type": "string"
        },
        {
          "indexed": false,
          "internalType": "string",
          "name": "to",
          "type": "string"
        },
        {
          "indexed": true,
          "internalType": "address",
          "name": "by",
          "type": "address"
        }
      ],
      "name": "PixelChanged",
      "type": "event"
    },
    {
      "anonymous": false,
      "inputs": [
        {
          "indexed": true,
          "internalType": "address",
          "name": "by",
          "type": "address"
        }
      ],
      "name": "ResetCanvas",
      "type": "event"
    },
    {
      "anonymous": false,
      "inputs": [
        {
          "indexed": false,
          "internalType": "string",
          "name": "SVG",
          "type": "string"
        },
        {
          "indexed": true,
          "internalType": "address",
          "name": "by",
          "type": "address"
        }
      ],
      "name": "SVGgenerated",
      "type": "event"
    },
    {
      "anonymous": false,
      "inputs": [
        {
          "indexed": true,
          "internalType": "address",
          "name": "from",
          "type": "address"
        },
        {
          "indexed": true,
          "internalType": "address",
          "name": "to",
          "type": "address"
        },
        {
          "indexed": true,
          "internalType": "uint256",
          "name": "tokenId",
          "type": "uint256"
        }
      ],
      "name": "Transfer",
      "type": "event"
    },
    {
      "inputs": [
        {
          "internalType": "address",
          "name": "to",
          "type": "address"
        },
        {
          "internalType": "uint256",
          "name": "tokenId",
          "type": "uint256"
        }
      ],
      "name": "approve",
      "outputs": [],
      "stateMutability": "nonpayable",
      "type": "function"
    },
    {
      "inputs": [
        {
          "internalType": "address",
          "name": "owner",
          "type": "address"
        }
      ],
      "name": "balanceOf",
      "outputs": [
        {
          "internalType": "uint256",
          "name": "",
          "type": "uint256"
        }
      ],
      "stateMutability": "view",
      "type": "function",
      "constant": true
    },
    {
      "inputs": [],
      "name": "baseURI",
      "outputs": [
        {
          "internalType": "string",
          "name": "",
          "type": "string"
        }
      ],
      "stateMutability": "view",
      "type": "function",
      "constant": true
    },
    {
      "inputs": [
        {
          "internalType": "uint256",
          "name": "",
          "type": "uint256"
        }
      ],
      "name": "canvasSVG",
      "outputs": [
        {
          "internalType": "string",
          "name": "",
          "type": "string"
        }
      ],
      "stateMutability": "view",
      "type": "function",
      "constant": true
    },
    {
      "inputs": [
        {
          "internalType": "uint256",
          "name": "",
          "type": "uint256"
        }
      ],
      "name": "colors",
      "outputs": [
        {
          "internalType": "string",
          "name": "",
          "type": "string"
        }
      ],
      "stateMutability": "view",
      "type": "function",
      "constant": true
    },
    {
      "inputs": [
        {
          "internalType": "uint256",
          "name": "tokenId",
          "type": "uint256"
        }
      ],
      "name": "getApproved",
      "outputs": [
        {
          "internalType": "address",
          "name": "",
          "type": "address"
        }
      ],
      "stateMutability": "view",
      "type": "function",
      "constant": true
    },
    {
      "inputs": [
        {
          "internalType": "address",
          "name": "owner",
          "type": "address"
        },
        {
          "internalType": "address",
          "name": "operator",
          "type": "address"
        }
      ],
      "name": "isApprovedForAll",
      "outputs": [
        {
          "internalType": "bool",
          "name": "",
          "type": "bool"
        }
      ],
      "stateMutability": "view",
      "type": "function",
      "constant": true
    },
    {
      "inputs": [],
      "name": "name",
      "outputs": [
        {
          "internalType": "string",
          "name": "",
          "type": "string"
        }
      ],
      "stateMutability": "view",
      "type": "function",
      "constant": true
    },
    {
      "inputs": [],
      "name": "owner",
      "outputs": [
        {
          "internalType": "address",
          "name": "",
          "type": "address"
        }
      ],
      "stateMutability": "view",
      "type": "function",
      "constant": true
    },
    {
      "inputs": [
        {
          "internalType": "uint256",
          "name": "tokenId",
          "type": "uint256"
        }
      ],
      "name": "ownerOf",
      "outputs": [
        {
          "internalType": "address",
          "name": "",
          "type": "address"
        }
      ],
      "stateMutability": "view",
      "type": "function",
      "constant": true
    },
    {
      "inputs": [
        {
          "internalType": "uint256",
          "name": "",
          "type": "uint256"
        }
      ],
      "name": "pallet",
      "outputs": [
        {
          "internalType": "string",
          "name": "",
          "type": "string"
        }
      ],
      "stateMutability": "view",
      "type": "function",
      "constant": true
    },
    {
      "inputs": [
        {
          "internalType": "uint256",
          "name": "",
          "type": "uint256"
        }
      ],
      "name": "pixels",
      "outputs": [
        {
          "internalType": "string",
          "name": "",
          "type": "string"
        }
      ],
      "stateMutability": "view",
      "type": "function",
      "constant": true
    },
    {
      "inputs": [],
      "name": "renounceOwnership",
      "outputs": [],
      "stateMutability": "nonpayable",
      "type": "function"
    },
    {
      "inputs": [
        {
          "internalType": "address",
          "name": "from",
          "type": "address"
        },
        {
          "internalType": "address",
          "name": "to",
          "type": "address"
        },
        {
          "internalType": "uint256",
          "name": "tokenId",
          "type": "uint256"
        }
      ],
      "name": "safeTransferFrom",
      "outputs": [],
      "stateMutability": "nonpayable",
      "type": "function"
    },
    {
      "inputs": [
        {
          "internalType": "address",
          "name": "from",
          "type": "address"
        },
        {
          "internalType": "address",
          "name": "to",
          "type": "address"
        },
        {
          "internalType": "uint256",
          "name": "tokenId",
          "type": "uint256"
        },
        {
          "internalType": "bytes",
          "name": "_data",
          "type": "bytes"
        }
      ],
      "name": "safeTransferFrom",
      "outputs": [],
      "stateMutability": "nonpayable",
      "type": "function"
    },
    {
      "inputs": [
        {
          "internalType": "address",
          "name": "operator",
          "type": "address"
        },
        {
          "internalType": "bool",
          "name": "approved",
          "type": "bool"
        }
      ],
      "name": "setApprovalForAll",
      "outputs": [],
      "stateMutability": "nonpayable",
      "type": "function"
    },
    {
      "inputs": [
        {
          "internalType": "bytes4",
          "name": "interfaceId",
          "type": "bytes4"
        }
      ],
      "name": "supportsInterface",
      "outputs": [
        {
          "internalType": "bool",
          "name": "",
          "type": "bool"
        }
      ],
      "stateMutability": "view",
      "type": "function",
      "constant": true
    },
    {
      "inputs": [],
      "name": "symbol",
      "outputs": [
        {
          "internalType": "string",
          "name": "",
          "type": "string"
        }
      ],
      "stateMutability": "view",
      "type": "function",
      "constant": true
    },
    {
      "inputs": [
        {
          "internalType": "uint256",
          "name": "index",
          "type": "uint256"
        }
      ],
      "name": "tokenByIndex",
      "outputs": [
        {
          "internalType": "uint256",
          "name": "",
          "type": "uint256"
        }
      ],
      "stateMutability": "view",
      "type": "function",
      "constant": true
    },
    {
      "inputs": [
        {
          "internalType": "address",
          "name": "owner",
          "type": "address"
        },
        {
          "internalType": "uint256",
          "name": "index",
          "type": "uint256"
        }
      ],
      "name": "tokenOfOwnerByIndex",
      "outputs": [
        {
          "internalType": "uint256",
          "name": "",
          "type": "uint256"
        }
      ],
      "stateMutability": "view",
      "type": "function",
      "constant": true
    },
    {
      "inputs": [
        {
          "internalType": "uint256",
          "name": "tokenId",
          "type": "uint256"
        }
      ],
      "name": "tokenURI",
      "outputs": [
        {
          "internalType": "string",
          "name": "",
          "type": "string"
        }
      ],
      "stateMutability": "view",
      "type": "function",
      "constant": true
    },
    {
      "inputs": [],
      "name": "totalSupply",
      "outputs": [
        {
          "internalType": "uint256",
          "name": "",
          "type": "uint256"
        }
      ],
      "stateMutability": "view",
      "type": "function",
      "constant": true
    },
    {
      "inputs": [
        {
          "internalType": "address",
          "name": "from",
          "type": "address"
        },
        {
          "internalType": "address",
          "name": "to",
          "type": "address"
        },
        {
          "internalType": "uint256",
          "name": "tokenId",
          "type": "uint256"
        }
      ],
      "name": "transferFrom",
      "outputs": [],
      "stateMutability": "nonpayable",
      "type": "function"
    },
    {
      "inputs": [
        {
          "internalType": "address",
          "name": "newOwner",
          "type": "address"
        }
      ],
      "name": "transferOwnership",
      "outputs": [],
      "stateMutability": "nonpayable",
      "type": "function"
    },
    {
      "inputs": [
        {
          "internalType": "uint256",
          "name": "_pixn",
          "type": "uint256"
        },
        {
          "internalType": "string",
          "name": "_pixcolor",
          "type": "string"
        }
      ],
      "name": "setPixel",
      "outputs": [],
      "stateMutability": "nonpayable",
      "type": "function"
    },
    {
      "inputs": [],
      "name": "generateSVG",
      "outputs": [
        {
          "internalType": "string",
          "name": "",
          "type": "string"
        }
      ],
      "stateMutability": "nonpayable",
      "type": "function"
    },
    {
      "inputs": [],
      "name": "getjunk",
      "outputs": [
        {
          "internalType": "uint256",
          "name": "",
          "type": "uint256"
        }
      ],
      "stateMutability": "view",
      "type": "function",
      "constant": true
    },
    {
      "inputs": [
        {
          "internalType": "string",
          "name": "_color",
          "type": "string"
        }
      ],
      "name": "testReturn",
      "outputs": [
        {
          "internalType": "string",
          "name": "",
          "type": "string"
        }
      ],
      "stateMutability": "nonpayable",
      "type": "function"
    },
    {
      "inputs": [
        {
          "internalType": "string",
          "name": "_color",
          "type": "string"
        }
      ],
      "name": "mint",
      "outputs": [],
      "stateMutability": "nonpayable",
      "type": "function"
    }
  ],
  "bytecode": "0x6080604052600a600c556003600d556003600e55600e54600d5402600f553480156200002a57600080fd5b506040518060400160405280600581526020017f436f6c6f720000000000000000000000000000000000000000000000000000008152506040518060400160405280600581526020017f434f4c4f52000000000000000000000000000000000000000000000000000000815250620000af6301ffc9a760e01b6200022360201b60201c565b8160069080519060200190620000c79291906200128c565b508060079080519060200190620000e09291906200128c565b50620000f96380ac58cd60e01b6200022360201b60201c565b62000111635b5e139f60e01b6200022360201b60201c565b6200012963780e9d6360e01b6200022360201b60201c565b505060006200013d6200032c60201b60201c565b905080600a60006101000a81548173ffffffffffffffffffffffffffffffffffffffff021916908373ffffffffffffffffffffffffffffffffffffffff1602179055508073ffffffffffffffffffffffffffffffffffffffff16600073ffffffffffffffffffffffffffffffffffffffff167f8be0079c531659141344cd1fd0a4f28419497f9722a3daafe3b4186f6b6457e060405160405180910390a350620001ec6200033460201b60201c565b620001fc620004f660201b60201c565b6200020c6200057760201b60201c565b6200021c6200066a60201b60201c565b50620013e0565b63ffffffff60e01b817bffffffffffffffffffffffffffffffffffffffffffffffffffffffff19161415620002c0576040517f08c379a000000000000000000000000000000000000000000000000000000000815260040180806020018281038252601c8152602001807f4552433136353a20696e76616c696420696e746572666163652069640000000081525060200191505060405180910390fd5b6001600080837bffffffffffffffffffffffffffffffffffffffffffffffffffffffff19167bffffffffffffffffffffffffffffffffffffffffffffffffffffffff1916815260200190815260200160002060006101000a81548160ff02191690831515021790555050565b600033905090565b601180600181540180825580915050600190039060005260206000200160006040518060400160405280600781526020017f233030303030300000000000000000000000000000000000000000000000000081525090919091509080519060200190620003a39291906200128c565b50601180600181540180825580915050600190039060005260206000200160006040518060400160405280600781526020017f236666303030300000000000000000000000000000000000000000000000000081525090919091509080519060200190620004139291906200128c565b50601180600181540180825580915050600190039060005260206000200160006040518060400160405280600781526020017f233030666630300000000000000000000000000000000000000000000000000081525090919091509080519060200190620004839291906200128c565b50601180600181540180825580915050600190039060005260206000200160006040518060400160405280600781526020017f233030303066660000000000000000000000000000000000000000000000000081525090919091509080519060200190620004f39291906200128c565b50565b60005b600f548110156200057457601060116000815481106200051557fe5b906000526020600020019080600181540180825580915050600190039060005260206000200160009091909190915090805460018160011615610100020316600290046200056592919062001323565b508080600101915050620004f9565b50565b60005b600f548110156200066757620006598160116001600385816200059957fe5b060181548110620005a657fe5b906000526020600020018054600181600116156101000203166002900480601f016020809104026020016040519081016040528092919081815260200182805460018160011615610100020316600290048015620006485780601f106200061c5761010080835404028352916020019162000648565b820191906000526020600020905b8154815290600101906020018083116200062a57829003601f168201915b50505050506200106760201b60201c565b80806001019150506200057a565b50565b60608060106000815481106200067c57fe5b90600052602060002001604051602001808062005ab86025913960250182805460018160011615610100020316600290048015620006f45780601f10620006d1576101008083540402835291820191620006f4565b820191906000526020600020905b815481529060010190602001808311620006df575b50508062005a4b6023913960230191505060405160208183030381529060405260106001815481106200072357fe5b90600052602060002001604051602001808062005b0260259139602501828054600181600116156101000203166002900480156200079b5780601f10620007785761010080835404028352918201916200079b565b820191906000526020600020905b81548152906001019060200180831162000786575b50508062005a4b602391396023019150506040516020818303038152906040526010600281548110620007ca57fe5b90600052602060002001604051602001808062005add6025913960250182805460018160011615610100020316600290048015620008425780601f106200081f57610100808354040283529182019162000842565b820191906000526020600020905b8154815290600101906020018083116200082d575b50508062005a4b6023913960230191505060405160208183030381529060405260106003815481106200087157fe5b90600052602060002001604051602001808062005b716025913960250182805460018160011615610100020316600290048015620008e95780601f10620008c6576101008083540402835291820191620008e9565b820191906000526020600020905b815481529060010190602001808311620008d4575b50508062005a4b6023913960230191505060405160208183030381529060405260106004815481106200091857fe5b90600052602060002001604051602001808062005a6e6025913960250182805460018160011615610100020316600290048015620009905780601f106200096d57610100808354040283529182019162000990565b820191906000526020600020905b8154815290600101906020018083116200097b575b50508062005a4b602391396023019150506040516020818303038152906040526010600581548110620009bf57fe5b90600052602060002001604051602001808062005a26602591396025018280546001816001161561010002031660029004801562000a375780601f1062000a1457610100808354040283529182019162000a37565b820191906000526020600020905b81548152906001019060200180831162000a22575b50508062005a4b60239139602301915050604051602081830303815290604052601060068154811062000a6657fe5b90600052602060002001604051602001808062005a93602591396025018280546001816001161561010002031660029004801562000ade5780601f1062000abb57610100808354040283529182019162000ade565b820191906000526020600020905b81548152906001019060200180831162000ac9575b50508062005a4b60239139602301915050604051602081830303815290604052601060078154811062000b0d57fe5b90600052602060002001604051602001808062005b4c602591396025018280546001816001161561010002031660029004801562000b855780601f1062000b6257610100808354040283529182019162000b85565b820191906000526020600020905b81548152906001019060200180831162000b70575b50508062005a4b60239139602301915050604051602081830303815290604052601060088154811062000bb457fe5b90600052602060002001604051602001808062005b27602591396025018280546001816001161561010002031660029004801562000c2c5780601f1062000c0957610100808354040283529182019162000c2c565b820191906000526020600020905b81548152906001019060200180831162000c17575b50508062005a4b6023913960230191505060405160208183030381529060405260405160200180807f3c7376672077696474683d2731353027206865696768743d27313830273e0000815250601e018a805190602001908083835b6020831062000cac578051825260208201915060208101905060208303925062000c87565b6001836020036101000a03801982511681845116808217855250505050505090500189805190602001908083835b6020831062000cff578051825260208201915060208101905060208303925062000cda565b6001836020036101000a03801982511681845116808217855250505050505090500188805190602001908083835b6020831062000d52578051825260208201915060208101905060208303925062000d2d565b6001836020036101000a03801982511681845116808217855250505050505090500187805190602001908083835b6020831062000da5578051825260208201915060208101905060208303925062000d80565b6001836020036101000a03801982511681845116808217855250505050505090500186805190602001908083835b6020831062000df8578051825260208201915060208101905060208303925062000dd3565b6001836020036101000a03801982511681845116808217855250505050505090500185805190602001908083835b6020831062000e4b578051825260208201915060208101905060208303925062000e26565b6001836020036101000a03801982511681845116808217855250505050505090500184805190602001908083835b6020831062000e9e578051825260208201915060208101905060208303925062000e79565b6001836020036101000a03801982511681845116808217855250505050505090500183805190602001908083835b6020831062000ef1578051825260208201915060208101905060208303925062000ecc565b6001836020036101000a03801982511681845116808217855250505050505090500182805190602001908083835b6020831062000f44578051825260208201915060208101905060208303925062000f1f565b6001836020036101000a038019825116818451168082178552505050505050905001807f3c2f7376673e0000000000000000000000000000000000000000000000000000815250600601995050505050505050505060405160208183030381529060405290503373ffffffffffffffffffffffffffffffffffffffff167f73cc29bc981d0bb11f21b055e91e88c3955bbe54a252455677618cb64c31e356826040518080602001828103825283818151815260200191508051906020019080838360005b838110156200102557808201518184015260208101905062001008565b50505050905090810190601f168015620010535780820380516001836020036101000a031916815260200191505b509250505060405180910390a28091505090565b6060601083815481106200107757fe5b906000526020600020018054600181600116156101000203166002900480601f016020809104026020016040519081016040528092919081815260200182805460018160011615610100020316600290048015620011195780601f10620010ed5761010080835404028352916020019162001119565b820191906000526020600020905b815481529060010190602001808311620010fb57829003601f168201915b5050505050905081601084815481106200112f57fe5b9060005260206000200190805190602001906200114e9291906200128c565b503373ffffffffffffffffffffffffffffffffffffffff16837f176ff2d12d5df6e831b6cdf0336d3d96822178d039bdba36513529961b81a67d8385604051808060200180602001838103835285818151815260200191508051906020019080838360005b83811015620011d0578082015181840152602081019050620011b3565b50505050905090810190601f168015620011fe5780820380516001836020036101000a031916815260200191505b50838103825284818151815260200191508051906020019080838360005b83811015620012395780820151818401526020810190506200121c565b50505050905090810190601f168015620012675780820380516001836020036101000a031916815260200191505b5094505050505060405180910390a3620012866200066a60201b60201c565b50505050565b828054600181600116156101000203166002900490600052602060002090601f016020900481019282620012c4576000855562001310565b82601f10620012df57805160ff191683800117855562001310565b8280016001018555821562001310579182015b828111156200130f578251825591602001919060010190620012f2565b5b5090506200131f9190620013c1565b5090565b828054600181600116156101000203166002900490600052602060002090601f0160209004810192826200135b5760008555620013ae565b82601f106200136e5780548555620013ae565b82800160010185558215620013ae57600052602060002091601f016020900482015b82811115620013ad57825482559160010191906001019062001390565b5b509050620013bd9190620013c1565b5090565b5b80821115620013dc576000816000905550600101620013c2565b5090565b61463680620013f06000396000f3fe608060405234801561001057600080fd5b50600436106101cf5760003560e01c80638da5cb5b11610104578063b88d4fde116100a2578063d85d3d2711610071578063d85d3d2714610d5f578063e758e2f314610e1a578063e985e9c514610edf578063f2fde38b14610f59576101cf565b8063b88d4fde14610a65578063bd11f69d14610b6a578063c87b56dd14610c11578063d2ea1b7b14610cb8576101cf565b80639ff9d894116100de5780639ff9d894146108cd578063a22cb46514610974578063a969e8a2146109c4578063ad711e9e146109e2576101cf565b80638da5cb5b1461076f5780638da7f232146107a357806395d89b411461084a576101cf565b806342842e0e116101715780636c0360eb1161014b5780636c0360eb1461055657806370a08231146105d9578063715018a6146106315780637707f2141461063b576101cf565b806342842e0e1461044e5780634f6ccce7146104bc5780636352211e146104fe576101cf565b8063095ea7b3116101ad578063095ea7b31461031257806318160ddd1461036057806323b872dd1461037e5780632f745c59146103ec576101cf565b806301ffc9a7146101d457806306fdde0314610237578063081812fc146102ba575b600080fd5b61021f600480360360208110156101ea57600080fd5b8101908080357bffffffffffffffffffffffffffffffffffffffffffffffffffffffff19169060200190929190505050610f9d565b60405180821515815260200191505060405180910390f35b61023f611004565b6040518080602001828103825283818151815260200191508051906020019080838360005b8381101561027f578082015181840152602081019050610264565b50505050905090810190601f1680156102ac5780820380516001836020036101000a031916815260200191505b509250505060405180910390f35b6102e6600480360360208110156102d057600080fd5b81019080803590602001909291905050506110a6565b604051808273ffffffffffffffffffffffffffffffffffffffff16815260200191505060405180910390f35b61035e6004803603604081101561032857600080fd5b81019080803573ffffffffffffffffffffffffffffffffffffffff16906020019092919080359060200190929190505050611141565b005b610368611285565b6040518082815260200191505060405180910390f35b6103ea6004803603606081101561039457600080fd5b81019080803573ffffffffffffffffffffffffffffffffffffffff169060200190929190803573ffffffffffffffffffffffffffffffffffffffff16906020019092919080359060200190929190505050611296565b005b6104386004803603604081101561040257600080fd5b81019080803573ffffffffffffffffffffffffffffffffffffffff1690602001909291908035906020019092919050505061130c565b6040518082815260200191505060405180910390f35b6104ba6004803603606081101561046457600080fd5b81019080803573ffffffffffffffffffffffffffffffffffffffff169060200190929190803573ffffffffffffffffffffffffffffffffffffffff16906020019092919080359060200190929190505050611367565b005b6104e8600480360360208110156104d257600080fd5b8101908080359060200190929190505050611387565b6040518082815260200191505060405180910390f35b61052a6004803603602081101561051457600080fd5b81019080803590602001909291905050506113aa565b604051808273ffffffffffffffffffffffffffffffffffffffff16815260200191505060405180910390f35b61055e6113e1565b6040518080602001828103825283818151815260200191508051906020019080838360005b8381101561059e578082015181840152602081019050610583565b50505050905090810190601f1680156105cb5780820380516001836020036101000a031916815260200191505b509250505060405180910390f35b61061b600480360360208110156105ef57600080fd5b81019080803573ffffffffffffffffffffffffffffffffffffffff169060200190929190505050611483565b6040518082815260200191505060405180910390f35b610639611558565b005b6106f46004803603602081101561065157600080fd5b810190808035906020019064010000000081111561066e57600080fd5b82018360208201111561068057600080fd5b803590602001918460018302840111640100000000831117156106a257600080fd5b91908080601f016020809104026020016040519081016040528093929190818152602001838380828437600081840152601f19601f8201169050808301925050505050505091929192905050506116c8565b6040518080602001828103825283818151815260200191508051906020019080838360005b83811015610734578082015181840152602081019050610719565b50505050905090810190601f1680156107615780820380516001836020036101000a031916815260200191505b509250505060405180910390f35b6107776116d2565b604051808273ffffffffffffffffffffffffffffffffffffffff16815260200191505060405180910390f35b6107cf600480360360208110156107b957600080fd5b81019080803590602001909291905050506116fc565b6040518080602001828103825283818151815260200191508051906020019080838360005b8381101561080f5780820151818401526020810190506107f4565b50505050905090810190601f16801561083c5780820380516001836020036101000a031916815260200191505b509250505060405180910390f35b6108526117b8565b6040518080602001828103825283818151815260200191508051906020019080838360005b83811015610892578082015181840152602081019050610877565b50505050905090810190601f1680156108bf5780820380516001836020036101000a031916815260200191505b509250505060405180910390f35b6108f9600480360360208110156108e357600080fd5b810190808035906020019092919050505061185a565b6040518080602001828103825283818151815260200191508051906020019080838360005b8381101561093957808201518184015260208101905061091e565b50505050905090810190601f1680156109665780820380516001836020036101000a031916815260200191505b509250505060405180910390f35b6109c26004803603604081101561098a57600080fd5b81019080803573ffffffffffffffffffffffffffffffffffffffff169060200190929190803515159060200190929190505050611916565b005b6109cc611acc565b6040518082815260200191505060405180910390f35b6109ea611ad6565b6040518080602001828103825283818151815260200191508051906020019080838360005b83811015610a2a578082015181840152602081019050610a0f565b50505050905090810190601f168015610a575780820380516001836020036101000a031916815260200191505b509250505060405180910390f35b610b6860048036036080811015610a7b57600080fd5b81019080803573ffffffffffffffffffffffffffffffffffffffff169060200190929190803573ffffffffffffffffffffffffffffffffffffffff1690602001909291908035906020019092919080359060200190640100000000811115610ae257600080fd5b820183602082011115610af457600080fd5b80359060200191846001830284011164010000000083111715610b1657600080fd5b91908080601f016020809104026020016040519081016040528093929190818152602001838380828437600081840152601f19601f82011690508083019250505050505050919291929050505061247f565b005b610b9660048036036020811015610b8057600080fd5b81019080803590602001909291905050506124f7565b6040518080602001828103825283818151815260200191508051906020019080838360005b83811015610bd6578082015181840152602081019050610bbb565b50505050905090810190601f168015610c035780820380516001836020036101000a031916815260200191505b509250505060405180910390f35b610c3d60048036036020811015610c2757600080fd5b81019080803590602001909291905050506125b3565b6040518080602001828103825283818151815260200191508051906020019080838360005b83811015610c7d578082015181840152602081019050610c62565b50505050905090810190601f168015610caa5780820380516001836020036101000a031916815260200191505b509250505060405180910390f35b610ce460048036036020811015610cce57600080fd5b8101908080359060200190929190505050612884565b6040518080602001828103825283818151815260200191508051906020019080838360005b83811015610d24578082015181840152602081019050610d09565b50505050905090810190601f168015610d515780820380516001836020036101000a031916815260200191505b509250505060405180910390f35b610e1860048036036020811015610d7557600080fd5b8101908080359060200190640100000000811115610d9257600080fd5b820183602082011115610da457600080fd5b80359060200191846001830284011164010000000083111715610dc657600080fd5b91908080601f016020809104026020016040519081016040528093929190818152602001838380828437600081840152601f19601f820116905080830192505050505050509192919290505050612940565b005b610edd60048036036040811015610e3057600080fd5b810190808035906020019092919080359060200190640100000000811115610e5757600080fd5b820183602082011115610e6957600080fd5b80359060200191846001830284011164010000000083111715610e8b57600080fd5b91908080601f016020809104026020016040519081016040528093929190818152602001838380828437600081840152601f19601f820116905080830192505050505050509192919290505050612a9a565b005b610f4160048036036040811015610ef557600080fd5b81019080803573ffffffffffffffffffffffffffffffffffffffff169060200190929190803573ffffffffffffffffffffffffffffffffffffffff169060200190929190505050612ca9565b60405180821515815260200191505060405180910390f35b610f9b60048036036020811015610f6f57600080fd5b81019080803573ffffffffffffffffffffffffffffffffffffffff169060200190929190505050612d3d565b005b6000806000837bffffffffffffffffffffffffffffffffffffffffffffffffffffffff19167bffffffffffffffffffffffffffffffffffffffffffffffffffffffff1916815260200190815260200160002060009054906101000a900460ff169050919050565b606060068054600181600116156101000203166002900480601f01602080910402602001604051908101604052809291908181526020018280546001816001161561010002031660029004801561109c5780601f106110715761010080835404028352916020019161109c565b820191906000526020600020905b81548152906001019060200180831161107f57829003601f168201915b5050505050905090565b60006110b182612f32565b611106576040517f08c379a000000000000000000000000000000000000000000000000000000000815260040180806020018281038252602c815260200180614497602c913960400191505060405180910390fd5b6004600083815260200190815260200160002060009054906101000a900473ffffffffffffffffffffffffffffffffffffffff169050919050565b600061114c826113aa565b90508073ffffffffffffffffffffffffffffffffffffffff168373ffffffffffffffffffffffffffffffffffffffff1614156111d3576040517f08c379a00000000000000000000000000000000000000000000000000000000081526004018080602001828103825260218152602001806145af6021913960400191505060405180910390fd5b8073ffffffffffffffffffffffffffffffffffffffff166111f2612f4f565b73ffffffffffffffffffffffffffffffffffffffff16148061122157506112208161121b612f4f565b612ca9565b5b611276576040517f08c379a00000000000000000000000000000000000000000000000000000000081526004018080602001828103825260388152602001806143a06038913960400191505060405180910390fd5b6112808383612f57565b505050565b60006112916002613010565b905090565b6112a76112a1612f4f565b82613025565b6112fc576040517f08c379a00000000000000000000000000000000000000000000000000000000081526004018080602001828103825260318152602001806145d06031913960400191505060405180910390fd5b611307838383613119565b505050565b600061135f82600160008673ffffffffffffffffffffffffffffffffffffffff1673ffffffffffffffffffffffffffffffffffffffff16815260200190815260200160002061335c90919063ffffffff16565b905092915050565b6113828383836040518060200160405280600081525061247f565b505050565b60008061139e83600261337690919063ffffffff16565b50905080915050919050565b60006113da826040518060600160405280602981526020016144276029913960026133a29092919063ffffffff16565b9050919050565b606060098054600181600116156101000203166002900480601f0160208091040260200160405190810160405280929190818152602001828054600181600116156101000203166002900480156114795780601f1061144e57610100808354040283529160200191611479565b820191906000526020600020905b81548152906001019060200180831161145c57829003601f168201915b5050505050905090565b60008073ffffffffffffffffffffffffffffffffffffffff168273ffffffffffffffffffffffffffffffffffffffff16141561150a576040517f08c379a000000000000000000000000000000000000000000000000000000000815260040180806020018281038252602a8152602001806143fd602a913960400191505060405180910390fd5b611551600160008473ffffffffffffffffffffffffffffffffffffffff1673ffffffffffffffffffffffffffffffffffffffff1681526020019081526020016000206133c1565b9050919050565b611560612f4f565b73ffffffffffffffffffffffffffffffffffffffff1661157e6116d2565b73ffffffffffffffffffffffffffffffffffffffff1614611607576040517f08c379a00000000000000000000000000000000000000000000000000000000081526004018080602001828103825260208152602001807f4f776e61626c653a2063616c6c6572206973206e6f7420746865206f776e657281525060200191505060405180910390fd5b600073ffffffffffffffffffffffffffffffffffffffff16600a60009054906101000a900473ffffffffffffffffffffffffffffffffffffffff1673ffffffffffffffffffffffffffffffffffffffff167f8be0079c531659141344cd1fd0a4f28419497f9722a3daafe3b4186f6b6457e060405160405180910390a36000600a60006101000a81548173ffffffffffffffffffffffffffffffffffffffff021916908373ffffffffffffffffffffffffffffffffffffffff160217905550565b6060819050919050565b6000600a60009054906101000a900473ffffffffffffffffffffffffffffffffffffffff16905090565b6010818154811061170c57600080fd5b906000526020600020016000915090508054600181600116156101000203166002900480601f0160208091040260200160405190810160405280929190818152602001828054600181600116156101000203166002900480156117b05780601f10611785576101008083540402835291602001916117b0565b820191906000526020600020905b81548152906001019060200180831161179357829003601f168201915b505050505081565b606060078054600181600116156101000203166002900480601f0160208091040260200160405190810160405280929190818152602001828054600181600116156101000203166002900480156118505780601f1061182557610100808354040283529160200191611850565b820191906000526020600020905b81548152906001019060200180831161183357829003601f168201915b5050505050905090565b6012818154811061186a57600080fd5b906000526020600020016000915090508054600181600116156101000203166002900480601f01602080910402602001604051908101604052809291908181526020018280546001816001161561010002031660029004801561190e5780601f106118e35761010080835404028352916020019161190e565b820191906000526020600020905b8154815290600101906020018083116118f157829003601f168201915b505050505081565b61191e612f4f565b73ffffffffffffffffffffffffffffffffffffffff168273ffffffffffffffffffffffffffffffffffffffff1614156119bf576040517f08c379a00000000000000000000000000000000000000000000000000000000081526004018080602001828103825260198152602001807f4552433732313a20617070726f766520746f2063616c6c65720000000000000081525060200191505060405180910390fd5b80600560006119cc612f4f565b73ffffffffffffffffffffffffffffffffffffffff1673ffffffffffffffffffffffffffffffffffffffff16815260200190815260200160002060008473ffffffffffffffffffffffffffffffffffffffff1673ffffffffffffffffffffffffffffffffffffffff16815260200190815260200160002060006101000a81548160ff0219169083151502179055508173ffffffffffffffffffffffffffffffffffffffff16611a79612f4f565b73ffffffffffffffffffffffffffffffffffffffff167f17307eab39ab6107e8899845ad3d59bd9653f200f220920489ca2b5937696c318360405180821515815260200191505060405180910390a35050565b6000600c54905090565b6060806010600081548110611ae757fe5b9060005260206000200160405160200180806143d86025913960250182805460018160011615610100020316600290048015611b5a5780601f10611b38576101008083540402835291820191611b5a565b820191906000526020600020905b815481529060010190602001808311611b46575b5050806142bd602391396023019150506040516020818303038152906040526010600181548110611b8757fe5b9060005260206000200160405160200180806144c36025913960250182805460018160011615610100020316600290048015611bfa5780601f10611bd8576101008083540402835291820191611bfa565b820191906000526020600020905b815481529060010190602001808311611be6575b5050806142bd602391396023019150506040516020818303038152906040526010600281548110611c2757fe5b9060005260206000200160405160200180806144726025913960250182805460018160011615610100020316600290048015611c9a5780601f10611c78576101008083540402835291820191611c9a565b820191906000526020600020905b815481529060010190602001808311611c86575b5050806142bd602391396023019150506040516020818303038152906040526010600381548110611cc757fe5b90600052602060002001604051602001808061458a6025913960250182805460018160011615610100020316600290048015611d3a5780601f10611d18576101008083540402835291820191611d3a565b820191906000526020600020905b815481529060010190602001808311611d26575b5050806142bd602391396023019150506040516020818303038152906040526010600481548110611d6757fe5b9060005260206000200160405160200180806143566025913960250182805460018160011615610100020316600290048015611dda5780601f10611db8576101008083540402835291820191611dda565b820191906000526020600020905b815481529060010190602001808311611dc6575b5050806142bd602391396023019150506040516020818303038152906040526010600581548110611e0757fe5b9060005260206000200160405160200180806142726025913960250182805460018160011615610100020316600290048015611e7a5780601f10611e58576101008083540402835291820191611e7a565b820191906000526020600020905b815481529060010190602001808311611e66575b5050806142bd602391396023019150506040516020818303038152906040526010600681548110611ea757fe5b90600052602060002001604051602001808061437b6025913960250182805460018160011615610100020316600290048015611f1a5780601f10611ef8576101008083540402835291820191611f1a565b820191906000526020600020905b815481529060010190602001808311611f06575b5050806142bd602391396023019150506040516020818303038152906040526010600781548110611f4757fe5b9060005260206000200160405160200180806145656025913960250182805460018160011615610100020316600290048015611fba5780601f10611f98576101008083540402835291820191611fba565b820191906000526020600020905b815481529060010190602001808311611fa6575b5050806142bd602391396023019150506040516020818303038152906040526010600881548110611fe757fe5b906000526020600020016040516020018080614540602591396025018280546001816001161561010002031660029004801561205a5780601f1061203857610100808354040283529182019161205a565b820191906000526020600020905b815481529060010190602001808311612046575b5050806142bd6023913960230191505060405160208183030381529060405260405160200180807f3c7376672077696474683d2731353027206865696768743d27313830273e0000815250601e018a805190602001908083835b602083106120d757805182526020820191506020810190506020830392506120b4565b6001836020036101000a03801982511681845116808217855250505050505090500189805190602001908083835b602083106121285780518252602082019150602081019050602083039250612105565b6001836020036101000a03801982511681845116808217855250505050505090500188805190602001908083835b602083106121795780518252602082019150602081019050602083039250612156565b6001836020036101000a03801982511681845116808217855250505050505090500187805190602001908083835b602083106121ca57805182526020820191506020810190506020830392506121a7565b6001836020036101000a03801982511681845116808217855250505050505090500186805190602001908083835b6020831061221b57805182526020820191506020810190506020830392506121f8565b6001836020036101000a03801982511681845116808217855250505050505090500185805190602001908083835b6020831061226c5780518252602082019150602081019050602083039250612249565b6001836020036101000a03801982511681845116808217855250505050505090500184805190602001908083835b602083106122bd578051825260208201915060208101905060208303925061229a565b6001836020036101000a03801982511681845116808217855250505050505090500183805190602001908083835b6020831061230e57805182526020820191506020810190506020830392506122eb565b6001836020036101000a03801982511681845116808217855250505050505090500182805190602001908083835b6020831061235f578051825260208201915060208101905060208303925061233c565b6001836020036101000a038019825116818451168082178552505050505050905001807f3c2f7376673e0000000000000000000000000000000000000000000000000000815250600601995050505050505050505060405160208183030381529060405290503373ffffffffffffffffffffffffffffffffffffffff167f73cc29bc981d0bb11f21b055e91e88c3955bbe54a252455677618cb64c31e356826040518080602001828103825283818151815260200191508051906020019080838360005b8381101561243e578082015181840152602081019050612423565b50505050905090810190601f16801561246b5780820380516001836020036101000a031916815260200191505b509250505060405180910390a28091505090565b61249061248a612f4f565b83613025565b6124e5576040517f08c379a00000000000000000000000000000000000000000000000000000000081526004018080602001828103825260318152602001806145d06031913960400191505060405180910390fd5b6124f1848484846133d6565b50505050565b600b818154811061250757600080fd5b906000526020600020016000915090508054600181600116156101000203166002900480601f0160208091040260200160405190810160405280929190818152602001828054600181600116156101000203166002900480156125ab5780601f10612580576101008083540402835291602001916125ab565b820191906000526020600020905b81548152906001019060200180831161258e57829003601f168201915b505050505081565b60606125be82612f32565b612613576040517f08c379a000000000000000000000000000000000000000000000000000000000815260040180806020018281038252602f815260200180614511602f913960400191505060405180910390fd5b6060600860008481526020019081526020016000208054600181600116156101000203166002900480601f0160208091040260200160405190810160405280929190818152602001828054600181600116156101000203166002900480156126bc5780601f10612691576101008083540402835291602001916126bc565b820191906000526020600020905b81548152906001019060200180831161269f57829003601f168201915b5050505050905060606126cd6113e1565b90506000815114156126e357819250505061287f565b6000825111156127b45780826040516020018083805190602001908083835b602083106127255780518252602082019150602081019050602083039250612702565b6001836020036101000a03801982511681845116808217855250505050505090500182805190602001908083835b602083106127765780518252602082019150602081019050602083039250612753565b6001836020036101000a038019825116818451168082178552505050505050905001925050506040516020818303038152906040529250505061287f565b806127be85613448565b6040516020018083805190602001908083835b602083106127f457805182526020820191506020810190506020830392506127d1565b6001836020036101000a03801982511681845116808217855250505050505090500182805190602001908083835b602083106128455780518252602082019150602081019050602083039250612822565b6001836020036101000a03801982511681845116808217855250505050505090500192505050604051602081830303815290604052925050505b919050565b6011818154811061289457600080fd5b906000526020600020016000915090508054600181600116156101000203166002900480601f0160208091040260200160405190810160405280929190818152602001828054600181600116156101000203166002900480156129385780601f1061290d57610100808354040283529160200191612938565b820191906000526020600020905b81548152906001019060200180831161291b57829003601f168201915b505050505081565b6013816040518082805190602001908083835b602083106129765780518252602082019150602081019050602083039250612953565b6001836020036101000a038019825116818451168082178552505050505050905001915050908152602001604051809103902060009054906101000a900460ff16156129c157600080fd5b600b819080600181540180825580915050600190039060005260206000200160009091909190915090805190602001906129fc929190614172565b5060006001600b80549050039050612a14338261358f565b60016013836040518082805190602001908083835b60208310612a4c5780518252602082019150602081019050602083039250612a29565b6001836020036101000a038019825116818451168082178552505050505050905001915050908152602001604051809103902060006101000a81548160ff0219169083151502179055505050565b606060108381548110612aa957fe5b906000526020600020018054600181600116156101000203166002900480601f016020809104026020016040519081016040528092919081815260200182805460018160011615610100020316600290048015612b475780601f10612b1c57610100808354040283529160200191612b47565b820191906000526020600020905b815481529060010190602001808311612b2a57829003601f168201915b505050505090508160108481548110612b5c57fe5b906000526020600020019080519060200190612b79929190614172565b503373ffffffffffffffffffffffffffffffffffffffff16837f176ff2d12d5df6e831b6cdf0336d3d96822178d039bdba36513529961b81a67d8385604051808060200180602001838103835285818151815260200191508051906020019080838360005b83811015612bf9578082015181840152602081019050612bde565b50505050905090810190601f168015612c265780820380516001836020036101000a031916815260200191505b50838103825284818151815260200191508051906020019080838360005b83811015612c5f578082015181840152602081019050612c44565b50505050905090810190601f168015612c8c5780820380516001836020036101000a031916815260200191505b5094505050505060405180910390a3612ca3611ad6565b50505050565b6000600560008473ffffffffffffffffffffffffffffffffffffffff1673ffffffffffffffffffffffffffffffffffffffff16815260200190815260200160002060008373ffffffffffffffffffffffffffffffffffffffff1673ffffffffffffffffffffffffffffffffffffffff16815260200190815260200160002060009054906101000a900460ff16905092915050565b612d45612f4f565b73ffffffffffffffffffffffffffffffffffffffff16612d636116d2565b73ffffffffffffffffffffffffffffffffffffffff1614612dec576040517f08c379a00000000000000000000000000000000000000000000000000000000081526004018080602001828103825260208152602001807f4f776e61626c653a2063616c6c6572206973206e6f7420746865206f776e657281525060200191505060405180910390fd5b600073ffffffffffffffffffffffffffffffffffffffff168173ffffffffffffffffffffffffffffffffffffffff161415612e72576040517f08c379a00000000000000000000000000000000000000000000000000000000081526004018080602001828103825260268152602001806142976026913960400191505060405180910390fd5b8073ffffffffffffffffffffffffffffffffffffffff16600a60009054906101000a900473ffffffffffffffffffffffffffffffffffffffff1673ffffffffffffffffffffffffffffffffffffffff167f8be0079c531659141344cd1fd0a4f28419497f9722a3daafe3b4186f6b6457e060405160405180910390a380600a60006101000a81548173ffffffffffffffffffffffffffffffffffffffff021916908373ffffffffffffffffffffffffffffffffffffffff16021790555050565b6000612f4882600261378390919063ffffffff16565b9050919050565b600033905090565b816004600083815260200190815260200160002060006101000a81548173ffffffffffffffffffffffffffffffffffffffff021916908373ffffffffffffffffffffffffffffffffffffffff160217905550808273ffffffffffffffffffffffffffffffffffffffff16612fca836113aa565b73ffffffffffffffffffffffffffffffffffffffff167f8c5be1e5ebec7d5bd14f71427d1e84f3dd0314c0f7b2291e5b200ac8c7c3b92560405160405180910390a45050565b600061301e8260000161379d565b9050919050565b600061303082612f32565b613085576040517f08c379a000000000000000000000000000000000000000000000000000000000815260040180806020018281038252602c81526020018061432a602c913960400191505060405180910390fd5b6000613090836113aa565b90508073ffffffffffffffffffffffffffffffffffffffff168473ffffffffffffffffffffffffffffffffffffffff1614806130ff57508373ffffffffffffffffffffffffffffffffffffffff166130e7846110a6565b73ffffffffffffffffffffffffffffffffffffffff16145b80613110575061310f8185612ca9565b5b91505092915050565b8273ffffffffffffffffffffffffffffffffffffffff16613139826113aa565b73ffffffffffffffffffffffffffffffffffffffff16146131a5576040517f08c379a00000000000000000000000000000000000000000000000000000000081526004018080602001828103825260298152602001806144e86029913960400191505060405180910390fd5b600073ffffffffffffffffffffffffffffffffffffffff168273ffffffffffffffffffffffffffffffffffffffff16141561322b576040517f08c379a00000000000000000000000000000000000000000000000000000000081526004018080602001828103825260248152602001806142e06024913960400191505060405180910390fd5b6132368383836137ae565b613241600082612f57565b61329281600160008673ffffffffffffffffffffffffffffffffffffffff1673ffffffffffffffffffffffffffffffffffffffff1681526020019081526020016000206137b390919063ffffffff16565b506132e481600160008573ffffffffffffffffffffffffffffffffffffffff1673ffffffffffffffffffffffffffffffffffffffff1681526020019081526020016000206137cd90919063ffffffff16565b506132fb818360026137e79092919063ffffffff16565b50808273ffffffffffffffffffffffffffffffffffffffff168473ffffffffffffffffffffffffffffffffffffffff167fddf252ad1be2c89b69c2b068fc378daa952ba7f163c4a11628f55a4df523b3ef60405160405180910390a4505050565b600061336b836000018361381c565b60001c905092915050565b600080600080613389866000018661389f565b915091508160001c8160001c9350935050509250929050565b60006133b5846000018460001b84613938565b60001c90509392505050565b60006133cf82600001613a2e565b9050919050565b6133e1848484613119565b6133ed84848484613a3f565b613442576040517f08c379a00000000000000000000000000000000000000000000000000000000081526004018080602001828103825260328152602001806142406032913960400191505060405180910390fd5b50505050565b60606000821415613490576040518060400160405280600181526020017f3000000000000000000000000000000000000000000000000000000000000000815250905061358a565b600082905060005b600082146134ba578080600101915050600a82816134b257fe5b049150613498565b60608167ffffffffffffffff811180156134d357600080fd5b506040519080825280601f01601f1916602001820160405280156135065781602001600182028036833780820191505090505b50905060006001830390508593505b6000841461358257600a848161352757fe5b0660300160f81b8282806001900393508151811061354157fe5b60200101907effffffffffffffffffffffffffffffffffffffffffffffffffffffffffffff1916908160001a905350600a848161357a57fe5b049350613515565b819450505050505b919050565b600073ffffffffffffffffffffffffffffffffffffffff168273ffffffffffffffffffffffffffffffffffffffff161415613632576040517f08c379a00000000000000000000000000000000000000000000000000000000081526004018080602001828103825260208152602001807f4552433732313a206d696e7420746f20746865207a65726f206164647265737381525060200191505060405180910390fd5b61363b81612f32565b156136ae576040517f08c379a000000000000000000000000000000000000000000000000000000000815260040180806020018281038252601c8152602001807f4552433732313a20746f6b656e20616c7265616479206d696e7465640000000081525060200191505060405180910390fd5b6136ba600083836137ae565b61370b81600160008573ffffffffffffffffffffffffffffffffffffffff1673ffffffffffffffffffffffffffffffffffffffff1681526020019081526020016000206137cd90919063ffffffff16565b50613722818360026137e79092919063ffffffff16565b50808273ffffffffffffffffffffffffffffffffffffffff16600073ffffffffffffffffffffffffffffffffffffffff167fddf252ad1be2c89b69c2b068fc378daa952ba7f163c4a11628f55a4df523b3ef60405160405180910390a45050565b6000613795836000018360001b613c58565b905092915050565b600081600001805490509050919050565b505050565b60006137c5836000018360001b613c7b565b905092915050565b60006137df836000018360001b613d63565b905092915050565b6000613813846000018460001b8473ffffffffffffffffffffffffffffffffffffffff1660001b613dd3565b90509392505050565b60008183600001805490501161387d576040517f08c379a000000000000000000000000000000000000000000000000000000000815260040180806020018281038252602281526020018061421e6022913960400191505060405180910390fd5b82600001828154811061388c57fe5b9060005260206000200154905092915050565b60008082846000018054905011613901576040517f08c379a00000000000000000000000000000000000000000000000000000000081526004018080602001828103825260228152602001806144506022913960400191505060405180910390fd5b600084600001848154811061391257fe5b906000526020600020906002020190508060000154816001015492509250509250929050565b600080846001016000858152602001908152602001600020549050600081141583906139ff576040517f08c379a00000000000000000000000000000000000000000000000000000000081526004018080602001828103825283818151815260200191508051906020019080838360005b838110156139c45780820151818401526020810190506139a9565b50505050905090810190601f1680156139f15780820380516001836020036101000a031916815260200191505b509250505060405180910390fd5b50846000016001820381548110613a1257fe5b9060005260206000209060020201600101549150509392505050565b600081600001805490509050919050565b6000613a608473ffffffffffffffffffffffffffffffffffffffff16613eaf565b613a6d5760019050613c50565b6060613bd763150b7a0260e01b613a82612f4f565b888787604051602401808573ffffffffffffffffffffffffffffffffffffffff1681526020018473ffffffffffffffffffffffffffffffffffffffff16815260200183815260200180602001828103825283818151815260200191508051906020019080838360005b83811015613b06578082015181840152602081019050613aeb565b50505050905090810190601f168015613b335780820380516001836020036101000a031916815260200191505b5095505050505050604051602081830303815290604052907bffffffffffffffffffffffffffffffffffffffffffffffffffffffff19166020820180517bffffffffffffffffffffffffffffffffffffffffffffffffffffffff8381831617835250505050604051806060016040528060328152602001614240603291398773ffffffffffffffffffffffffffffffffffffffff16613ec29092919063ffffffff16565b90506000818060200190516020811015613bf057600080fd5b8101908080519060200190929190505050905063150b7a0260e01b7bffffffffffffffffffffffffffffffffffffffffffffffffffffffff1916817bffffffffffffffffffffffffffffffffffffffffffffffffffffffff191614925050505b949350505050565b600080836001016000848152602001908152602001600020541415905092915050565b60008083600101600084815260200190815260200160002054905060008114613d575760006001820390506000600186600001805490500390506000866000018281548110613cc657fe5b9060005260206000200154905080876000018481548110613ce357fe5b9060005260206000200181905550600183018760010160008381526020019081526020016000208190555086600001805480613d1b57fe5b60019003818190600052602060002001600090559055866001016000878152602001908152602001600020600090556001945050505050613d5d565b60009150505b92915050565b6000613d6f8383613eda565b613dc8578260000182908060018154018082558091505060019003906000526020600020016000909190919091505582600001805490508360010160008481526020019081526020016000208190555060019050613dcd565b600090505b92915050565b6000808460010160008581526020019081526020016000205490506000811415613e7a57846000016040518060400160405280868152602001858152509080600181540180825580915050600190039060005260206000209060020201600090919091909150600082015181600001556020820151816001015550508460000180549050856001016000868152602001908152602001600020819055506001915050613ea8565b82856000016001830381548110613e8d57fe5b90600052602060002090600202016001018190555060009150505b9392505050565b600080823b905060008111915050919050565b6060613ed18484600085613efd565b90509392505050565b600080836001016000848152602001908152602001600020541415905092915050565b606082471015613f58576040517f08c379a00000000000000000000000000000000000000000000000000000000081526004018080602001828103825260268152602001806143046026913960400191505060405180910390fd5b613f6185613eaf565b613fd3576040517f08c379a000000000000000000000000000000000000000000000000000000000815260040180806020018281038252601d8152602001807f416464726573733a2063616c6c20746f206e6f6e2d636f6e747261637400000081525060200191505060405180910390fd5b600060608673ffffffffffffffffffffffffffffffffffffffff1685876040518082805190602001908083835b602083106140235780518252602082019150602081019050602083039250614000565b6001836020036101000a03801982511681845116808217855250505050505090500191505060006040518083038185875af1925050503d8060008114614085576040519150601f19603f3d011682016040523d82523d6000602084013e61408a565b606091505b509150915061409a8282866140a6565b92505050949350505050565b606083156140b65782905061416b565b6000835111156140c95782518084602001fd5b816040517f08c379a00000000000000000000000000000000000000000000000000000000081526004018080602001828103825283818151815260200191508051906020019080838360005b83811015614130578082015181840152602081019050614115565b50505050905090810190601f16801561415d5780820380516001836020036101000a031916815260200191505b509250505060405180910390fd5b9392505050565b828054600181600116156101000203166002900490600052602060002090601f0160209004810192826141a857600085556141ef565b82601f106141c157805160ff19168380011785556141ef565b828001600101855582156141ef579182015b828111156141ee5782518255916020019190600101906141d3565b5b5090506141fc9190614200565b5090565b5b80821115614219576000816000905550600101614201565b509056fe456e756d657261626c655365743a20696e646578206f7574206f6620626f756e64734552433732313a207472616e7366657220746f206e6f6e20455243373231526563656976657220696d706c656d656e7465723c636972636c652063783d273930272063793d2736302720723d273230272066696c6c3d274f776e61626c653a206e6577206f776e657220697320746865207a65726f206164647265737327207374726f6b652d77696474683d273927207374726f6b653d27626c61636b272f3e4552433732313a207472616e7366657220746f20746865207a65726f2061646472657373416464726573733a20696e73756666696369656e742062616c616e636520666f722063616c6c4552433732313a206f70657261746f7220717565727920666f72206e6f6e6578697374656e7420746f6b656e3c636972636c652063783d273630272063793d2736302720723d273230272066696c6c3d273c636972636c652063783d273330272063793d2739302720723d273230272066696c6c3d274552433732313a20617070726f76652063616c6c6572206973206e6f74206f776e6572206e6f7220617070726f76656420666f7220616c6c3c636972636c652063783d273330272063793d2733302720723d273230272066696c6c3d274552433732313a2062616c616e636520717565727920666f7220746865207a65726f20616464726573734552433732313a206f776e657220717565727920666f72206e6f6e6578697374656e7420746f6b656e456e756d657261626c654d61703a20696e646578206f7574206f6620626f756e64733c636972636c652063783d273930272063793d2733302720723d273230272066696c6c3d274552433732313a20617070726f76656420717565727920666f72206e6f6e6578697374656e7420746f6b656e3c636972636c652063783d273630272063793d2733302720723d273230272066696c6c3d274552433732313a207472616e73666572206f6620746f6b656e2074686174206973206e6f74206f776e4552433732314d657461646174613a2055524920717565727920666f72206e6f6e6578697374656e7420746f6b656e3c636972636c652063783d273930272063793d2739302720723d273230272066696c6c3d273c636972636c652063783d273630272063793d2739302720723d273230272066696c6c3d273c636972636c652063783d273330272063793d2736302720723d273230272066696c6c3d274552433732313a20617070726f76616c20746f2063757272656e74206f776e65724552433732313a207472616e736665722063616c6c6572206973206e6f74206f776e6572206e6f7220617070726f766564a26469706673582212209eab76db36f37f26d979d2dbff16cb0daa20ff4060d6346a00f8d1f8f6710bb464736f6c634300070400333c636972636c652063783d273930272063793d2736302720723d273230272066696c6c3d2727207374726f6b652d77696474683d273927207374726f6b653d27626c61636b272f3e3c636972636c652063783d273630272063793d2736302720723d273230272066696c6c3d273c636972636c652063783d273330272063793d2739302720723d273230272066696c6c3d273c636972636c652063783d273330272063793d2733302720723d273230272066696c6c3d273c636972636c652063783d273930272063793d2733302720723d273230272066696c6c3d273c636972636c652063783d273630272063793d2733302720723d273230272066696c6c3d273c636972636c652063783d273930272063793d2739302720723d273230272066696c6c3d273c636972636c652063783d273630272063793d2739302720723d273230272066696c6c3d273c636972636c652063783d273330272063793d2736302720723d273230272066696c6c3d27",
  "immutableReferences": {},
  "source": "pragma solidity ^0.7.4;\r\n\r\nimport \"@openzeppelin/contracts/token/ERC721/ERC721.sol\";\r\nimport \"@openzeppelin/contracts/access/Ownable.sol\";\r\n\r\ncontract Color is ERC721,Ownable {\r\n\r\n\tstring[] public colors;\r\n  \tuint junk = 10;\r\n  \tuint nPixX=3;\r\n  \tuint nPixY=3;\r\n  \tuint nPix=nPixX*nPixY;\r\n  \tstring[] public pixels;\r\n  \tstring[] public pallet; \r\n  \tstring[] public canvasSVG;\r\n\r\n\r\n\tmapping(string => bool) _colorExists;\r\n\tevent PixelChanged(uint indexed changedPixel, string from, string to, address indexed by);\r\n\tevent ClearCanvas(address indexed by);\r\n\tevent ResetCanvas(address indexed by);\r\n\tevent SVGgenerated(string SVG, address indexed by);\r\n\t\r\n\t\r\n\tconstructor() ERC721(\"Color\", \"COLOR\") public {\r\n\t\tbuildLut();\r\n\t\tbuildCanvas();\r\n\t\tpaintCanvas();\r\n\t\tgenerateSVG();\r\n\t\t// geerateCanvasSVG();\r\n  \t}\r\n\r\n  \tfunction buildLut() private   {\r\n  \t\tpallet.push(\"#000000\");\r\n  \t\tpallet.push(\"#ff0000\");\r\n\t\tpallet.push(\"#00ff00\");\r\n\t\tpallet.push(\"#0000ff\");\r\n  \t}\r\n\r\n  \tfunction buildCanvas () private {\r\n  \t\tfor(uint p=0; p<nPix; p++){\r\n\r\n\t\t\t// pixels[p]=pallet[0];\r\n\t\t\t// pixels[0]=\"ack\";\r\n\t\t\tpixels.push(pallet[0]);\r\n\r\n\t\t}\t\r\n  \t}\r\n  \t\r\n\r\n\tfunction paintCanvas () private   {\r\n\t\t// uint i=0;\r\n\t\tfor(uint p=0; p<nPix; p++){\r\n\r\n\t\t\tsetPixel(p,pallet[(p%3)+1]);\r\n\t\t\t// setPixel(p,\"dick\");\r\n\r\n\t\t}\t\r\n\r\n\t}\r\n\r\n\r\n\tfunction setPixel(uint  _pixn, string memory _pixcolor) public  {\r\n\t\tstring memory  _priorColor=pixels[_pixn];\r\n\t\t// string memory  _priorColor=pixels[0];\r\n\t\tpixels[_pixn]=_pixcolor;\r\n\t\temit PixelChanged(_pixn,_priorColor,_pixcolor, msg.sender);\r\n\t\tgenerateSVG();\r\n\t\t\r\n\t}\r\n\t\r\n  \t\r\n\r\n\r\n\r\n  \tfunction generateSVG() public returns (string memory){\r\n  \t\t//returns the svg string of the canvas\r\n  \t\t    string memory svg = \r\n  \t\t    string(\r\n  \t\t    \tabi.encodePacked(\r\n            \t\t\t\t\t\"<svg width='150' height='180'>\", \r\n            \t\t\t\t\tstring(abi.encodePacked(\"<circle cx='30' cy='30' r='20' fill='\",pixels[0],\"' stroke-width='9' stroke='black'/>\")),\r\n            \t\t\t\t\tstring(abi.encodePacked(\"<circle cx='60' cy='30' r='20' fill='\",pixels[1],\"' stroke-width='9' stroke='black'/>\")),\r\n            \t\t\t\t\tstring(abi.encodePacked(\"<circle cx='90' cy='30' r='20' fill='\",pixels[2],\"' stroke-width='9' stroke='black'/>\")), \r\n            \t\t\t\t\tstring(abi.encodePacked(\"<circle cx='30' cy='60' r='20' fill='\",pixels[3],\"' stroke-width='9' stroke='black'/>\")), \r\n            \t\t\t\t\tstring(abi.encodePacked(\"<circle cx='60' cy='60' r='20' fill='\",pixels[4],\"' stroke-width='9' stroke='black'/>\")), \r\n            \t\t\t\t\tstring(abi.encodePacked(\"<circle cx='90' cy='60' r='20' fill='\",pixels[5],\"' stroke-width='9' stroke='black'/>\")), \r\n            \t\t\t\t\tstring(abi.encodePacked(\"<circle cx='30' cy='90' r='20' fill='\",pixels[6],\"' stroke-width='9' stroke='black'/>\")), \r\n            \t\t\t\t\tstring(abi.encodePacked(\"<circle cx='60' cy='90' r='20' fill='\",pixels[7],\"' stroke-width='9' stroke='black'/>\")), \r\n            \t\t\t\t\tstring(abi.encodePacked(\"<circle cx='90' cy='90' r='20' fill='\",pixels[8],\"' stroke-width='9' stroke='black'/>\")),\r\n            \t\t\t\t\t\"</svg>\"\r\n        \t\t\t\t\t\t)\r\n        \t);\r\n  \t\temit SVGgenerated(svg,msg.sender);\r\n\r\n        return svg;\r\n  \t}\r\n\r\n  // \tfunction geerateCanvasSVG () public returns(string memory)  {\r\n  // \t\tstring[] memory pixelholder;\r\n  // \t\tstring memory canvasSVGheader=\"<svg width='100' height='100'>\";\r\n  // \t\tstring memory canvasSVGfooter=\"</svg>\";\r\n  // \t\t //attache header\r\n  // \t\t//iterate over the pixels and add generate individual strings\r\n  // \t\t//attach footer\r\n  // \t\t//pack and send\r\n  // \t\tcanvasSVG.push(canvasSVGheader);\r\n  // \t\tfor(uint p=0; p<nPix; p++){\r\n  // \t\t\tstring pixSring=string()\r\n  // \t\t\tcanvasSVG.push(pixels[p]);\r\n\t\t// }\t\r\n\t\t// canvasSVG.push(canvasSVGfooter);\r\n\t\t// return string(abi.encodePacked(canvasSVG));\r\n  \t\t\r\n  // \t}\r\n  \t\r\n  \t// function concat (string memory array) returns(string memory) view internal {\r\n  \t\t\r\n  \t// }\r\n  \t\r\n\r\n\r\n\r\n\r\n  \t// function setPixelTick(uint memory _tick) public payable \r\n\r\n    // function totalSupply\r\n    function getjunk() public view returns(uint){\r\n      return junk;\r\n    }\r\n  \r\n\tfunction testReturn(string memory _color) public returns(string memory) {\r\n\t    // _mint(msg.sender, 1);\r\n\t    return _color;\r\n\t}\r\n\r\n\tfunction mint(string memory _color) public {\r\n\t  require(!_colorExists[_color]);\r\n\t  colors.push(_color);\r\n\t  uint _id = colors.length-1;\r\n\t  _mint(msg.sender, _id);\r\n\t  _colorExists[_color] = true;\r\n\t}\r\n\r\n}\r\n",
  "sourcePath": "H:/Expermental/nft/src/contracts/Color.sol",
  "compiler": {
    "name": "solc",
    "version": "0.7.4+commit.3f05b770.Emscripten.clang"
  },
  "schemaVersion": "3.3.4",
  "updatedAt": "2021-03-18T22:57:59.168Z",
  "networkType": "ethereum",
  "devdoc": {
    "kind": "dev",
    "methods": {
      "approve(address,uint256)": {
        "details": "See {IERC721-approve}."
      },
      "balanceOf(address)": {
        "details": "See {IERC721-balanceOf}."
      },
      "baseURI()": {
        "details": "Returns the base URI set via {_setBaseURI}. This will be automatically added as a prefix in {tokenURI} to each token's URI, or to the token ID if no specific URI is set for that token ID."
      },
      "getApproved(uint256)": {
        "details": "See {IERC721-getApproved}."
      },
      "isApprovedForAll(address,address)": {
        "details": "See {IERC721-isApprovedForAll}."
      },
      "name()": {
        "details": "See {IERC721Metadata-name}."
      },
      "owner()": {
        "details": "Returns the address of the current owner."
      },
      "ownerOf(uint256)": {
        "details": "See {IERC721-ownerOf}."
      },
      "renounceOwnership()": {
        "details": "Leaves the contract without owner. It will not be possible to call `onlyOwner` functions anymore. Can only be called by the current owner. NOTE: Renouncing ownership will leave the contract without an owner, thereby removing any functionality that is only available to the owner."
      },
      "safeTransferFrom(address,address,uint256)": {
        "details": "See {IERC721-safeTransferFrom}."
      },
      "safeTransferFrom(address,address,uint256,bytes)": {
        "details": "See {IERC721-safeTransferFrom}."
      },
      "setApprovalForAll(address,bool)": {
        "details": "See {IERC721-setApprovalForAll}."
      },
      "supportsInterface(bytes4)": {
        "details": "See {IERC165-supportsInterface}. Time complexity O(1), guaranteed to always use less than 30 000 gas."
      },
      "symbol()": {
        "details": "See {IERC721Metadata-symbol}."
      },
      "tokenByIndex(uint256)": {
        "details": "See {IERC721Enumerable-tokenByIndex}."
      },
      "tokenOfOwnerByIndex(address,uint256)": {
        "details": "See {IERC721Enumerable-tokenOfOwnerByIndex}."
      },
      "tokenURI(uint256)": {
        "details": "See {IERC721Metadata-tokenURI}."
      },
      "totalSupply()": {
        "details": "See {IERC721Enumerable-totalSupply}."
      },
      "transferFrom(address,address,uint256)": {
        "details": "See {IERC721-transferFrom}."
      },
      "transferOwnership(address)": {
        "details": "Transfers ownership of the contract to a new account (`newOwner`). Can only be called by the current owner."
      }
    },
    "version": 1
  },
  "userdoc": {
    "kind": "user",
    "methods": {},
    "version": 1
  }
}