{
  "contractName": "Color",
  "abi": [
    {
      "inputs": [],
      "stateMutability": "nonpayable",
      "type": "constructor"
    },
    {
      "anonymous": false,
      "inputs": [
        {
          "indexed": true,
          "internalType": "address",
          "name": "owner",
          "type": "address"
        },
        {
          "indexed": true,
          "internalType": "address",
          "name": "approved",
          "type": "address"
        },
        {
          "indexed": true,
          "internalType": "uint256",
          "name": "tokenId",
          "type": "uint256"
        }
      ],
      "name": "Approval",
      "type": "event"
    },
    {
      "anonymous": false,
      "inputs": [
        {
          "indexed": true,
          "internalType": "address",
          "name": "owner",
          "type": "address"
        },
        {
          "indexed": true,
          "internalType": "address",
          "name": "operator",
          "type": "address"
        },
        {
          "indexed": false,
          "internalType": "bool",
          "name": "approved",
          "type": "bool"
        }
      ],
      "name": "ApprovalForAll",
      "type": "event"
    },
    {
      "anonymous": false,
      "inputs": [
        {
          "indexed": true,
          "internalType": "address",
          "name": "by",
          "type": "address"
        }
      ],
      "name": "ClearCanvas",
      "type": "event"
    },
    {
      "anonymous": false,
      "inputs": [
        {
          "indexed": true,
          "internalType": "address",
          "name": "previousOwner",
          "type": "address"
        },
        {
          "indexed": true,
          "internalType": "address",
          "name": "newOwner",
          "type": "address"
        }
      ],
      "name": "OwnershipTransferred",
      "type": "event"
    },
    {
      "anonymous": false,
      "inputs": [
        {
          "indexed": true,
          "internalType": "uint256",
          "name": "changedPixel",
          "type": "uint256"
        },
        {
          "indexed": false,
          "internalType": "string",
          "name": "from",
          "type": "string"
        },
        {
          "indexed": false,
          "internalType": "string",
          "name": "to",
          "type": "string"
        },
        {
          "indexed": true,
          "internalType": "address",
          "name": "by",
          "type": "address"
        }
      ],
      "name": "PixelChanged",
      "type": "event"
    },
    {
      "anonymous": false,
      "inputs": [
        {
          "indexed": true,
          "internalType": "address",
          "name": "by",
          "type": "address"
        }
      ],
      "name": "ResetCanvas",
      "type": "event"
    },
    {
      "anonymous": false,
      "inputs": [
        {
          "indexed": true,
          "internalType": "address",
          "name": "by",
          "type": "address"
        }
      ],
      "name": "SVGgenerated",
      "type": "event"
    },
    {
      "anonymous": false,
      "inputs": [
        {
          "indexed": true,
          "internalType": "address",
          "name": "from",
          "type": "address"
        },
        {
          "indexed": true,
          "internalType": "address",
          "name": "to",
          "type": "address"
        },
        {
          "indexed": true,
          "internalType": "uint256",
          "name": "tokenId",
          "type": "uint256"
        }
      ],
      "name": "Transfer",
      "type": "event"
    },
    {
      "inputs": [
        {
          "internalType": "address",
          "name": "to",
          "type": "address"
        },
        {
          "internalType": "uint256",
          "name": "tokenId",
          "type": "uint256"
        }
      ],
      "name": "approve",
      "outputs": [],
      "stateMutability": "nonpayable",
      "type": "function"
    },
    {
      "inputs": [
        {
          "internalType": "address",
          "name": "owner",
          "type": "address"
        }
      ],
      "name": "balanceOf",
      "outputs": [
        {
          "internalType": "uint256",
          "name": "",
          "type": "uint256"
        }
      ],
      "stateMutability": "view",
      "type": "function",
      "constant": true
    },
    {
      "inputs": [],
      "name": "baseURI",
      "outputs": [
        {
          "internalType": "string",
          "name": "",
          "type": "string"
        }
      ],
      "stateMutability": "view",
      "type": "function",
      "constant": true
    },
    {
      "inputs": [
        {
          "internalType": "uint256",
          "name": "",
          "type": "uint256"
        }
      ],
      "name": "colors",
      "outputs": [
        {
          "internalType": "string",
          "name": "",
          "type": "string"
        }
      ],
      "stateMutability": "view",
      "type": "function",
      "constant": true
    },
    {
      "inputs": [
        {
          "internalType": "uint256",
          "name": "tokenId",
          "type": "uint256"
        }
      ],
      "name": "getApproved",
      "outputs": [
        {
          "internalType": "address",
          "name": "",
          "type": "address"
        }
      ],
      "stateMutability": "view",
      "type": "function",
      "constant": true
    },
    {
      "inputs": [
        {
          "internalType": "address",
          "name": "owner",
          "type": "address"
        },
        {
          "internalType": "address",
          "name": "operator",
          "type": "address"
        }
      ],
      "name": "isApprovedForAll",
      "outputs": [
        {
          "internalType": "bool",
          "name": "",
          "type": "bool"
        }
      ],
      "stateMutability": "view",
      "type": "function",
      "constant": true
    },
    {
      "inputs": [],
      "name": "name",
      "outputs": [
        {
          "internalType": "string",
          "name": "",
          "type": "string"
        }
      ],
      "stateMutability": "view",
      "type": "function",
      "constant": true
    },
    {
      "inputs": [],
      "name": "owner",
      "outputs": [
        {
          "internalType": "address",
          "name": "",
          "type": "address"
        }
      ],
      "stateMutability": "view",
      "type": "function",
      "constant": true
    },
    {
      "inputs": [
        {
          "internalType": "uint256",
          "name": "tokenId",
          "type": "uint256"
        }
      ],
      "name": "ownerOf",
      "outputs": [
        {
          "internalType": "address",
          "name": "",
          "type": "address"
        }
      ],
      "stateMutability": "view",
      "type": "function",
      "constant": true
    },
    {
      "inputs": [
        {
          "internalType": "uint256",
          "name": "",
          "type": "uint256"
        }
      ],
      "name": "pallet",
      "outputs": [
        {
          "internalType": "string",
          "name": "",
          "type": "string"
        }
      ],
      "stateMutability": "view",
      "type": "function",
      "constant": true
    },
    {
      "inputs": [
        {
          "internalType": "uint256",
          "name": "",
          "type": "uint256"
        }
      ],
      "name": "pixels",
      "outputs": [
        {
          "internalType": "string",
          "name": "",
          "type": "string"
        }
      ],
      "stateMutability": "view",
      "type": "function",
      "constant": true
    },
    {
      "inputs": [],
      "name": "renounceOwnership",
      "outputs": [],
      "stateMutability": "nonpayable",
      "type": "function"
    },
    {
      "inputs": [
        {
          "internalType": "address",
          "name": "from",
          "type": "address"
        },
        {
          "internalType": "address",
          "name": "to",
          "type": "address"
        },
        {
          "internalType": "uint256",
          "name": "tokenId",
          "type": "uint256"
        }
      ],
      "name": "safeTransferFrom",
      "outputs": [],
      "stateMutability": "nonpayable",
      "type": "function"
    },
    {
      "inputs": [
        {
          "internalType": "address",
          "name": "from",
          "type": "address"
        },
        {
          "internalType": "address",
          "name": "to",
          "type": "address"
        },
        {
          "internalType": "uint256",
          "name": "tokenId",
          "type": "uint256"
        },
        {
          "internalType": "bytes",
          "name": "_data",
          "type": "bytes"
        }
      ],
      "name": "safeTransferFrom",
      "outputs": [],
      "stateMutability": "nonpayable",
      "type": "function"
    },
    {
      "inputs": [
        {
          "internalType": "address",
          "name": "operator",
          "type": "address"
        },
        {
          "internalType": "bool",
          "name": "approved",
          "type": "bool"
        }
      ],
      "name": "setApprovalForAll",
      "outputs": [],
      "stateMutability": "nonpayable",
      "type": "function"
    },
    {
      "inputs": [
        {
          "internalType": "bytes4",
          "name": "interfaceId",
          "type": "bytes4"
        }
      ],
      "name": "supportsInterface",
      "outputs": [
        {
          "internalType": "bool",
          "name": "",
          "type": "bool"
        }
      ],
      "stateMutability": "view",
      "type": "function",
      "constant": true
    },
    {
      "inputs": [],
      "name": "symbol",
      "outputs": [
        {
          "internalType": "string",
          "name": "",
          "type": "string"
        }
      ],
      "stateMutability": "view",
      "type": "function",
      "constant": true
    },
    {
      "inputs": [
        {
          "internalType": "uint256",
          "name": "index",
          "type": "uint256"
        }
      ],
      "name": "tokenByIndex",
      "outputs": [
        {
          "internalType": "uint256",
          "name": "",
          "type": "uint256"
        }
      ],
      "stateMutability": "view",
      "type": "function",
      "constant": true
    },
    {
      "inputs": [
        {
          "internalType": "address",
          "name": "owner",
          "type": "address"
        },
        {
          "internalType": "uint256",
          "name": "index",
          "type": "uint256"
        }
      ],
      "name": "tokenOfOwnerByIndex",
      "outputs": [
        {
          "internalType": "uint256",
          "name": "",
          "type": "uint256"
        }
      ],
      "stateMutability": "view",
      "type": "function",
      "constant": true
    },
    {
      "inputs": [
        {
          "internalType": "uint256",
          "name": "tokenId",
          "type": "uint256"
        }
      ],
      "name": "tokenURI",
      "outputs": [
        {
          "internalType": "string",
          "name": "",
          "type": "string"
        }
      ],
      "stateMutability": "view",
      "type": "function",
      "constant": true
    },
    {
      "inputs": [],
      "name": "totalSupply",
      "outputs": [
        {
          "internalType": "uint256",
          "name": "",
          "type": "uint256"
        }
      ],
      "stateMutability": "view",
      "type": "function",
      "constant": true
    },
    {
      "inputs": [
        {
          "internalType": "address",
          "name": "from",
          "type": "address"
        },
        {
          "internalType": "address",
          "name": "to",
          "type": "address"
        },
        {
          "internalType": "uint256",
          "name": "tokenId",
          "type": "uint256"
        }
      ],
      "name": "transferFrom",
      "outputs": [],
      "stateMutability": "nonpayable",
      "type": "function"
    },
    {
      "inputs": [
        {
          "internalType": "address",
          "name": "newOwner",
          "type": "address"
        }
      ],
      "name": "transferOwnership",
      "outputs": [],
      "stateMutability": "nonpayable",
      "type": "function"
    },
    {
      "inputs": [
        {
          "internalType": "uint256",
          "name": "_pixn",
          "type": "uint256"
        },
        {
          "internalType": "string",
          "name": "_pixcolor",
          "type": "string"
        }
      ],
      "name": "setPixel",
      "outputs": [],
      "stateMutability": "nonpayable",
      "type": "function"
    },
    {
      "inputs": [],
      "name": "generateSVG",
      "outputs": [
        {
          "internalType": "string",
          "name": "",
          "type": "string"
        }
      ],
      "stateMutability": "nonpayable",
      "type": "function"
    },
    {
      "inputs": [],
      "name": "getjunk",
      "outputs": [
        {
          "internalType": "uint256",
          "name": "",
          "type": "uint256"
        }
      ],
      "stateMutability": "view",
      "type": "function",
      "constant": true
    },
    {
      "inputs": [
        {
          "internalType": "string",
          "name": "_color",
          "type": "string"
        }
      ],
      "name": "testReturn",
      "outputs": [
        {
          "internalType": "string",
          "name": "",
          "type": "string"
        }
      ],
      "stateMutability": "nonpayable",
      "type": "function"
    },
    {
      "inputs": [
        {
          "internalType": "string",
          "name": "_color",
          "type": "string"
        }
      ],
      "name": "mint",
      "outputs": [],
      "stateMutability": "nonpayable",
      "type": "function"
    }
  ],
  "bytecode": "0x6080604052600a600c556003600d556003600e55600e54600d5402600f553480156200002a57600080fd5b506040518060400160405280600581526020017f436f6c6f720000000000000000000000000000000000000000000000000000008152506040518060400160405280600581526020017f434f4c4f52000000000000000000000000000000000000000000000000000000815250620000af6301ffc9a760e01b6200022360201b60201c565b8160069080519060200190620000c792919062000b1a565b508060079080519060200190620000e092919062000b1a565b50620000f96380ac58cd60e01b6200022360201b60201c565b62000111635b5e139f60e01b6200022360201b60201c565b6200012963780e9d6360e01b6200022360201b60201c565b505060006200013d6200032c60201b60201c565b905080600a60006101000a81548173ffffffffffffffffffffffffffffffffffffffff021916908373ffffffffffffffffffffffffffffffffffffffff1602179055508073ffffffffffffffffffffffffffffffffffffffff16600073ffffffffffffffffffffffffffffffffffffffff167f8be0079c531659141344cd1fd0a4f28419497f9722a3daafe3b4186f6b6457e060405160405180910390a350620001ec6200033460201b60201c565b620001fc620004f660201b60201c565b6200020c6200057760201b60201c565b6200021c6200066a60201b60201c565b5062000c6e565b63ffffffff60e01b817bffffffffffffffffffffffffffffffffffffffffffffffffffffffff19161415620002c0576040517f08c379a000000000000000000000000000000000000000000000000000000000815260040180806020018281038252601c8152602001807f4552433136353a20696e76616c696420696e746572666163652069640000000081525060200191505060405180910390fd5b6001600080837bffffffffffffffffffffffffffffffffffffffffffffffffffffffff19167bffffffffffffffffffffffffffffffffffffffffffffffffffffffff1916815260200190815260200160002060006101000a81548160ff02191690831515021790555050565b600033905090565b601180600181540180825580915050600190039060005260206000200160006040518060400160405280600781526020017f233030303030300000000000000000000000000000000000000000000000000081525090919091509080519060200190620003a392919062000b1a565b50601180600181540180825580915050600190039060005260206000200160006040518060400160405280600781526020017f2366663030303000000000000000000000000000000000000000000000000000815250909190915090805190602001906200041392919062000b1a565b50601180600181540180825580915050600190039060005260206000200160006040518060400160405280600781526020017f2330306666303000000000000000000000000000000000000000000000000000815250909190915090805190602001906200048392919062000b1a565b50601180600181540180825580915050600190039060005260206000200160006040518060400160405280600781526020017f233030303066660000000000000000000000000000000000000000000000000081525090919091509080519060200190620004f392919062000b1a565b50565b60005b600f548110156200057457601060116000815481106200051557fe5b906000526020600020019080600181540180825580915050600190039060005260206000200160009091909190915090805460018160011615610100020316600290046200056592919062000bb1565b508080600101915050620004f9565b50565b60005b600f548110156200066757620006598160116001600385816200059957fe5b060181548110620005a657fe5b906000526020600020018054600181600116156101000203166002900480601f016020809104026020016040519081016040528092919081815260200182805460018160011615610100020316600290048015620006485780601f106200061c5761010080835404028352916020019162000648565b820191906000526020600020905b8154815290600101906020018083116200062a57829003601f168201915b50505050506200081c60201b60201c565b80806001019150506200057a565b50565b60608060116001815481106200067c57fe5b906000526020600020016040516020018080620048e76025913960250182805460018160011615610100020316600290048015620006f45780601f10620006d1576101008083540402835291820191620006f4565b820191906000526020600020905b815481529060010190602001808311620006df575b505080620048c46023913960230191505060405160208183030381529060405260405160200180807f3c7376672077696474683d2731303027206865696768743d27313030273e0000815250601e0182805190602001908083835b602083106200077457805182526020820191506020810190506020830392506200074f565b6001836020036101000a038019825116818451168082178552505050505050905001807f3c2f7376673e000000000000000000000000000000000000000000000000000081525060060191505060405160208183030381529060405290503373ffffffffffffffffffffffffffffffffffffffff167fae5048a1a8e1b14b7dffb0257edb68c04b03b7e1a27b297cef49326759a2494d60405160405180910390a28091505090565b6200082c6200032c60201b60201c565b73ffffffffffffffffffffffffffffffffffffffff166200085262000af060201b60201c565b73ffffffffffffffffffffffffffffffffffffffff1614620008dc576040517f08c379a00000000000000000000000000000000000000000000000000000000081526004018080602001828103825260208152602001807f4f776e61626c653a2063616c6c6572206973206e6f7420746865206f776e657281525060200191505060405180910390fd5b606060108381548110620008ec57fe5b906000526020600020018054600181600116156101000203166002900480601f0160208091040260200160405190810160405280929190818152602001828054600181600116156101000203166002900480156200098e5780601f1062000962576101008083540402835291602001916200098e565b820191906000526020600020905b8154815290600101906020018083116200097057829003601f168201915b505050505090508160108481548110620009a457fe5b906000526020600020019080519060200190620009c392919062000b1a565b503373ffffffffffffffffffffffffffffffffffffffff16837f176ff2d12d5df6e831b6cdf0336d3d96822178d039bdba36513529961b81a67d8385604051808060200180602001838103835285818151815260200191508051906020019080838360005b8381101562000a4557808201518184015260208101905062000a28565b50505050905090810190601f16801562000a735780820380516001836020036101000a031916815260200191505b50838103825284818151815260200191508051906020019080838360005b8381101562000aae57808201518184015260208101905062000a91565b50505050905090810190601f16801562000adc5780820380516001836020036101000a031916815260200191505b5094505050505060405180910390a3505050565b6000600a60009054906101000a900473ffffffffffffffffffffffffffffffffffffffff16905090565b828054600181600116156101000203166002900490600052602060002090601f01602090048101928262000b52576000855562000b9e565b82601f1062000b6d57805160ff191683800117855562000b9e565b8280016001018555821562000b9e579182015b8281111562000b9d57825182559160200191906001019062000b80565b5b50905062000bad919062000c4f565b5090565b828054600181600116156101000203166002900490600052602060002090601f01602090048101928262000be9576000855562000c3c565b82601f1062000bfc578054855562000c3c565b8280016001018555821562000c3c57600052602060002091601f016020900482015b8281111562000c3b57825482559160010191906001019062000c1e565b5b50905062000c4b919062000c4f565b5090565b5b8082111562000c6a57600081600090555060010162000c50565b5090565b613c468062000c7e6000396000f3fe608060405234801561001057600080fd5b50600436106101c45760003560e01c80638da5cb5b116100f9578063bd11f69d11610097578063d85d3d2711610071578063d85d3d2714610cad578063e758e2f314610d68578063e985e9c514610e2d578063f2fde38b14610ea7576101c4565b8063bd11f69d14610ab8578063c87b56dd14610b5f578063d2ea1b7b14610c06576101c4565b8063a22cb465116100d3578063a22cb465146108c2578063a969e8a214610912578063ad711e9e14610930578063b88d4fde146109b3576101c4565b80638da5cb5b146107645780638da7f2321461079857806395d89b411461083f576101c4565b806342842e0e116101665780636c0360eb116101405780636c0360eb1461054b57806370a08231146105ce578063715018a6146106265780637707f21414610630576101c4565b806342842e0e146104435780634f6ccce7146104b15780636352211e146104f3576101c4565b8063095ea7b3116101a2578063095ea7b31461030757806318160ddd1461035557806323b872dd146103735780632f745c59146103e1576101c4565b806301ffc9a7146101c957806306fdde031461022c578063081812fc146102af575b600080fd5b610214600480360360208110156101df57600080fd5b8101908080357bffffffffffffffffffffffffffffffffffffffffffffffffffffffff19169060200190929190505050610eeb565b60405180821515815260200191505060405180910390f35b610234610f52565b6040518080602001828103825283818151815260200191508051906020019080838360005b83811015610274578082015181840152602081019050610259565b50505050905090810190601f1680156102a15780820380516001836020036101000a031916815260200191505b509250505060405180910390f35b6102db600480360360208110156102c557600080fd5b8101908080359060200190929190505050610ff4565b604051808273ffffffffffffffffffffffffffffffffffffffff16815260200191505060405180910390f35b6103536004803603604081101561031d57600080fd5b81019080803573ffffffffffffffffffffffffffffffffffffffff1690602001909291908035906020019092919050505061108f565b005b61035d6111d3565b6040518082815260200191505060405180910390f35b6103df6004803603606081101561038957600080fd5b81019080803573ffffffffffffffffffffffffffffffffffffffff169060200190929190803573ffffffffffffffffffffffffffffffffffffffff169060200190929190803590602001909291905050506111e4565b005b61042d600480360360408110156103f757600080fd5b81019080803573ffffffffffffffffffffffffffffffffffffffff1690602001909291908035906020019092919050505061125a565b6040518082815260200191505060405180910390f35b6104af6004803603606081101561045957600080fd5b81019080803573ffffffffffffffffffffffffffffffffffffffff169060200190929190803573ffffffffffffffffffffffffffffffffffffffff169060200190929190803590602001909291905050506112b5565b005b6104dd600480360360208110156104c757600080fd5b81019080803590602001909291905050506112d5565b6040518082815260200191505060405180910390f35b61051f6004803603602081101561050957600080fd5b81019080803590602001909291905050506112f8565b604051808273ffffffffffffffffffffffffffffffffffffffff16815260200191505060405180910390f35b61055361132f565b6040518080602001828103825283818151815260200191508051906020019080838360005b83811015610593578082015181840152602081019050610578565b50505050905090810190601f1680156105c05780820380516001836020036101000a031916815260200191505b509250505060405180910390f35b610610600480360360208110156105e457600080fd5b81019080803573ffffffffffffffffffffffffffffffffffffffff1690602001909291905050506113d1565b6040518082815260200191505060405180910390f35b61062e6114a6565b005b6106e96004803603602081101561064657600080fd5b810190808035906020019064010000000081111561066357600080fd5b82018360208201111561067557600080fd5b8035906020019184600183028401116401000000008311171561069757600080fd5b91908080601f016020809104026020016040519081016040528093929190818152602001838380828437600081840152601f19601f820116905080830192505050505050509192919290505050611616565b6040518080602001828103825283818151815260200191508051906020019080838360005b8381101561072957808201518184015260208101905061070e565b50505050905090810190601f1680156107565780820380516001836020036101000a031916815260200191505b509250505060405180910390f35b61076c611620565b604051808273ffffffffffffffffffffffffffffffffffffffff16815260200191505060405180910390f35b6107c4600480360360208110156107ae57600080fd5b810190808035906020019092919050505061164a565b6040518080602001828103825283818151815260200191508051906020019080838360005b838110156108045780820151818401526020810190506107e9565b50505050905090810190601f1680156108315780820380516001836020036101000a031916815260200191505b509250505060405180910390f35b610847611706565b6040518080602001828103825283818151815260200191508051906020019080838360005b8381101561088757808201518184015260208101905061086c565b50505050905090810190601f1680156108b45780820380516001836020036101000a031916815260200191505b509250505060405180910390f35b610910600480360360408110156108d857600080fd5b81019080803573ffffffffffffffffffffffffffffffffffffffff1690602001909291908035151590602001909291905050506117a8565b005b61091a61195e565b6040518082815260200191505060405180910390f35b610938611968565b6040518080602001828103825283818151815260200191508051906020019080838360005b8381101561097857808201518184015260208101905061095d565b50505050905090810190601f1680156109a55780820380516001836020036101000a031916815260200191505b509250505060405180910390f35b610ab6600480360360808110156109c957600080fd5b81019080803573ffffffffffffffffffffffffffffffffffffffff169060200190929190803573ffffffffffffffffffffffffffffffffffffffff1690602001909291908035906020019092919080359060200190640100000000811115610a3057600080fd5b820183602082011115610a4257600080fd5b80359060200191846001830284011164010000000083111715610a6457600080fd5b91908080601f016020809104026020016040519081016040528093929190818152602001838380828437600081840152601f19601f820116905080830192505050505050509192919290505050611b11565b005b610ae460048036036020811015610ace57600080fd5b8101908080359060200190929190505050611b89565b6040518080602001828103825283818151815260200191508051906020019080838360005b83811015610b24578082015181840152602081019050610b09565b50505050905090810190601f168015610b515780820380516001836020036101000a031916815260200191505b509250505060405180910390f35b610b8b60048036036020811015610b7557600080fd5b8101908080359060200190929190505050611c45565b6040518080602001828103825283818151815260200191508051906020019080838360005b83811015610bcb578082015181840152602081019050610bb0565b50505050905090810190601f168015610bf85780820380516001836020036101000a031916815260200191505b509250505060405180910390f35b610c3260048036036020811015610c1c57600080fd5b8101908080359060200190929190505050611f16565b6040518080602001828103825283818151815260200191508051906020019080838360005b83811015610c72578082015181840152602081019050610c57565b50505050905090810190601f168015610c9f5780820380516001836020036101000a031916815260200191505b509250505060405180910390f35b610d6660048036036020811015610cc357600080fd5b8101908080359060200190640100000000811115610ce057600080fd5b820183602082011115610cf257600080fd5b80359060200191846001830284011164010000000083111715610d1457600080fd5b91908080601f016020809104026020016040519081016040528093929190818152602001838380828437600081840152601f19601f820116905080830192505050505050509192919290505050611fd2565b005b610e2b60048036036040811015610d7e57600080fd5b810190808035906020019092919080359060200190640100000000811115610da557600080fd5b820183602082011115610db757600080fd5b80359060200191846001830284011164010000000083111715610dd957600080fd5b91908080601f016020809104026020016040519081016040528093929190818152602001838380828437600081840152601f19601f82011690508083019250505050505050919291929050505061212c565b005b610e8f60048036036040811015610e4357600080fd5b81019080803573ffffffffffffffffffffffffffffffffffffffff169060200190929190803573ffffffffffffffffffffffffffffffffffffffff1690602001909291905050506123e1565b60405180821515815260200191505060405180910390f35b610ee960048036036020811015610ebd57600080fd5b81019080803573ffffffffffffffffffffffffffffffffffffffff169060200190929190505050612475565b005b6000806000837bffffffffffffffffffffffffffffffffffffffffffffffffffffffff19167bffffffffffffffffffffffffffffffffffffffffffffffffffffffff1916815260200190815260200160002060009054906101000a900460ff169050919050565b606060068054600181600116156101000203166002900480601f016020809104026020016040519081016040528092919081815260200182805460018160011615610100020316600290048015610fea5780601f10610fbf57610100808354040283529160200191610fea565b820191906000526020600020905b815481529060010190602001808311610fcd57829003601f168201915b5050505050905090565b6000610fff8261266a565b611054576040517f08c379a000000000000000000000000000000000000000000000000000000000815260040180806020018281038252602c815260200180613b16602c913960400191505060405180910390fd5b6004600083815260200190815260200160002060009054906101000a900473ffffffffffffffffffffffffffffffffffffffff169050919050565b600061109a826112f8565b90508073ffffffffffffffffffffffffffffffffffffffff168373ffffffffffffffffffffffffffffffffffffffff161415611121576040517f08c379a0000000000000000000000000000000000000000000000000000000008152600401808060200182810382526021815260200180613bbf6021913960400191505060405180910390fd5b8073ffffffffffffffffffffffffffffffffffffffff16611140612687565b73ffffffffffffffffffffffffffffffffffffffff16148061116f575061116e81611169612687565b6123e1565b5b6111c4576040517f08c379a0000000000000000000000000000000000000000000000000000000008152600401808060200182810382526038815260200180613a696038913960400191505060405180910390fd5b6111ce838361268f565b505050565b60006111df6002612748565b905090565b6111f56111ef612687565b8261275d565b61124a576040517f08c379a0000000000000000000000000000000000000000000000000000000008152600401808060200182810382526031815260200180613be06031913960400191505060405180910390fd5b611255838383612851565b505050565b60006112ad82600160008673ffffffffffffffffffffffffffffffffffffffff1673ffffffffffffffffffffffffffffffffffffffff168152602001908152602001600020612a9490919063ffffffff16565b905092915050565b6112d083838360405180602001604052806000815250611b11565b505050565b6000806112ec836002612aae90919063ffffffff16565b50905080915050919050565b600061132882604051806060016040528060298152602001613acb602991396002612ada9092919063ffffffff16565b9050919050565b606060098054600181600116156101000203166002900480601f0160208091040260200160405190810160405280929190818152602001828054600181600116156101000203166002900480156113c75780601f1061139c576101008083540402835291602001916113c7565b820191906000526020600020905b8154815290600101906020018083116113aa57829003601f168201915b5050505050905090565b60008073ffffffffffffffffffffffffffffffffffffffff168273ffffffffffffffffffffffffffffffffffffffff161415611458576040517f08c379a000000000000000000000000000000000000000000000000000000000815260040180806020018281038252602a815260200180613aa1602a913960400191505060405180910390fd5b61149f600160008473ffffffffffffffffffffffffffffffffffffffff1673ffffffffffffffffffffffffffffffffffffffff168152602001908152602001600020612af9565b9050919050565b6114ae612687565b73ffffffffffffffffffffffffffffffffffffffff166114cc611620565b73ffffffffffffffffffffffffffffffffffffffff1614611555576040517f08c379a00000000000000000000000000000000000000000000000000000000081526004018080602001828103825260208152602001807f4f776e61626c653a2063616c6c6572206973206e6f7420746865206f776e657281525060200191505060405180910390fd5b600073ffffffffffffffffffffffffffffffffffffffff16600a60009054906101000a900473ffffffffffffffffffffffffffffffffffffffff1673ffffffffffffffffffffffffffffffffffffffff167f8be0079c531659141344cd1fd0a4f28419497f9722a3daafe3b4186f6b6457e060405160405180910390a36000600a60006101000a81548173ffffffffffffffffffffffffffffffffffffffff021916908373ffffffffffffffffffffffffffffffffffffffff160217905550565b6060819050919050565b6000600a60009054906101000a900473ffffffffffffffffffffffffffffffffffffffff16905090565b6010818154811061165a57600080fd5b906000526020600020016000915090508054600181600116156101000203166002900480601f0160208091040260200160405190810160405280929190818152602001828054600181600116156101000203166002900480156116fe5780601f106116d3576101008083540402835291602001916116fe565b820191906000526020600020905b8154815290600101906020018083116116e157829003601f168201915b505050505081565b606060078054600181600116156101000203166002900480601f01602080910402602001604051908101604052809291908181526020018280546001816001161561010002031660029004801561179e5780601f106117735761010080835404028352916020019161179e565b820191906000526020600020905b81548152906001019060200180831161178157829003601f168201915b5050505050905090565b6117b0612687565b73ffffffffffffffffffffffffffffffffffffffff168273ffffffffffffffffffffffffffffffffffffffff161415611851576040517f08c379a00000000000000000000000000000000000000000000000000000000081526004018080602001828103825260198152602001807f4552433732313a20617070726f766520746f2063616c6c65720000000000000081525060200191505060405180910390fd5b806005600061185e612687565b73ffffffffffffffffffffffffffffffffffffffff1673ffffffffffffffffffffffffffffffffffffffff16815260200190815260200160002060008473ffffffffffffffffffffffffffffffffffffffff1673ffffffffffffffffffffffffffffffffffffffff16815260200190815260200160002060006101000a81548160ff0219169083151502179055508173ffffffffffffffffffffffffffffffffffffffff1661190b612687565b73ffffffffffffffffffffffffffffffffffffffff167f17307eab39ab6107e8899845ad3d59bd9653f200f220920489ca2b5937696c318360405180821515815260200191505060405180910390a35050565b6000600c54905090565b606080601160018154811061197957fe5b906000526020600020016040516020018080613b4260259139602501828054600181600116156101000203166002900480156119ec5780601f106119ca5761010080835404028352918201916119ec565b820191906000526020600020905b8154815290600101906020018083116119d8575b5050806139d06023913960230191505060405160208183030381529060405260405160200180807f3c7376672077696474683d2731303027206865696768743d27313030273e0000815250601e0182805190602001908083835b60208310611a695780518252602082019150602081019050602083039250611a46565b6001836020036101000a038019825116818451168082178552505050505050905001807f3c2f7376673e000000000000000000000000000000000000000000000000000081525060060191505060405160208183030381529060405290503373ffffffffffffffffffffffffffffffffffffffff167fae5048a1a8e1b14b7dffb0257edb68c04b03b7e1a27b297cef49326759a2494d60405160405180910390a28091505090565b611b22611b1c612687565b8361275d565b611b77576040517f08c379a0000000000000000000000000000000000000000000000000000000008152600401808060200182810382526031815260200180613be06031913960400191505060405180910390fd5b611b8384848484612b0e565b50505050565b600b8181548110611b9957600080fd5b906000526020600020016000915090508054600181600116156101000203166002900480601f016020809104026020016040519081016040528092919081815260200182805460018160011615610100020316600290048015611c3d5780601f10611c1257610100808354040283529160200191611c3d565b820191906000526020600020905b815481529060010190602001808311611c2057829003601f168201915b505050505081565b6060611c508261266a565b611ca5576040517f08c379a000000000000000000000000000000000000000000000000000000000815260040180806020018281038252602f815260200180613b90602f913960400191505060405180910390fd5b6060600860008481526020019081526020016000208054600181600116156101000203166002900480601f016020809104026020016040519081016040528092919081815260200182805460018160011615610100020316600290048015611d4e5780601f10611d2357610100808354040283529160200191611d4e565b820191906000526020600020905b815481529060010190602001808311611d3157829003601f168201915b505050505090506060611d5f61132f565b9050600081511415611d75578192505050611f11565b600082511115611e465780826040516020018083805190602001908083835b60208310611db75780518252602082019150602081019050602083039250611d94565b6001836020036101000a03801982511681845116808217855250505050505090500182805190602001908083835b60208310611e085780518252602082019150602081019050602083039250611de5565b6001836020036101000a0380198251168184511680821785525050505050509050019250505060405160208183030381529060405292505050611f11565b80611e5085612b80565b6040516020018083805190602001908083835b60208310611e865780518252602082019150602081019050602083039250611e63565b6001836020036101000a03801982511681845116808217855250505050505090500182805190602001908083835b60208310611ed75780518252602082019150602081019050602083039250611eb4565b6001836020036101000a03801982511681845116808217855250505050505090500192505050604051602081830303815290604052925050505b919050565b60118181548110611f2657600080fd5b906000526020600020016000915090508054600181600116156101000203166002900480601f016020809104026020016040519081016040528092919081815260200182805460018160011615610100020316600290048015611fca5780601f10611f9f57610100808354040283529160200191611fca565b820191906000526020600020905b815481529060010190602001808311611fad57829003601f168201915b505050505081565b6012816040518082805190602001908083835b602083106120085780518252602082019150602081019050602083039250611fe5565b6001836020036101000a038019825116818451168082178552505050505050905001915050908152602001604051809103902060009054906101000a900460ff161561205357600080fd5b600b8190806001815401808255809150506001900390600052602060002001600090919091909150908051906020019061208e9291906138aa565b5060006001600b805490500390506120a63382612cc7565b60016012836040518082805190602001908083835b602083106120de57805182526020820191506020810190506020830392506120bb565b6001836020036101000a038019825116818451168082178552505050505050905001915050908152602001604051809103902060006101000a81548160ff0219169083151502179055505050565b612134612687565b73ffffffffffffffffffffffffffffffffffffffff16612152611620565b73ffffffffffffffffffffffffffffffffffffffff16146121db576040517f08c379a00000000000000000000000000000000000000000000000000000000081526004018080602001828103825260208152602001807f4f776e61626c653a2063616c6c6572206973206e6f7420746865206f776e657281525060200191505060405180910390fd5b6060601083815481106121ea57fe5b906000526020600020018054600181600116156101000203166002900480601f0160208091040260200160405190810160405280929190818152602001828054600181600116156101000203166002900480156122885780601f1061225d57610100808354040283529160200191612288565b820191906000526020600020905b81548152906001019060200180831161226b57829003601f168201915b50505050509050816010848154811061229d57fe5b9060005260206000200190805190602001906122ba9291906138aa565b503373ffffffffffffffffffffffffffffffffffffffff16837f176ff2d12d5df6e831b6cdf0336d3d96822178d039bdba36513529961b81a67d8385604051808060200180602001838103835285818151815260200191508051906020019080838360005b8381101561233a57808201518184015260208101905061231f565b50505050905090810190601f1680156123675780820380516001836020036101000a031916815260200191505b50838103825284818151815260200191508051906020019080838360005b838110156123a0578082015181840152602081019050612385565b50505050905090810190601f1680156123cd5780820380516001836020036101000a031916815260200191505b5094505050505060405180910390a3505050565b6000600560008473ffffffffffffffffffffffffffffffffffffffff1673ffffffffffffffffffffffffffffffffffffffff16815260200190815260200160002060008373ffffffffffffffffffffffffffffffffffffffff1673ffffffffffffffffffffffffffffffffffffffff16815260200190815260200160002060009054906101000a900460ff16905092915050565b61247d612687565b73ffffffffffffffffffffffffffffffffffffffff1661249b611620565b73ffffffffffffffffffffffffffffffffffffffff1614612524576040517f08c379a00000000000000000000000000000000000000000000000000000000081526004018080602001828103825260208152602001807f4f776e61626c653a2063616c6c6572206973206e6f7420746865206f776e657281525060200191505060405180910390fd5b600073ffffffffffffffffffffffffffffffffffffffff168173ffffffffffffffffffffffffffffffffffffffff1614156125aa576040517f08c379a00000000000000000000000000000000000000000000000000000000081526004018080602001828103825260268152602001806139aa6026913960400191505060405180910390fd5b8073ffffffffffffffffffffffffffffffffffffffff16600a60009054906101000a900473ffffffffffffffffffffffffffffffffffffffff1673ffffffffffffffffffffffffffffffffffffffff167f8be0079c531659141344cd1fd0a4f28419497f9722a3daafe3b4186f6b6457e060405160405180910390a380600a60006101000a81548173ffffffffffffffffffffffffffffffffffffffff021916908373ffffffffffffffffffffffffffffffffffffffff16021790555050565b6000612680826002612ebb90919063ffffffff16565b9050919050565b600033905090565b816004600083815260200190815260200160002060006101000a81548173ffffffffffffffffffffffffffffffffffffffff021916908373ffffffffffffffffffffffffffffffffffffffff160217905550808273ffffffffffffffffffffffffffffffffffffffff16612702836112f8565b73ffffffffffffffffffffffffffffffffffffffff167f8c5be1e5ebec7d5bd14f71427d1e84f3dd0314c0f7b2291e5b200ac8c7c3b92560405160405180910390a45050565b600061275682600001612ed5565b9050919050565b60006127688261266a565b6127bd576040517f08c379a000000000000000000000000000000000000000000000000000000000815260040180806020018281038252602c815260200180613a3d602c913960400191505060405180910390fd5b60006127c8836112f8565b90508073ffffffffffffffffffffffffffffffffffffffff168473ffffffffffffffffffffffffffffffffffffffff16148061283757508373ffffffffffffffffffffffffffffffffffffffff1661281f84610ff4565b73ffffffffffffffffffffffffffffffffffffffff16145b80612848575061284781856123e1565b5b91505092915050565b8273ffffffffffffffffffffffffffffffffffffffff16612871826112f8565b73ffffffffffffffffffffffffffffffffffffffff16146128dd576040517f08c379a0000000000000000000000000000000000000000000000000000000008152600401808060200182810382526029815260200180613b676029913960400191505060405180910390fd5b600073ffffffffffffffffffffffffffffffffffffffff168273ffffffffffffffffffffffffffffffffffffffff161415612963576040517f08c379a00000000000000000000000000000000000000000000000000000000081526004018080602001828103825260248152602001806139f36024913960400191505060405180910390fd5b61296e838383612ee6565b61297960008261268f565b6129ca81600160008673ffffffffffffffffffffffffffffffffffffffff1673ffffffffffffffffffffffffffffffffffffffff168152602001908152602001600020612eeb90919063ffffffff16565b50612a1c81600160008573ffffffffffffffffffffffffffffffffffffffff1673ffffffffffffffffffffffffffffffffffffffff168152602001908152602001600020612f0590919063ffffffff16565b50612a3381836002612f1f9092919063ffffffff16565b50808273ffffffffffffffffffffffffffffffffffffffff168473ffffffffffffffffffffffffffffffffffffffff167fddf252ad1be2c89b69c2b068fc378daa952ba7f163c4a11628f55a4df523b3ef60405160405180910390a4505050565b6000612aa38360000183612f54565b60001c905092915050565b600080600080612ac18660000186612fd7565b915091508160001c8160001c9350935050509250929050565b6000612aed846000018460001b84613070565b60001c90509392505050565b6000612b0782600001613166565b9050919050565b612b19848484612851565b612b2584848484613177565b612b7a576040517f08c379a00000000000000000000000000000000000000000000000000000000081526004018080602001828103825260328152602001806139786032913960400191505060405180910390fd5b50505050565b60606000821415612bc8576040518060400160405280600181526020017f30000000000000000000000000000000000000000000000000000000000000008152509050612cc2565b600082905060005b60008214612bf2578080600101915050600a8281612bea57fe5b049150612bd0565b60608167ffffffffffffffff81118015612c0b57600080fd5b506040519080825280601f01601f191660200182016040528015612c3e5781602001600182028036833780820191505090505b50905060006001830390508593505b60008414612cba57600a8481612c5f57fe5b0660300160f81b82828060019003935081518110612c7957fe5b60200101907effffffffffffffffffffffffffffffffffffffffffffffffffffffffffffff1916908160001a905350600a8481612cb257fe5b049350612c4d565b819450505050505b919050565b600073ffffffffffffffffffffffffffffffffffffffff168273ffffffffffffffffffffffffffffffffffffffff161415612d6a576040517f08c379a00000000000000000000000000000000000000000000000000000000081526004018080602001828103825260208152602001807f4552433732313a206d696e7420746f20746865207a65726f206164647265737381525060200191505060405180910390fd5b612d738161266a565b15612de6576040517f08c379a000000000000000000000000000000000000000000000000000000000815260040180806020018281038252601c8152602001807f4552433732313a20746f6b656e20616c7265616479206d696e7465640000000081525060200191505060405180910390fd5b612df260008383612ee6565b612e4381600160008573ffffffffffffffffffffffffffffffffffffffff1673ffffffffffffffffffffffffffffffffffffffff168152602001908152602001600020612f0590919063ffffffff16565b50612e5a81836002612f1f9092919063ffffffff16565b50808273ffffffffffffffffffffffffffffffffffffffff16600073ffffffffffffffffffffffffffffffffffffffff167fddf252ad1be2c89b69c2b068fc378daa952ba7f163c4a11628f55a4df523b3ef60405160405180910390a45050565b6000612ecd836000018360001b613390565b905092915050565b600081600001805490509050919050565b505050565b6000612efd836000018360001b6133b3565b905092915050565b6000612f17836000018360001b61349b565b905092915050565b6000612f4b846000018460001b8473ffffffffffffffffffffffffffffffffffffffff1660001b61350b565b90509392505050565b600081836000018054905011612fb5576040517f08c379a00000000000000000000000000000000000000000000000000000000081526004018080602001828103825260228152602001806139566022913960400191505060405180910390fd5b826000018281548110612fc457fe5b9060005260206000200154905092915050565b60008082846000018054905011613039576040517f08c379a0000000000000000000000000000000000000000000000000000000008152600401808060200182810382526022815260200180613af46022913960400191505060405180910390fd5b600084600001848154811061304a57fe5b906000526020600020906002020190508060000154816001015492509250509250929050565b60008084600101600085815260200190815260200160002054905060008114158390613137576040517f08c379a00000000000000000000000000000000000000000000000000000000081526004018080602001828103825283818151815260200191508051906020019080838360005b838110156130fc5780820151818401526020810190506130e1565b50505050905090810190601f1680156131295780820380516001836020036101000a031916815260200191505b509250505060405180910390fd5b5084600001600182038154811061314a57fe5b9060005260206000209060020201600101549150509392505050565b600081600001805490509050919050565b60006131988473ffffffffffffffffffffffffffffffffffffffff166135e7565b6131a55760019050613388565b606061330f63150b7a0260e01b6131ba612687565b888787604051602401808573ffffffffffffffffffffffffffffffffffffffff1681526020018473ffffffffffffffffffffffffffffffffffffffff16815260200183815260200180602001828103825283818151815260200191508051906020019080838360005b8381101561323e578082015181840152602081019050613223565b50505050905090810190601f16801561326b5780820380516001836020036101000a031916815260200191505b5095505050505050604051602081830303815290604052907bffffffffffffffffffffffffffffffffffffffffffffffffffffffff19166020820180517bffffffffffffffffffffffffffffffffffffffffffffffffffffffff8381831617835250505050604051806060016040528060328152602001613978603291398773ffffffffffffffffffffffffffffffffffffffff166135fa9092919063ffffffff16565b9050600081806020019051602081101561332857600080fd5b8101908080519060200190929190505050905063150b7a0260e01b7bffffffffffffffffffffffffffffffffffffffffffffffffffffffff1916817bffffffffffffffffffffffffffffffffffffffffffffffffffffffff191614925050505b949350505050565b600080836001016000848152602001908152602001600020541415905092915050565b6000808360010160008481526020019081526020016000205490506000811461348f57600060018203905060006001866000018054905003905060008660000182815481106133fe57fe5b906000526020600020015490508087600001848154811061341b57fe5b906000526020600020018190555060018301876001016000838152602001908152602001600020819055508660000180548061345357fe5b60019003818190600052602060002001600090559055866001016000878152602001908152602001600020600090556001945050505050613495565b60009150505b92915050565b60006134a78383613612565b613500578260000182908060018154018082558091505060019003906000526020600020016000909190919091505582600001805490508360010160008481526020019081526020016000208190555060019050613505565b600090505b92915050565b60008084600101600085815260200190815260200160002054905060008114156135b2578460000160405180604001604052808681526020018581525090806001815401808255809150506001900390600052602060002090600202016000909190919091506000820151816000015560208201518160010155505084600001805490508560010160008681526020019081526020016000208190555060019150506135e0565b828560000160018303815481106135c557fe5b90600052602060002090600202016001018190555060009150505b9392505050565b600080823b905060008111915050919050565b60606136098484600085613635565b90509392505050565b600080836001016000848152602001908152602001600020541415905092915050565b606082471015613690576040517f08c379a0000000000000000000000000000000000000000000000000000000008152600401808060200182810382526026815260200180613a176026913960400191505060405180910390fd5b613699856135e7565b61370b576040517f08c379a000000000000000000000000000000000000000000000000000000000815260040180806020018281038252601d8152602001807f416464726573733a2063616c6c20746f206e6f6e2d636f6e747261637400000081525060200191505060405180910390fd5b600060608673ffffffffffffffffffffffffffffffffffffffff1685876040518082805190602001908083835b6020831061375b5780518252602082019150602081019050602083039250613738565b6001836020036101000a03801982511681845116808217855250505050505090500191505060006040518083038185875af1925050503d80600081146137bd576040519150601f19603f3d011682016040523d82523d6000602084013e6137c2565b606091505b50915091506137d28282866137de565b92505050949350505050565b606083156137ee578290506138a3565b6000835111156138015782518084602001fd5b816040517f08c379a00000000000000000000000000000000000000000000000000000000081526004018080602001828103825283818151815260200191508051906020019080838360005b8381101561386857808201518184015260208101905061384d565b50505050905090810190601f1680156138955780820380516001836020036101000a031916815260200191505b509250505060405180910390fd5b9392505050565b828054600181600116156101000203166002900490600052602060002090601f0160209004810192826138e05760008555613927565b82601f106138f957805160ff1916838001178555613927565b82800160010185558215613927579182015b8281111561392657825182559160200191906001019061390b565b5b5090506139349190613938565b5090565b5b80821115613951576000816000905550600101613939565b509056fe456e756d657261626c655365743a20696e646578206f7574206f6620626f756e64734552433732313a207472616e7366657220746f206e6f6e20455243373231526563656976657220696d706c656d656e7465724f776e61626c653a206e6577206f776e657220697320746865207a65726f206164647265737327207374726f6b652d77696474683d273927207374726f6b653d27626c61636b272f3e4552433732313a207472616e7366657220746f20746865207a65726f2061646472657373416464726573733a20696e73756666696369656e742062616c616e636520666f722063616c6c4552433732313a206f70657261746f7220717565727920666f72206e6f6e6578697374656e7420746f6b656e4552433732313a20617070726f76652063616c6c6572206973206e6f74206f776e6572206e6f7220617070726f76656420666f7220616c6c4552433732313a2062616c616e636520717565727920666f7220746865207a65726f20616464726573734552433732313a206f776e657220717565727920666f72206e6f6e6578697374656e7420746f6b656e456e756d657261626c654d61703a20696e646578206f7574206f6620626f756e64734552433732313a20617070726f76656420717565727920666f72206e6f6e6578697374656e7420746f6b656e3c636972636c652063783d273530272063793d2735302720723d273230272066696c6c3d274552433732313a207472616e73666572206f6620746f6b656e2074686174206973206e6f74206f776e4552433732314d657461646174613a2055524920717565727920666f72206e6f6e6578697374656e7420746f6b656e4552433732313a20617070726f76616c20746f2063757272656e74206f776e65724552433732313a207472616e736665722063616c6c6572206973206e6f74206f776e6572206e6f7220617070726f766564a264697066735822122014204b78d7ae40461ae0055929050a194c7ced9aa9bde726e0d6501e3529e50564736f6c6343000704003327207374726f6b652d77696474683d273927207374726f6b653d27626c61636b272f3e3c636972636c652063783d273530272063793d2735302720723d273230272066696c6c3d27",
  "immutableReferences": {},
  "source": "pragma solidity ^0.7.4;\r\n\r\nimport \"@openzeppelin/contracts/token/ERC721/ERC721.sol\";\r\nimport \"@openzeppelin/contracts/access/Ownable.sol\";\r\n\r\ncontract Color is ERC721,Ownable {\r\n\r\n\tstring[] public colors;\r\n  \tuint junk = 10;\r\n  \tuint nPixX=3;\r\n  \tuint nPixY=3;\r\n  \tuint nPix=nPixX*nPixY;\r\n  \tstring[] public pixels;\r\n  \tstring[] public pallet; \r\n\r\n\r\n\tmapping(string => bool) _colorExists;\r\n\tevent PixelChanged(uint indexed changedPixel, string from, string to, address indexed by);\r\n\tevent ClearCanvas(address indexed by);\r\n\tevent ResetCanvas(address indexed by);\r\n\tevent SVGgenerated(address indexed by);\r\n\t\r\n\t\r\n\tconstructor() ERC721(\"Color\", \"COLOR\") public {\r\n\t\tbuildLut();\r\n\t\tbuildCanvas();\r\n\t\tpaintCanvas();\r\n\t\tgenerateSVG();\r\n  \t}\r\n\r\n  \tfunction buildLut() private   {\r\n  \t\tpallet.push(\"#000000\");\r\n  \t\tpallet.push(\"#ff0000\");\r\n\t\tpallet.push(\"#00ff00\");\r\n\t\tpallet.push(\"#0000ff\");\r\n  \t}\r\n\r\n  \tfunction buildCanvas () private {\r\n  \t\tfor(uint p=0; p<nPix; p++){\r\n\r\n\t\t\t// pixels[p]=pallet[0];\r\n\t\t\t// pixels[0]=\"ack\";\r\n\t\t\tpixels.push(pallet[0]);\r\n\r\n\t\t}\t\r\n  \t}\r\n  \t\r\n\r\n\tfunction paintCanvas () private   {\r\n\t\t// uint i=0;\r\n\t\tfor(uint p=0; p<nPix; p++){\r\n\r\n\t\t\tsetPixel(p,pallet[(p%3)+1]);\r\n\t\t\t// setPixel(p,\"dick\");\r\n\r\n\t\t}\t\r\n\r\n\t}\r\n\r\n\r\n\tfunction setPixel(uint  _pixn, string memory _pixcolor) public onlyOwner {\r\n\t\tstring memory  _priorColor=pixels[_pixn];\r\n\t\t// string memory  _priorColor=pixels[0];\r\n\t\tpixels[_pixn]=_pixcolor;\r\n\t\temit PixelChanged(_pixn,_priorColor,_pixcolor, msg.sender);\r\n\t\t\r\n\t}\r\n\t\r\n  \t\r\n\r\n\r\n\r\n  \tfunction generateSVG() public returns (string memory){\r\n  \t\t//returns the svg string of the canvas\r\n  \t\t    string memory svg = \r\n  \t\t    string(\r\n  \t\t    \tabi.encodePacked(\r\n            \t\t\t\t\t\"<svg width='100' height='100'>\", \r\n            \t\t\t\t\tstring(\r\n            \t\t\t\t\t\t  abi.encodePacked(\"<circle cx='50' cy='50' r='20' fill='\",pallet[1],\"' stroke-width='9' stroke='black'/>\")\r\n            \t\t\t\t\t\t  ), \r\n            \"</svg>\"\r\n        \t\t)\r\n        \t);\r\n  \t\temit SVGgenerated(msg.sender);\r\n\r\n        return svg;\r\n  \t}\r\n  \t// function setPixelTick(uint memory _tick) public payable \r\n\r\n    // function totalSupply\r\n    function getjunk() public view returns(uint){\r\n      return junk;\r\n    }\r\n  \r\n\tfunction testReturn(string memory _color) public returns(string memory) {\r\n\t    // _mint(msg.sender, 1);\r\n\t    return _color;\r\n\t}\r\n\r\n\tfunction mint(string memory _color) public {\r\n\t  require(!_colorExists[_color]);\r\n\t  colors.push(_color);\r\n\t  uint _id = colors.length-1;\r\n\t  _mint(msg.sender, _id);\r\n\t  _colorExists[_color] = true;\r\n\t}\r\n\r\n}\r\n",
  "sourcePath": "H:/Expermental/nft/src/contracts/Color.sol",
  "compiler": {
    "name": "solc",
    "version": "0.7.4+commit.3f05b770.Emscripten.clang"
  },
  "schemaVersion": "3.3.4",
  "updatedAt": "2021-03-14T01:03:40.267Z",
  "networkType": "ethereum",
  "devdoc": {
    "kind": "dev",
    "methods": {
      "approve(address,uint256)": {
        "details": "See {IERC721-approve}."
      },
      "balanceOf(address)": {
        "details": "See {IERC721-balanceOf}."
      },
      "baseURI()": {
        "details": "Returns the base URI set via {_setBaseURI}. This will be automatically added as a prefix in {tokenURI} to each token's URI, or to the token ID if no specific URI is set for that token ID."
      },
      "getApproved(uint256)": {
        "details": "See {IERC721-getApproved}."
      },
      "isApprovedForAll(address,address)": {
        "details": "See {IERC721-isApprovedForAll}."
      },
      "name()": {
        "details": "See {IERC721Metadata-name}."
      },
      "owner()": {
        "details": "Returns the address of the current owner."
      },
      "ownerOf(uint256)": {
        "details": "See {IERC721-ownerOf}."
      },
      "renounceOwnership()": {
        "details": "Leaves the contract without owner. It will not be possible to call `onlyOwner` functions anymore. Can only be called by the current owner. NOTE: Renouncing ownership will leave the contract without an owner, thereby removing any functionality that is only available to the owner."
      },
      "safeTransferFrom(address,address,uint256)": {
        "details": "See {IERC721-safeTransferFrom}."
      },
      "safeTransferFrom(address,address,uint256,bytes)": {
        "details": "See {IERC721-safeTransferFrom}."
      },
      "setApprovalForAll(address,bool)": {
        "details": "See {IERC721-setApprovalForAll}."
      },
      "supportsInterface(bytes4)": {
        "details": "See {IERC165-supportsInterface}. Time complexity O(1), guaranteed to always use less than 30 000 gas."
      },
      "symbol()": {
        "details": "See {IERC721Metadata-symbol}."
      },
      "tokenByIndex(uint256)": {
        "details": "See {IERC721Enumerable-tokenByIndex}."
      },
      "tokenOfOwnerByIndex(address,uint256)": {
        "details": "See {IERC721Enumerable-tokenOfOwnerByIndex}."
      },
      "tokenURI(uint256)": {
        "details": "See {IERC721Metadata-tokenURI}."
      },
      "totalSupply()": {
        "details": "See {IERC721Enumerable-totalSupply}."
      },
      "transferFrom(address,address,uint256)": {
        "details": "See {IERC721-transferFrom}."
      },
      "transferOwnership(address)": {
        "details": "Transfers ownership of the contract to a new account (`newOwner`). Can only be called by the current owner."
      }
    },
    "version": 1
  },
  "userdoc": {
    "kind": "user",
    "methods": {},
    "version": 1
  }
}