{
  "contractName": "Color",
  "abi": [
    {
      "inputs": [],
      "stateMutability": "nonpayable",
      "type": "constructor"
    },
    {
      "anonymous": false,
      "inputs": [
        {
          "indexed": true,
          "internalType": "address",
          "name": "owner",
          "type": "address"
        },
        {
          "indexed": true,
          "internalType": "address",
          "name": "approved",
          "type": "address"
        },
        {
          "indexed": true,
          "internalType": "uint256",
          "name": "tokenId",
          "type": "uint256"
        }
      ],
      "name": "Approval",
      "type": "event"
    },
    {
      "anonymous": false,
      "inputs": [
        {
          "indexed": true,
          "internalType": "address",
          "name": "owner",
          "type": "address"
        },
        {
          "indexed": true,
          "internalType": "address",
          "name": "operator",
          "type": "address"
        },
        {
          "indexed": false,
          "internalType": "bool",
          "name": "approved",
          "type": "bool"
        }
      ],
      "name": "ApprovalForAll",
      "type": "event"
    },
    {
      "anonymous": false,
      "inputs": [
        {
          "indexed": true,
          "internalType": "address",
          "name": "by",
          "type": "address"
        }
      ],
      "name": "ClearCanvas",
      "type": "event"
    },
    {
      "anonymous": false,
      "inputs": [
        {
          "indexed": true,
          "internalType": "uint256",
          "name": "tokenId",
          "type": "uint256"
        },
        {
          "indexed": true,
          "internalType": "address",
          "name": "mintedBy",
          "type": "address"
        },
        {
          "indexed": false,
          "internalType": "uint256",
          "name": "nEtherbrights",
          "type": "uint256"
        }
      ],
      "name": "EtherbrightMinted",
      "type": "event"
    },
    {
      "anonymous": false,
      "inputs": [
        {
          "indexed": true,
          "internalType": "uint256",
          "name": "tokenId",
          "type": "uint256"
        },
        {
          "indexed": false,
          "internalType": "uint256",
          "name": "pn",
          "type": "uint256"
        },
        {
          "indexed": false,
          "internalType": "string",
          "name": "from",
          "type": "string"
        },
        {
          "indexed": false,
          "internalType": "string",
          "name": "to",
          "type": "string"
        },
        {
          "indexed": true,
          "internalType": "address",
          "name": "by",
          "type": "address"
        }
      ],
      "name": "EtherbrightPixelChanged",
      "type": "event"
    },
    {
      "anonymous": false,
      "inputs": [
        {
          "indexed": true,
          "internalType": "address",
          "name": "previousOwner",
          "type": "address"
        },
        {
          "indexed": true,
          "internalType": "address",
          "name": "newOwner",
          "type": "address"
        }
      ],
      "name": "OwnershipTransferred",
      "type": "event"
    },
    {
      "anonymous": false,
      "inputs": [
        {
          "indexed": true,
          "internalType": "address",
          "name": "by",
          "type": "address"
        }
      ],
      "name": "ResetCanvas",
      "type": "event"
    },
    {
      "anonymous": false,
      "inputs": [
        {
          "indexed": false,
          "internalType": "uint8",
          "name": "selector",
          "type": "uint8"
        }
      ],
      "name": "Selector",
      "type": "event"
    },
    {
      "anonymous": false,
      "inputs": [
        {
          "indexed": true,
          "internalType": "address",
          "name": "from",
          "type": "address"
        },
        {
          "indexed": true,
          "internalType": "address",
          "name": "to",
          "type": "address"
        },
        {
          "indexed": true,
          "internalType": "uint256",
          "name": "tokenId",
          "type": "uint256"
        }
      ],
      "name": "Transfer",
      "type": "event"
    },
    {
      "inputs": [
        {
          "internalType": "address",
          "name": "to",
          "type": "address"
        },
        {
          "internalType": "uint256",
          "name": "tokenId",
          "type": "uint256"
        }
      ],
      "name": "approve",
      "outputs": [],
      "stateMutability": "nonpayable",
      "type": "function"
    },
    {
      "inputs": [
        {
          "internalType": "address",
          "name": "owner",
          "type": "address"
        }
      ],
      "name": "balanceOf",
      "outputs": [
        {
          "internalType": "uint256",
          "name": "",
          "type": "uint256"
        }
      ],
      "stateMutability": "view",
      "type": "function",
      "constant": true
    },
    {
      "inputs": [],
      "name": "baseURI",
      "outputs": [
        {
          "internalType": "string",
          "name": "",
          "type": "string"
        }
      ],
      "stateMutability": "view",
      "type": "function",
      "constant": true
    },
    {
      "inputs": [
        {
          "internalType": "uint256",
          "name": "tokenId",
          "type": "uint256"
        }
      ],
      "name": "getApproved",
      "outputs": [
        {
          "internalType": "address",
          "name": "",
          "type": "address"
        }
      ],
      "stateMutability": "view",
      "type": "function",
      "constant": true
    },
    {
      "inputs": [
        {
          "internalType": "address",
          "name": "owner",
          "type": "address"
        },
        {
          "internalType": "address",
          "name": "operator",
          "type": "address"
        }
      ],
      "name": "isApprovedForAll",
      "outputs": [
        {
          "internalType": "bool",
          "name": "",
          "type": "bool"
        }
      ],
      "stateMutability": "view",
      "type": "function",
      "constant": true
    },
    {
      "inputs": [],
      "name": "name",
      "outputs": [
        {
          "internalType": "string",
          "name": "",
          "type": "string"
        }
      ],
      "stateMutability": "view",
      "type": "function",
      "constant": true
    },
    {
      "inputs": [],
      "name": "numberOfEtherbrights",
      "outputs": [
        {
          "internalType": "uint256",
          "name": "",
          "type": "uint256"
        }
      ],
      "stateMutability": "view",
      "type": "function",
      "constant": true
    },
    {
      "inputs": [],
      "name": "owner",
      "outputs": [
        {
          "internalType": "address",
          "name": "",
          "type": "address"
        }
      ],
      "stateMutability": "view",
      "type": "function",
      "constant": true
    },
    {
      "inputs": [
        {
          "internalType": "uint256",
          "name": "tokenId",
          "type": "uint256"
        }
      ],
      "name": "ownerOf",
      "outputs": [
        {
          "internalType": "address",
          "name": "",
          "type": "address"
        }
      ],
      "stateMutability": "view",
      "type": "function",
      "constant": true
    },
    {
      "inputs": [],
      "name": "renounceOwnership",
      "outputs": [],
      "stateMutability": "nonpayable",
      "type": "function"
    },
    {
      "inputs": [
        {
          "internalType": "address",
          "name": "from",
          "type": "address"
        },
        {
          "internalType": "address",
          "name": "to",
          "type": "address"
        },
        {
          "internalType": "uint256",
          "name": "tokenId",
          "type": "uint256"
        }
      ],
      "name": "safeTransferFrom",
      "outputs": [],
      "stateMutability": "nonpayable",
      "type": "function"
    },
    {
      "inputs": [
        {
          "internalType": "address",
          "name": "from",
          "type": "address"
        },
        {
          "internalType": "address",
          "name": "to",
          "type": "address"
        },
        {
          "internalType": "uint256",
          "name": "tokenId",
          "type": "uint256"
        },
        {
          "internalType": "bytes",
          "name": "_data",
          "type": "bytes"
        }
      ],
      "name": "safeTransferFrom",
      "outputs": [],
      "stateMutability": "nonpayable",
      "type": "function"
    },
    {
      "inputs": [
        {
          "internalType": "address",
          "name": "operator",
          "type": "address"
        },
        {
          "internalType": "bool",
          "name": "approved",
          "type": "bool"
        }
      ],
      "name": "setApprovalForAll",
      "outputs": [],
      "stateMutability": "nonpayable",
      "type": "function"
    },
    {
      "inputs": [
        {
          "internalType": "bytes4",
          "name": "interfaceId",
          "type": "bytes4"
        }
      ],
      "name": "supportsInterface",
      "outputs": [
        {
          "internalType": "bool",
          "name": "",
          "type": "bool"
        }
      ],
      "stateMutability": "view",
      "type": "function",
      "constant": true
    },
    {
      "inputs": [],
      "name": "symbol",
      "outputs": [
        {
          "internalType": "string",
          "name": "",
          "type": "string"
        }
      ],
      "stateMutability": "view",
      "type": "function",
      "constant": true
    },
    {
      "inputs": [
        {
          "internalType": "uint256",
          "name": "index",
          "type": "uint256"
        }
      ],
      "name": "tokenByIndex",
      "outputs": [
        {
          "internalType": "uint256",
          "name": "",
          "type": "uint256"
        }
      ],
      "stateMutability": "view",
      "type": "function",
      "constant": true
    },
    {
      "inputs": [
        {
          "internalType": "address",
          "name": "owner",
          "type": "address"
        },
        {
          "internalType": "uint256",
          "name": "index",
          "type": "uint256"
        }
      ],
      "name": "tokenOfOwnerByIndex",
      "outputs": [
        {
          "internalType": "uint256",
          "name": "",
          "type": "uint256"
        }
      ],
      "stateMutability": "view",
      "type": "function",
      "constant": true
    },
    {
      "inputs": [
        {
          "internalType": "uint256",
          "name": "tokenId",
          "type": "uint256"
        }
      ],
      "name": "tokenURI",
      "outputs": [
        {
          "internalType": "string",
          "name": "",
          "type": "string"
        }
      ],
      "stateMutability": "view",
      "type": "function",
      "constant": true
    },
    {
      "inputs": [],
      "name": "totalSupply",
      "outputs": [
        {
          "internalType": "uint256",
          "name": "",
          "type": "uint256"
        }
      ],
      "stateMutability": "view",
      "type": "function",
      "constant": true
    },
    {
      "inputs": [
        {
          "internalType": "address",
          "name": "from",
          "type": "address"
        },
        {
          "internalType": "address",
          "name": "to",
          "type": "address"
        },
        {
          "internalType": "uint256",
          "name": "tokenId",
          "type": "uint256"
        }
      ],
      "name": "transferFrom",
      "outputs": [],
      "stateMutability": "nonpayable",
      "type": "function"
    },
    {
      "inputs": [
        {
          "internalType": "address",
          "name": "newOwner",
          "type": "address"
        }
      ],
      "name": "transferOwnership",
      "outputs": [],
      "stateMutability": "nonpayable",
      "type": "function"
    },
    {
      "inputs": [
        {
          "internalType": "address",
          "name": "to",
          "type": "address"
        }
      ],
      "name": "mintEtherbright",
      "outputs": [],
      "stateMutability": "nonpayable",
      "type": "function"
    },
    {
      "inputs": [
        {
          "internalType": "uint256",
          "name": "_tokenId",
          "type": "uint256"
        },
        {
          "internalType": "uint256",
          "name": "_pixn",
          "type": "uint256"
        },
        {
          "internalType": "uint256",
          "name": "_palletN",
          "type": "uint256"
        }
      ],
      "name": "setEtherbrightPixel",
      "outputs": [],
      "stateMutability": "nonpayable",
      "type": "function"
    },
    {
      "inputs": [
        {
          "internalType": "uint256",
          "name": "_tokenId",
          "type": "uint256"
        },
        {
          "internalType": "uint256",
          "name": "pn",
          "type": "uint256"
        }
      ],
      "name": "getEtherbrightPixelColor",
      "outputs": [
        {
          "internalType": "string",
          "name": "",
          "type": "string"
        }
      ],
      "stateMutability": "nonpayable",
      "type": "function"
    },
    {
      "inputs": [
        {
          "internalType": "uint256",
          "name": "_tokenId",
          "type": "uint256"
        }
      ],
      "name": "getEtherbrightPallet",
      "outputs": [
        {
          "internalType": "string[]",
          "name": "",
          "type": "string[]"
        }
      ],
      "stateMutability": "nonpayable",
      "type": "function"
    },
    {
      "inputs": [
        {
          "internalType": "uint256",
          "name": "_tokenId",
          "type": "uint256"
        }
      ],
      "name": "getEtherbrightPixels",
      "outputs": [
        {
          "internalType": "string[]",
          "name": "",
          "type": "string[]"
        }
      ],
      "stateMutability": "nonpayable",
      "type": "function"
    },
    {
      "inputs": [
        {
          "internalType": "uint256",
          "name": "_tokenId",
          "type": "uint256"
        }
      ],
      "name": "getEtherbrightMintPixels",
      "outputs": [
        {
          "internalType": "string[]",
          "name": "",
          "type": "string[]"
        }
      ],
      "stateMutability": "nonpayable",
      "type": "function"
    }
  ],
  "bytecode": "0x60806040526000600b556005600c556005600d55600d54600c5402600e553480156200002a57600080fd5b506040518060400160405280600581526020017f436f6c6f720000000000000000000000000000000000000000000000000000008152506040518060400160405280600581526020017f434f4c4f52000000000000000000000000000000000000000000000000000000815250620000af6301ffc9a760e01b620001e260201b60201c565b8160069080519060200190620000c7929190620002f3565b508060079080519060200190620000e0929190620002f3565b50620000f96380ac58cd60e01b620001e260201b60201c565b62000111635b5e139f60e01b620001e260201b60201c565b6200012963780e9d6360e01b620001e260201b60201c565b505060006200013d620002eb60201b60201c565b905080600a60006101000a81548173ffffffffffffffffffffffffffffffffffffffff021916908373ffffffffffffffffffffffffffffffffffffffff1602179055508073ffffffffffffffffffffffffffffffffffffffff16600073ffffffffffffffffffffffffffffffffffffffff167f8be0079c531659141344cd1fd0a4f28419497f9722a3daafe3b4186f6b6457e060405160405180910390a350620003a9565b63ffffffff60e01b817bffffffffffffffffffffffffffffffffffffffffffffffffffffffff191614156200027f576040517f08c379a000000000000000000000000000000000000000000000000000000000815260040180806020018281038252601c8152602001807f4552433136353a20696e76616c696420696e746572666163652069640000000081525060200191505060405180910390fd5b6001600080837bffffffffffffffffffffffffffffffffffffffffffffffffffffffff19167bffffffffffffffffffffffffffffffffffffffffffffffffffffffff1916815260200190815260200160002060006101000a81548160ff02191690831515021790555050565b600033905090565b828054600181600116156101000203166002900490600052602060002090601f0160209004810192826200032b576000855562000377565b82601f106200034657805160ff191683800117855562000377565b8280016001018555821562000377579182015b828111156200037657825182559160200191906001019062000359565b5b5090506200038691906200038a565b5090565b5b80821115620003a55760008160009055506001016200038b565b5090565b615ed780620003b96000396000f3fe608060405234801561001057600080fd5b50600436106101a95760003560e01c80636352211e116100f9578063990a151911610097578063b88d4fde11610071578063b88d4fde146104f4578063c87b56dd14610510578063e985e9c514610540578063f2fde38b14610570576101a9565b8063990a15191461048a578063a22cb465146104ba578063b1d22c4c146104d6576101a9565b806370a08231116100d357806370a0823114610414578063715018a6146104445780638da5cb5b1461044e57806395d89b411461046c576101a9565b80636352211e146103aa578063643c6dd9146103da5780636c0360eb146103f6576101a9565b806323b872dd116101665780633efd80d1116101405780633efd80d11461031257806342842e0e146103425780634f6ccce71461035e5780635df3efd91461038e576101a9565b806323b872dd146102965780632f745c59146102b257806332e02285146102e2576101a9565b806301ffc9a7146101ae57806306fdde03146101de578063081812fc146101fc578063095ea7b31461022c57806318160ddd146102485780631a8f37c814610266575b600080fd5b6101c860048036038101906101c391906155bc565b61058c565b6040516101d59190615902565b60405180910390f35b6101e66105f3565b6040516101f3919061591d565b60405180910390f35b610216600480360381019061021191906155e5565b610695565b60405161022391906158c5565b60405180910390f35b61024660048036038101906102419190615580565b610730565b005b610250610874565b60405161025d919061597f565b60405180910390f35b610280600480360381019061027b91906155e5565b610885565b60405161028d91906158e0565b60405180910390f35b6102b060048036038101906102ab919061547a565b610984565b005b6102cc60048036038101906102c79190615580565b6109fa565b6040516102d9919061597f565b60405180910390f35b6102fc60048036038101906102f791906155e5565b610a55565b60405161030991906158e0565b60405180910390f35b61032c6004803603810190610327919061560e565b610b54565b604051610339919061591d565b60405180910390f35b61035c6004803603810190610357919061547a565b610c22565b005b610378600480360381019061037391906155e5565b610c42565b604051610385919061597f565b60405180910390f35b6103a860048036038101906103a3919061564a565b610c65565b005b6103c460048036038101906103bf91906155e5565b610e8f565b6040516103d191906158c5565b60405180910390f35b6103f460048036038101906103ef9190615415565b610ec6565b005b6103fe611051565b60405161040b919061591d565b60405180910390f35b61042e60048036038101906104299190615415565b6110f3565b60405161043b919061597f565b60405180910390f35b61044c6111c8565b005b610456611338565b60405161046391906158c5565b60405180910390f35b610474611362565b604051610481919061591d565b60405180910390f35b6104a4600480360381019061049f91906155e5565b611404565b6040516104b191906158e0565b60405180910390f35b6104d460048036038101906104cf9190615544565b611503565b005b6104de6116b9565b6040516104eb919061597f565b60405180910390f35b61050e600480360381019061050991906154c9565b6116bf565b005b61052a600480360381019061052591906155e5565b611737565b604051610537919061591d565b60405180910390f35b61055a6004803603810190610555919061543e565b611a08565b6040516105679190615902565b60405180910390f35b61058a60048036038101906105859190615415565b611a9c565b005b6000806000837bffffffffffffffffffffffffffffffffffffffffffffffffffffffff19167bffffffffffffffffffffffffffffffffffffffffffffffffffffffff1916815260200190815260200160002060009054906101000a900460ff169050919050565b606060068054600181600116156101000203166002900480601f01602080910402602001604051908101604052809291908181526020018280546001816001161561010002031660029004801561068b5780601f106106605761010080835404028352916020019161068b565b820191906000526020600020905b81548152906001019060200180831161066e57829003601f168201915b5050505050905090565b60006106a082611c91565b6106f5576040517f08c379a000000000000000000000000000000000000000000000000000000000815260040180806020018281038252602c815260200180615dcc602c913960400191505060405180910390fd5b6004600083815260200190815260200160002060009054906101000a900473ffffffffffffffffffffffffffffffffffffffff169050919050565b600061073b82610e8f565b90508073ffffffffffffffffffffffffffffffffffffffff168373ffffffffffffffffffffffffffffffffffffffff1614156107c2576040517f08c379a0000000000000000000000000000000000000000000000000000000008152600401808060200182810382526021815260200180615e506021913960400191505060405180910390fd5b8073ffffffffffffffffffffffffffffffffffffffff166107e1611cae565b73ffffffffffffffffffffffffffffffffffffffff161480610810575061080f8161080a611cae565b611a08565b5b610865576040517f08c379a0000000000000000000000000000000000000000000000000000000008152600401808060200182810382526038815260200180615d1f6038913960400191505060405180910390fd5b61086f8383611cb6565b505050565b60006108806002611d6f565b905090565b606060106000838152602001908152602001600020600101805480602002602001604051908101604052809291908181526020016000905b82821015610979578382906000526020600020018054600181600116156101000203166002900480601f0160208091040260200160405190810160405280929190818152602001828054600181600116156101000203166002900480156109655780601f1061093a57610100808354040283529160200191610965565b820191906000526020600020905b81548152906001019060200180831161094857829003601f168201915b5050505050815260200190600101906108bd565b505050509050919050565b61099561098f611cae565b82611d84565b6109ea576040517f08c379a0000000000000000000000000000000000000000000000000000000008152600401808060200182810382526031815260200180615e716031913960400191505060405180910390fd5b6109f5838383611e78565b505050565b6000610a4d82600160008673ffffffffffffffffffffffffffffffffffffffff1673ffffffffffffffffffffffffffffffffffffffff1681526020019081526020016000206120bb90919063ffffffff16565b905092915050565b606060106000838152602001908152602001600020600001805480602002602001604051908101604052809291908181526020016000905b82821015610b49578382906000526020600020018054600181600116156101000203166002900480601f016020809104026020016040519081016040528092919081815260200182805460018160011615610100020316600290048015610b355780601f10610b0a57610100808354040283529160200191610b35565b820191906000526020600020905b815481529060010190602001808311610b1857829003601f168201915b505050505081526020019060010190610a8d565b505050509050919050565b6060601060008481526020019081526020016000206000018281548110610b7757fe5b906000526020600020018054600181600116156101000203166002900480601f016020809104026020016040519081016040528092919081815260200182805460018160011615610100020316600290048015610c155780601f10610bea57610100808354040283529160200191610c15565b820191906000526020600020905b815481529060010190602001808311610bf857829003601f168201915b5050505050905092915050565b610c3d838383604051806020016040528060008152506116bf565b505050565b600080610c598360026120d590919063ffffffff16565b50905080915050919050565b6060601060008581526020019081526020016000206000018381548110610c8857fe5b906000526020600020018054600181600116156101000203166002900480601f016020809104026020016040519081016040528092919081815260200182805460018160011615610100020316600290048015610d265780601f10610cfb57610100808354040283529160200191610d26565b820191906000526020600020905b815481529060010190602001808311610d0957829003601f168201915b505050505090506060601060008681526020019081526020016000206001018381548110610d5057fe5b906000526020600020018054600181600116156101000203166002900480601f016020809104026020016040519081016040528092919081815260200182805460018160011615610100020316600290048015610dee5780601f10610dc357610100808354040283529160200191610dee565b820191906000526020600020905b815481529060010190602001808311610dd157829003601f168201915b5050505050905080601060008781526020019081526020016000206000018581548110610e1757fe5b906000526020600020019080519060200190610e34929190615127565b503373ffffffffffffffffffffffffffffffffffffffff16857f7620784a76887cea6e6fecdb5593e87dbb8f0770dcab06d3e854c308674f1d71868585604051610e809392919061599a565b60405180910390a35050505050565b6000610ebf82604051806060016040528060298152602001615d816029913960026121019092919063ffffffff16565b9050919050565b60004282604051602001610edb929190615899565b60405160208183030381529060405280519060200120905060008160001c90506000610fa08281610f0857fe5b069050610f136151b5565b8181606001818152505080601060008581526020019081526020016000206000820151816000019080519060200190610f4d9291906151ef565b506020820151816001019080519060200190610f6a9291906151ef565b506040820151816002019080519060200190610f879291906151ef565b506060820151816003015560808201518160040160006101000a81548160ff02191690831515021790555060a08201518160040160016101000a81548160ff021916908315150217905550905050610fde83612120565b610fe83384612135565b6001600b600082825401925050819055508473ffffffffffffffffffffffffffffffffffffffff16837fc6a9fee4685459422a48632aa9afdc862bedbbb8e442df17ff5e51e0011ae531600b54604051611042919061597f565b60405180910390a35050505050565b606060098054600181600116156101000203166002900480601f0160208091040260200160405190810160405280929190818152602001828054600181600116156101000203166002900480156110e95780601f106110be576101008083540402835291602001916110e9565b820191906000526020600020905b8154815290600101906020018083116110cc57829003601f168201915b5050505050905090565b60008073ffffffffffffffffffffffffffffffffffffffff168273ffffffffffffffffffffffffffffffffffffffff16141561117a576040517f08c379a000000000000000000000000000000000000000000000000000000000815260040180806020018281038252602a815260200180615d57602a913960400191505060405180910390fd5b6111c1600160008473ffffffffffffffffffffffffffffffffffffffff1673ffffffffffffffffffffffffffffffffffffffff168152602001908152602001600020612329565b9050919050565b6111d0611cae565b73ffffffffffffffffffffffffffffffffffffffff166111ee611338565b73ffffffffffffffffffffffffffffffffffffffff1614611277576040517f08c379a00000000000000000000000000000000000000000000000000000000081526004018080602001828103825260208152602001807f4f776e61626c653a2063616c6c6572206973206e6f7420746865206f776e657281525060200191505060405180910390fd5b600073ffffffffffffffffffffffffffffffffffffffff16600a60009054906101000a900473ffffffffffffffffffffffffffffffffffffffff1673ffffffffffffffffffffffffffffffffffffffff167f8be0079c531659141344cd1fd0a4f28419497f9722a3daafe3b4186f6b6457e060405160405180910390a36000600a60006101000a81548173ffffffffffffffffffffffffffffffffffffffff021916908373ffffffffffffffffffffffffffffffffffffffff160217905550565b6000600a60009054906101000a900473ffffffffffffffffffffffffffffffffffffffff16905090565b606060078054600181600116156101000203166002900480601f0160208091040260200160405190810160405280929190818152602001828054600181600116156101000203166002900480156113fa5780601f106113cf576101008083540402835291602001916113fa565b820191906000526020600020905b8154815290600101906020018083116113dd57829003601f168201915b5050505050905090565b606060106000838152602001908152602001600020600201805480602002602001604051908101604052809291908181526020016000905b828210156114f8578382906000526020600020018054600181600116156101000203166002900480601f0160208091040260200160405190810160405280929190818152602001828054600181600116156101000203166002900480156114e45780601f106114b9576101008083540402835291602001916114e4565b820191906000526020600020905b8154815290600101906020018083116114c757829003601f168201915b50505050508152602001906001019061143c565b505050509050919050565b61150b611cae565b73ffffffffffffffffffffffffffffffffffffffff168273ffffffffffffffffffffffffffffffffffffffff1614156115ac576040517f08c379a00000000000000000000000000000000000000000000000000000000081526004018080602001828103825260198152602001807f4552433732313a20617070726f766520746f2063616c6c65720000000000000081525060200191505060405180910390fd5b80600560006115b9611cae565b73ffffffffffffffffffffffffffffffffffffffff1673ffffffffffffffffffffffffffffffffffffffff16815260200190815260200160002060008473ffffffffffffffffffffffffffffffffffffffff1673ffffffffffffffffffffffffffffffffffffffff16815260200190815260200160002060006101000a81548160ff0219169083151502179055508173ffffffffffffffffffffffffffffffffffffffff16611666611cae565b73ffffffffffffffffffffffffffffffffffffffff167f17307eab39ab6107e8899845ad3d59bd9653f200f220920489ca2b5937696c318360405180821515815260200191505060405180910390a35050565b600b5481565b6116d06116ca611cae565b83611d84565b611725576040517f08c379a0000000000000000000000000000000000000000000000000000000008152600401808060200182810382526031815260200180615e716031913960400191505060405180910390fd5b6117318484848461233e565b50505050565b606061174282611c91565b611797576040517f08c379a000000000000000000000000000000000000000000000000000000000815260040180806020018281038252602f815260200180615e21602f913960400191505060405180910390fd5b6060600860008481526020019081526020016000208054600181600116156101000203166002900480601f0160208091040260200160405190810160405280929190818152602001828054600181600116156101000203166002900480156118405780601f1061181557610100808354040283529160200191611840565b820191906000526020600020905b81548152906001019060200180831161182357829003601f168201915b505050505090506060611851611051565b9050600081511415611867578192505050611a03565b6000825111156119385780826040516020018083805190602001908083835b602083106118a95780518252602082019150602081019050602083039250611886565b6001836020036101000a03801982511681845116808217855250505050505090500182805190602001908083835b602083106118fa57805182526020820191506020810190506020830392506118d7565b6001836020036101000a0380198251168184511680821785525050505050509050019250505060405160208183030381529060405292505050611a03565b80611942856123b0565b6040516020018083805190602001908083835b602083106119785780518252602082019150602081019050602083039250611955565b6001836020036101000a03801982511681845116808217855250505050505090500182805190602001908083835b602083106119c957805182526020820191506020810190506020830392506119a6565b6001836020036101000a03801982511681845116808217855250505050505090500192505050604051602081830303815290604052925050505b919050565b6000600560008473ffffffffffffffffffffffffffffffffffffffff1673ffffffffffffffffffffffffffffffffffffffff16815260200190815260200160002060008373ffffffffffffffffffffffffffffffffffffffff1673ffffffffffffffffffffffffffffffffffffffff16815260200190815260200160002060009054906101000a900460ff16905092915050565b611aa4611cae565b73ffffffffffffffffffffffffffffffffffffffff16611ac2611338565b73ffffffffffffffffffffffffffffffffffffffff1614611b4b576040517f08c379a00000000000000000000000000000000000000000000000000000000081526004018080602001828103825260208152602001807f4f776e61626c653a2063616c6c6572206973206e6f7420746865206f776e657281525060200191505060405180910390fd5b600073ffffffffffffffffffffffffffffffffffffffff168173ffffffffffffffffffffffffffffffffffffffff161415611bd1576040517f08c379a0000000000000000000000000000000000000000000000000000000008152600401808060200182810382526026815260200180615c836026913960400191505060405180910390fd5b8073ffffffffffffffffffffffffffffffffffffffff16600a60009054906101000a900473ffffffffffffffffffffffffffffffffffffffff1673ffffffffffffffffffffffffffffffffffffffff167f8be0079c531659141344cd1fd0a4f28419497f9722a3daafe3b4186f6b6457e060405160405180910390a380600a60006101000a81548173ffffffffffffffffffffffffffffffffffffffff021916908373ffffffffffffffffffffffffffffffffffffffff16021790555050565b6000611ca78260026124f790919063ffffffff16565b9050919050565b600033905090565b816004600083815260200190815260200160002060006101000a81548173ffffffffffffffffffffffffffffffffffffffff021916908373ffffffffffffffffffffffffffffffffffffffff160217905550808273ffffffffffffffffffffffffffffffffffffffff16611d2983610e8f565b73ffffffffffffffffffffffffffffffffffffffff167f8c5be1e5ebec7d5bd14f71427d1e84f3dd0314c0f7b2291e5b200ac8c7c3b92560405160405180910390a45050565b6000611d7d82600001612511565b9050919050565b6000611d8f82611c91565b611de4576040517f08c379a000000000000000000000000000000000000000000000000000000000815260040180806020018281038252602c815260200180615cf3602c913960400191505060405180910390fd5b6000611def83610e8f565b90508073ffffffffffffffffffffffffffffffffffffffff168473ffffffffffffffffffffffffffffffffffffffff161480611e5e57508373ffffffffffffffffffffffffffffffffffffffff16611e4684610695565b73ffffffffffffffffffffffffffffffffffffffff16145b80611e6f5750611e6e8185611a08565b5b91505092915050565b8273ffffffffffffffffffffffffffffffffffffffff16611e9882610e8f565b73ffffffffffffffffffffffffffffffffffffffff1614611f04576040517f08c379a0000000000000000000000000000000000000000000000000000000008152600401808060200182810382526029815260200180615df86029913960400191505060405180910390fd5b600073ffffffffffffffffffffffffffffffffffffffff168273ffffffffffffffffffffffffffffffffffffffff161415611f8a576040517f08c379a0000000000000000000000000000000000000000000000000000000008152600401808060200182810382526024815260200180615ca96024913960400191505060405180910390fd5b611f95838383612522565b611fa0600082611cb6565b611ff181600160008673ffffffffffffffffffffffffffffffffffffffff1673ffffffffffffffffffffffffffffffffffffffff16815260200190815260200160002061252790919063ffffffff16565b5061204381600160008573ffffffffffffffffffffffffffffffffffffffff1673ffffffffffffffffffffffffffffffffffffffff16815260200190815260200160002061254190919063ffffffff16565b5061205a8183600261255b9092919063ffffffff16565b50808273ffffffffffffffffffffffffffffffffffffffff168473ffffffffffffffffffffffffffffffffffffffff167fddf252ad1be2c89b69c2b068fc378daa952ba7f163c4a11628f55a4df523b3ef60405160405180910390a4505050565b60006120ca8360000183612590565b60001c905092915050565b6000806000806120e88660000186612613565b915091508160001c8160001c9350935050509250929050565b6000612114846000018460001b846126ac565b60001c90509392505050565b612129816127a2565b612132816143a6565b50565b600073ffffffffffffffffffffffffffffffffffffffff168273ffffffffffffffffffffffffffffffffffffffff1614156121d8576040517f08c379a00000000000000000000000000000000000000000000000000000000081526004018080602001828103825260208152602001807f4552433732313a206d696e7420746f20746865207a65726f206164647265737381525060200191505060405180910390fd5b6121e181611c91565b15612254576040517f08c379a000000000000000000000000000000000000000000000000000000000815260040180806020018281038252601c8152602001807f4552433732313a20746f6b656e20616c7265616479206d696e7465640000000081525060200191505060405180910390fd5b61226060008383612522565b6122b181600160008573ffffffffffffffffffffffffffffffffffffffff1673ffffffffffffffffffffffffffffffffffffffff16815260200190815260200160002061254190919063ffffffff16565b506122c88183600261255b9092919063ffffffff16565b50808273ffffffffffffffffffffffffffffffffffffffff16600073ffffffffffffffffffffffffffffffffffffffff167fddf252ad1be2c89b69c2b068fc378daa952ba7f163c4a11628f55a4df523b3ef60405160405180910390a45050565b6000612337826000016146b3565b9050919050565b612349848484611e78565b612355848484846146c4565b6123aa576040517f08c379a0000000000000000000000000000000000000000000000000000000008152600401808060200182810382526032815260200180615c516032913960400191505060405180910390fd5b50505050565b606060008214156123f8576040518060400160405280600181526020017f300000000000000000000000000000000000000000000000000000000000000081525090506124f2565b600082905060005b60008214612422578080600101915050600a828161241a57fe5b049150612400565b60608167ffffffffffffffff8111801561243b57600080fd5b506040519080825280601f01601f19166020018201604052801561246e5781602001600182028036833780820191505090505b50905060006001830390508593505b600084146124ea57600a848161248f57fe5b0660300160f81b828280600190039350815181106124a957fe5b60200101907effffffffffffffffffffffffffffffffffffffffffffffffffffffffffffff1916908160001a905350600a84816124e257fe5b04935061247d565b819450505050505b919050565b6000612509836000018360001b6148dd565b905092915050565b600081600001805490509050919050565b505050565b6000612539836000018360001b614900565b905092915050565b6000612553836000018360001b6149e8565b905092915050565b6000612587846000018460001b8473ffffffffffffffffffffffffffffffffffffffff1660001b614a58565b90509392505050565b6000818360000180549050116125f1576040517f08c379a0000000000000000000000000000000000000000000000000000000008152600401808060200182810382526022815260200180615c2f6022913960400191505060405180910390fd5b82600001828154811061260057fe5b9060005260206000200154905092915050565b60008082846000018054905011612675576040517f08c379a0000000000000000000000000000000000000000000000000000000008152600401808060200182810382526022815260200180615daa6022913960400191505060405180910390fd5b600084600001848154811061268657fe5b906000526020600020906002020190508060000154816001015492509250509250929050565b60008084600101600085815260200190815260200160002054905060008114158390612773576040517f08c379a00000000000000000000000000000000000000000000000000000000081526004018080602001828103825283818151815260200191508051906020019080838360005b8381101561273857808201518184015260208101905061271d565b50505050905090810190601f1680156127655780820380516001836020036101000a031916815260200191505b509250505060405180910390fd5b5084600001600182038154811061278657fe5b9060005260206000209060020201600101549150509392505050565b60006127ce826040516020016127b8919061587e565b6040516020818303038152906040526001614b34565b905060008160ff16101580156127e7575060368160ff16105b15613011576010600083815260200190815260200160002060010180600181540180825580915050600190039060005260206000200160006040518060400160405280600781526020017f23303030303030000000000000000000000000000000000000000000000000008152509091909150908051906020019061286d929190615127565b506010600083815260200190815260200160002060010180600181540180825580915050600190039060005260206000200160006040518060400160405280600781526020017f2366663030303000000000000000000000000000000000000000000000000000815250909190915090805190602001906128ef929190615127565b506010600083815260200190815260200160002060010180600181540180825580915050600190039060005260206000200160006040518060400160405280600781526020017f236666373730300000000000000000000000000000000000000000000000000081525090919091509080519060200190612971929190615127565b506010600083815260200190815260200160002060010180600181540180825580915050600190039060005260206000200160006040518060400160405280600781526020017f2366666464303000000000000000000000000000000000000000000000000000815250909190915090805190602001906129f3929190615127565b506010600083815260200190815260200160002060010180600181540180825580915050600190039060005260206000200160006040518060400160405280600781526020017f236561666630300000000000000000000000000000000000000000000000000081525090919091509080519060200190612a75929190615127565b506010600083815260200190815260200160002060010180600181540180825580915050600190039060005260206000200160006040518060400160405280600781526020017f236132666630300000000000000000000000000000000000000000000000000081525090919091509080519060200190612af7929190615127565b506010600083815260200190815260200160002060010180600181540180825580915050600190039060005260206000200160006040518060400160405280600781526020017f233236666630300000000000000000000000000000000000000000000000000081525090919091509080519060200190612b79929190615127565b506010600083815260200190815260200160002060010180600181540180825580915050600190039060005260206000200160006040518060400160405280600781526020017f233030666634630000000000000000000000000000000000000000000000000081525090919091509080519060200190612bfb929190615127565b506010600083815260200190815260200160002060010180600181540180825580915050600190039060005260206000200160006040518060400160405280600781526020017f233030666661360000000000000000000000000000000000000000000000000081525090919091509080519060200190612c7d929190615127565b506010600083815260200190815260200160002060010180600181540180825580915050600190039060005260206000200160006040518060400160405280600781526020017f233030666664640000000000000000000000000000000000000000000000000081525090919091509080519060200190612cff929190615127565b506010600083815260200190815260200160002060010180600181540180825580915050600190039060005260206000200160006040518060400160405280600781526020017f233030643066660000000000000000000000000000000000000000000000000081525090919091509080519060200190612d81929190615127565b506010600083815260200190815260200160002060010180600181540180825580915050600190039060005260206000200160006040518060400160405280600781526020017f233030353566660000000000000000000000000000000000000000000000000081525090919091509080519060200190612e03929190615127565b506010600083815260200190815260200160002060010180600181540180825580915050600190039060005260206000200160006040518060400160405280600781526020017f233135303066660000000000000000000000000000000000000000000000000081525090919091509080519060200190612e85929190615127565b506010600083815260200190815260200160002060010180600181540180825580915050600190039060005260206000200160006040518060400160405280600781526020017f233666303066660000000000000000000000000000000000000000000000000081525090919091509080519060200190612f07929190615127565b506010600083815260200190815260200160002060010180600181540180825580915050600190039060005260206000200160006040518060400160405280600781526020017f236262303066660000000000000000000000000000000000000000000000000081525090919091509080519060200190612f89929190615127565b506010600083815260200190815260200160002060010180600181540180825580915050600190039060005260206000200160006040518060400160405280600781526020017f23666630306637000000000000000000000000000000000000000000000000008152509091909150908051906020019061300b929190615127565b506143a2565b60368160ff1610158015613028575060418160ff16105b15613852576010600083815260200190815260200160002060010180600181540180825580915050600190039060005260206000200160006040518060400160405280600781526020017f2330303030303000000000000000000000000000000000000000000000000000815250909190915090805190602001906130ae929190615127565b506010600083815260200190815260200160002060010180600181540180825580915050600190039060005260206000200160006040518060400160405280600781526020017f236666373537350000000000000000000000000000000000000000000000000081525090919091509080519060200190613130929190615127565b506010600083815260200190815260200160002060010180600181540180825580915050600190039060005260206000200160006040518060400160405280600781526020017f2366663735636600000000000000000000000000000000000000000000000000815250909190915090805190602001906131b2929190615127565b506010600083815260200190815260200160002060010180600181540180825580915050600190039060005260206000200160006040518060400160405280600781526020017f236636373566660000000000000000000000000000000000000000000000000081525090919091509080519060200190613234929190615127565b506010600083815260200190815260200160002060010180600181540180825580915050600190039060005260206000200160006040518060400160405280600781526020017f2362663735666600000000000000000000000000000000000000000000000000815250909190915090805190602001906132b6929190615127565b506010600083815260200190815260200160002060010180600181540180825580915050600190039060005260206000200160006040518060400160405280600781526020017f233735373766660000000000000000000000000000000000000000000000000081525090919091509080519060200190613338929190615127565b506010600083815260200190815260200160002060010180600181540180825580915050600190039060005260206000200160006040518060400160405280600781526020017f2337356336666600000000000000000000000000000000000000000000000000815250909190915090805190602001906133ba929190615127565b506010600083815260200190815260200160002060010180600181540180825580915050600190039060005260206000200160006040518060400160405280600781526020017f23373566646666000000000000000000000000000000000000000000000000008152509091909150908051906020019061343c929190615127565b506010600083815260200190815260200160002060010180600181540180825580915050600190039060005260206000200160006040518060400160405280600781526020017f2337356666636300000000000000000000000000000000000000000000000000815250909190915090805190602001906134be929190615127565b506010600083815260200190815260200160002060010180600181540180825580915050600190039060005260206000200160006040518060400160405280600781526020017f233735666637610000000000000000000000000000000000000000000000000081525090919091509080519060200190613540929190615127565b506010600083815260200190815260200160002060010180600181540180825580915050600190039060005260206000200160006040518060400160405280600781526020017f2361636666373500000000000000000000000000000000000000000000000000815250909190915090805190602001906135c2929190615127565b506010600083815260200190815260200160002060010180600181540180825580915050600190039060005260206000200160006040518060400160405280600781526020017f236538666637350000000000000000000000000000000000000000000000000081525090919091509080519060200190613644929190615127565b506010600083815260200190815260200160002060010180600181540180825580915050600190039060005260206000200160006040518060400160405280600781526020017f2366666631373500000000000000000000000000000000000000000000000000815250909190915090805190602001906136c6929190615127565b506010600083815260200190815260200160002060010180600181540180825580915050600190039060005260206000200160006040518060400160405280600781526020017f236666643337350000000000000000000000000000000000000000000000000081525090919091509080519060200190613748929190615127565b506010600083815260200190815260200160002060010180600181540180825580915050600190039060005260206000200160006040518060400160405280600781526020017f2330306666303000000000000000000000000000000000000000000000000000815250909190915090805190602001906137ca929190615127565b506010600083815260200190815260200160002060010180600181540180825580915050600190039060005260206000200160006040518060400160405280600781526020017f23666639353735000000000000000000000000000000000000000000000000008152509091909150908051906020019061384c929190615127565b506143a1565b60418160ff1610158015613869575060c88160ff16105b15613b7f576010600083815260200190815260200160002060010180600181540180825580915050600190039060005260206000200160006040518060400160405280600781526020017f2330303030303000000000000000000000000000000000000000000000000000815250909190915090805190602001906138ef929190615127565b506010600083815260200190815260200160002060010180600181540180825580915050600190039060005260206000200160006040518060400160405280600781526020017f236666666230300000000000000000000000000000000000000000000000000081525090919091509080519060200190613971929190615127565b506010600083815260200190815260200160002060010180600181540180825580915050600190039060005260206000200160006040518060400160405280600781526020017f2330346666303000000000000000000000000000000000000000000000000000815250909190915090805190602001906139f3929190615127565b506010600083815260200190815260200160002060010180600181540180825580915050600190039060005260206000200160006040518060400160405280600781526020017f233038303066660000000000000000000000000000000000000000000000000081525090919091509080519060200190613a75929190615127565b506010600083815260200190815260200160002060010180600181540180825580915050600190039060005260206000200160006040518060400160405280600781526020017f236666303066370000000000000000000000000000000000000000000000000081525090919091509080519060200190613af7929190615127565b506010600083815260200190815260200160002060010180600181540180825580915050600190039060005260206000200160006040518060400160405280600781526020017f236666666666660000000000000000000000000000000000000000000000000081525090919091509080519060200190613b79929190615127565b506143a0565b6010600083815260200190815260200160002060010180600181540180825580915050600190039060005260206000200160006040518060400160405280600781526020017f233030303030300000000000000000000000000000000000000000000000000081525090919091509080519060200190613c00929190615127565b506010600083815260200190815260200160002060010180600181540180825580915050600190039060005260206000200160006040518060400160405280600781526020017f236164316331630000000000000000000000000000000000000000000000000081525090919091509080519060200190613c82929190615127565b506010600083815260200190815260200160002060010180600181540180825580915050600190039060005260206000200160006040518060400160405280600781526020017f236164353831630000000000000000000000000000000000000000000000000081525090919091509080519060200190613d04929190615127565b506010600083815260200190815260200160002060010180600181540180825580915050600190039060005260206000200160006040518060400160405280600781526020017f236164393231630000000000000000000000000000000000000000000000000081525090919091509080519060200190613d86929190615127565b506010600083815260200190815260200160002060010180600181540180825580915050600190039060005260206000200160006040518060400160405280600781526020017f233865616431630000000000000000000000000000000000000000000000000081525090919091509080519060200190613e08929190615127565b506010600083815260200190815260200160002060010180600181540180825580915050600190039060005260206000200160006040518060400160405280600781526020017f233163616433390000000000000000000000000000000000000000000000000081525090919091509080519060200190613e8a929190615127565b506010600083815260200190815260200160002060010180600181540180825580915050600190039060005260206000200160006040518060400160405280600781526020017f233163616436320000000000000000000000000000000000000000000000000081525090919091509080519060200190613f0c929190615127565b506010600083815260200190815260200160002060010180600181540180825580915050600190039060005260206000200160006040518060400160405280600781526020017f233163616461620000000000000000000000000000000000000000000000000081525090919091509080519060200190613f8e929190615127565b506010600083815260200190815260200160002060010180600181540180825580915050600190039060005260206000200160006040518060400160405280600781526020017f233163366561640000000000000000000000000000000000000000000000000081525090919091509080519060200190614010929190615127565b506010600083815260200190815260200160002060010180600181540180825580915050600190039060005260206000200160006040518060400160405280600781526020017f233163326461640000000000000000000000000000000000000000000000000081525090919091509080519060200190614092929190615127565b506010600083815260200190815260200160002060010180600181540180825580915050600190039060005260206000200160006040518060400160405280600781526020017f233438316361640000000000000000000000000000000000000000000000000081525090919091509080519060200190614114929190615127565b506010600083815260200190815260200160002060010180600181540180825580915050600190039060005260206000200160006040518060400160405280600781526020017f233731316361640000000000000000000000000000000000000000000000000081525090919091509080519060200190614196929190615127565b506010600083815260200190815260200160002060010180600181540180825580915050600190039060005260206000200160006040518060400160405280600781526020017f236138316361640000000000000000000000000000000000000000000000000081525090919091509080519060200190614218929190615127565b506010600083815260200190815260200160002060010180600181540180825580915050600190039060005260206000200160006040518060400160405280600781526020017f23616431633834000000000000000000000000000000000000000000000000008152509091909150908051906020019061429a929190615127565b506010600083815260200190815260200160002060010180600181540180825580915050600190039060005260206000200160006040518060400160405280600781526020017f23303066663030000000000000000000000000000000000000000000000000008152509091909150908051906020019061431c929190615127565b506010600083815260200190815260200160002060010180600181540180825580915050600190039060005260206000200160006040518060400160405280600781526020017f23303030306666000000000000000000000000000000000000000000000000008152509091909150908051906020019061439e929190615127565b505b5b5b5050565b60006143dd6143d5836040516020016143bf919061587e565b6040516020818303038152906040526002614b34565b60ff16614bd8565b9050600061441661440e846040516020016143f8919061587e565b6040516020818303038152906040526004614b34565b60ff16614dd0565b90506000601060008581526020019081526020016000206001018054905090507f7d45f2eb371b46ea719a0a9d97516377e556f47d8bea97469448584ca4fb6a428360405161446591906159df565b60405180910390a17f7d45f2eb371b46ea719a0a9d97516377e556f47d8bea97469448584ca4fb6a428260405161449c91906159df565b60405180910390a17f7d45f2eb371b46ea719a0a9d97516377e556f47d8bea97469448584ca4fb6a42600182036040516144d691906159df565b60405180910390a160006001820360ff168460ff16816144f257fe5b0690506000805b600e548160ff1610156146aa577f7d45f2eb371b46ea719a0a9d97516377e556f47d8bea97469448584ca4fb6a428360405161453591906159df565b60405180910390a1818060010192505060106000888152602001908152602001600020600001601060008981526020019081526020016000206001018460ff168154811061457f57fe5b906000526020600020019080600181540180825580915050600190039060005260206000200160009091909190915090805460018160011615610100020316600290046145cd92919061524f565b5060106000888152602001908152602001600020600201601060008981526020019081526020016000206001018460ff168154811061460857fe5b9060005260206000200190806001815401808255809150506001900390600052602060002001600090919091909150908054600181600116156101000203166002900461465692919061524f565b506001840360ff1685840160ff168161466b57fe5b06925060008560ff16838161467c57fe5b06141561469d576001840360ff168660ff168161469557fe5b069250600091505b80806001019150506144f9565b50505050505050565b600081600001805490509050919050565b60006146e58473ffffffffffffffffffffffffffffffffffffffff16614e64565b6146f257600190506148d5565b606061485c63150b7a0260e01b614707611cae565b888787604051602401808573ffffffffffffffffffffffffffffffffffffffff1681526020018473ffffffffffffffffffffffffffffffffffffffff16815260200183815260200180602001828103825283818151815260200191508051906020019080838360005b8381101561478b578082015181840152602081019050614770565b50505050905090810190601f1680156147b85780820380516001836020036101000a031916815260200191505b5095505050505050604051602081830303815290604052907bffffffffffffffffffffffffffffffffffffffffffffffffffffffff19166020820180517bffffffffffffffffffffffffffffffffffffffffffffffffffffffff8381831617835250505050604051806060016040528060328152602001615c51603291398773ffffffffffffffffffffffffffffffffffffffff16614e779092919063ffffffff16565b9050600081806020019051602081101561487557600080fd5b8101908080519060200190929190505050905063150b7a0260e01b7bffffffffffffffffffffffffffffffffffffffffffffffffffffffff1916817bffffffffffffffffffffffffffffffffffffffffffffffffffffffff191614925050505b949350505050565b600080836001016000848152602001908152602001600020541415905092915050565b600080836001016000848152602001908152602001600020549050600081146149dc576000600182039050600060018660000180549050039050600086600001828154811061494b57fe5b906000526020600020015490508087600001848154811061496857fe5b90600052602060002001819055506001830187600101600083815260200190815260200160002081905550866000018054806149a057fe5b600190038181906000526020600020016000905590558660010160008781526020019081526020016000206000905560019450505050506149e2565b60009150505b92915050565b60006149f48383614e8f565b614a4d578260000182908060018154018082558091505060019003906000526020600020016000909190919091505582600001805490508360010160008481526020019081526020016000208190555060019050614a52565b600090505b92915050565b6000808460010160008581526020019081526020016000205490506000811415614aff57846000016040518060400160405280868152602001858152509080600181540180825580915050600190039060005260206000209060020201600090919091909150600082015181600001556020820151816001015550508460000180549050856001016000868152602001908152602001600020819055506001915050614b2d565b82856000016001830381548110614b1257fe5b90600052602060002090600202016001018190555060009150505b9392505050565b600081600183011015614b7c576040517f08c379a0000000000000000000000000000000000000000000000000000000008152600401614b739061593f565b60405180910390fd5b6001820183511015614bc3576040517f08c379a0000000000000000000000000000000000000000000000000000000008152600401614bba9061595f565b60405180910390fd5b60008260018501015190508091505092915050565b6000808210158015614bea5750601082105b15614bf85760009050614dcb565b60108210158015614c095750602082105b15614c175760019050614dcb565b60208210158015614c285750603082105b15614c365760029050614dcb565b60308210158015614c475750604082105b15614c555760039050614dcb565b60408210158015614c665750605082105b15614c745760049050614dcb565b60508210158015614c855750606082105b15614c935760059050614dcb565b60608210158015614ca45750607082105b15614cb25760069050614dcb565b60708210158015614cc35750608082105b15614cd15760079050614dcb565b60808210158015614ce25750609082105b15614cf05760089050614dcb565b60908210158015614d01575060a082105b15614d0f5760099050614dcb565b60a08210158015614d20575060b282105b15614d2e57600a9050614dcb565b60b28210158015614d3f575060c082105b15614d4d57600b9050614dcb565b60c08210158015614d5e575060d082105b15614d6c57600c9050614dcb565b60d08210158015614d7d575060e082105b15614d8b57600d9050614dcb565b60e08210158015614d9c575060f082105b15614daa57600e9050614dcb565b60f08210158015614dbc575061010082105b15614dca57600f9050614dcb565b5b919050565b6000808210158015614de25750603382105b15614df05760039050614e5f565b60338210158015614e015750606682105b15614e0f5760049050614e5f565b60668210158015614e205750609982105b15614e2e5760059050614e5f565b60998210158015614e3f575060cc82105b15614e4d5760069050614e5f565b60cc8210614e5e5760079050614e5f565b5b919050565b600080823b905060008111915050919050565b6060614e868484600085614eb2565b90509392505050565b600080836001016000848152602001908152602001600020541415905092915050565b606082471015614f0d576040517f08c379a0000000000000000000000000000000000000000000000000000000008152600401808060200182810382526026815260200180615ccd6026913960400191505060405180910390fd5b614f1685614e64565b614f88576040517f08c379a000000000000000000000000000000000000000000000000000000000815260040180806020018281038252601d8152602001807f416464726573733a2063616c6c20746f206e6f6e2d636f6e747261637400000081525060200191505060405180910390fd5b600060608673ffffffffffffffffffffffffffffffffffffffff1685876040518082805190602001908083835b60208310614fd85780518252602082019150602081019050602083039250614fb5565b6001836020036101000a03801982511681845116808217855250505050505090500191505060006040518083038185875af1925050503d806000811461503a576040519150601f19603f3d011682016040523d82523d6000602084013e61503f565b606091505b509150915061504f82828661505b565b92505050949350505050565b6060831561506b57829050615120565b60008351111561507e5782518084602001fd5b816040517f08c379a00000000000000000000000000000000000000000000000000000000081526004018080602001828103825283818151815260200191508051906020019080838360005b838110156150e55780820151818401526020810190506150ca565b50505050905090810190601f1680156151125780820380516001836020036101000a031916815260200191505b509250505060405180910390fd5b9392505050565b828054600181600116156101000203166002900490600052602060002090601f01602090048101928261515d57600085556151a4565b82601f1061517657805160ff19168380011785556151a4565b828001600101855582156151a4579182015b828111156151a3578251825591602001919060010190615188565b5b5090506151b191906152e4565b5090565b6040518060c00160405280606081526020016060815260200160608152602001600081526020016000151581526020016000151581525090565b82805482825590600052602060002090810192821561523e579160200282015b8281111561523d57825182908051906020019061522d929190615127565b509160200191906001019061520f565b5b50905061524b9190615301565b5090565b828054600181600116156101000203166002900490600052602060002090601f01602090048101928261528557600085556152d3565b82601f1061529657805485556152d3565b828001600101855582156152d357600052602060002091601f016020900482015b828111156152d25782548255916001019190600101906152b7565b5b5090506152e091906152e4565b5090565b5b808211156152fd5760008160009055506001016152e5565b5090565b5b8082111561532157600081816153189190615325565b50600101615302565b5090565b50805460018160011615610100020316600290046000825580601f1061534b575061536a565b601f01602090049060005260206000209081019061536991906152e4565b5b50565b60008135905061537c81615bd2565b92915050565b60008135905061539181615be9565b92915050565b6000813590506153a681615c00565b92915050565b600082601f8301126153bd57600080fd5b81356153d06153cb82615a2b565b6159fa565b915080825260208301602083018583830111156153ec57600080fd5b6153f7838284615b42565b50505092915050565b60008135905061540f81615c17565b92915050565b60006020828403121561542757600080fd5b60006154358482850161536d565b91505092915050565b6000806040838503121561545157600080fd5b600061545f8582860161536d565b92505060206154708582860161536d565b9150509250929050565b60008060006060848603121561548f57600080fd5b600061549d8682870161536d565b93505060206154ae8682870161536d565b92505060406154bf86828701615400565b9150509250925092565b600080600080608085870312156154df57600080fd5b60006154ed8782880161536d565b94505060206154fe8782880161536d565b935050604061550f87828801615400565b925050606085013567ffffffffffffffff81111561552c57600080fd5b615538878288016153ac565b91505092959194509250565b6000806040838503121561555757600080fd5b60006155658582860161536d565b925050602061557685828601615382565b9150509250929050565b6000806040838503121561559357600080fd5b60006155a18582860161536d565b92505060206155b285828601615400565b9150509250929050565b6000602082840312156155ce57600080fd5b60006155dc84828501615397565b91505092915050565b6000602082840312156155f757600080fd5b600061560584828501615400565b91505092915050565b6000806040838503121561562157600080fd5b600061562f85828601615400565b925050602061564085828601615400565b9150509250929050565b60008060006060848603121561565f57600080fd5b600061566d86828701615400565b935050602061567e86828701615400565b925050604061568f86828701615400565b9150509250925092565b60006156a58383615757565b905092915050565b6156b681615ac1565b82525050565b6156cd6156c882615ac1565b615b84565b82525050565b60006156de82615a6b565b6156e88185615a8e565b9350836020820285016156fa85615a5b565b8060005b8581101561573657848403895281516157178582615699565b945061572283615a81565b925060208a019950506001810190506156fe565b50829750879550505050505092915050565b61575181615ad3565b82525050565b600061576282615a76565b61576c8185615a9f565b935061577c818560208601615b51565b61578581615bb4565b840191505092915050565b600061579b82615a76565b6157a58185615ab0565b93506157b5818560208601615b51565b6157be81615bb4565b840191505092915050565b60006157d6601083615ab0565b91507f746f55696e74385f6f766572666c6f77000000000000000000000000000000006000830152602082019050919050565b6000615816601383615ab0565b91507f746f55696e74385f6f75744f66426f756e6473000000000000000000000000006000830152602082019050919050565b61585281615b2b565b82525050565b61586961586482615b2b565b615ba8565b82525050565b61587881615b35565b82525050565b600061588a8284615858565b60208201915081905092915050565b60006158a58285615858565b6020820191506158b582846156bc565b6014820191508190509392505050565b60006020820190506158da60008301846156ad565b92915050565b600060208201905081810360008301526158fa81846156d3565b905092915050565b60006020820190506159176000830184615748565b92915050565b600060208201905081810360008301526159378184615790565b905092915050565b60006020820190508181036000830152615958816157c9565b9050919050565b6000602082019050818103600083015261597881615809565b9050919050565b60006020820190506159946000830184615849565b92915050565b60006060820190506159af6000830186615849565b81810360208301526159c18185615790565b905081810360408301526159d58184615790565b9050949350505050565b60006020820190506159f4600083018461586f565b92915050565b6000604051905081810181811067ffffffffffffffff82111715615a2157615a20615bb2565b5b8060405250919050565b600067ffffffffffffffff821115615a4657615a45615bb2565b5b601f19601f8301169050602081019050919050565b6000819050602082019050919050565b600081519050919050565b600081519050919050565b6000602082019050919050565b600082825260208201905092915050565b600082825260208201905092915050565b600082825260208201905092915050565b6000615acc82615b0b565b9050919050565b60008115159050919050565b60007fffffffff0000000000000000000000000000000000000000000000000000000082169050919050565b600073ffffffffffffffffffffffffffffffffffffffff82169050919050565b6000819050919050565b600060ff82169050919050565b82818337600083830152505050565b60005b83811015615b6f578082015181840152602081019050615b54565b83811115615b7e576000848401525b50505050565b6000615b8f82615b96565b9050919050565b6000615ba182615bc5565b9050919050565b6000819050919050565bfe5b6000601f19601f8301169050919050565b60008160601b9050919050565b615bdb81615ac1565b8114615be657600080fd5b50565b615bf281615ad3565b8114615bfd57600080fd5b50565b615c0981615adf565b8114615c1457600080fd5b50565b615c2081615b2b565b8114615c2b57600080fd5b5056fe456e756d657261626c655365743a20696e646578206f7574206f6620626f756e64734552433732313a207472616e7366657220746f206e6f6e20455243373231526563656976657220696d706c656d656e7465724f776e61626c653a206e6577206f776e657220697320746865207a65726f20616464726573734552433732313a207472616e7366657220746f20746865207a65726f2061646472657373416464726573733a20696e73756666696369656e742062616c616e636520666f722063616c6c4552433732313a206f70657261746f7220717565727920666f72206e6f6e6578697374656e7420746f6b656e4552433732313a20617070726f76652063616c6c6572206973206e6f74206f776e6572206e6f7220617070726f76656420666f7220616c6c4552433732313a2062616c616e636520717565727920666f7220746865207a65726f20616464726573734552433732313a206f776e657220717565727920666f72206e6f6e6578697374656e7420746f6b656e456e756d657261626c654d61703a20696e646578206f7574206f6620626f756e64734552433732313a20617070726f76656420717565727920666f72206e6f6e6578697374656e7420746f6b656e4552433732313a207472616e73666572206f6620746f6b656e2074686174206973206e6f74206f776e4552433732314d657461646174613a2055524920717565727920666f72206e6f6e6578697374656e7420746f6b656e4552433732313a20617070726f76616c20746f2063757272656e74206f776e65724552433732313a207472616e736665722063616c6c6572206973206e6f74206f776e6572206e6f7220617070726f766564a264697066735822122055b56fbb4275350e45362a9611af0170b8e6e879419ee05905bd6bae714e3ba164736f6c63430007040033",
  "immutableReferences": {},
  "source": "pragma solidity ^0.7.4;\r\npragma experimental ABIEncoderV2;\r\n\r\nimport \"@openzeppelin/contracts/token/ERC721/ERC721.sol\";\r\nimport \"@openzeppelin/contracts/access/Ownable.sol\";\r\n\r\n// import \"./TestColor.sol\";\r\n\r\n\r\ncontract Color is ERC721, Ownable {\r\n\r\n  \tuint256 public numberOfEtherbrights = 0;\r\n  \tuint nPixX=5;\r\n  \tuint nPixY=5;\r\n  \tuint nPix=nPixX*nPixY;\r\n\r\n\tmapping(string => bool) _colorExists;\r\n\tmapping (uint256 => Etherbright) allEtherbrights;\r\n\r\n\tstruct Etherbright {\r\n\t\tstring[] setPixels;\r\n\t\tstring[] pallet;\r\n\t\tstring[] mintPixels;\r\n\t\tuint256 seed;\r\n\t\tbool publicPixels;\r\n\t\tbool publicClearCanvas;\r\n\t}\r\n\t\r\n\t\r\n\t// event PixelChanged(uint indexed changedPixel, string from, string to, address indexed by);\r\n\tevent ClearCanvas(address indexed by);\r\n\tevent ResetCanvas(address indexed by);\r\n\t// event SVGgenerated(string SVG, address indexed by);\r\n\t// event EtherbrightMinted(uint256 tokenId, string svg, address mintedBy, uint256 nEtherbrights);\r\n\tevent EtherbrightMinted(uint256 indexed tokenId, address indexed mintedBy, uint256 nEtherbrights);\r\n\tevent EtherbrightPixelChanged(uint256 indexed tokenId, uint pn, string from, string to, address indexed by);\r\n\t// event EtherbrightSVGgenerated(uint _tokenId, string svg, address indexed by);\r\n\tevent Selector(uint8 selector);\r\n\t\r\n\tconstructor() ERC721(\"Color\", \"COLOR\") public {\r\n\r\n  \t}\r\n\r\n  \tfunction mintEtherbright(address to) public{\r\n\t  bytes32 idHash = keccak256(abi.encodePacked(block.timestamp, to));\r\n      uint256 tokenId = uint(idHash);\r\n      uint256 etherbrightSeed = tokenId % 4000;\r\n\r\n\t  Etherbright memory etherbright;\r\n\t  etherbright.seed=etherbrightSeed;\r\n\t  // etherbright.seriesNumber=numberOfEtherbrights;\r\n\t  // etherbright.pallet=getPalletFromSeed(etherbrightSeed.seed);\r\n\t  allEtherbrights[tokenId]=etherbright;\r\n\t  buildEtherbright(tokenId);\r\n\r\n\t  _mint(msg.sender, tokenId);\r\n\t  numberOfEtherbrights+=1;\r\n\t  // string memory tmpsvg=generateEtherbrightsSVG(tokenId);\r\n\t  emit EtherbrightMinted(tokenId, to, numberOfEtherbrights);\r\n\r\n\t  // emit EtherbrightMinted(tokenId, tmpsvg, to, numberOfEtherbrights);\r\n\t// event EtherbrightMinted(uint256 tokenId, address mintedBy, uint256 nEtherbrights, string svg);\r\n\r\n\t}\r\n\tfunction buildEtherbright (uint256 tokenId ) internal {\r\n\r\n\t\tsetEtherbrightPallet(tokenId);\r\n\t\tsetAllEtherbrightPixels(tokenId);\r\n\r\n\r\n\t}\r\n\tfunction setAllEtherbrightPixels (uint256 tokenId) internal {\r\n\t\t// uint8 selector=toUint8(abi.encodePacked(tokenId), 2);\r\n\t\tuint8 start=selectorTo16Range(toUint8(abi.encodePacked(tokenId), 2));\r\n\t\tuint8 mod=selectorTo5Range(toUint8(abi.encodePacked(tokenId), 4));\r\n\t\tuint8 len=uint8(allEtherbrights[tokenId].pallet.length);\r\n        emit Selector(start);\r\n        emit Selector(mod);\r\n        emit Selector(len-1);\r\n\t\tuint8 c=(start)%(len-1);\r\n\t\tuint cnt=0;\r\n\t\tfor(uint8 p=0; p<nPix; p++){\r\n\t\t\t// uint c=((start+p)%mod)+1;\r\n\t\t\t// uint8 c=(start+mod+p)%(len-1);\r\n\t\t\temit Selector(c);\r\n\t\t\tcnt++;\r\n\r\n\t\t\tallEtherbrights[tokenId].setPixels.push(allEtherbrights[tokenId].pallet[c]);\r\n\t\t\tallEtherbrights[tokenId].mintPixels.push(allEtherbrights[tokenId].pallet[c]);\r\n\t\t\tc=(c+mod)%(len-1);\r\n\t\t\tif((cnt%mod)==0){\r\n\t\t\t\tc=start%(len-1);\r\n\t\t\t\tcnt=0;\r\n\t\t\t}\r\n\r\n\t\t}\r\n\t}\r\n\t\r\n\tfunction selectorTo5Range(uint a) internal pure returns (uint8) {\r\n\t\tif(a>= 0 && a <51){\r\n\t\t\treturn 3;\r\n\t\t}else if(a>=51 && a< 102){\r\n\t\t\treturn 4;\r\n\t\t}else if(a>=102 && a< 153){\r\n\t\t\treturn 5;\t\t\t\r\n\t\t}else if(a>=153 && a< 204){\r\n\t\t\treturn 6;\t\t\t\r\n\t\t}else if(a>=204){\r\n\t\t\treturn 7;\t\t\t\r\n\t\t}\r\n\t}\r\n\tfunction selectorTo16Range(uint a) internal pure returns (uint8) {\r\n\t\tif(a>= 0 && a <16){\r\n\t\t\treturn 0;\r\n\t\t}else if(a>=16 && a< 32){\r\n\t\t\treturn 1;\r\n\t\t}else if(a>=32 && a< 48){\r\n\t\t\treturn 2;\t\t\t\r\n\t\t}else if(a>=48 && a< 64){\r\n\t\t\treturn 3;\t\t\t\r\n\t\t}else if(a>=64 && a< 80){\r\n\t\t\treturn 4;\t\t\t\r\n\t\t}else if(a>=80 && a< 96){\r\n\t\t\treturn 5;\t\t\t\r\n\t\t}else if(a>=96 && a< 112){\r\n\t\t\treturn 6;\t\t\t\r\n\t\t}else if(a>=112 && a< 128){\r\n\t\t\treturn 7;\t\t\r\n\t\t}else if(a>=128 && a< 144){\r\n\t\t\treturn 8;\t\t\t\r\n\t\t}else if(a>=144 && a< 160){\r\n\t\t\treturn 9;\r\n\t\t}else if(a>=160 && a< 178){\r\n\t\t\treturn 10;\t\t\t\r\n\t\t}else if(a>=178 && a< 192){\r\n\t\t\treturn 11;\t\t\t\r\n\t\t}else if(a>=192 && a< 208){\r\n\t\t\treturn 12;\t\t\t\r\n\t\t}else if(a>=208 && a< 224){\r\n\t\t\treturn 13;\t\t\t\r\n\t\t}else if(a>=224 && a< 240){\r\n\t\t\treturn 14;\t\t\t\r\n\t\t}else if(a>=240 && a< 256){\r\n\t\t\treturn 15;\t\t\r\n\t\t}\r\n\r\n\t}\r\n\r\n\tfunction setEtherbrightPallet (uint256 tokenId)  internal {\r\n\t\t// Etherbright memory ethb=allEtherbrights[tokenId];\r\n\t\tuint8 selector=toUint8(abi.encodePacked(tokenId), 1);\r\n\t\tif(selector >= 0 && selector < 54 ){\r\n\t\t\tallEtherbrights[tokenId].pallet.push(\"#000000\");\r\n  \t\t\tallEtherbrights[tokenId].pallet.push(\"#ff0000\");\r\n\t\t\tallEtherbrights[tokenId].pallet.push(\"#ff7700\");\r\n\t\t\tallEtherbrights[tokenId].pallet.push(\"#ffdd00\");\r\n\t\t\t\t\t\tallEtherbrights[tokenId].pallet.push(\"#eaff00\");\r\n  \t\t\tallEtherbrights[tokenId].pallet.push(\"#a2ff00\");\r\n\t\t\tallEtherbrights[tokenId].pallet.push(\"#26ff00\");\r\n\t\t\tallEtherbrights[tokenId].pallet.push(\"#00ff4c\");\r\n\t\t\t\t\t\tallEtherbrights[tokenId].pallet.push(\"#00ffa6\");\r\n  \t\t\tallEtherbrights[tokenId].pallet.push(\"#00ffdd\");\r\n\t\t\tallEtherbrights[tokenId].pallet.push(\"#00d0ff\");\r\n\t\t\tallEtherbrights[tokenId].pallet.push(\"#0055ff\");\r\n\t\t\t\t\t\t\t\t\tallEtherbrights[tokenId].pallet.push(\"#1500ff\");\r\n  \t\t\tallEtherbrights[tokenId].pallet.push(\"#6f00ff\");\r\n\t\t\tallEtherbrights[tokenId].pallet.push(\"#bb00ff\");\r\n\t\t\tallEtherbrights[tokenId].pallet.push(\"#ff00f7\");\r\n\r\n\t\t}\r\n\t\telse if(selector >= 54 && selector < 65 ){\r\n\t\t\tallEtherbrights[tokenId].pallet.push(\"#000000\");\r\n  \t\t\tallEtherbrights[tokenId].pallet.push(\"#ff7575\");\r\n\t\t\tallEtherbrights[tokenId].pallet.push(\"#ff75cf\");\r\n\t\t\tallEtherbrights[tokenId].pallet.push(\"#f675ff\");\r\n\t\t\t\t\t\tallEtherbrights[tokenId].pallet.push(\"#bf75ff\");\r\n  \t\t\tallEtherbrights[tokenId].pallet.push(\"#7577ff\");\r\n\t\t\tallEtherbrights[tokenId].pallet.push(\"#75c6ff\");\r\n\t\t\tallEtherbrights[tokenId].pallet.push(\"#75fdff\");\r\n\t\t\t\t\t\t\t\t\tallEtherbrights[tokenId].pallet.push(\"#75ffcc\");\r\n  \t\t\tallEtherbrights[tokenId].pallet.push(\"#75ff7a\");\r\n\t\t\tallEtherbrights[tokenId].pallet.push(\"#acff75\");\r\n\t\t\tallEtherbrights[tokenId].pallet.push(\"#e8ff75\");\r\n\t\t\t\t\t\t\t\t\tallEtherbrights[tokenId].pallet.push(\"#fff175\");\r\n  \t\t\tallEtherbrights[tokenId].pallet.push(\"#ffd375\");\r\n\t\t\tallEtherbrights[tokenId].pallet.push(\"#00ff00\");\r\n\t\t\tallEtherbrights[tokenId].pallet.push(\"#ff9575\");\r\n\r\n\t\t}\r\n\t\telse if(selector >=65 && selector< 200){\r\n\t\t\tallEtherbrights[tokenId].pallet.push(\"#000000\");\r\n\t\t\tallEtherbrights[tokenId].pallet.push(\"#fffb00\");\r\n\t\t\tallEtherbrights[tokenId].pallet.push(\"#04ff00\");\r\n\t\t\tallEtherbrights[tokenId].pallet.push(\"#0800ff\");\r\n\r\n\t\t\tallEtherbrights[tokenId].pallet.push(\"#ff00f7\");\r\n\t\t\t\t\t\tallEtherbrights[tokenId].pallet.push(\"#ffffff\");\r\n\r\n\t\t}\r\n\t\telse{\r\n\t\t\tallEtherbrights[tokenId].pallet.push(\"#000000\");\r\n  \t\t\tallEtherbrights[tokenId].pallet.push(\"#ad1c1c\");\r\n\t\t\tallEtherbrights[tokenId].pallet.push(\"#ad581c\");\r\n\t\t\tallEtherbrights[tokenId].pallet.push(\"#ad921c\");\r\n\t\t\t\t\t\tallEtherbrights[tokenId].pallet.push(\"#8ead1c\");\r\n  \t\t\tallEtherbrights[tokenId].pallet.push(\"#1cad39\");\r\n\t\t\tallEtherbrights[tokenId].pallet.push(\"#1cad62\");\r\n\t\t\tallEtherbrights[tokenId].pallet.push(\"#1cadab\");\r\n\t\t\t\t\t\t\t\t\tallEtherbrights[tokenId].pallet.push(\"#1c6ead\");\r\n  \t\t\tallEtherbrights[tokenId].pallet.push(\"#1c2dad\");\r\n\t\t\tallEtherbrights[tokenId].pallet.push(\"#481cad\");\r\n\t\t\tallEtherbrights[tokenId].pallet.push(\"#711cad\");\r\n\r\n\t\t\t\t\t\t\t\t\tallEtherbrights[tokenId].pallet.push(\"#a81cad\");\r\n  \t\t\tallEtherbrights[tokenId].pallet.push(\"#ad1c84\");\r\n\t\t\tallEtherbrights[tokenId].pallet.push(\"#00ff00\");\r\n\t\t\tallEtherbrights[tokenId].pallet.push(\"#0000ff\");\r\n\r\n\t\t}\r\n\r\n\t}\r\n\t\r\n\r\n    function toUint8(bytes memory _bytes, uint256 _start) internal  returns (uint8) {\r\n    \t//set this back to pure at some point\r\n        require(_start + 1 >= _start, \"toUint8_overflow\");\r\n        require(_bytes.length >= _start + 1 , \"toUint8_outOfBounds\");\r\n        uint8 tempUint;\r\n\r\n        assembly {\r\n            tempUint := mload(add(add(_bytes, 0x1), _start))\r\n        }\r\n\r\n        return tempUint;\r\n    }\r\n\r\n\tfunction setEtherbrightPixel (uint256 _tokenId,uint  _pixn, uint  _palletN ) public {\r\n\t\t// Etherbright storage ethb =allEtherbrights[_tokenId];\r\n\t\tstring memory _priorColor=allEtherbrights[_tokenId].setPixels[_pixn];\r\n\t\tstring memory _newColor=allEtherbrights[_tokenId].pallet[_palletN];\r\n\t\tallEtherbrights[_tokenId].setPixels[_pixn]=_newColor;\r\n\t\t// string memory _newSVG=generateEtherbrightsSVG(_tokenId);\t\r\n\t\temit EtherbrightPixelChanged(_tokenId, _pixn, _priorColor, _newColor, msg.sender);\r\n\t\t\r\n\t}\r\n\tfunction getEtherbrightPixelColor (uint256 _tokenId,uint pn) public returns(string memory) {\r\n\t\treturn allEtherbrights[_tokenId].setPixels[pn];\r\n\t}\r\n\t function getEtherbrightPallet(uint256 _tokenId) public returns(string[] memory)  {\r\n\t \treturn allEtherbrights[_tokenId].pallet;\r\n\t \t\r\n\t }\r\n\tfunction getEtherbrightPixels(uint256 _tokenId) public returns(string[] memory)  {\r\n\t \treturn allEtherbrights[_tokenId].setPixels;\r\n\t} \r\n\r\n\tfunction getEtherbrightMintPixels(uint256 _tokenId) public returns(string[] memory)  {\r\n\t \treturn allEtherbrights[_tokenId].mintPixels;\r\n\t} \r\n  \t// function generateEtherbrightsSVG(uint256 _tokenId) public returns (string memory){\r\n  \t// \t//returns the svg string of the canvas\r\n  \t// \t    string memory ethbsvg = \r\n  \t// \t    string(\r\n  \t// \t    \tabi.encodePacked(\r\n   //          \t\t\t\t\t\"<svg width='150' height='180'>\", \r\n   //          \t\t\t\t\tstring(abi.encodePacked(\"<circle cx='30' cy='30' r='20' fill='\",allEtherbrights[_tokenId].setPixels[0],\"' stroke-width='9' stroke='black'/>\")),\r\n   //          \t\t\t\t\tstring(abi.encodePacked(\"<circle cx='60' cy='30' r='20' fill='\",allEtherbrights[_tokenId].setPixels[1],\"' stroke-width='9' stroke='black'/>\")),\r\n   //          \t\t\t\t\tstring(abi.encodePacked(\"<circle cx='90' cy='30' r='20' fill='\",allEtherbrights[_tokenId].setPixels[2],\"' stroke-width='9' stroke='black'/>\")), \r\n   //          \t\t\t\t\tstring(abi.encodePacked(\"<circle cx='30' cy='60' r='20' fill='\",allEtherbrights[_tokenId].setPixels[3],\"' stroke-width='9' stroke='black'/>\")), \r\n   //          \t\t\t\t\tstring(abi.encodePacked(\"<circle cx='60' cy='60' r='20' fill='\",allEtherbrights[_tokenId].setPixels[4],\"' stroke-width='9' stroke='black'/>\")), \r\n   //          \t\t\t\t\tstring(abi.encodePacked(\"<circle cx='90' cy='60' r='20' fill='\",allEtherbrights[_tokenId].setPixels[5],\"' stroke-width='9' stroke='black'/>\")), \r\n   //          \t\t\t\t\tstring(abi.encodePacked(\"<circle cx='30' cy='90' r='20' fill='\",allEtherbrights[_tokenId].setPixels[6],\"' stroke-width='9' stroke='black'/>\")), \r\n   //          \t\t\t\t\tstring(abi.encodePacked(\"<circle cx='60' cy='90' r='20' fill='\",allEtherbrights[_tokenId].setPixels[7],\"' stroke-width='9' stroke='black'/>\")), \r\n   //          \t\t\t\t\tstring(abi.encodePacked(\"<circle cx='90' cy='90' r='20' fill='\",allEtherbrights[_tokenId].setPixels[8],\"' stroke-width='9' stroke='black'/>\")),\r\n   //          \t\t\t\t\t\"</svg>\"\r\n   //      \t\t\t\t\t\t)\r\n   //      \t);\r\n  \t// \temit EtherbrightSVGgenerated(_tokenId,ethbsvg,msg.sender);\r\n  \t// \treturn ethbsvg;\r\n\r\n  \t// }\r\n\r\n\r\n}\r\n",
  "sourcePath": "H:/Expermental/nft/src/contracts/Color.sol",
  "compiler": {
    "name": "solc",
    "version": "0.7.4+commit.3f05b770.Emscripten.clang"
  },
  "schemaVersion": "3.3.4",
  "updatedAt": "2021-04-19T05:11:40.556Z",
  "networkType": "ethereum",
  "devdoc": {
    "kind": "dev",
    "methods": {
      "approve(address,uint256)": {
        "details": "See {IERC721-approve}."
      },
      "balanceOf(address)": {
        "details": "See {IERC721-balanceOf}."
      },
      "baseURI()": {
        "details": "Returns the base URI set via {_setBaseURI}. This will be automatically added as a prefix in {tokenURI} to each token's URI, or to the token ID if no specific URI is set for that token ID."
      },
      "getApproved(uint256)": {
        "details": "See {IERC721-getApproved}."
      },
      "isApprovedForAll(address,address)": {
        "details": "See {IERC721-isApprovedForAll}."
      },
      "name()": {
        "details": "See {IERC721Metadata-name}."
      },
      "owner()": {
        "details": "Returns the address of the current owner."
      },
      "ownerOf(uint256)": {
        "details": "See {IERC721-ownerOf}."
      },
      "renounceOwnership()": {
        "details": "Leaves the contract without owner. It will not be possible to call `onlyOwner` functions anymore. Can only be called by the current owner. NOTE: Renouncing ownership will leave the contract without an owner, thereby removing any functionality that is only available to the owner."
      },
      "safeTransferFrom(address,address,uint256)": {
        "details": "See {IERC721-safeTransferFrom}."
      },
      "safeTransferFrom(address,address,uint256,bytes)": {
        "details": "See {IERC721-safeTransferFrom}."
      },
      "setApprovalForAll(address,bool)": {
        "details": "See {IERC721-setApprovalForAll}."
      },
      "supportsInterface(bytes4)": {
        "details": "See {IERC165-supportsInterface}. Time complexity O(1), guaranteed to always use less than 30 000 gas."
      },
      "symbol()": {
        "details": "See {IERC721Metadata-symbol}."
      },
      "tokenByIndex(uint256)": {
        "details": "See {IERC721Enumerable-tokenByIndex}."
      },
      "tokenOfOwnerByIndex(address,uint256)": {
        "details": "See {IERC721Enumerable-tokenOfOwnerByIndex}."
      },
      "tokenURI(uint256)": {
        "details": "See {IERC721Metadata-tokenURI}."
      },
      "totalSupply()": {
        "details": "See {IERC721Enumerable-totalSupply}."
      },
      "transferFrom(address,address,uint256)": {
        "details": "See {IERC721-transferFrom}."
      },
      "transferOwnership(address)": {
        "details": "Transfers ownership of the contract to a new account (`newOwner`). Can only be called by the current owner."
      }
    },
    "version": 1
  },
  "userdoc": {
    "kind": "user",
    "methods": {},
    "version": 1
  }
}