{
  "contractName": "Color",
  "abi": [
    {
      "inputs": [],
      "stateMutability": "nonpayable",
      "type": "constructor"
    },
    {
      "anonymous": false,
      "inputs": [
        {
          "indexed": true,
          "internalType": "address",
          "name": "owner",
          "type": "address"
        },
        {
          "indexed": true,
          "internalType": "address",
          "name": "approved",
          "type": "address"
        },
        {
          "indexed": true,
          "internalType": "uint256",
          "name": "tokenId",
          "type": "uint256"
        }
      ],
      "name": "Approval",
      "type": "event"
    },
    {
      "anonymous": false,
      "inputs": [
        {
          "indexed": true,
          "internalType": "address",
          "name": "owner",
          "type": "address"
        },
        {
          "indexed": true,
          "internalType": "address",
          "name": "operator",
          "type": "address"
        },
        {
          "indexed": false,
          "internalType": "bool",
          "name": "approved",
          "type": "bool"
        }
      ],
      "name": "ApprovalForAll",
      "type": "event"
    },
    {
      "anonymous": false,
      "inputs": [
        {
          "indexed": true,
          "internalType": "address",
          "name": "by",
          "type": "address"
        }
      ],
      "name": "ClearCanvas",
      "type": "event"
    },
    {
      "anonymous": false,
      "inputs": [
        {
          "indexed": false,
          "internalType": "uint256",
          "name": "seed",
          "type": "uint256"
        },
        {
          "indexed": false,
          "internalType": "address",
          "name": "mintedBy",
          "type": "address"
        },
        {
          "indexed": false,
          "internalType": "uint256",
          "name": "nEtherbrights",
          "type": "uint256"
        }
      ],
      "name": "EtherbrightMinted",
      "type": "event"
    },
    {
      "anonymous": false,
      "inputs": [
        {
          "indexed": false,
          "internalType": "uint256",
          "name": "tokenId",
          "type": "uint256"
        },
        {
          "indexed": false,
          "internalType": "string",
          "name": "from",
          "type": "string"
        },
        {
          "indexed": false,
          "internalType": "string",
          "name": "to",
          "type": "string"
        },
        {
          "indexed": true,
          "internalType": "address",
          "name": "by",
          "type": "address"
        }
      ],
      "name": "EtherbrightPixelChanged",
      "type": "event"
    },
    {
      "anonymous": false,
      "inputs": [
        {
          "indexed": false,
          "internalType": "uint256",
          "name": "_tokenId",
          "type": "uint256"
        },
        {
          "indexed": false,
          "internalType": "string",
          "name": "svg",
          "type": "string"
        },
        {
          "indexed": true,
          "internalType": "address",
          "name": "by",
          "type": "address"
        }
      ],
      "name": "EtherbrightSVGgenerated",
      "type": "event"
    },
    {
      "anonymous": false,
      "inputs": [
        {
          "indexed": true,
          "internalType": "address",
          "name": "previousOwner",
          "type": "address"
        },
        {
          "indexed": true,
          "internalType": "address",
          "name": "newOwner",
          "type": "address"
        }
      ],
      "name": "OwnershipTransferred",
      "type": "event"
    },
    {
      "anonymous": false,
      "inputs": [
        {
          "indexed": true,
          "internalType": "uint256",
          "name": "changedPixel",
          "type": "uint256"
        },
        {
          "indexed": false,
          "internalType": "string",
          "name": "from",
          "type": "string"
        },
        {
          "indexed": false,
          "internalType": "string",
          "name": "to",
          "type": "string"
        },
        {
          "indexed": true,
          "internalType": "address",
          "name": "by",
          "type": "address"
        }
      ],
      "name": "PixelChanged",
      "type": "event"
    },
    {
      "anonymous": false,
      "inputs": [
        {
          "indexed": true,
          "internalType": "address",
          "name": "by",
          "type": "address"
        }
      ],
      "name": "ResetCanvas",
      "type": "event"
    },
    {
      "anonymous": false,
      "inputs": [
        {
          "indexed": false,
          "internalType": "string",
          "name": "SVG",
          "type": "string"
        },
        {
          "indexed": true,
          "internalType": "address",
          "name": "by",
          "type": "address"
        }
      ],
      "name": "SVGgenerated",
      "type": "event"
    },
    {
      "anonymous": false,
      "inputs": [
        {
          "indexed": true,
          "internalType": "address",
          "name": "from",
          "type": "address"
        },
        {
          "indexed": true,
          "internalType": "address",
          "name": "to",
          "type": "address"
        },
        {
          "indexed": true,
          "internalType": "uint256",
          "name": "tokenId",
          "type": "uint256"
        }
      ],
      "name": "Transfer",
      "type": "event"
    },
    {
      "inputs": [
        {
          "internalType": "address",
          "name": "to",
          "type": "address"
        },
        {
          "internalType": "uint256",
          "name": "tokenId",
          "type": "uint256"
        }
      ],
      "name": "approve",
      "outputs": [],
      "stateMutability": "nonpayable",
      "type": "function"
    },
    {
      "inputs": [
        {
          "internalType": "address",
          "name": "owner",
          "type": "address"
        }
      ],
      "name": "balanceOf",
      "outputs": [
        {
          "internalType": "uint256",
          "name": "",
          "type": "uint256"
        }
      ],
      "stateMutability": "view",
      "type": "function"
    },
    {
      "inputs": [],
      "name": "baseURI",
      "outputs": [
        {
          "internalType": "string",
          "name": "",
          "type": "string"
        }
      ],
      "stateMutability": "view",
      "type": "function"
    },
    {
      "inputs": [
        {
          "internalType": "uint256",
          "name": "",
          "type": "uint256"
        }
      ],
      "name": "canvasSVG",
      "outputs": [
        {
          "internalType": "string",
          "name": "",
          "type": "string"
        }
      ],
      "stateMutability": "view",
      "type": "function"
    },
    {
      "inputs": [
        {
          "internalType": "uint256",
          "name": "",
          "type": "uint256"
        }
      ],
      "name": "colors",
      "outputs": [
        {
          "internalType": "string",
          "name": "",
          "type": "string"
        }
      ],
      "stateMutability": "view",
      "type": "function"
    },
    {
      "inputs": [
        {
          "internalType": "uint256",
          "name": "tokenId",
          "type": "uint256"
        }
      ],
      "name": "getApproved",
      "outputs": [
        {
          "internalType": "address",
          "name": "",
          "type": "address"
        }
      ],
      "stateMutability": "view",
      "type": "function"
    },
    {
      "inputs": [
        {
          "internalType": "address",
          "name": "owner",
          "type": "address"
        },
        {
          "internalType": "address",
          "name": "operator",
          "type": "address"
        }
      ],
      "name": "isApprovedForAll",
      "outputs": [
        {
          "internalType": "bool",
          "name": "",
          "type": "bool"
        }
      ],
      "stateMutability": "view",
      "type": "function"
    },
    {
      "inputs": [],
      "name": "name",
      "outputs": [
        {
          "internalType": "string",
          "name": "",
          "type": "string"
        }
      ],
      "stateMutability": "view",
      "type": "function"
    },
    {
      "inputs": [],
      "name": "numberOfEtherbrights",
      "outputs": [
        {
          "internalType": "uint256",
          "name": "",
          "type": "uint256"
        }
      ],
      "stateMutability": "view",
      "type": "function"
    },
    {
      "inputs": [],
      "name": "owner",
      "outputs": [
        {
          "internalType": "address",
          "name": "",
          "type": "address"
        }
      ],
      "stateMutability": "view",
      "type": "function"
    },
    {
      "inputs": [
        {
          "internalType": "uint256",
          "name": "tokenId",
          "type": "uint256"
        }
      ],
      "name": "ownerOf",
      "outputs": [
        {
          "internalType": "address",
          "name": "",
          "type": "address"
        }
      ],
      "stateMutability": "view",
      "type": "function"
    },
    {
      "inputs": [
        {
          "internalType": "uint256",
          "name": "",
          "type": "uint256"
        }
      ],
      "name": "pallet",
      "outputs": [
        {
          "internalType": "string",
          "name": "",
          "type": "string"
        }
      ],
      "stateMutability": "view",
      "type": "function"
    },
    {
      "inputs": [
        {
          "internalType": "uint256",
          "name": "",
          "type": "uint256"
        }
      ],
      "name": "pixels",
      "outputs": [
        {
          "internalType": "string",
          "name": "",
          "type": "string"
        }
      ],
      "stateMutability": "view",
      "type": "function"
    },
    {
      "inputs": [],
      "name": "renounceOwnership",
      "outputs": [],
      "stateMutability": "nonpayable",
      "type": "function"
    },
    {
      "inputs": [
        {
          "internalType": "address",
          "name": "from",
          "type": "address"
        },
        {
          "internalType": "address",
          "name": "to",
          "type": "address"
        },
        {
          "internalType": "uint256",
          "name": "tokenId",
          "type": "uint256"
        }
      ],
      "name": "safeTransferFrom",
      "outputs": [],
      "stateMutability": "nonpayable",
      "type": "function"
    },
    {
      "inputs": [
        {
          "internalType": "address",
          "name": "from",
          "type": "address"
        },
        {
          "internalType": "address",
          "name": "to",
          "type": "address"
        },
        {
          "internalType": "uint256",
          "name": "tokenId",
          "type": "uint256"
        },
        {
          "internalType": "bytes",
          "name": "_data",
          "type": "bytes"
        }
      ],
      "name": "safeTransferFrom",
      "outputs": [],
      "stateMutability": "nonpayable",
      "type": "function"
    },
    {
      "inputs": [
        {
          "internalType": "address",
          "name": "operator",
          "type": "address"
        },
        {
          "internalType": "bool",
          "name": "approved",
          "type": "bool"
        }
      ],
      "name": "setApprovalForAll",
      "outputs": [],
      "stateMutability": "nonpayable",
      "type": "function"
    },
    {
      "inputs": [
        {
          "internalType": "bytes4",
          "name": "interfaceId",
          "type": "bytes4"
        }
      ],
      "name": "supportsInterface",
      "outputs": [
        {
          "internalType": "bool",
          "name": "",
          "type": "bool"
        }
      ],
      "stateMutability": "view",
      "type": "function"
    },
    {
      "inputs": [],
      "name": "symbol",
      "outputs": [
        {
          "internalType": "string",
          "name": "",
          "type": "string"
        }
      ],
      "stateMutability": "view",
      "type": "function"
    },
    {
      "inputs": [
        {
          "internalType": "uint256",
          "name": "index",
          "type": "uint256"
        }
      ],
      "name": "tokenByIndex",
      "outputs": [
        {
          "internalType": "uint256",
          "name": "",
          "type": "uint256"
        }
      ],
      "stateMutability": "view",
      "type": "function"
    },
    {
      "inputs": [
        {
          "internalType": "address",
          "name": "owner",
          "type": "address"
        },
        {
          "internalType": "uint256",
          "name": "index",
          "type": "uint256"
        }
      ],
      "name": "tokenOfOwnerByIndex",
      "outputs": [
        {
          "internalType": "uint256",
          "name": "",
          "type": "uint256"
        }
      ],
      "stateMutability": "view",
      "type": "function"
    },
    {
      "inputs": [
        {
          "internalType": "uint256",
          "name": "tokenId",
          "type": "uint256"
        }
      ],
      "name": "tokenURI",
      "outputs": [
        {
          "internalType": "string",
          "name": "",
          "type": "string"
        }
      ],
      "stateMutability": "view",
      "type": "function"
    },
    {
      "inputs": [],
      "name": "totalSupply",
      "outputs": [
        {
          "internalType": "uint256",
          "name": "",
          "type": "uint256"
        }
      ],
      "stateMutability": "view",
      "type": "function"
    },
    {
      "inputs": [
        {
          "internalType": "address",
          "name": "from",
          "type": "address"
        },
        {
          "internalType": "address",
          "name": "to",
          "type": "address"
        },
        {
          "internalType": "uint256",
          "name": "tokenId",
          "type": "uint256"
        }
      ],
      "name": "transferFrom",
      "outputs": [],
      "stateMutability": "nonpayable",
      "type": "function"
    },
    {
      "inputs": [
        {
          "internalType": "address",
          "name": "newOwner",
          "type": "address"
        }
      ],
      "name": "transferOwnership",
      "outputs": [],
      "stateMutability": "nonpayable",
      "type": "function"
    },
    {
      "inputs": [
        {
          "internalType": "address",
          "name": "to",
          "type": "address"
        }
      ],
      "name": "mintEtherbright",
      "outputs": [],
      "stateMutability": "nonpayable",
      "type": "function"
    },
    {
      "inputs": [
        {
          "internalType": "uint256",
          "name": "_tokenId",
          "type": "uint256"
        },
        {
          "internalType": "uint256",
          "name": "_pixn",
          "type": "uint256"
        },
        {
          "internalType": "uint256",
          "name": "_palletN",
          "type": "uint256"
        }
      ],
      "name": "setEtherbrightPixel",
      "outputs": [],
      "stateMutability": "nonpayable",
      "type": "function"
    },
    {
      "inputs": [
        {
          "internalType": "uint256",
          "name": "_tokenId",
          "type": "uint256"
        }
      ],
      "name": "generateEtherbrightsSVG",
      "outputs": [],
      "stateMutability": "nonpayable",
      "type": "function"
    },
    {
      "inputs": [
        {
          "internalType": "uint256",
          "name": "_pixn",
          "type": "uint256"
        },
        {
          "internalType": "string",
          "name": "_pixcolor",
          "type": "string"
        }
      ],
      "name": "setPixel",
      "outputs": [],
      "stateMutability": "nonpayable",
      "type": "function"
    },
    {
      "inputs": [],
      "name": "generateSVG",
      "outputs": [
        {
          "internalType": "string",
          "name": "",
          "type": "string"
        }
      ],
      "stateMutability": "nonpayable",
      "type": "function"
    },
    {
      "inputs": [],
      "name": "getjunk",
      "outputs": [
        {
          "internalType": "uint256",
          "name": "",
          "type": "uint256"
        }
      ],
      "stateMutability": "view",
      "type": "function"
    },
    {
      "inputs": [
        {
          "internalType": "string",
          "name": "_color",
          "type": "string"
        }
      ],
      "name": "testReturn",
      "outputs": [
        {
          "internalType": "string",
          "name": "",
          "type": "string"
        }
      ],
      "stateMutability": "nonpayable",
      "type": "function"
    },
    {
      "inputs": [
        {
          "internalType": "string",
          "name": "_color",
          "type": "string"
        }
      ],
      "name": "mint",
      "outputs": [],
      "stateMutability": "nonpayable",
      "type": "function"
    }
  ],
  "bytecode": "0x6080604052600a600c556003600d556003600e55600e54600d5402600f5560006013553480156200002f57600080fd5b506040518060400160405280600581526020017f436f6c6f720000000000000000000000000000000000000000000000000000008152506040518060400160405280600581526020017f434f4c4f52000000000000000000000000000000000000000000000000000000815250620000b46301ffc9a760e01b6200022860201b60201c565b8160069080519060200190620000cc92919062001291565b508060079080519060200190620000e592919062001291565b50620000fe6380ac58cd60e01b6200022860201b60201c565b62000116635b5e139f60e01b6200022860201b60201c565b6200012e63780e9d6360e01b6200022860201b60201c565b50506000620001426200033160201b60201c565b905080600a60006101000a81548173ffffffffffffffffffffffffffffffffffffffff021916908373ffffffffffffffffffffffffffffffffffffffff1602179055508073ffffffffffffffffffffffffffffffffffffffff16600073ffffffffffffffffffffffffffffffffffffffff167f8be0079c531659141344cd1fd0a4f28419497f9722a3daafe3b4186f6b6457e060405160405180910390a350620001f16200033960201b60201c565b62000201620004fb60201b60201c565b620002116200057c60201b60201c565b620002216200066f60201b60201c565b50620013e5565b63ffffffff60e01b817bffffffffffffffffffffffffffffffffffffffffffffffffffffffff19161415620002c5576040517f08c379a000000000000000000000000000000000000000000000000000000000815260040180806020018281038252601c8152602001807f4552433136353a20696e76616c696420696e746572666163652069640000000081525060200191505060405180910390fd5b6001600080837bffffffffffffffffffffffffffffffffffffffffffffffffffffffff19167bffffffffffffffffffffffffffffffffffffffffffffffffffffffff1916815260200190815260200160002060006101000a81548160ff02191690831515021790555050565b600033905090565b601180600181540180825580915050600190039060005260206000200160006040518060400160405280600781526020017f233030303030300000000000000000000000000000000000000000000000000081525090919091509080519060200190620003a892919062001291565b50601180600181540180825580915050600190039060005260206000200160006040518060400160405280600781526020017f2366663030303000000000000000000000000000000000000000000000000000815250909190915090805190602001906200041892919062001291565b50601180600181540180825580915050600190039060005260206000200160006040518060400160405280600781526020017f2330306666303000000000000000000000000000000000000000000000000000815250909190915090805190602001906200048892919062001291565b50601180600181540180825580915050600190039060005260206000200160006040518060400160405280600781526020017f233030303066660000000000000000000000000000000000000000000000000081525090919091509080519060200190620004f892919062001291565b50565b60005b600f548110156200057957601060116000815481106200051a57fe5b906000526020600020019080600181540180825580915050600190039060005260206000200160009091909190915090805460018160011615610100020316600290046200056a92919062001328565b508080600101915050620004fe565b50565b60005b600f548110156200066c576200065e8160116001600385816200059e57fe5b060181548110620005ab57fe5b906000526020600020018054600181600116156101000203166002900480601f0160208091040260200160405190810160405280929190818152602001828054600181600116156101000203166002900480156200064d5780601f1062000621576101008083540402835291602001916200064d565b820191906000526020600020905b8154815290600101906020018083116200062f57829003601f168201915b50505050506200106c60201b60201c565b80806001019150506200057f565b50565b60608060106000815481106200068157fe5b906000526020600020016040516020018080620074e26025913960250182805460018160011615610100020316600290048015620006f95780601f10620006d6576101008083540402835291820191620006f9565b820191906000526020600020905b815481529060010190602001808311620006e4575b505080620074756023913960230191505060405160208183030381529060405260106001815481106200072857fe5b9060005260206000200160405160200180806200752c6025913960250182805460018160011615610100020316600290048015620007a05780601f106200077d576101008083540402835291820191620007a0565b820191906000526020600020905b8154815290600101906020018083116200078b575b50508062007475602391396023019150506040516020818303038152906040526010600281548110620007cf57fe5b906000526020600020016040516020018080620075076025913960250182805460018160011615610100020316600290048015620008475780601f106200082457610100808354040283529182019162000847565b820191906000526020600020905b81548152906001019060200180831162000832575b505080620074756023913960230191505060405160208183030381529060405260106003815481106200087657fe5b9060005260206000200160405160200180806200759b6025913960250182805460018160011615610100020316600290048015620008ee5780601f10620008cb576101008083540402835291820191620008ee565b820191906000526020600020905b815481529060010190602001808311620008d9575b505080620074756023913960230191505060405160208183030381529060405260106004815481106200091d57fe5b906000526020600020016040516020018080620074986025913960250182805460018160011615610100020316600290048015620009955780601f106200097257610100808354040283529182019162000995565b820191906000526020600020905b81548152906001019060200180831162000980575b50508062007475602391396023019150506040516020818303038152906040526010600581548110620009c457fe5b90600052602060002001604051602001808062007450602591396025018280546001816001161561010002031660029004801562000a3c5780601f1062000a1957610100808354040283529182019162000a3c565b820191906000526020600020905b81548152906001019060200180831162000a27575b5050806200747560239139602301915050604051602081830303815290604052601060068154811062000a6b57fe5b906000526020600020016040516020018080620074bd602591396025018280546001816001161561010002031660029004801562000ae35780601f1062000ac057610100808354040283529182019162000ae3565b820191906000526020600020905b81548152906001019060200180831162000ace575b5050806200747560239139602301915050604051602081830303815290604052601060078154811062000b1257fe5b90600052602060002001604051602001808062007576602591396025018280546001816001161561010002031660029004801562000b8a5780601f1062000b6757610100808354040283529182019162000b8a565b820191906000526020600020905b81548152906001019060200180831162000b75575b5050806200747560239139602301915050604051602081830303815290604052601060088154811062000bb957fe5b90600052602060002001604051602001808062007551602591396025018280546001816001161561010002031660029004801562000c315780601f1062000c0e57610100808354040283529182019162000c31565b820191906000526020600020905b81548152906001019060200180831162000c1c575b505080620074756023913960230191505060405160208183030381529060405260405160200180807f3c7376672077696474683d2731353027206865696768743d27313830273e0000815250601e018a805190602001908083835b6020831062000cb1578051825260208201915060208101905060208303925062000c8c565b6001836020036101000a03801982511681845116808217855250505050505090500189805190602001908083835b6020831062000d04578051825260208201915060208101905060208303925062000cdf565b6001836020036101000a03801982511681845116808217855250505050505090500188805190602001908083835b6020831062000d57578051825260208201915060208101905060208303925062000d32565b6001836020036101000a03801982511681845116808217855250505050505090500187805190602001908083835b6020831062000daa578051825260208201915060208101905060208303925062000d85565b6001836020036101000a03801982511681845116808217855250505050505090500186805190602001908083835b6020831062000dfd578051825260208201915060208101905060208303925062000dd8565b6001836020036101000a03801982511681845116808217855250505050505090500185805190602001908083835b6020831062000e50578051825260208201915060208101905060208303925062000e2b565b6001836020036101000a03801982511681845116808217855250505050505090500184805190602001908083835b6020831062000ea3578051825260208201915060208101905060208303925062000e7e565b6001836020036101000a03801982511681845116808217855250505050505090500183805190602001908083835b6020831062000ef6578051825260208201915060208101905060208303925062000ed1565b6001836020036101000a03801982511681845116808217855250505050505090500182805190602001908083835b6020831062000f49578051825260208201915060208101905060208303925062000f24565b6001836020036101000a038019825116818451168082178552505050505050905001807f3c2f7376673e0000000000000000000000000000000000000000000000000000815250600601995050505050505050505060405160208183030381529060405290503373ffffffffffffffffffffffffffffffffffffffff167f73cc29bc981d0bb11f21b055e91e88c3955bbe54a252455677618cb64c31e356826040518080602001828103825283818151815260200191508051906020019080838360005b838110156200102a5780820151818401526020810190506200100d565b50505050905090810190601f168015620010585780820380516001836020036101000a031916815260200191505b509250505060405180910390a28091505090565b6060601083815481106200107c57fe5b906000526020600020018054600181600116156101000203166002900480601f0160208091040260200160405190810160405280929190818152602001828054600181600116156101000203166002900480156200111e5780601f10620010f2576101008083540402835291602001916200111e565b820191906000526020600020905b8154815290600101906020018083116200110057829003601f168201915b5050505050905081601084815481106200113457fe5b9060005260206000200190805190602001906200115392919062001291565b503373ffffffffffffffffffffffffffffffffffffffff16837f176ff2d12d5df6e831b6cdf0336d3d96822178d039bdba36513529961b81a67d8385604051808060200180602001838103835285818151815260200191508051906020019080838360005b83811015620011d5578082015181840152602081019050620011b8565b50505050905090810190601f168015620012035780820380516001836020036101000a031916815260200191505b50838103825284818151815260200191508051906020019080838360005b838110156200123e57808201518184015260208101905062001221565b50505050905090810190601f1680156200126c5780820380516001836020036101000a031916815260200191505b5094505050505060405180910390a36200128b6200066f60201b60201c565b50505050565b828054600181600116156101000203166002900490600052602060002090601f016020900481019282620012c9576000855562001315565b82601f10620012e457805160ff191683800117855562001315565b8280016001018555821562001315579182015b8281111562001314578251825591602001919060010190620012f7565b5b509050620013249190620013c6565b5090565b828054600181600116156101000203166002900490600052602060002090601f016020900481019282620013605760008555620013b3565b82601f10620013735780548555620013b3565b82800160010185558215620013b357600052602060002091601f016020900482015b82811115620013b257825482559160010191906001019062001395565b5b509050620013c29190620013c6565b5090565b5b80821115620013e1576000816000905550600101620013c7565b5090565b61605b80620013f56000396000f3fe608060405234801561001057600080fd5b50600436106101fb5760003560e01c80637707f2141161011a578063b1d22c4c116100ad578063d2ea1b7b1161007c578063d2ea1b7b14610db6578063d85d3d2714610e5d578063e758e2f314610f18578063e985e9c514610fdd578063f2fde38b14611057576101fb565b8063b1d22c4c14610b45578063b88d4fde14610b63578063bd11f69d14610c68578063c87b56dd14610d0f576101fb565b80639ff9d894116100e95780639ff9d894146109ad578063a22cb46514610a54578063a969e8a214610aa4578063ad711e9e14610ac2576101fb565b80637707f2141461071b5780638da5cb5b1461084f5780638da7f2321461088357806395d89b411461092a576101fb565b80634f6ccce711610192578063643c6dd911610161578063643c6dd9146105f25780636c0360eb1461063657806370a08231146106b9578063715018a614610711576101fb565b80634f6ccce7146104e85780635df3efd91461052a5780635e697d811461056c5780636352211e1461059a576101fb565b806318160ddd116101ce57806318160ddd1461038c57806323b872dd146103aa5780632f745c591461041857806342842e0e1461047a576101fb565b806301ffc9a71461020057806306fdde0314610263578063081812fc146102e6578063095ea7b31461033e575b600080fd5b61024b6004803603602081101561021657600080fd5b8101908080357bffffffffffffffffffffffffffffffffffffffffffffffffffffffff1916906020019092919050505061109b565b60405180821515815260200191505060405180910390f35b61026b611102565b6040518080602001828103825283818151815260200191508051906020019080838360005b838110156102ab578082015181840152602081019050610290565b50505050905090810190601f1680156102d85780820380516001836020036101000a031916815260200191505b509250505060405180910390f35b610312600480360360208110156102fc57600080fd5b81019080803590602001909291905050506111a4565b604051808273ffffffffffffffffffffffffffffffffffffffff16815260200191505060405180910390f35b61038a6004803603604081101561035457600080fd5b81019080803573ffffffffffffffffffffffffffffffffffffffff1690602001909291908035906020019092919050505061123f565b005b610394611383565b6040518082815260200191505060405180910390f35b610416600480360360608110156103c057600080fd5b81019080803573ffffffffffffffffffffffffffffffffffffffff169060200190929190803573ffffffffffffffffffffffffffffffffffffffff16906020019092919080359060200190929190505050611394565b005b6104646004803603604081101561042e57600080fd5b81019080803573ffffffffffffffffffffffffffffffffffffffff1690602001909291908035906020019092919050505061140a565b6040518082815260200191505060405180910390f35b6104e66004803603606081101561049057600080fd5b81019080803573ffffffffffffffffffffffffffffffffffffffff169060200190929190803573ffffffffffffffffffffffffffffffffffffffff16906020019092919080359060200190929190505050611465565b005b610514600480360360208110156104fe57600080fd5b8101908080359060200190929190505050611485565b6040518082815260200191505060405180910390f35b61056a6004803603606081101561054057600080fd5b810190808035906020019092919080359060200190929190803590602001909291905050506114a8565b005b6105986004803603602081101561058257600080fd5b8101908080359060200190929190505050611789565b005b6105c6600480360360208110156105b057600080fd5b81019080803590602001909291905050506121ea565b604051808273ffffffffffffffffffffffffffffffffffffffff16815260200191505060405180910390f35b6106346004803603602081101561060857600080fd5b81019080803573ffffffffffffffffffffffffffffffffffffffff169060200190929190505050612221565b005b61063e612392565b6040518080602001828103825283818151815260200191508051906020019080838360005b8381101561067e578082015181840152602081019050610663565b50505050905090810190601f1680156106ab5780820380516001836020036101000a031916815260200191505b509250505060405180910390f35b6106fb600480360360208110156106cf57600080fd5b81019080803573ffffffffffffffffffffffffffffffffffffffff169060200190929190505050612434565b6040518082815260200191505060405180910390f35b610719612509565b005b6107d46004803603602081101561073157600080fd5b810190808035906020019064010000000081111561074e57600080fd5b82018360208201111561076057600080fd5b8035906020019184600183028401116401000000008311171561078257600080fd5b91908080601f016020809104026020016040519081016040528093929190818152602001838380828437600081840152601f19601f820116905080830192505050505050509192919290505050612679565b6040518080602001828103825283818151815260200191508051906020019080838360005b838110156108145780820151818401526020810190506107f9565b50505050905090810190601f1680156108415780820380516001836020036101000a031916815260200191505b509250505060405180910390f35b610857612683565b604051808273ffffffffffffffffffffffffffffffffffffffff16815260200191505060405180910390f35b6108af6004803603602081101561089957600080fd5b81019080803590602001909291905050506126ad565b6040518080602001828103825283818151815260200191508051906020019080838360005b838110156108ef5780820151818401526020810190506108d4565b50505050905090810190601f16801561091c5780820380516001836020036101000a031916815260200191505b509250505060405180910390f35b610932612769565b6040518080602001828103825283818151815260200191508051906020019080838360005b83811015610972578082015181840152602081019050610957565b50505050905090810190601f16801561099f5780820380516001836020036101000a031916815260200191505b509250505060405180910390f35b6109d9600480360360208110156109c357600080fd5b810190808035906020019092919050505061280b565b6040518080602001828103825283818151815260200191508051906020019080838360005b83811015610a195780820151818401526020810190506109fe565b50505050905090810190601f168015610a465780820380516001836020036101000a031916815260200191505b509250505060405180910390f35b610aa260048036036040811015610a6a57600080fd5b81019080803573ffffffffffffffffffffffffffffffffffffffff1690602001909291908035151590602001909291905050506128c7565b005b610aac612a7d565b6040518082815260200191505060405180910390f35b610aca612a87565b6040518080602001828103825283818151815260200191508051906020019080838360005b83811015610b0a578082015181840152602081019050610aef565b50505050905090810190601f168015610b375780820380516001836020036101000a031916815260200191505b509250505060405180910390f35b610b4d613430565b6040518082815260200191505060405180910390f35b610c6660048036036080811015610b7957600080fd5b81019080803573ffffffffffffffffffffffffffffffffffffffff169060200190929190803573ffffffffffffffffffffffffffffffffffffffff1690602001909291908035906020019092919080359060200190640100000000811115610be057600080fd5b820183602082011115610bf257600080fd5b80359060200191846001830284011164010000000083111715610c1457600080fd5b91908080601f016020809104026020016040519081016040528093929190818152602001838380828437600081840152601f19601f820116905080830192505050505050509192919290505050613436565b005b610c9460048036036020811015610c7e57600080fd5b81019080803590602001909291905050506134ae565b6040518080602001828103825283818151815260200191508051906020019080838360005b83811015610cd4578082015181840152602081019050610cb9565b50505050905090810190601f168015610d015780820380516001836020036101000a031916815260200191505b509250505060405180910390f35b610d3b60048036036020811015610d2557600080fd5b810190808035906020019092919050505061356a565b6040518080602001828103825283818151815260200191508051906020019080838360005b83811015610d7b578082015181840152602081019050610d60565b50505050905090810190601f168015610da85780820380516001836020036101000a031916815260200191505b509250505060405180910390f35b610de260048036036020811015610dcc57600080fd5b810190808035906020019092919050505061383b565b6040518080602001828103825283818151815260200191508051906020019080838360005b83811015610e22578082015181840152602081019050610e07565b50505050905090810190601f168015610e4f5780820380516001836020036101000a031916815260200191505b509250505060405180910390f35b610f1660048036036020811015610e7357600080fd5b8101908080359060200190640100000000811115610e9057600080fd5b820183602082011115610ea257600080fd5b80359060200191846001830284011164010000000083111715610ec457600080fd5b91908080601f016020809104026020016040519081016040528093929190818152602001838380828437600081840152601f19601f8201169050808301925050505050505091929192905050506138f7565b005b610fdb60048036036040811015610f2e57600080fd5b810190808035906020019092919080359060200190640100000000811115610f5557600080fd5b820183602082011115610f6757600080fd5b80359060200191846001830284011164010000000083111715610f8957600080fd5b91908080601f016020809104026020016040519081016040528093929190818152602001838380828437600081840152601f19601f820116905080830192505050505050509192919290505050613a51565b005b61103f60048036036040811015610ff357600080fd5b81019080803573ffffffffffffffffffffffffffffffffffffffff169060200190929190803573ffffffffffffffffffffffffffffffffffffffff169060200190929190505050613c60565b60405180821515815260200191505060405180910390f35b6110996004803603602081101561106d57600080fd5b81019080803573ffffffffffffffffffffffffffffffffffffffff169060200190929190505050613cf4565b005b6000806000837bffffffffffffffffffffffffffffffffffffffffffffffffffffffff19167bffffffffffffffffffffffffffffffffffffffffffffffffffffffff1916815260200190815260200160002060009054906101000a900460ff169050919050565b606060068054600181600116156101000203166002900480601f01602080910402602001604051908101604052809291908181526020018280546001816001161561010002031660029004801561119a5780601f1061116f5761010080835404028352916020019161119a565b820191906000526020600020905b81548152906001019060200180831161117d57829003601f168201915b5050505050905090565b60006111af82613ee9565b611204576040517f08c379a000000000000000000000000000000000000000000000000000000000815260040180806020018281038252602c815260200180615ebc602c913960400191505060405180910390fd5b6004600083815260200190815260200160002060009054906101000a900473ffffffffffffffffffffffffffffffffffffffff169050919050565b600061124a826121ea565b90508073ffffffffffffffffffffffffffffffffffffffff168373ffffffffffffffffffffffffffffffffffffffff1614156112d1576040517f08c379a0000000000000000000000000000000000000000000000000000000008152600401808060200182810382526021815260200180615fd46021913960400191505060405180910390fd5b8073ffffffffffffffffffffffffffffffffffffffff166112f0613f06565b73ffffffffffffffffffffffffffffffffffffffff16148061131f575061131e81611319613f06565b613c60565b5b611374576040517f08c379a0000000000000000000000000000000000000000000000000000000008152600401808060200182810382526038815260200180615dc56038913960400191505060405180910390fd5b61137e8383613f0e565b505050565b600061138f6002613fc7565b905090565b6113a561139f613f06565b82613fdc565b6113fa576040517f08c379a0000000000000000000000000000000000000000000000000000000008152600401808060200182810382526031815260200180615ff56031913960400191505060405180910390fd5b6114058383836140d0565b505050565b600061145d82600160008673ffffffffffffffffffffffffffffffffffffffff1673ffffffffffffffffffffffffffffffffffffffff16815260200190815260200160002061431390919063ffffffff16565b905092915050565b61148083838360405180602001604052806000815250613436565b505050565b60008061149c83600261432d90919063ffffffff16565b50905080915050919050565b600060156000858152602001908152602001600020905060608160000184815481106114d057fe5b906000526020600020018054600181600116156101000203166002900480601f01602080910402602001604051908101604052809291908181526020018280546001816001161561010002031660029004801561156e5780601f106115435761010080835404028352916020019161156e565b820191906000526020600020905b81548152906001019060200180831161155157829003601f168201915b50505050509050606082600101848154811061158657fe5b906000526020600020018054600181600116156101000203166002900480601f0160208091040260200160405190810160405280929190818152602001828054600181600116156101000203166002900480156116245780601f106115f957610100808354040283529160200191611624565b820191906000526020600020905b81548152906001019060200180831161160757829003601f168201915b505050505090508083600001868154811061163b57fe5b906000526020600020019080519060200190611658929190615a0e565b503373ffffffffffffffffffffffffffffffffffffffff167fd7f2ce3446c015bec94249b7a3b87cec2a8a37db3ada820a11f7f7c71e0860d9878484604051808481526020018060200180602001838103835285818151815260200191508051906020019080838360005b838110156116de5780820151818401526020810190506116c3565b50505050905090810190601f16801561170b5780820380516001836020036101000a031916815260200191505b50838103825284818151815260200191508051906020019080838360005b83811015611744578082015181840152602081019050611729565b50505050905090810190601f1680156117715780820380516001836020036101000a031916815260200191505b509550505050505060405180910390a2505050505050565b6060601560008381526020019081526020016000206000016000815481106117ad57fe5b906000526020600020016040516020018080615dfd60259139602501828054600181600116156101000203166002900480156118205780601f106117fe576101008083540402835291820191611820565b820191906000526020600020905b81548152906001019060200180831161180c575b505080615ce2602391396023019150506040516020818303038152906040526015600084815260200190815260200160002060000160018154811061186157fe5b906000526020600020016040516020018080615ee860259139602501828054600181600116156101000203166002900480156118d45780601f106118b25761010080835404028352918201916118d4565b820191906000526020600020905b8154815290600101906020018083116118c0575b505080615ce2602391396023019150506040516020818303038152906040526015600085815260200190815260200160002060000160028154811061191557fe5b906000526020600020016040516020018080615e9760259139602501828054600181600116156101000203166002900480156119885780601f10611966576101008083540402835291820191611988565b820191906000526020600020905b815481529060010190602001808311611974575b505080615ce260239139602301915050604051602081830303815290604052601560008681526020019081526020016000206000016003815481106119c957fe5b906000526020600020016040516020018080615faf6025913960250182805460018160011615610100020316600290048015611a3c5780601f10611a1a576101008083540402835291820191611a3c565b820191906000526020600020905b815481529060010190602001808311611a28575b505080615ce26023913960230191505060405160208183030381529060405260156000878152602001908152602001600020600001600481548110611a7d57fe5b906000526020600020016040516020018080615d7b6025913960250182805460018160011615610100020316600290048015611af05780601f10611ace576101008083540402835291820191611af0565b820191906000526020600020905b815481529060010190602001808311611adc575b505080615ce26023913960230191505060405160208183030381529060405260156000888152602001908152602001600020600001600581548110611b3157fe5b906000526020600020016040516020018080615c976025913960250182805460018160011615610100020316600290048015611ba45780601f10611b82576101008083540402835291820191611ba4565b820191906000526020600020905b815481529060010190602001808311611b90575b505080615ce26023913960230191505060405160208183030381529060405260156000898152602001908152602001600020600001600681548110611be557fe5b906000526020600020016040516020018080615da06025913960250182805460018160011615610100020316600290048015611c585780601f10611c36576101008083540402835291820191611c58565b820191906000526020600020905b815481529060010190602001808311611c44575b505080615ce260239139602301915050604051602081830303815290604052601560008a8152602001908152602001600020600001600781548110611c9957fe5b906000526020600020016040516020018080615f8a6025913960250182805460018160011615610100020316600290048015611d0c5780601f10611cea576101008083540402835291820191611d0c565b820191906000526020600020905b815481529060010190602001808311611cf8575b505080615ce260239139602301915050604051602081830303815290604052601560008b8152602001908152602001600020600001600881548110611d4d57fe5b906000526020600020016040516020018080615f656025913960250182805460018160011615610100020316600290048015611dc05780601f10611d9e576101008083540402835291820191611dc0565b820191906000526020600020905b815481529060010190602001808311611dac575b505080615ce26023913960230191505060405160208183030381529060405260405160200180807f3c7376672077696474683d2731353027206865696768743d27313830273e0000815250601e018a805190602001908083835b60208310611e3d5780518252602082019150602081019050602083039250611e1a565b6001836020036101000a03801982511681845116808217855250505050505090500189805190602001908083835b60208310611e8e5780518252602082019150602081019050602083039250611e6b565b6001836020036101000a03801982511681845116808217855250505050505090500188805190602001908083835b60208310611edf5780518252602082019150602081019050602083039250611ebc565b6001836020036101000a03801982511681845116808217855250505050505090500187805190602001908083835b60208310611f305780518252602082019150602081019050602083039250611f0d565b6001836020036101000a03801982511681845116808217855250505050505090500186805190602001908083835b60208310611f815780518252602082019150602081019050602083039250611f5e565b6001836020036101000a03801982511681845116808217855250505050505090500185805190602001908083835b60208310611fd25780518252602082019150602081019050602083039250611faf565b6001836020036101000a03801982511681845116808217855250505050505090500184805190602001908083835b602083106120235780518252602082019150602081019050602083039250612000565b6001836020036101000a03801982511681845116808217855250505050505090500183805190602001908083835b602083106120745780518252602082019150602081019050602083039250612051565b6001836020036101000a03801982511681845116808217855250505050505090500182805190602001908083835b602083106120c557805182526020820191506020810190506020830392506120a2565b6001836020036101000a038019825116818451168082178552505050505050905001807f3c2f7376673e0000000000000000000000000000000000000000000000000000815250600601995050505050505050505060405160208183030381529060405290503373ffffffffffffffffffffffffffffffffffffffff167fda728db9fe522c946828617761ea019c7a89ac79b647bf14c2b5c691bfad2fb383836040518083815260200180602001828103825283818151815260200191508051906020019080838360005b838110156121ab578082015181840152602081019050612190565b50505050905090810190601f1680156121d85780820380516001836020036101000a031916815260200191505b50935050505060405180910390a25050565b600061221a82604051806060016040528060298152602001615e4c6029913960026143599092919063ffffffff16565b9050919050565b60004282604051602001808381526020018273ffffffffffffffffffffffffffffffffffffffff1660601b81526014019250505060405160208183030381529060405280519060200120905060008160001c90506000610fa082169050612286615a9c565b81816060018181525050806015600085815260200190815260200160002060008201518160000190805190602001906122c0929190615ac4565b5060208201518160010190805190602001906122dd929190615ac4565b5060408201518160020190805190602001906122fa929190615ac4565b506060820151816003015590505061231183614378565b61231b33846144c5565b60016013600082825401925050819055507fc6a9fee4685459422a48632aa9afdc862bedbbb8e442df17ff5e51e0011ae5318286601354604051808481526020018373ffffffffffffffffffffffffffffffffffffffff168152602001828152602001935050505060405180910390a15050505050565b606060098054600181600116156101000203166002900480601f01602080910402602001604051908101604052809291908181526020018280546001816001161561010002031660029004801561242a5780601f106123ff5761010080835404028352916020019161242a565b820191906000526020600020905b81548152906001019060200180831161240d57829003601f168201915b5050505050905090565b60008073ffffffffffffffffffffffffffffffffffffffff168273ffffffffffffffffffffffffffffffffffffffff1614156124bb576040517f08c379a000000000000000000000000000000000000000000000000000000000815260040180806020018281038252602a815260200180615e22602a913960400191505060405180910390fd5b612502600160008473ffffffffffffffffffffffffffffffffffffffff1673ffffffffffffffffffffffffffffffffffffffff1681526020019081526020016000206146b9565b9050919050565b612511613f06565b73ffffffffffffffffffffffffffffffffffffffff1661252f612683565b73ffffffffffffffffffffffffffffffffffffffff16146125b8576040517f08c379a00000000000000000000000000000000000000000000000000000000081526004018080602001828103825260208152602001807f4f776e61626c653a2063616c6c6572206973206e6f7420746865206f776e657281525060200191505060405180910390fd5b600073ffffffffffffffffffffffffffffffffffffffff16600a60009054906101000a900473ffffffffffffffffffffffffffffffffffffffff1673ffffffffffffffffffffffffffffffffffffffff167f8be0079c531659141344cd1fd0a4f28419497f9722a3daafe3b4186f6b6457e060405160405180910390a36000600a60006101000a81548173ffffffffffffffffffffffffffffffffffffffff021916908373ffffffffffffffffffffffffffffffffffffffff160217905550565b6060819050919050565b6000600a60009054906101000a900473ffffffffffffffffffffffffffffffffffffffff16905090565b601081815481106126bd57600080fd5b906000526020600020016000915090508054600181600116156101000203166002900480601f0160208091040260200160405190810160405280929190818152602001828054600181600116156101000203166002900480156127615780601f1061273657610100808354040283529160200191612761565b820191906000526020600020905b81548152906001019060200180831161274457829003601f168201915b505050505081565b606060078054600181600116156101000203166002900480601f0160208091040260200160405190810160405280929190818152602001828054600181600116156101000203166002900480156128015780601f106127d657610100808354040283529160200191612801565b820191906000526020600020905b8154815290600101906020018083116127e457829003601f168201915b5050505050905090565b6012818154811061281b57600080fd5b906000526020600020016000915090508054600181600116156101000203166002900480601f0160208091040260200160405190810160405280929190818152602001828054600181600116156101000203166002900480156128bf5780601f10612894576101008083540402835291602001916128bf565b820191906000526020600020905b8154815290600101906020018083116128a257829003601f168201915b505050505081565b6128cf613f06565b73ffffffffffffffffffffffffffffffffffffffff168273ffffffffffffffffffffffffffffffffffffffff161415612970576040517f08c379a00000000000000000000000000000000000000000000000000000000081526004018080602001828103825260198152602001807f4552433732313a20617070726f766520746f2063616c6c65720000000000000081525060200191505060405180910390fd5b806005600061297d613f06565b73ffffffffffffffffffffffffffffffffffffffff1673ffffffffffffffffffffffffffffffffffffffff16815260200190815260200160002060008473ffffffffffffffffffffffffffffffffffffffff1673ffffffffffffffffffffffffffffffffffffffff16815260200190815260200160002060006101000a81548160ff0219169083151502179055508173ffffffffffffffffffffffffffffffffffffffff16612a2a613f06565b73ffffffffffffffffffffffffffffffffffffffff167f17307eab39ab6107e8899845ad3d59bd9653f200f220920489ca2b5937696c318360405180821515815260200191505060405180910390a35050565b6000600c54905090565b6060806010600081548110612a9857fe5b906000526020600020016040516020018080615dfd6025913960250182805460018160011615610100020316600290048015612b0b5780601f10612ae9576101008083540402835291820191612b0b565b820191906000526020600020905b815481529060010190602001808311612af7575b505080615ce2602391396023019150506040516020818303038152906040526010600181548110612b3857fe5b906000526020600020016040516020018080615ee86025913960250182805460018160011615610100020316600290048015612bab5780601f10612b89576101008083540402835291820191612bab565b820191906000526020600020905b815481529060010190602001808311612b97575b505080615ce2602391396023019150506040516020818303038152906040526010600281548110612bd857fe5b906000526020600020016040516020018080615e976025913960250182805460018160011615610100020316600290048015612c4b5780601f10612c29576101008083540402835291820191612c4b565b820191906000526020600020905b815481529060010190602001808311612c37575b505080615ce2602391396023019150506040516020818303038152906040526010600381548110612c7857fe5b906000526020600020016040516020018080615faf6025913960250182805460018160011615610100020316600290048015612ceb5780601f10612cc9576101008083540402835291820191612ceb565b820191906000526020600020905b815481529060010190602001808311612cd7575b505080615ce2602391396023019150506040516020818303038152906040526010600481548110612d1857fe5b906000526020600020016040516020018080615d7b6025913960250182805460018160011615610100020316600290048015612d8b5780601f10612d69576101008083540402835291820191612d8b565b820191906000526020600020905b815481529060010190602001808311612d77575b505080615ce2602391396023019150506040516020818303038152906040526010600581548110612db857fe5b906000526020600020016040516020018080615c976025913960250182805460018160011615610100020316600290048015612e2b5780601f10612e09576101008083540402835291820191612e2b565b820191906000526020600020905b815481529060010190602001808311612e17575b505080615ce2602391396023019150506040516020818303038152906040526010600681548110612e5857fe5b906000526020600020016040516020018080615da06025913960250182805460018160011615610100020316600290048015612ecb5780601f10612ea9576101008083540402835291820191612ecb565b820191906000526020600020905b815481529060010190602001808311612eb7575b505080615ce2602391396023019150506040516020818303038152906040526010600781548110612ef857fe5b906000526020600020016040516020018080615f8a6025913960250182805460018160011615610100020316600290048015612f6b5780601f10612f49576101008083540402835291820191612f6b565b820191906000526020600020905b815481529060010190602001808311612f57575b505080615ce2602391396023019150506040516020818303038152906040526010600881548110612f9857fe5b906000526020600020016040516020018080615f65602591396025018280546001816001161561010002031660029004801561300b5780601f10612fe957610100808354040283529182019161300b565b820191906000526020600020905b815481529060010190602001808311612ff7575b505080615ce26023913960230191505060405160208183030381529060405260405160200180807f3c7376672077696474683d2731353027206865696768743d27313830273e0000815250601e018a805190602001908083835b602083106130885780518252602082019150602081019050602083039250613065565b6001836020036101000a03801982511681845116808217855250505050505090500189805190602001908083835b602083106130d957805182526020820191506020810190506020830392506130b6565b6001836020036101000a03801982511681845116808217855250505050505090500188805190602001908083835b6020831061312a5780518252602082019150602081019050602083039250613107565b6001836020036101000a03801982511681845116808217855250505050505090500187805190602001908083835b6020831061317b5780518252602082019150602081019050602083039250613158565b6001836020036101000a03801982511681845116808217855250505050505090500186805190602001908083835b602083106131cc57805182526020820191506020810190506020830392506131a9565b6001836020036101000a03801982511681845116808217855250505050505090500185805190602001908083835b6020831061321d57805182526020820191506020810190506020830392506131fa565b6001836020036101000a03801982511681845116808217855250505050505090500184805190602001908083835b6020831061326e578051825260208201915060208101905060208303925061324b565b6001836020036101000a03801982511681845116808217855250505050505090500183805190602001908083835b602083106132bf578051825260208201915060208101905060208303925061329c565b6001836020036101000a03801982511681845116808217855250505050505090500182805190602001908083835b6020831061331057805182526020820191506020810190506020830392506132ed565b6001836020036101000a038019825116818451168082178552505050505050905001807f3c2f7376673e0000000000000000000000000000000000000000000000000000815250600601995050505050505050505060405160208183030381529060405290503373ffffffffffffffffffffffffffffffffffffffff167f73cc29bc981d0bb11f21b055e91e88c3955bbe54a252455677618cb64c31e356826040518080602001828103825283818151815260200191508051906020019080838360005b838110156133ef5780820151818401526020810190506133d4565b50505050905090810190601f16801561341c5780820380516001836020036101000a031916815260200191505b509250505060405180910390a28091505090565b60135481565b613447613441613f06565b83613fdc565b61349c576040517f08c379a0000000000000000000000000000000000000000000000000000000008152600401808060200182810382526031815260200180615ff56031913960400191505060405180910390fd5b6134a8848484846146ce565b50505050565b600b81815481106134be57600080fd5b906000526020600020016000915090508054600181600116156101000203166002900480601f0160208091040260200160405190810160405280929190818152602001828054600181600116156101000203166002900480156135625780601f1061353757610100808354040283529160200191613562565b820191906000526020600020905b81548152906001019060200180831161354557829003601f168201915b505050505081565b606061357582613ee9565b6135ca576040517f08c379a000000000000000000000000000000000000000000000000000000000815260040180806020018281038252602f815260200180615f36602f913960400191505060405180910390fd5b6060600860008481526020019081526020016000208054600181600116156101000203166002900480601f0160208091040260200160405190810160405280929190818152602001828054600181600116156101000203166002900480156136735780601f1061364857610100808354040283529160200191613673565b820191906000526020600020905b81548152906001019060200180831161365657829003601f168201915b505050505090506060613684612392565b905060008151141561369a578192505050613836565b60008251111561376b5780826040516020018083805190602001908083835b602083106136dc57805182526020820191506020810190506020830392506136b9565b6001836020036101000a03801982511681845116808217855250505050505090500182805190602001908083835b6020831061372d578051825260208201915060208101905060208303925061370a565b6001836020036101000a0380198251168184511680821785525050505050509050019250505060405160208183030381529060405292505050613836565b8061377585614740565b6040516020018083805190602001908083835b602083106137ab5780518252602082019150602081019050602083039250613788565b6001836020036101000a03801982511681845116808217855250505050505090500182805190602001908083835b602083106137fc57805182526020820191506020810190506020830392506137d9565b6001836020036101000a03801982511681845116808217855250505050505090500192505050604051602081830303815290604052925050505b919050565b6011818154811061384b57600080fd5b906000526020600020016000915090508054600181600116156101000203166002900480601f0160208091040260200160405190810160405280929190818152602001828054600181600116156101000203166002900480156138ef5780601f106138c4576101008083540402835291602001916138ef565b820191906000526020600020905b8154815290600101906020018083116138d257829003601f168201915b505050505081565b6014816040518082805190602001908083835b6020831061392d578051825260208201915060208101905060208303925061390a565b6001836020036101000a038019825116818451168082178552505050505050905001915050908152602001604051809103902060009054906101000a900460ff161561397857600080fd5b600b819080600181540180825580915050600190039060005260206000200160009091909190915090805190602001906139b3929190615a0e565b5060006001600b805490500390506139cb33826144c5565b60016014836040518082805190602001908083835b60208310613a0357805182526020820191506020810190506020830392506139e0565b6001836020036101000a038019825116818451168082178552505050505050905001915050908152602001604051809103902060006101000a81548160ff0219169083151502179055505050565b606060108381548110613a6057fe5b906000526020600020018054600181600116156101000203166002900480601f016020809104026020016040519081016040528092919081815260200182805460018160011615610100020316600290048015613afe5780601f10613ad357610100808354040283529160200191613afe565b820191906000526020600020905b815481529060010190602001808311613ae157829003601f168201915b505050505090508160108481548110613b1357fe5b906000526020600020019080519060200190613b30929190615a0e565b503373ffffffffffffffffffffffffffffffffffffffff16837f176ff2d12d5df6e831b6cdf0336d3d96822178d039bdba36513529961b81a67d8385604051808060200180602001838103835285818151815260200191508051906020019080838360005b83811015613bb0578082015181840152602081019050613b95565b50505050905090810190601f168015613bdd5780820380516001836020036101000a031916815260200191505b50838103825284818151815260200191508051906020019080838360005b83811015613c16578082015181840152602081019050613bfb565b50505050905090810190601f168015613c435780820380516001836020036101000a031916815260200191505b5094505050505060405180910390a3613c5a612a87565b50505050565b6000600560008473ffffffffffffffffffffffffffffffffffffffff1673ffffffffffffffffffffffffffffffffffffffff16815260200190815260200160002060008373ffffffffffffffffffffffffffffffffffffffff1673ffffffffffffffffffffffffffffffffffffffff16815260200190815260200160002060009054906101000a900460ff16905092915050565b613cfc613f06565b73ffffffffffffffffffffffffffffffffffffffff16613d1a612683565b73ffffffffffffffffffffffffffffffffffffffff1614613da3576040517f08c379a00000000000000000000000000000000000000000000000000000000081526004018080602001828103825260208152602001807f4f776e61626c653a2063616c6c6572206973206e6f7420746865206f776e657281525060200191505060405180910390fd5b600073ffffffffffffffffffffffffffffffffffffffff168173ffffffffffffffffffffffffffffffffffffffff161415613e29576040517f08c379a0000000000000000000000000000000000000000000000000000000008152600401808060200182810382526026815260200180615cbc6026913960400191505060405180910390fd5b8073ffffffffffffffffffffffffffffffffffffffff16600a60009054906101000a900473ffffffffffffffffffffffffffffffffffffffff1673ffffffffffffffffffffffffffffffffffffffff167f8be0079c531659141344cd1fd0a4f28419497f9722a3daafe3b4186f6b6457e060405160405180910390a380600a60006101000a81548173ffffffffffffffffffffffffffffffffffffffff021916908373ffffffffffffffffffffffffffffffffffffffff16021790555050565b6000613eff82600261488790919063ffffffff16565b9050919050565b600033905090565b816004600083815260200190815260200160002060006101000a81548173ffffffffffffffffffffffffffffffffffffffff021916908373ffffffffffffffffffffffffffffffffffffffff160217905550808273ffffffffffffffffffffffffffffffffffffffff16613f81836121ea565b73ffffffffffffffffffffffffffffffffffffffff167f8c5be1e5ebec7d5bd14f71427d1e84f3dd0314c0f7b2291e5b200ac8c7c3b92560405160405180910390a45050565b6000613fd5826000016148a1565b9050919050565b6000613fe782613ee9565b61403c576040517f08c379a000000000000000000000000000000000000000000000000000000000815260040180806020018281038252602c815260200180615d4f602c913960400191505060405180910390fd5b6000614047836121ea565b90508073ffffffffffffffffffffffffffffffffffffffff168473ffffffffffffffffffffffffffffffffffffffff1614806140b657508373ffffffffffffffffffffffffffffffffffffffff1661409e846111a4565b73ffffffffffffffffffffffffffffffffffffffff16145b806140c757506140c68185613c60565b5b91505092915050565b8273ffffffffffffffffffffffffffffffffffffffff166140f0826121ea565b73ffffffffffffffffffffffffffffffffffffffff161461415c576040517f08c379a0000000000000000000000000000000000000000000000000000000008152600401808060200182810382526029815260200180615f0d6029913960400191505060405180910390fd5b600073ffffffffffffffffffffffffffffffffffffffff168273ffffffffffffffffffffffffffffffffffffffff1614156141e2576040517f08c379a0000000000000000000000000000000000000000000000000000000008152600401808060200182810382526024815260200180615d056024913960400191505060405180910390fd5b6141ed8383836148b2565b6141f8600082613f0e565b61424981600160008673ffffffffffffffffffffffffffffffffffffffff1673ffffffffffffffffffffffffffffffffffffffff1681526020019081526020016000206148b790919063ffffffff16565b5061429b81600160008573ffffffffffffffffffffffffffffffffffffffff1673ffffffffffffffffffffffffffffffffffffffff1681526020019081526020016000206148d190919063ffffffff16565b506142b2818360026148eb9092919063ffffffff16565b50808273ffffffffffffffffffffffffffffffffffffffff168473ffffffffffffffffffffffffffffffffffffffff167fddf252ad1be2c89b69c2b068fc378daa952ba7f163c4a11628f55a4df523b3ef60405160405180910390a4505050565b60006143228360000183614920565b60001c905092915050565b60008060008061434086600001866149a3565b915091508160001c8160001c9350935050509250929050565b600061436c846000018460001b84614a3c565b60001c90509392505050565b61438181614b32565b60005b600f548110156144c15760156000838152602001908152602001600020600001601560008481526020019081526020016000206001016001600384816143c657fe5b0601815481106143d257fe5b90600052602060002001908060018154018082558091505060019003906000526020600020016000909190919091509080546001816001161561010002031660029004614420929190615b24565b50601560008381526020019081526020016000206002016015600084815260200190815260200160002060010160016003848161445957fe5b06018154811061446557fe5b906000526020600020019080600181540180825580915050600190039060005260206000200160009091909190915090805460018160011615610100020316600290046144b3929190615b24565b508080600101915050614384565b5050565b600073ffffffffffffffffffffffffffffffffffffffff168273ffffffffffffffffffffffffffffffffffffffff161415614568576040517f08c379a00000000000000000000000000000000000000000000000000000000081526004018080602001828103825260208152602001807f4552433732313a206d696e7420746f20746865207a65726f206164647265737381525060200191505060405180910390fd5b61457181613ee9565b156145e4576040517f08c379a000000000000000000000000000000000000000000000000000000000815260040180806020018281038252601c8152602001807f4552433732313a20746f6b656e20616c7265616479206d696e7465640000000081525060200191505060405180910390fd5b6145f0600083836148b2565b61464181600160008573ffffffffffffffffffffffffffffffffffffffff1673ffffffffffffffffffffffffffffffffffffffff1681526020019081526020016000206148d190919063ffffffff16565b50614658818360026148eb9092919063ffffffff16565b50808273ffffffffffffffffffffffffffffffffffffffff16600073ffffffffffffffffffffffffffffffffffffffff167fddf252ad1be2c89b69c2b068fc378daa952ba7f163c4a11628f55a4df523b3ef60405160405180910390a45050565b60006146c7826000016151c0565b9050919050565b6146d98484846140d0565b6146e5848484846151d1565b61473a576040517f08c379a0000000000000000000000000000000000000000000000000000000008152600401808060200182810382526032815260200180615c656032913960400191505060405180910390fd5b50505050565b60606000821415614788576040518060400160405280600181526020017f30000000000000000000000000000000000000000000000000000000000000008152509050614882565b600082905060005b600082146147b2578080600101915050600a82816147aa57fe5b049150614790565b60608167ffffffffffffffff811180156147cb57600080fd5b506040519080825280601f01601f1916602001820160405280156147fe5781602001600182028036833780820191505090505b50905060006001830390508593505b6000841461487a57600a848161481f57fe5b0660300160f81b8282806001900393508151811061483957fe5b60200101907effffffffffffffffffffffffffffffffffffffffffffffffffffffffffffff1916908160001a905350600a848161487257fe5b04935061480d565b819450505050505b919050565b6000614899836000018360001b6153ea565b905092915050565b600081600001805490509050919050565b505050565b60006148c9836000018360001b61540d565b905092915050565b60006148e3836000018360001b6154f5565b905092915050565b6000614917846000018460001b8473ffffffffffffffffffffffffffffffffffffffff1660001b615565565b90509392505050565b600081836000018054905011614981576040517f08c379a0000000000000000000000000000000000000000000000000000000008152600401808060200182810382526022815260200180615c436022913960400191505060405180910390fd5b82600001828154811061499057fe5b9060005260206000200154905092915050565b60008082846000018054905011614a05576040517f08c379a0000000000000000000000000000000000000000000000000000000008152600401808060200182810382526022815260200180615e756022913960400191505060405180910390fd5b6000846000018481548110614a1657fe5b906000526020600020906002020190508060000154816001015492509250509250929050565b60008084600101600085815260200190815260200160002054905060008114158390614b03576040517f08c379a00000000000000000000000000000000000000000000000000000000081526004018080602001828103825283818151815260200191508051906020019080838360005b83811015614ac8578082015181840152602081019050614aad565b50505050905090810190601f168015614af55780820380516001836020036101000a031916815260200191505b509250505060405180910390fd5b50846000016001820381548110614b1657fe5b9060005260206000209060020201600101549150509392505050565b6000614b5e82604051602001808281526020019150506040516020818303038152906040526001615641565b905060008160ff1610158015614b77575060558160ff16105b15614d89576015600083815260200190815260200160002060010180600181540180825580915050600190039060005260206000200160006040518060400160405280600781526020017f233030303030300000000000000000000000000000000000000000000000000081525090919091509080519060200190614bfd929190615a0e565b506015600083815260200190815260200160002060010180600181540180825580915050600190039060005260206000200160006040518060400160405280600781526020017f236666303030300000000000000000000000000000000000000000000000000081525090919091509080519060200190614c7f929190615a0e565b506015600083815260200190815260200160002060010180600181540180825580915050600190039060005260206000200160006040518060400160405280600781526020017f233030666630300000000000000000000000000000000000000000000000000081525090919091509080519060200190614d01929190615a0e565b506015600083815260200190815260200160002060010180600181540180825580915050600190039060005260206000200160006040518060400160405280600781526020017f233030303066660000000000000000000000000000000000000000000000000081525090919091509080519060200190614d83929190615a0e565b506151bc565b60558160ff1610158015614da0575060aa8160ff16105b15614fb2576015600083815260200190815260200160002060010180600181540180825580915050600190039060005260206000200160006040518060400160405280600781526020017f233030303030300000000000000000000000000000000000000000000000000081525090919091509080519060200190614e26929190615a0e565b506015600083815260200190815260200160002060010180600181540180825580915050600190039060005260206000200160006040518060400160405280600781526020017f236666666630300000000000000000000000000000000000000000000000000081525090919091509080519060200190614ea8929190615a0e565b506015600083815260200190815260200160002060010180600181540180825580915050600190039060005260206000200160006040518060400160405280600781526020017f233030666666660000000000000000000000000000000000000000000000000081525090919091509080519060200190614f2a929190615a0e565b506015600083815260200190815260200160002060010180600181540180825580915050600190039060005260206000200160006040518060400160405280600781526020017f236666303066660000000000000000000000000000000000000000000000000081525090919091509080519060200190614fac929190615a0e565b506151bb565b6015600083815260200190815260200160002060010180600181540180825580915050600190039060005260206000200160006040518060400160405280600781526020017f233030303030300000000000000000000000000000000000000000000000000081525090919091509080519060200190615033929190615a0e565b506015600083815260200190815260200160002060010180600181540180825580915050600190039060005260206000200160006040518060400160405280600781526020017f2366666233303000000000000000000000000000000000000000000000000000815250909190915090805190602001906150b5929190615a0e565b506015600083815260200190815260200160002060010180600181540180825580915050600190039060005260206000200160006040518060400160405280600881526020017f233761303030386100000000000000000000000000000000000000000000000081525090919091509080519060200190615137929190615a0e565b506015600083815260200190815260200160002060010180600181540180825580915050600190039060005260206000200160006040518060400160405280600781526020017f2330326330633700000000000000000000000000000000000000000000000000815250909190915090805190602001906151b9929190615a0e565b505b5b5050565b600081600001805490509050919050565b60006151f28473ffffffffffffffffffffffffffffffffffffffff1661574b565b6151ff57600190506153e2565b606061536963150b7a0260e01b615214613f06565b888787604051602401808573ffffffffffffffffffffffffffffffffffffffff1681526020018473ffffffffffffffffffffffffffffffffffffffff16815260200183815260200180602001828103825283818151815260200191508051906020019080838360005b8381101561529857808201518184015260208101905061527d565b50505050905090810190601f1680156152c55780820380516001836020036101000a031916815260200191505b5095505050505050604051602081830303815290604052907bffffffffffffffffffffffffffffffffffffffffffffffffffffffff19166020820180517bffffffffffffffffffffffffffffffffffffffffffffffffffffffff8381831617835250505050604051806060016040528060328152602001615c65603291398773ffffffffffffffffffffffffffffffffffffffff1661575e9092919063ffffffff16565b9050600081806020019051602081101561538257600080fd5b8101908080519060200190929190505050905063150b7a0260e01b7bffffffffffffffffffffffffffffffffffffffffffffffffffffffff1916817bffffffffffffffffffffffffffffffffffffffffffffffffffffffff191614925050505b949350505050565b600080836001016000848152602001908152602001600020541415905092915050565b600080836001016000848152602001908152602001600020549050600081146154e9576000600182039050600060018660000180549050039050600086600001828154811061545857fe5b906000526020600020015490508087600001848154811061547557fe5b90600052602060002001819055506001830187600101600083815260200190815260200160002081905550866000018054806154ad57fe5b600190038181906000526020600020016000905590558660010160008781526020019081526020016000206000905560019450505050506154ef565b60009150505b92915050565b60006155018383615776565b61555a57826000018290806001815401808255809150506001900390600052602060002001600090919091909150558260000180549050836001016000848152602001908152602001600020819055506001905061555f565b600090505b92915050565b600080846001016000858152602001908152602001600020549050600081141561560c5784600001604051806040016040528086815260200185815250908060018154018082558091505060019003906000526020600020906002020160009091909190915060008201518160000155602082015181600101555050846000018054905085600101600086815260200190815260200160002081905550600191505061563a565b8285600001600183038154811061561f57fe5b90600052602060002090600202016001018190555060009150505b9392505050565b6000816001830110156156bc576040517f08c379a00000000000000000000000000000000000000000000000000000000081526004018080602001828103825260108152602001807f746f55696e74385f6f766572666c6f770000000000000000000000000000000081525060200191505060405180910390fd5b6001820183511015615736576040517f08c379a00000000000000000000000000000000000000000000000000000000081526004018080602001828103825260138152602001807f746f55696e74385f6f75744f66426f756e64730000000000000000000000000081525060200191505060405180910390fd5b60008260018501015190508091505092915050565b600080823b905060008111915050919050565b606061576d8484600085615799565b90509392505050565b600080836001016000848152602001908152602001600020541415905092915050565b6060824710156157f4576040517f08c379a0000000000000000000000000000000000000000000000000000000008152600401808060200182810382526026815260200180615d296026913960400191505060405180910390fd5b6157fd8561574b565b61586f576040517f08c379a000000000000000000000000000000000000000000000000000000000815260040180806020018281038252601d8152602001807f416464726573733a2063616c6c20746f206e6f6e2d636f6e747261637400000081525060200191505060405180910390fd5b600060608673ffffffffffffffffffffffffffffffffffffffff1685876040518082805190602001908083835b602083106158bf578051825260208201915060208101905060208303925061589c565b6001836020036101000a03801982511681845116808217855250505050505090500191505060006040518083038185875af1925050503d8060008114615921576040519150601f19603f3d011682016040523d82523d6000602084013e615926565b606091505b5091509150615936828286615942565b92505050949350505050565b6060831561595257829050615a07565b6000835111156159655782518084602001fd5b816040517f08c379a00000000000000000000000000000000000000000000000000000000081526004018080602001828103825283818151815260200191508051906020019080838360005b838110156159cc5780820151818401526020810190506159b1565b50505050905090810190601f1680156159f95780820380516001836020036101000a031916815260200191505b509250505060405180910390fd5b9392505050565b828054600181600116156101000203166002900490600052602060002090601f016020900481019282615a445760008555615a8b565b82601f10615a5d57805160ff1916838001178555615a8b565b82800160010185558215615a8b579182015b82811115615a8a578251825591602001919060010190615a6f565b5b509050615a989190615bb9565b5090565b6040518060800160405280606081526020016060815260200160608152602001600081525090565b828054828255906000526020600020908101928215615b13579160200282015b82811115615b12578251829080519060200190615b02929190615a0e565b5091602001919060010190615ae4565b5b509050615b209190615bd6565b5090565b828054600181600116156101000203166002900490600052602060002090601f016020900481019282615b5a5760008555615ba8565b82601f10615b6b5780548555615ba8565b82800160010185558215615ba857600052602060002091601f016020900482015b82811115615ba7578254825591600101919060010190615b8c565b5b509050615bb59190615bb9565b5090565b5b80821115615bd2576000816000905550600101615bba565b5090565b5b80821115615bf65760008181615bed9190615bfa565b50600101615bd7565b5090565b50805460018160011615610100020316600290046000825580601f10615c205750615c3f565b601f016020900490600052602060002090810190615c3e9190615bb9565b5b5056fe456e756d657261626c655365743a20696e646578206f7574206f6620626f756e64734552433732313a207472616e7366657220746f206e6f6e20455243373231526563656976657220696d706c656d656e7465723c636972636c652063783d273930272063793d2736302720723d273230272066696c6c3d274f776e61626c653a206e6577206f776e657220697320746865207a65726f206164647265737327207374726f6b652d77696474683d273927207374726f6b653d27626c61636b272f3e4552433732313a207472616e7366657220746f20746865207a65726f2061646472657373416464726573733a20696e73756666696369656e742062616c616e636520666f722063616c6c4552433732313a206f70657261746f7220717565727920666f72206e6f6e6578697374656e7420746f6b656e3c636972636c652063783d273630272063793d2736302720723d273230272066696c6c3d273c636972636c652063783d273330272063793d2739302720723d273230272066696c6c3d274552433732313a20617070726f76652063616c6c6572206973206e6f74206f776e6572206e6f7220617070726f76656420666f7220616c6c3c636972636c652063783d273330272063793d2733302720723d273230272066696c6c3d274552433732313a2062616c616e636520717565727920666f7220746865207a65726f20616464726573734552433732313a206f776e657220717565727920666f72206e6f6e6578697374656e7420746f6b656e456e756d657261626c654d61703a20696e646578206f7574206f6620626f756e64733c636972636c652063783d273930272063793d2733302720723d273230272066696c6c3d274552433732313a20617070726f76656420717565727920666f72206e6f6e6578697374656e7420746f6b656e3c636972636c652063783d273630272063793d2733302720723d273230272066696c6c3d274552433732313a207472616e73666572206f6620746f6b656e2074686174206973206e6f74206f776e4552433732314d657461646174613a2055524920717565727920666f72206e6f6e6578697374656e7420746f6b656e3c636972636c652063783d273930272063793d2739302720723d273230272066696c6c3d273c636972636c652063783d273630272063793d2739302720723d273230272066696c6c3d273c636972636c652063783d273330272063793d2736302720723d273230272066696c6c3d274552433732313a20617070726f76616c20746f2063757272656e74206f776e65724552433732313a207472616e736665722063616c6c6572206973206e6f74206f776e6572206e6f7220617070726f766564a2646970667358221220ac1d90ade38d4c1ddb61c2be0e9faf5869a17758de5c57cb7e052e155b08162764736f6c634300070400333c636972636c652063783d273930272063793d2736302720723d273230272066696c6c3d2727207374726f6b652d77696474683d273927207374726f6b653d27626c61636b272f3e3c636972636c652063783d273630272063793d2736302720723d273230272066696c6c3d273c636972636c652063783d273330272063793d2739302720723d273230272066696c6c3d273c636972636c652063783d273330272063793d2733302720723d273230272066696c6c3d273c636972636c652063783d273930272063793d2733302720723d273230272066696c6c3d273c636972636c652063783d273630272063793d2733302720723d273230272066696c6c3d273c636972636c652063783d273930272063793d2739302720723d273230272066696c6c3d273c636972636c652063783d273630272063793d2739302720723d273230272066696c6c3d273c636972636c652063783d273330272063793d2736302720723d273230272066696c6c3d27",
  "immutableReferences": {},
  "source": "pragma solidity ^0.7.4;\r\n\r\nimport \"@openzeppelin/contracts/token/ERC721/ERC721.sol\";\r\nimport \"@openzeppelin/contracts/access/Ownable.sol\";\r\n\r\ncontract Color is ERC721,Ownable {\r\n\r\n\tstring[] public colors;\r\n  \tuint junk = 10;\r\n  \tuint nPixX=3;\r\n  \tuint nPixY=3;\r\n  \tuint nPix=nPixX*nPixY;\r\n  \tstring[] public pixels;\r\n  \tstring[] public pallet; \r\n  \tstring[] public canvasSVG;\r\n  \tuint256 public numberOfEtherbrights = 0;\r\n\r\n\r\n\tmapping(string => bool) _colorExists;\r\n\tmapping (uint256 => Etherbright) allEtherbrights;\r\n\r\n\tstruct Etherbright {\r\n\t\tstring[] setPixels;\r\n\t\tstring[] pallet;\r\n\t\tstring[] mintPixels;\r\n\t\tuint256 seed;\r\n\t}\r\n\t\r\n\t\r\n\tevent PixelChanged(uint indexed changedPixel, string from, string to, address indexed by);\r\n\tevent ClearCanvas(address indexed by);\r\n\tevent ResetCanvas(address indexed by);\r\n\tevent SVGgenerated(string SVG, address indexed by);\r\n\tevent EtherbrightMinted(uint256 seed, address mintedBy, uint256 nEtherbrights);\r\n\tevent EtherbrightPixelChanged(uint256 tokenId, string from, string to, address indexed by);\r\n\tevent EtherbrightSVGgenerated(uint _tokenId, string svg, address indexed by);\r\n\t\r\n\t\r\n\tconstructor() ERC721(\"Color\", \"COLOR\") public {\r\n\t\tbuildLut();\r\n\t\tbuildCanvas();\r\n\t\tpaintCanvas();\r\n\t\tgenerateSVG();\r\n\t\t// geerateCanvasSVG();\r\n  \t}\r\n  \tfunction mintEtherbright(address to) public{\r\n\t  bytes32 idHash = keccak256(abi.encodePacked(block.timestamp, to));\r\n      uint256 tokenId = uint(idHash);\r\n      uint256 etherbrightSeed = tokenId & 4000;\r\n\r\n\t  Etherbright memory etherbright;\r\n\t  etherbright.seed=etherbrightSeed;\r\n\t  // etherbright.pallet=getPalletFromSeed(etherbrightSeed.seed);\r\n\t  allEtherbrights[tokenId]=etherbright;\r\n\t  buildEtherbright(tokenId);\r\n\r\n\t  _mint(msg.sender, tokenId);\r\n\t  numberOfEtherbrights+=1;\r\n\t  emit EtherbrightMinted(etherbrightSeed, to, numberOfEtherbrights);\r\n\r\n\t}\r\n\tfunction buildEtherbright (uint256 tokenId ) internal {\r\n\t\t// Etherbright memory ethb=allEtherbrights[tokenId];\r\n\t\t// ethb.pallet=getPalletFromSeed(tokenId, 1);\r\n\t\tsetEthebrightPallet(tokenId);\r\n\t\tfor(uint p=0; p<nPix; p++){\r\n\t\t\tallEtherbrights[tokenId].setPixels.push(allEtherbrights[tokenId].pallet[(p%3)+1]);\r\n\t\t\tallEtherbrights[tokenId].mintPixels.push(allEtherbrights[tokenId].pallet[(p%3)+1]);\r\n\r\n\t\t}\r\n\t\t// Etherbright memory ethb=allEtherbrights[tokenId];\r\n\t\t// // ethb.pallet=getPalletFromSeed(tokenId, 1);\r\n\t\t// setEthebrightPallet(tokenId);\r\n\t\t// for(uint p=0; p<nPix; p++){\r\n\t\t// \tethb.setPixels.push(ethb.pallet[(p%3)+1]);\r\n\t\t// \tethb.mintPixels.push(ethb.pallet[(p%3)+1]);\r\n\r\n\t\t// }\r\n\r\n\t}\r\n\r\n\tfunction setEthebrightPallet (uint256 tokenId)  internal {\r\n\t\t// Etherbright memory ethb=allEtherbrights[tokenId];\r\n\t\tuint8 selector=toUint8(abi.encodePacked(tokenId), 1);\r\n\t\tif(selector >= 0 && selector < 85 ){\r\n\t\t\tallEtherbrights[tokenId].pallet.push(\"#000000\");\r\n  \t\t\tallEtherbrights[tokenId].pallet.push(\"#ff0000\");\r\n\t\t\tallEtherbrights[tokenId].pallet.push(\"#00ff00\");\r\n\t\t\tallEtherbrights[tokenId].pallet.push(\"#0000ff\");\r\n\t\t}\r\n\t\telse if(selector >= 85 && selector < 170 ){\r\n\t\t\tallEtherbrights[tokenId].pallet.push(\"#000000\");\r\n  \t\t\tallEtherbrights[tokenId].pallet.push(\"#ffff00\");\r\n\t\t\tallEtherbrights[tokenId].pallet.push(\"#00ffff\");\r\n\t\t\tallEtherbrights[tokenId].pallet.push(\"#ff00ff\");\r\n\r\n\t\t}\r\n\t\telse{\r\n\t\t\tallEtherbrights[tokenId].pallet.push(\"#000000\");\r\n  \t\t\tallEtherbrights[tokenId].pallet.push(\"#ffb300\");\r\n\t\t\tallEtherbrights[tokenId].pallet.push(\"#7a0008a\");\r\n\t\t\tallEtherbrights[tokenId].pallet.push(\"#02c0c7\");\r\n\t\t}\r\n\r\n\t}\r\n\t\r\n    function toUint8(bytes memory _bytes, uint256 _start) internal pure returns (uint8) {\r\n        require(_start + 1 >= _start, \"toUint8_overflow\");\r\n        require(_bytes.length >= _start + 1 , \"toUint8_outOfBounds\");\r\n        uint8 tempUint;\r\n\r\n        assembly {\r\n            tempUint := mload(add(add(_bytes, 0x1), _start))\r\n        }\r\n\r\n        return tempUint;\r\n    }\r\n\t// function getPalletFromSeed (uint256  seed, uint anchor)  internal pure returns(string[] memory){\r\n\t// \tuint8 selector=toUint8(seed, anchor);\r\n\t// \tstring[]  p;\r\n\t// \tif(selector >= 0 && selector < 85 ){\r\n\t// \t\tp.push(\"#000000\");\r\n //  \t\t\tp.push(\"#ff0000\");\r\n\t// \t\tp.push(\"#00ff00\");\r\n\t// \t\tp.push(\"#0000ff\");\r\n\t// \t}\r\n\t// \telse if(selector >= 85 && selector < 170 ){\r\n\t// \t\tp.push(\"#000000\");\r\n //  \t\t\tp.push(\"#ffff00\");\r\n\t// \t\tp.push(\"#00ffff\");\r\n\t// \t\tp.push(\"#ff00ff\");\r\n\r\n\t// \t}\r\n\t// \telse{\r\n\t// \t\tp.push(\"#000000\");\r\n //  \t\t\tp.push(\"#ffb300\");\r\n\t// \t\tp.push(\"#7a0008a\");\r\n\t// \t\tp.push(\"#02c0c7\");\r\n\t// \t}\r\n\t// \treturn p;\r\n\t// }\r\n\t\r\n\r\n\tfunction setEtherbrightPixel (uint256 _tokenId,uint  _pixn, uint  _palletN ) public {\r\n\t\tEtherbright storage ethb =allEtherbrights[_tokenId];\r\n\t\tstring memory _priorColor=ethb.setPixels[_pixn];\r\n\t\tstring memory _newColor=ethb.pallet[_palletN];\r\n\t\tethb.setPixels[_pixn]=_newColor;\r\n\t\temit EtherbrightPixelChanged(_tokenId, _priorColor, _newColor, msg.sender);\r\n\t\t\r\n\t}\r\n\t\r\n\r\n  \tfunction generateEtherbrightsSVG(uint256 _tokenId) public{\r\n  \t\t//returns the svg string of the canvas\r\n  \t\t    string memory svg = \r\n  \t\t    string(\r\n  \t\t    \tabi.encodePacked(\r\n            \t\t\t\t\t\"<svg width='150' height='180'>\", \r\n            \t\t\t\t\tstring(abi.encodePacked(\"<circle cx='30' cy='30' r='20' fill='\",allEtherbrights[_tokenId].setPixels[0],\"' stroke-width='9' stroke='black'/>\")),\r\n            \t\t\t\t\tstring(abi.encodePacked(\"<circle cx='60' cy='30' r='20' fill='\",allEtherbrights[_tokenId].setPixels[1],\"' stroke-width='9' stroke='black'/>\")),\r\n            \t\t\t\t\tstring(abi.encodePacked(\"<circle cx='90' cy='30' r='20' fill='\",allEtherbrights[_tokenId].setPixels[2],\"' stroke-width='9' stroke='black'/>\")), \r\n            \t\t\t\t\tstring(abi.encodePacked(\"<circle cx='30' cy='60' r='20' fill='\",allEtherbrights[_tokenId].setPixels[3],\"' stroke-width='9' stroke='black'/>\")), \r\n            \t\t\t\t\tstring(abi.encodePacked(\"<circle cx='60' cy='60' r='20' fill='\",allEtherbrights[_tokenId].setPixels[4],\"' stroke-width='9' stroke='black'/>\")), \r\n            \t\t\t\t\tstring(abi.encodePacked(\"<circle cx='90' cy='60' r='20' fill='\",allEtherbrights[_tokenId].setPixels[5],\"' stroke-width='9' stroke='black'/>\")), \r\n            \t\t\t\t\tstring(abi.encodePacked(\"<circle cx='30' cy='90' r='20' fill='\",allEtherbrights[_tokenId].setPixels[6],\"' stroke-width='9' stroke='black'/>\")), \r\n            \t\t\t\t\tstring(abi.encodePacked(\"<circle cx='60' cy='90' r='20' fill='\",allEtherbrights[_tokenId].setPixels[7],\"' stroke-width='9' stroke='black'/>\")), \r\n            \t\t\t\t\tstring(abi.encodePacked(\"<circle cx='90' cy='90' r='20' fill='\",allEtherbrights[_tokenId].setPixels[8],\"' stroke-width='9' stroke='black'/>\")),\r\n            \t\t\t\t\t\"</svg>\"\r\n        \t\t\t\t\t\t)\r\n        \t);\r\n  \t\temit EtherbrightSVGgenerated(_tokenId,svg,msg.sender);\r\n\r\n  \t}\r\n\r\n\r\n\tfunction buildCanvas () private {\r\n  \t\tfor(uint p=0; p<nPix; p++){\r\n\r\n\t\t\t// pixels[p]=pallet[0];\r\n\t\t\t// pixels[0]=\"ack\";\r\n\t\t\tpixels.push(pallet[0]);\r\n\r\n\t\t}\t\r\n  \t}\r\n  \t\r\n\r\n\tfunction paintCanvas () private   {\r\n\t\t// uint i=0;\r\n\t\tfor(uint p=0; p<nPix; p++){\r\n\r\n\t\t\tsetPixel(p,pallet[(p%3)+1]);\r\n\t\t\t// setPixel(p,\"dick\");\r\n\r\n\t\t}\t\r\n\r\n\t}\r\n\r\n\r\n\tfunction setPixel(uint  _pixn, string memory _pixcolor) public {\r\n\t\tstring memory  _priorColor=pixels[_pixn];\r\n\t\t// string memory  _priorColor=pixels[0];\r\n\t\tpixels[_pixn]=_pixcolor;\r\n\t\temit PixelChanged(_pixn,_priorColor,_pixcolor, msg.sender);\r\n\t\tgenerateSVG();\r\n\t\t\r\n\t}\r\n\t\r\n\r\n\r\n\r\n\r\n  \tfunction buildLut() private   {\r\n  \t\tpallet.push(\"#000000\");\r\n  \t\tpallet.push(\"#ff0000\");\r\n\t\tpallet.push(\"#00ff00\");\r\n\t\tpallet.push(\"#0000ff\");\r\n  \t}\r\n\r\n\r\n\r\n\r\n\t\r\n  \t\r\n\r\n\r\n\r\n  \tfunction generateSVG() public returns (string memory){\r\n  \t\t//returns the svg string of the canvas\r\n  \t\t    string memory svg = \r\n  \t\t    string(\r\n  \t\t    \tabi.encodePacked(\r\n            \t\t\t\t\t\"<svg width='150' height='180'>\", \r\n            \t\t\t\t\tstring(abi.encodePacked(\"<circle cx='30' cy='30' r='20' fill='\",pixels[0],\"' stroke-width='9' stroke='black'/>\")),\r\n            \t\t\t\t\tstring(abi.encodePacked(\"<circle cx='60' cy='30' r='20' fill='\",pixels[1],\"' stroke-width='9' stroke='black'/>\")),\r\n            \t\t\t\t\tstring(abi.encodePacked(\"<circle cx='90' cy='30' r='20' fill='\",pixels[2],\"' stroke-width='9' stroke='black'/>\")), \r\n            \t\t\t\t\tstring(abi.encodePacked(\"<circle cx='30' cy='60' r='20' fill='\",pixels[3],\"' stroke-width='9' stroke='black'/>\")), \r\n            \t\t\t\t\tstring(abi.encodePacked(\"<circle cx='60' cy='60' r='20' fill='\",pixels[4],\"' stroke-width='9' stroke='black'/>\")), \r\n            \t\t\t\t\tstring(abi.encodePacked(\"<circle cx='90' cy='60' r='20' fill='\",pixels[5],\"' stroke-width='9' stroke='black'/>\")), \r\n            \t\t\t\t\tstring(abi.encodePacked(\"<circle cx='30' cy='90' r='20' fill='\",pixels[6],\"' stroke-width='9' stroke='black'/>\")), \r\n            \t\t\t\t\tstring(abi.encodePacked(\"<circle cx='60' cy='90' r='20' fill='\",pixels[7],\"' stroke-width='9' stroke='black'/>\")), \r\n            \t\t\t\t\tstring(abi.encodePacked(\"<circle cx='90' cy='90' r='20' fill='\",pixels[8],\"' stroke-width='9' stroke='black'/>\")),\r\n            \t\t\t\t\t\"</svg>\"\r\n        \t\t\t\t\t\t)\r\n        \t);\r\n  \t\temit SVGgenerated(svg,msg.sender);\r\n\r\n        return svg;\r\n  \t}\r\n\r\n  // \tfunction geerateCanvasSVG () public returns(string memory)  {\r\n  // \t\tstring[] memory pixelholder;\r\n  // \t\tstring memory canvasSVGheader=\"<svg width='100' height='100'>\";\r\n  // \t\tstring memory canvasSVGfooter=\"</svg>\";\r\n  // \t\t //attache header\r\n  // \t\t//iterate over the pixels and add generate individual strings\r\n  // \t\t//attach footer\r\n  // \t\t//pack and send\r\n  // \t\tcanvasSVG.push(canvasSVGheader);\r\n  // \t\tfor(uint p=0; p<nPix; p++){\r\n  // \t\t\tstring pixSring=string()\r\n  // \t\t\tcanvasSVG.push(pixels[p]);\r\n\t\t// }\t\r\n\t\t// canvasSVG.push(canvasSVGfooter);\r\n\t\t// return string(abi.encodePacked(canvasSVG));\r\n  \t\t\r\n  // \t}\r\n  \t\r\n  \t// function concat (string memory array) returns(string memory) view internal {\r\n  \t\t\r\n  \t// }\r\n  \t\r\n\r\n\r\n\r\n\r\n  \t// function setPixelTick(uint memory _tick) public payable \r\n\r\n    // function totalSupply\r\n    function getjunk() public view returns(uint){\r\n      return junk;\r\n    }\r\n  \r\n\tfunction testReturn(string memory _color) public returns(string memory) {\r\n\t    // _mint(msg.sender, 1);\r\n\t    return _color;\r\n\t}\r\n\r\n\tfunction mint(string memory _color) public {\r\n\t  require(!_colorExists[_color]);\r\n\t  colors.push(_color);\r\n\t  uint _id = colors.length-1;\r\n\t  _mint(msg.sender, _id);\r\n\t  _colorExists[_color] = true;\r\n\t}\r\n\r\n}\r\n",
  "sourcePath": "H:/Expermental/nft/src/contracts/Color.sol",
  "compiler": {
    "name": "solc",
    "version": "0.7.4+commit.3f05b770.Emscripten.clang"
  },
  "schemaVersion": "3.3.4",
  "updatedAt": "2021-03-21T23:54:08.568Z",
  "devdoc": {
    "kind": "dev",
    "methods": {
      "approve(address,uint256)": {
        "details": "See {IERC721-approve}."
      },
      "balanceOf(address)": {
        "details": "See {IERC721-balanceOf}."
      },
      "baseURI()": {
        "details": "Returns the base URI set via {_setBaseURI}. This will be automatically added as a prefix in {tokenURI} to each token's URI, or to the token ID if no specific URI is set for that token ID."
      },
      "getApproved(uint256)": {
        "details": "See {IERC721-getApproved}."
      },
      "isApprovedForAll(address,address)": {
        "details": "See {IERC721-isApprovedForAll}."
      },
      "name()": {
        "details": "See {IERC721Metadata-name}."
      },
      "owner()": {
        "details": "Returns the address of the current owner."
      },
      "ownerOf(uint256)": {
        "details": "See {IERC721-ownerOf}."
      },
      "renounceOwnership()": {
        "details": "Leaves the contract without owner. It will not be possible to call `onlyOwner` functions anymore. Can only be called by the current owner. NOTE: Renouncing ownership will leave the contract without an owner, thereby removing any functionality that is only available to the owner."
      },
      "safeTransferFrom(address,address,uint256)": {
        "details": "See {IERC721-safeTransferFrom}."
      },
      "safeTransferFrom(address,address,uint256,bytes)": {
        "details": "See {IERC721-safeTransferFrom}."
      },
      "setApprovalForAll(address,bool)": {
        "details": "See {IERC721-setApprovalForAll}."
      },
      "supportsInterface(bytes4)": {
        "details": "See {IERC165-supportsInterface}. Time complexity O(1), guaranteed to always use less than 30 000 gas."
      },
      "symbol()": {
        "details": "See {IERC721Metadata-symbol}."
      },
      "tokenByIndex(uint256)": {
        "details": "See {IERC721Enumerable-tokenByIndex}."
      },
      "tokenOfOwnerByIndex(address,uint256)": {
        "details": "See {IERC721Enumerable-tokenOfOwnerByIndex}."
      },
      "tokenURI(uint256)": {
        "details": "See {IERC721Metadata-tokenURI}."
      },
      "totalSupply()": {
        "details": "See {IERC721Enumerable-totalSupply}."
      },
      "transferFrom(address,address,uint256)": {
        "details": "See {IERC721-transferFrom}."
      },
      "transferOwnership(address)": {
        "details": "Transfers ownership of the contract to a new account (`newOwner`). Can only be called by the current owner."
      }
    },
    "version": 1
  },
  "userdoc": {
    "kind": "user",
    "methods": {},
    "version": 1
  }
}