{
  "contractName": "Color",
  "abi": [
    {
      "inputs": [],
      "stateMutability": "nonpayable",
      "type": "constructor"
    },
    {
      "anonymous": false,
      "inputs": [
        {
          "indexed": true,
          "internalType": "address",
          "name": "owner",
          "type": "address"
        },
        {
          "indexed": true,
          "internalType": "address",
          "name": "approved",
          "type": "address"
        },
        {
          "indexed": true,
          "internalType": "uint256",
          "name": "tokenId",
          "type": "uint256"
        }
      ],
      "name": "Approval",
      "type": "event"
    },
    {
      "anonymous": false,
      "inputs": [
        {
          "indexed": true,
          "internalType": "address",
          "name": "owner",
          "type": "address"
        },
        {
          "indexed": true,
          "internalType": "address",
          "name": "operator",
          "type": "address"
        },
        {
          "indexed": false,
          "internalType": "bool",
          "name": "approved",
          "type": "bool"
        }
      ],
      "name": "ApprovalForAll",
      "type": "event"
    },
    {
      "anonymous": false,
      "inputs": [
        {
          "indexed": true,
          "internalType": "address",
          "name": "by",
          "type": "address"
        }
      ],
      "name": "ClearCanvas",
      "type": "event"
    },
    {
      "anonymous": false,
      "inputs": [
        {
          "indexed": false,
          "internalType": "uint256",
          "name": "seed",
          "type": "uint256"
        },
        {
          "indexed": false,
          "internalType": "address",
          "name": "mintedBy",
          "type": "address"
        },
        {
          "indexed": false,
          "internalType": "uint256",
          "name": "nEtherbrights",
          "type": "uint256"
        }
      ],
      "name": "EtherbrightMinted",
      "type": "event"
    },
    {
      "anonymous": false,
      "inputs": [
        {
          "indexed": false,
          "internalType": "uint256",
          "name": "tokenId",
          "type": "uint256"
        },
        {
          "indexed": false,
          "internalType": "string",
          "name": "from",
          "type": "string"
        },
        {
          "indexed": false,
          "internalType": "string",
          "name": "to",
          "type": "string"
        },
        {
          "indexed": true,
          "internalType": "address",
          "name": "by",
          "type": "address"
        }
      ],
      "name": "EtherbrightPixelChanged",
      "type": "event"
    },
    {
      "anonymous": false,
      "inputs": [
        {
          "indexed": false,
          "internalType": "uint256",
          "name": "_tokenId",
          "type": "uint256"
        },
        {
          "indexed": false,
          "internalType": "string",
          "name": "svg",
          "type": "string"
        },
        {
          "indexed": true,
          "internalType": "address",
          "name": "by",
          "type": "address"
        }
      ],
      "name": "EtherbrightSVGgenerated",
      "type": "event"
    },
    {
      "anonymous": false,
      "inputs": [
        {
          "indexed": true,
          "internalType": "address",
          "name": "previousOwner",
          "type": "address"
        },
        {
          "indexed": true,
          "internalType": "address",
          "name": "newOwner",
          "type": "address"
        }
      ],
      "name": "OwnershipTransferred",
      "type": "event"
    },
    {
      "anonymous": false,
      "inputs": [
        {
          "indexed": true,
          "internalType": "uint256",
          "name": "changedPixel",
          "type": "uint256"
        },
        {
          "indexed": false,
          "internalType": "string",
          "name": "from",
          "type": "string"
        },
        {
          "indexed": false,
          "internalType": "string",
          "name": "to",
          "type": "string"
        },
        {
          "indexed": true,
          "internalType": "address",
          "name": "by",
          "type": "address"
        }
      ],
      "name": "PixelChanged",
      "type": "event"
    },
    {
      "anonymous": false,
      "inputs": [
        {
          "indexed": true,
          "internalType": "address",
          "name": "by",
          "type": "address"
        }
      ],
      "name": "ResetCanvas",
      "type": "event"
    },
    {
      "anonymous": false,
      "inputs": [
        {
          "indexed": false,
          "internalType": "string",
          "name": "SVG",
          "type": "string"
        },
        {
          "indexed": true,
          "internalType": "address",
          "name": "by",
          "type": "address"
        }
      ],
      "name": "SVGgenerated",
      "type": "event"
    },
    {
      "anonymous": false,
      "inputs": [
        {
          "indexed": true,
          "internalType": "address",
          "name": "from",
          "type": "address"
        },
        {
          "indexed": true,
          "internalType": "address",
          "name": "to",
          "type": "address"
        },
        {
          "indexed": true,
          "internalType": "uint256",
          "name": "tokenId",
          "type": "uint256"
        }
      ],
      "name": "Transfer",
      "type": "event"
    },
    {
      "inputs": [
        {
          "internalType": "address",
          "name": "to",
          "type": "address"
        },
        {
          "internalType": "uint256",
          "name": "tokenId",
          "type": "uint256"
        }
      ],
      "name": "approve",
      "outputs": [],
      "stateMutability": "nonpayable",
      "type": "function"
    },
    {
      "inputs": [
        {
          "internalType": "address",
          "name": "owner",
          "type": "address"
        }
      ],
      "name": "balanceOf",
      "outputs": [
        {
          "internalType": "uint256",
          "name": "",
          "type": "uint256"
        }
      ],
      "stateMutability": "view",
      "type": "function",
      "constant": true
    },
    {
      "inputs": [],
      "name": "baseURI",
      "outputs": [
        {
          "internalType": "string",
          "name": "",
          "type": "string"
        }
      ],
      "stateMutability": "view",
      "type": "function",
      "constant": true
    },
    {
      "inputs": [
        {
          "internalType": "uint256",
          "name": "",
          "type": "uint256"
        }
      ],
      "name": "canvasSVG",
      "outputs": [
        {
          "internalType": "string",
          "name": "",
          "type": "string"
        }
      ],
      "stateMutability": "view",
      "type": "function",
      "constant": true
    },
    {
      "inputs": [
        {
          "internalType": "uint256",
          "name": "",
          "type": "uint256"
        }
      ],
      "name": "colors",
      "outputs": [
        {
          "internalType": "string",
          "name": "",
          "type": "string"
        }
      ],
      "stateMutability": "view",
      "type": "function",
      "constant": true
    },
    {
      "inputs": [],
      "name": "generateSVG",
      "outputs": [
        {
          "internalType": "string",
          "name": "",
          "type": "string"
        }
      ],
      "stateMutability": "nonpayable",
      "type": "function"
    },
    {
      "inputs": [
        {
          "internalType": "uint256",
          "name": "tokenId",
          "type": "uint256"
        }
      ],
      "name": "getApproved",
      "outputs": [
        {
          "internalType": "address",
          "name": "",
          "type": "address"
        }
      ],
      "stateMutability": "view",
      "type": "function",
      "constant": true
    },
    {
      "inputs": [
        {
          "internalType": "address",
          "name": "owner",
          "type": "address"
        },
        {
          "internalType": "address",
          "name": "operator",
          "type": "address"
        }
      ],
      "name": "isApprovedForAll",
      "outputs": [
        {
          "internalType": "bool",
          "name": "",
          "type": "bool"
        }
      ],
      "stateMutability": "view",
      "type": "function",
      "constant": true
    },
    {
      "inputs": [],
      "name": "name",
      "outputs": [
        {
          "internalType": "string",
          "name": "",
          "type": "string"
        }
      ],
      "stateMutability": "view",
      "type": "function",
      "constant": true
    },
    {
      "inputs": [],
      "name": "numberOfEtherbrights",
      "outputs": [
        {
          "internalType": "uint256",
          "name": "",
          "type": "uint256"
        }
      ],
      "stateMutability": "view",
      "type": "function",
      "constant": true
    },
    {
      "inputs": [],
      "name": "owner",
      "outputs": [
        {
          "internalType": "address",
          "name": "",
          "type": "address"
        }
      ],
      "stateMutability": "view",
      "type": "function",
      "constant": true
    },
    {
      "inputs": [
        {
          "internalType": "uint256",
          "name": "tokenId",
          "type": "uint256"
        }
      ],
      "name": "ownerOf",
      "outputs": [
        {
          "internalType": "address",
          "name": "",
          "type": "address"
        }
      ],
      "stateMutability": "view",
      "type": "function",
      "constant": true
    },
    {
      "inputs": [
        {
          "internalType": "uint256",
          "name": "",
          "type": "uint256"
        }
      ],
      "name": "pallet",
      "outputs": [
        {
          "internalType": "string",
          "name": "",
          "type": "string"
        }
      ],
      "stateMutability": "view",
      "type": "function",
      "constant": true
    },
    {
      "inputs": [
        {
          "internalType": "uint256",
          "name": "",
          "type": "uint256"
        }
      ],
      "name": "pixels",
      "outputs": [
        {
          "internalType": "string",
          "name": "",
          "type": "string"
        }
      ],
      "stateMutability": "view",
      "type": "function",
      "constant": true
    },
    {
      "inputs": [],
      "name": "renounceOwnership",
      "outputs": [],
      "stateMutability": "nonpayable",
      "type": "function"
    },
    {
      "inputs": [
        {
          "internalType": "address",
          "name": "from",
          "type": "address"
        },
        {
          "internalType": "address",
          "name": "to",
          "type": "address"
        },
        {
          "internalType": "uint256",
          "name": "tokenId",
          "type": "uint256"
        }
      ],
      "name": "safeTransferFrom",
      "outputs": [],
      "stateMutability": "nonpayable",
      "type": "function"
    },
    {
      "inputs": [
        {
          "internalType": "address",
          "name": "from",
          "type": "address"
        },
        {
          "internalType": "address",
          "name": "to",
          "type": "address"
        },
        {
          "internalType": "uint256",
          "name": "tokenId",
          "type": "uint256"
        },
        {
          "internalType": "bytes",
          "name": "_data",
          "type": "bytes"
        }
      ],
      "name": "safeTransferFrom",
      "outputs": [],
      "stateMutability": "nonpayable",
      "type": "function"
    },
    {
      "inputs": [
        {
          "internalType": "address",
          "name": "operator",
          "type": "address"
        },
        {
          "internalType": "bool",
          "name": "approved",
          "type": "bool"
        }
      ],
      "name": "setApprovalForAll",
      "outputs": [],
      "stateMutability": "nonpayable",
      "type": "function"
    },
    {
      "inputs": [
        {
          "internalType": "uint256",
          "name": "_pixn",
          "type": "uint256"
        },
        {
          "internalType": "string",
          "name": "_pixcolor",
          "type": "string"
        }
      ],
      "name": "setPixel",
      "outputs": [],
      "stateMutability": "nonpayable",
      "type": "function"
    },
    {
      "inputs": [
        {
          "internalType": "bytes4",
          "name": "interfaceId",
          "type": "bytes4"
        }
      ],
      "name": "supportsInterface",
      "outputs": [
        {
          "internalType": "bool",
          "name": "",
          "type": "bool"
        }
      ],
      "stateMutability": "view",
      "type": "function",
      "constant": true
    },
    {
      "inputs": [],
      "name": "symbol",
      "outputs": [
        {
          "internalType": "string",
          "name": "",
          "type": "string"
        }
      ],
      "stateMutability": "view",
      "type": "function",
      "constant": true
    },
    {
      "inputs": [
        {
          "internalType": "uint256",
          "name": "index",
          "type": "uint256"
        }
      ],
      "name": "tokenByIndex",
      "outputs": [
        {
          "internalType": "uint256",
          "name": "",
          "type": "uint256"
        }
      ],
      "stateMutability": "view",
      "type": "function",
      "constant": true
    },
    {
      "inputs": [
        {
          "internalType": "address",
          "name": "owner",
          "type": "address"
        },
        {
          "internalType": "uint256",
          "name": "index",
          "type": "uint256"
        }
      ],
      "name": "tokenOfOwnerByIndex",
      "outputs": [
        {
          "internalType": "uint256",
          "name": "",
          "type": "uint256"
        }
      ],
      "stateMutability": "view",
      "type": "function",
      "constant": true
    },
    {
      "inputs": [
        {
          "internalType": "uint256",
          "name": "tokenId",
          "type": "uint256"
        }
      ],
      "name": "tokenURI",
      "outputs": [
        {
          "internalType": "string",
          "name": "",
          "type": "string"
        }
      ],
      "stateMutability": "view",
      "type": "function",
      "constant": true
    },
    {
      "inputs": [],
      "name": "totalSupply",
      "outputs": [
        {
          "internalType": "uint256",
          "name": "",
          "type": "uint256"
        }
      ],
      "stateMutability": "view",
      "type": "function",
      "constant": true
    },
    {
      "inputs": [
        {
          "internalType": "address",
          "name": "from",
          "type": "address"
        },
        {
          "internalType": "address",
          "name": "to",
          "type": "address"
        },
        {
          "internalType": "uint256",
          "name": "tokenId",
          "type": "uint256"
        }
      ],
      "name": "transferFrom",
      "outputs": [],
      "stateMutability": "nonpayable",
      "type": "function"
    },
    {
      "inputs": [
        {
          "internalType": "address",
          "name": "newOwner",
          "type": "address"
        }
      ],
      "name": "transferOwnership",
      "outputs": [],
      "stateMutability": "nonpayable",
      "type": "function"
    },
    {
      "inputs": [
        {
          "internalType": "address",
          "name": "to",
          "type": "address"
        }
      ],
      "name": "mintEtherbright",
      "outputs": [],
      "stateMutability": "nonpayable",
      "type": "function"
    },
    {
      "inputs": [
        {
          "internalType": "uint256",
          "name": "_tokenId",
          "type": "uint256"
        },
        {
          "internalType": "uint256",
          "name": "_pixn",
          "type": "uint256"
        },
        {
          "internalType": "uint256",
          "name": "_palletN",
          "type": "uint256"
        }
      ],
      "name": "setEtherbrightPixel",
      "outputs": [],
      "stateMutability": "nonpayable",
      "type": "function"
    },
    {
      "inputs": [
        {
          "internalType": "uint256",
          "name": "_tokenId",
          "type": "uint256"
        }
      ],
      "name": "generateEtherbrightsSVG",
      "outputs": [],
      "stateMutability": "nonpayable",
      "type": "function"
    },
    {
      "inputs": [],
      "name": "getjunk",
      "outputs": [
        {
          "internalType": "uint256",
          "name": "",
          "type": "uint256"
        }
      ],
      "stateMutability": "view",
      "type": "function",
      "constant": true
    },
    {
      "inputs": [
        {
          "internalType": "string",
          "name": "_returnString",
          "type": "string"
        }
      ],
      "name": "testReturn",
      "outputs": [
        {
          "internalType": "string",
          "name": "",
          "type": "string"
        }
      ],
      "stateMutability": "nonpayable",
      "type": "function"
    }
  ],
  "bytecode": "0x6080604052600a600e556003600f556003601055601054600f540260115560006013553480156200002f57600080fd5b506040518060400160405280600581526020017f436f6c6f720000000000000000000000000000000000000000000000000000008152506040518060400160405280600581526020017f434f4c4f52000000000000000000000000000000000000000000000000000000815250620000b46301ffc9a760e01b6200022860201b60201c565b8160069080519060200190620000cc92919062001291565b508060079080519060200190620000e592919062001291565b50620000fe6380ac58cd60e01b6200022860201b60201c565b62000116635b5e139f60e01b6200022860201b60201c565b6200012e63780e9d6360e01b6200022860201b60201c565b50506000620001426200033160201b60201c565b905080600a60006101000a81548173ffffffffffffffffffffffffffffffffffffffff021916908373ffffffffffffffffffffffffffffffffffffffff1602179055508073ffffffffffffffffffffffffffffffffffffffff16600073ffffffffffffffffffffffffffffffffffffffff167f8be0079c531659141344cd1fd0a4f28419497f9722a3daafe3b4186f6b6457e060405160405180910390a350620001f16200033960201b60201c565b62000201620004fb60201b60201c565b620002116200057c60201b60201c565b620002216200066f60201b60201c565b50620013e5565b63ffffffff60e01b817bffffffffffffffffffffffffffffffffffffffffffffffffffffffff19161415620002c5576040517f08c379a000000000000000000000000000000000000000000000000000000000815260040180806020018281038252601c8152602001807f4552433136353a20696e76616c696420696e746572666163652069640000000081525060200191505060405180910390fd5b6001600080837bffffffffffffffffffffffffffffffffffffffffffffffffffffffff19167bffffffffffffffffffffffffffffffffffffffffffffffffffffffff1916815260200190815260200160002060006101000a81548160ff02191690831515021790555050565b600033905090565b600c80600181540180825580915050600190039060005260206000200160006040518060400160405280600781526020017f233030303030300000000000000000000000000000000000000000000000000081525090919091509080519060200190620003a892919062001291565b50600c80600181540180825580915050600190039060005260206000200160006040518060400160405280600781526020017f2366663030303000000000000000000000000000000000000000000000000000815250909190915090805190602001906200041892919062001291565b50600c80600181540180825580915050600190039060005260206000200160006040518060400160405280600781526020017f2330306666303000000000000000000000000000000000000000000000000000815250909190915090805190602001906200048892919062001291565b50600c80600181540180825580915050600190039060005260206000200160006040518060400160405280600781526020017f233030303066660000000000000000000000000000000000000000000000000081525090919091509080519060200190620004f892919062001291565b50565b60005b6011548110156200057957600b600c6000815481106200051a57fe5b906000526020600020019080600181540180825580915050600190039060005260206000200160009091909190915090805460018160011615610100020316600290046200056a92919062001328565b508080600101915050620004fe565b50565b60005b6011548110156200066c576200065e81600c6001600385816200059e57fe5b060181548110620005ab57fe5b906000526020600020018054600181600116156101000203166002900480601f0160208091040260200160405190810160405280929190818152602001828054600181600116156101000203166002900480156200064d5780601f1062000621576101008083540402835291602001916200064d565b820191906000526020600020905b8154815290600101906020018083116200062f57829003601f168201915b50505050506200106c60201b60201c565b80806001019150506200057f565b50565b606080600b6000815481106200068157fe5b906000526020600020016040516020018080620072f36025913960250182805460018160011615610100020316600290048015620006f95780601f10620006d6576101008083540402835291820191620006f9565b820191906000526020600020905b815481529060010190602001808311620006e4575b5050806200728660239139602301915050604051602081830303815290604052600b6001815481106200072857fe5b9060005260206000200160405160200180806200733d6025913960250182805460018160011615610100020316600290048015620007a05780601f106200077d576101008083540402835291820191620007a0565b820191906000526020600020905b8154815290600101906020018083116200078b575b5050806200728660239139602301915050604051602081830303815290604052600b600281548110620007cf57fe5b906000526020600020016040516020018080620073186025913960250182805460018160011615610100020316600290048015620008475780601f106200082457610100808354040283529182019162000847565b820191906000526020600020905b81548152906001019060200180831162000832575b5050806200728660239139602301915050604051602081830303815290604052600b6003815481106200087657fe5b906000526020600020016040516020018080620073ac6025913960250182805460018160011615610100020316600290048015620008ee5780601f10620008cb576101008083540402835291820191620008ee565b820191906000526020600020905b815481529060010190602001808311620008d9575b5050806200728660239139602301915050604051602081830303815290604052600b6004815481106200091d57fe5b906000526020600020016040516020018080620072a96025913960250182805460018160011615610100020316600290048015620009955780601f106200097257610100808354040283529182019162000995565b820191906000526020600020905b81548152906001019060200180831162000980575b5050806200728660239139602301915050604051602081830303815290604052600b600581548110620009c457fe5b90600052602060002001604051602001808062007261602591396025018280546001816001161561010002031660029004801562000a3c5780601f1062000a1957610100808354040283529182019162000a3c565b820191906000526020600020905b81548152906001019060200180831162000a27575b5050806200728660239139602301915050604051602081830303815290604052600b60068154811062000a6b57fe5b906000526020600020016040516020018080620072ce602591396025018280546001816001161561010002031660029004801562000ae35780601f1062000ac057610100808354040283529182019162000ae3565b820191906000526020600020905b81548152906001019060200180831162000ace575b5050806200728660239139602301915050604051602081830303815290604052600b60078154811062000b1257fe5b90600052602060002001604051602001808062007387602591396025018280546001816001161561010002031660029004801562000b8a5780601f1062000b6757610100808354040283529182019162000b8a565b820191906000526020600020905b81548152906001019060200180831162000b75575b5050806200728660239139602301915050604051602081830303815290604052600b60088154811062000bb957fe5b90600052602060002001604051602001808062007362602591396025018280546001816001161561010002031660029004801562000c315780601f1062000c0e57610100808354040283529182019162000c31565b820191906000526020600020905b81548152906001019060200180831162000c1c575b505080620072866023913960230191505060405160208183030381529060405260405160200180807f3c7376672077696474683d2731353027206865696768743d27313830273e0000815250601e018a805190602001908083835b6020831062000cb1578051825260208201915060208101905060208303925062000c8c565b6001836020036101000a03801982511681845116808217855250505050505090500189805190602001908083835b6020831062000d04578051825260208201915060208101905060208303925062000cdf565b6001836020036101000a03801982511681845116808217855250505050505090500188805190602001908083835b6020831062000d57578051825260208201915060208101905060208303925062000d32565b6001836020036101000a03801982511681845116808217855250505050505090500187805190602001908083835b6020831062000daa578051825260208201915060208101905060208303925062000d85565b6001836020036101000a03801982511681845116808217855250505050505090500186805190602001908083835b6020831062000dfd578051825260208201915060208101905060208303925062000dd8565b6001836020036101000a03801982511681845116808217855250505050505090500185805190602001908083835b6020831062000e50578051825260208201915060208101905060208303925062000e2b565b6001836020036101000a03801982511681845116808217855250505050505090500184805190602001908083835b6020831062000ea3578051825260208201915060208101905060208303925062000e7e565b6001836020036101000a03801982511681845116808217855250505050505090500183805190602001908083835b6020831062000ef6578051825260208201915060208101905060208303925062000ed1565b6001836020036101000a03801982511681845116808217855250505050505090500182805190602001908083835b6020831062000f49578051825260208201915060208101905060208303925062000f24565b6001836020036101000a038019825116818451168082178552505050505050905001807f3c2f7376673e0000000000000000000000000000000000000000000000000000815250600601995050505050505050505060405160208183030381529060405290503373ffffffffffffffffffffffffffffffffffffffff167f73cc29bc981d0bb11f21b055e91e88c3955bbe54a252455677618cb64c31e356826040518080602001828103825283818151815260200191508051906020019080838360005b838110156200102a5780820151818401526020810190506200100d565b50505050905090810190601f168015620010585780820380516001836020036101000a031916815260200191505b509250505060405180910390a28091505090565b6060600b83815481106200107c57fe5b906000526020600020018054600181600116156101000203166002900480601f0160208091040260200160405190810160405280929190818152602001828054600181600116156101000203166002900480156200111e5780601f10620010f2576101008083540402835291602001916200111e565b820191906000526020600020905b8154815290600101906020018083116200110057829003601f168201915b5050505050905081600b84815481106200113457fe5b9060005260206000200190805190602001906200115392919062001291565b503373ffffffffffffffffffffffffffffffffffffffff16837f176ff2d12d5df6e831b6cdf0336d3d96822178d039bdba36513529961b81a67d8385604051808060200180602001838103835285818151815260200191508051906020019080838360005b83811015620011d5578082015181840152602081019050620011b8565b50505050905090810190601f168015620012035780820380516001836020036101000a031916815260200191505b50838103825284818151815260200191508051906020019080838360005b838110156200123e57808201518184015260208101905062001221565b50505050905090810190601f1680156200126c5780820380516001836020036101000a031916815260200191505b5094505050505060405180910390a36200128b6200066f60201b60201c565b50505050565b828054600181600116156101000203166002900490600052602060002090601f016020900481019282620012c9576000855562001315565b82601f10620012e457805160ff191683800117855562001315565b8280016001018555821562001315579182015b8281111562001314578251825591602001919060010190620012f7565b5b509050620013249190620013c6565b5090565b828054600181600116156101000203166002900490600052602060002090601f016020900481019282620013605760008555620013b3565b82601f10620013735780548555620013b3565b82800160010185558215620013b357600052602060002091601f016020900482015b82811115620013b257825482559160010191906001019062001395565b5b509050620013c29190620013c6565b5090565b5b80821115620013e1576000816000905550600101620013c7565b5090565b615e6c80620013f56000396000f3fe608060405234801561001057600080fd5b50600436106101f05760003560e01c80637707f2141161010f578063b1d22c4c116100a2578063d2ea1b7b11610071578063d2ea1b7b14610dab578063e758e2f314610e52578063e985e9c514610f17578063f2fde38b14610f91576101f0565b8063b1d22c4c14610b3a578063b88d4fde14610b58578063bd11f69d14610c5d578063c87b56dd14610d04576101f0565b80639ff9d894116100de5780639ff9d894146109a2578063a22cb46514610a49578063a969e8a214610a99578063ad711e9e14610ab7576101f0565b80637707f214146107105780638da5cb5b146108445780638da7f2321461087857806395d89b411461091f576101f0565b80634f6ccce711610187578063643c6dd911610156578063643c6dd9146105e75780636c0360eb1461062b57806370a08231146106ae578063715018a614610706576101f0565b80634f6ccce7146104dd5780635df3efd91461051f5780635e697d81146105615780636352211e1461058f576101f0565b806318160ddd116101c357806318160ddd1461038157806323b872dd1461039f5780632f745c591461040d57806342842e0e1461046f576101f0565b806301ffc9a7146101f557806306fdde0314610258578063081812fc146102db578063095ea7b314610333575b600080fd5b6102406004803603602081101561020b57600080fd5b8101908080357bffffffffffffffffffffffffffffffffffffffffffffffffffffffff19169060200190929190505050610fd5565b60405180821515815260200191505060405180910390f35b61026061103c565b6040518080602001828103825283818151815260200191508051906020019080838360005b838110156102a0578082015181840152602081019050610285565b50505050905090810190601f1680156102cd5780820380516001836020036101000a031916815260200191505b509250505060405180910390f35b610307600480360360208110156102f157600080fd5b81019080803590602001909291905050506110de565b604051808273ffffffffffffffffffffffffffffffffffffffff16815260200191505060405180910390f35b61037f6004803603604081101561034957600080fd5b81019080803573ffffffffffffffffffffffffffffffffffffffff16906020019092919080359060200190929190505050611179565b005b6103896112bd565b6040518082815260200191505060405180910390f35b61040b600480360360608110156103b557600080fd5b81019080803573ffffffffffffffffffffffffffffffffffffffff169060200190929190803573ffffffffffffffffffffffffffffffffffffffff169060200190929190803590602001909291905050506112ce565b005b6104596004803603604081101561042357600080fd5b81019080803573ffffffffffffffffffffffffffffffffffffffff16906020019092919080359060200190929190505050611344565b6040518082815260200191505060405180910390f35b6104db6004803603606081101561048557600080fd5b81019080803573ffffffffffffffffffffffffffffffffffffffff169060200190929190803573ffffffffffffffffffffffffffffffffffffffff1690602001909291908035906020019092919050505061139f565b005b610509600480360360208110156104f357600080fd5b81019080803590602001909291905050506113bf565b6040518082815260200191505060405180910390f35b61055f6004803603606081101561053557600080fd5b810190808035906020019092919080359060200190929190803590602001909291905050506113e2565b005b61058d6004803603602081101561057757600080fd5b81019080803590602001909291905050506116e1565b005b6105bb600480360360208110156105a557600080fd5b8101908080359060200190929190505050612142565b604051808273ffffffffffffffffffffffffffffffffffffffff16815260200191505060405180910390f35b610629600480360360208110156105fd57600080fd5b81019080803573ffffffffffffffffffffffffffffffffffffffff169060200190929190505050612179565b005b6106336122f1565b6040518080602001828103825283818151815260200191508051906020019080838360005b83811015610673578082015181840152602081019050610658565b50505050905090810190601f1680156106a05780820380516001836020036101000a031916815260200191505b509250505060405180910390f35b6106f0600480360360208110156106c457600080fd5b81019080803573ffffffffffffffffffffffffffffffffffffffff169060200190929190505050612393565b6040518082815260200191505060405180910390f35b61070e612468565b005b6107c96004803603602081101561072657600080fd5b810190808035906020019064010000000081111561074357600080fd5b82018360208201111561075557600080fd5b8035906020019184600183028401116401000000008311171561077757600080fd5b91908080601f016020809104026020016040519081016040528093929190818152602001838380828437600081840152601f19601f8201169050808301925050505050505091929192905050506125d8565b6040518080602001828103825283818151815260200191508051906020019080838360005b838110156108095780820151818401526020810190506107ee565b50505050905090810190601f1680156108365780820380516001836020036101000a031916815260200191505b509250505060405180910390f35b61084c6125e2565b604051808273ffffffffffffffffffffffffffffffffffffffff16815260200191505060405180910390f35b6108a46004803603602081101561088e57600080fd5b810190808035906020019092919050505061260c565b6040518080602001828103825283818151815260200191508051906020019080838360005b838110156108e45780820151818401526020810190506108c9565b50505050905090810190601f1680156109115780820380516001836020036101000a031916815260200191505b509250505060405180910390f35b6109276126c8565b6040518080602001828103825283818151815260200191508051906020019080838360005b8381101561096757808201518184015260208101905061094c565b50505050905090810190601f1680156109945780820380516001836020036101000a031916815260200191505b509250505060405180910390f35b6109ce600480360360208110156109b857600080fd5b810190808035906020019092919050505061276a565b6040518080602001828103825283818151815260200191508051906020019080838360005b83811015610a0e5780820151818401526020810190506109f3565b50505050905090810190601f168015610a3b5780820380516001836020036101000a031916815260200191505b509250505060405180910390f35b610a9760048036036040811015610a5f57600080fd5b81019080803573ffffffffffffffffffffffffffffffffffffffff169060200190929190803515159060200190929190505050612826565b005b610aa16129dc565b6040518082815260200191505060405180910390f35b610abf6129e6565b6040518080602001828103825283818151815260200191508051906020019080838360005b83811015610aff578082015181840152602081019050610ae4565b50505050905090810190601f168015610b2c5780820380516001836020036101000a031916815260200191505b509250505060405180910390f35b610b4261338f565b6040518082815260200191505060405180910390f35b610c5b60048036036080811015610b6e57600080fd5b81019080803573ffffffffffffffffffffffffffffffffffffffff169060200190929190803573ffffffffffffffffffffffffffffffffffffffff1690602001909291908035906020019092919080359060200190640100000000811115610bd557600080fd5b820183602082011115610be757600080fd5b80359060200191846001830284011164010000000083111715610c0957600080fd5b91908080601f016020809104026020016040519081016040528093929190818152602001838380828437600081840152601f19601f820116905080830192505050505050509192919290505050613395565b005b610c8960048036036020811015610c7357600080fd5b810190808035906020019092919050505061340d565b6040518080602001828103825283818151815260200191508051906020019080838360005b83811015610cc9578082015181840152602081019050610cae565b50505050905090810190601f168015610cf65780820380516001836020036101000a031916815260200191505b509250505060405180910390f35b610d3060048036036020811015610d1a57600080fd5b81019080803590602001909291905050506134c9565b6040518080602001828103825283818151815260200191508051906020019080838360005b83811015610d70578082015181840152602081019050610d55565b50505050905090810190601f168015610d9d5780820380516001836020036101000a031916815260200191505b509250505060405180910390f35b610dd760048036036020811015610dc157600080fd5b810190808035906020019092919050505061379a565b6040518080602001828103825283818151815260200191508051906020019080838360005b83811015610e17578082015181840152602081019050610dfc565b50505050905090810190601f168015610e445780820380516001836020036101000a031916815260200191505b509250505060405180910390f35b610f1560048036036040811015610e6857600080fd5b810190808035906020019092919080359060200190640100000000811115610e8f57600080fd5b820183602082011115610ea157600080fd5b80359060200191846001830284011164010000000083111715610ec357600080fd5b91908080601f016020809104026020016040519081016040528093929190818152602001838380828437600081840152601f19601f820116905080830192505050505050509192919290505050613856565b005b610f7960048036036040811015610f2d57600080fd5b81019080803573ffffffffffffffffffffffffffffffffffffffff169060200190929190803573ffffffffffffffffffffffffffffffffffffffff169060200190929190505050613a65565b60405180821515815260200191505060405180910390f35b610fd360048036036020811015610fa757600080fd5b81019080803573ffffffffffffffffffffffffffffffffffffffff169060200190929190505050613af9565b005b6000806000837bffffffffffffffffffffffffffffffffffffffffffffffffffffffff19167bffffffffffffffffffffffffffffffffffffffffffffffffffffffff1916815260200190815260200160002060009054906101000a900460ff169050919050565b606060068054600181600116156101000203166002900480601f0160208091040260200160405190810160405280929190818152602001828054600181600116156101000203166002900480156110d45780601f106110a9576101008083540402835291602001916110d4565b820191906000526020600020905b8154815290600101906020018083116110b757829003601f168201915b5050505050905090565b60006110e982613cee565b61113e576040517f08c379a000000000000000000000000000000000000000000000000000000000815260040180806020018281038252602c815260200180615ccd602c913960400191505060405180910390fd5b6004600083815260200190815260200160002060009054906101000a900473ffffffffffffffffffffffffffffffffffffffff169050919050565b600061118482612142565b90508073ffffffffffffffffffffffffffffffffffffffff168373ffffffffffffffffffffffffffffffffffffffff16141561120b576040517f08c379a0000000000000000000000000000000000000000000000000000000008152600401808060200182810382526021815260200180615de56021913960400191505060405180910390fd5b8073ffffffffffffffffffffffffffffffffffffffff1661122a613d0b565b73ffffffffffffffffffffffffffffffffffffffff161480611259575061125881611253613d0b565b613a65565b5b6112ae576040517f08c379a0000000000000000000000000000000000000000000000000000000008152600401808060200182810382526038815260200180615bd66038913960400191505060405180910390fd5b6112b88383613d13565b505050565b60006112c96002613dcc565b905090565b6112df6112d9613d0b565b82613de1565b611334576040517f08c379a0000000000000000000000000000000000000000000000000000000008152600401808060200182810382526031815260200180615e066031913960400191505060405180910390fd5b61133f838383613ed5565b505050565b600061139782600160008673ffffffffffffffffffffffffffffffffffffffff1673ffffffffffffffffffffffffffffffffffffffff16815260200190815260200160002061411890919063ffffffff16565b905092915050565b6113ba83838360405180602001604052806000815250613395565b505050565b6000806113d683600261413290919063ffffffff16565b50905080915050919050565b606060156000858152602001908152602001600020600001838154811061140557fe5b906000526020600020018054600181600116156101000203166002900480601f0160208091040260200160405190810160405280929190818152602001828054600181600116156101000203166002900480156114a35780601f10611478576101008083540402835291602001916114a3565b820191906000526020600020905b81548152906001019060200180831161148657829003601f168201915b5050505050905060606015600086815260200190815260200160002060010183815481106114cd57fe5b906000526020600020018054600181600116156101000203166002900480601f01602080910402602001604051908101604052809291908181526020018280546001816001161561010002031660029004801561156b5780601f106115405761010080835404028352916020019161156b565b820191906000526020600020905b81548152906001019060200180831161154e57829003601f168201915b505050505090508060156000878152602001908152602001600020600001858154811061159457fe5b9060005260206000200190805190602001906115b192919061581f565b503373ffffffffffffffffffffffffffffffffffffffff167fd7f2ce3446c015bec94249b7a3b87cec2a8a37db3ada820a11f7f7c71e0860d9868484604051808481526020018060200180602001838103835285818151815260200191508051906020019080838360005b8381101561163757808201518184015260208101905061161c565b50505050905090810190601f1680156116645780820380516001836020036101000a031916815260200191505b50838103825284818151815260200191508051906020019080838360005b8381101561169d578082015181840152602081019050611682565b50505050905090810190601f1680156116ca5780820380516001836020036101000a031916815260200191505b509550505050505060405180910390a25050505050565b60606015600083815260200190815260200160002060000160008154811061170557fe5b906000526020600020016040516020018080615c0e60259139602501828054600181600116156101000203166002900480156117785780601f10611756576101008083540402835291820191611778565b820191906000526020600020905b815481529060010190602001808311611764575b505080615af360239139602301915050604051602081830303815290604052601560008481526020019081526020016000206000016001815481106117b957fe5b906000526020600020016040516020018080615cf9602591396025018280546001816001161561010002031660029004801561182c5780601f1061180a57610100808354040283529182019161182c565b820191906000526020600020905b815481529060010190602001808311611818575b505080615af3602391396023019150506040516020818303038152906040526015600085815260200190815260200160002060000160028154811061186d57fe5b906000526020600020016040516020018080615ca860259139602501828054600181600116156101000203166002900480156118e05780601f106118be5761010080835404028352918201916118e0565b820191906000526020600020905b8154815290600101906020018083116118cc575b505080615af3602391396023019150506040516020818303038152906040526015600086815260200190815260200160002060000160038154811061192157fe5b906000526020600020016040516020018080615dc060259139602501828054600181600116156101000203166002900480156119945780601f10611972576101008083540402835291820191611994565b820191906000526020600020905b815481529060010190602001808311611980575b505080615af360239139602301915050604051602081830303815290604052601560008781526020019081526020016000206000016004815481106119d557fe5b906000526020600020016040516020018080615b8c6025913960250182805460018160011615610100020316600290048015611a485780601f10611a26576101008083540402835291820191611a48565b820191906000526020600020905b815481529060010190602001808311611a34575b505080615af36023913960230191505060405160208183030381529060405260156000888152602001908152602001600020600001600581548110611a8957fe5b906000526020600020016040516020018080615aa86025913960250182805460018160011615610100020316600290048015611afc5780601f10611ada576101008083540402835291820191611afc565b820191906000526020600020905b815481529060010190602001808311611ae8575b505080615af36023913960230191505060405160208183030381529060405260156000898152602001908152602001600020600001600681548110611b3d57fe5b906000526020600020016040516020018080615bb16025913960250182805460018160011615610100020316600290048015611bb05780601f10611b8e576101008083540402835291820191611bb0565b820191906000526020600020905b815481529060010190602001808311611b9c575b505080615af360239139602301915050604051602081830303815290604052601560008a8152602001908152602001600020600001600781548110611bf157fe5b906000526020600020016040516020018080615d9b6025913960250182805460018160011615610100020316600290048015611c645780601f10611c42576101008083540402835291820191611c64565b820191906000526020600020905b815481529060010190602001808311611c50575b505080615af360239139602301915050604051602081830303815290604052601560008b8152602001908152602001600020600001600881548110611ca557fe5b906000526020600020016040516020018080615d766025913960250182805460018160011615610100020316600290048015611d185780601f10611cf6576101008083540402835291820191611d18565b820191906000526020600020905b815481529060010190602001808311611d04575b505080615af36023913960230191505060405160208183030381529060405260405160200180807f3c7376672077696474683d2731353027206865696768743d27313830273e0000815250601e018a805190602001908083835b60208310611d955780518252602082019150602081019050602083039250611d72565b6001836020036101000a03801982511681845116808217855250505050505090500189805190602001908083835b60208310611de65780518252602082019150602081019050602083039250611dc3565b6001836020036101000a03801982511681845116808217855250505050505090500188805190602001908083835b60208310611e375780518252602082019150602081019050602083039250611e14565b6001836020036101000a03801982511681845116808217855250505050505090500187805190602001908083835b60208310611e885780518252602082019150602081019050602083039250611e65565b6001836020036101000a03801982511681845116808217855250505050505090500186805190602001908083835b60208310611ed95780518252602082019150602081019050602083039250611eb6565b6001836020036101000a03801982511681845116808217855250505050505090500185805190602001908083835b60208310611f2a5780518252602082019150602081019050602083039250611f07565b6001836020036101000a03801982511681845116808217855250505050505090500184805190602001908083835b60208310611f7b5780518252602082019150602081019050602083039250611f58565b6001836020036101000a03801982511681845116808217855250505050505090500183805190602001908083835b60208310611fcc5780518252602082019150602081019050602083039250611fa9565b6001836020036101000a03801982511681845116808217855250505050505090500182805190602001908083835b6020831061201d5780518252602082019150602081019050602083039250611ffa565b6001836020036101000a038019825116818451168082178552505050505050905001807f3c2f7376673e0000000000000000000000000000000000000000000000000000815250600601995050505050505050505060405160208183030381529060405290503373ffffffffffffffffffffffffffffffffffffffff167fda728db9fe522c946828617761ea019c7a89ac79b647bf14c2b5c691bfad2fb383836040518083815260200180602001828103825283818151815260200191508051906020019080838360005b838110156121035780820151818401526020810190506120e8565b50505050905090810190601f1680156121305780820380516001836020036101000a031916815260200191505b50935050505060405180910390a25050565b600061217282604051806060016040528060298152602001615c5d60299139600261415e9092919063ffffffff16565b9050919050565b60004282604051602001808381526020018273ffffffffffffffffffffffffffffffffffffffff1660601b81526014019250505060405160208183030381529060405280519060200120905060008160001c90506000610fa082816121da57fe5b0690506121e56158ad565b818160600181815250508060156000858152602001908152602001600020600082015181600001908051906020019061221f9291906158d5565b50602082015181600101908051906020019061223c9291906158d5565b5060408201518160020190805190602001906122599291906158d5565b50606082015181600301559050506122708361417d565b61227a3384614192565b60016013600082825401925050819055507fc6a9fee4685459422a48632aa9afdc862bedbbb8e442df17ff5e51e0011ae5318286601354604051808481526020018373ffffffffffffffffffffffffffffffffffffffff168152602001828152602001935050505060405180910390a15050505050565b606060098054600181600116156101000203166002900480601f0160208091040260200160405190810160405280929190818152602001828054600181600116156101000203166002900480156123895780601f1061235e57610100808354040283529160200191612389565b820191906000526020600020905b81548152906001019060200180831161236c57829003601f168201915b5050505050905090565b60008073ffffffffffffffffffffffffffffffffffffffff168273ffffffffffffffffffffffffffffffffffffffff16141561241a576040517f08c379a000000000000000000000000000000000000000000000000000000000815260040180806020018281038252602a815260200180615c33602a913960400191505060405180910390fd5b612461600160008473ffffffffffffffffffffffffffffffffffffffff1673ffffffffffffffffffffffffffffffffffffffff168152602001908152602001600020614386565b9050919050565b612470613d0b565b73ffffffffffffffffffffffffffffffffffffffff1661248e6125e2565b73ffffffffffffffffffffffffffffffffffffffff1614612517576040517f08c379a00000000000000000000000000000000000000000000000000000000081526004018080602001828103825260208152602001807f4f776e61626c653a2063616c6c6572206973206e6f7420746865206f776e657281525060200191505060405180910390fd5b600073ffffffffffffffffffffffffffffffffffffffff16600a60009054906101000a900473ffffffffffffffffffffffffffffffffffffffff1673ffffffffffffffffffffffffffffffffffffffff167f8be0079c531659141344cd1fd0a4f28419497f9722a3daafe3b4186f6b6457e060405160405180910390a36000600a60006101000a81548173ffffffffffffffffffffffffffffffffffffffff021916908373ffffffffffffffffffffffffffffffffffffffff160217905550565b6060819050919050565b6000600a60009054906101000a900473ffffffffffffffffffffffffffffffffffffffff16905090565b600b818154811061261c57600080fd5b906000526020600020016000915090508054600181600116156101000203166002900480601f0160208091040260200160405190810160405280929190818152602001828054600181600116156101000203166002900480156126c05780601f10612695576101008083540402835291602001916126c0565b820191906000526020600020905b8154815290600101906020018083116126a357829003601f168201915b505050505081565b606060078054600181600116156101000203166002900480601f0160208091040260200160405190810160405280929190818152602001828054600181600116156101000203166002900480156127605780601f1061273557610100808354040283529160200191612760565b820191906000526020600020905b81548152906001019060200180831161274357829003601f168201915b5050505050905090565b600d818154811061277a57600080fd5b906000526020600020016000915090508054600181600116156101000203166002900480601f01602080910402602001604051908101604052809291908181526020018280546001816001161561010002031660029004801561281e5780601f106127f35761010080835404028352916020019161281e565b820191906000526020600020905b81548152906001019060200180831161280157829003601f168201915b505050505081565b61282e613d0b565b73ffffffffffffffffffffffffffffffffffffffff168273ffffffffffffffffffffffffffffffffffffffff1614156128cf576040517f08c379a00000000000000000000000000000000000000000000000000000000081526004018080602001828103825260198152602001807f4552433732313a20617070726f766520746f2063616c6c65720000000000000081525060200191505060405180910390fd5b80600560006128dc613d0b565b73ffffffffffffffffffffffffffffffffffffffff1673ffffffffffffffffffffffffffffffffffffffff16815260200190815260200160002060008473ffffffffffffffffffffffffffffffffffffffff1673ffffffffffffffffffffffffffffffffffffffff16815260200190815260200160002060006101000a81548160ff0219169083151502179055508173ffffffffffffffffffffffffffffffffffffffff16612989613d0b565b73ffffffffffffffffffffffffffffffffffffffff167f17307eab39ab6107e8899845ad3d59bd9653f200f220920489ca2b5937696c318360405180821515815260200191505060405180910390a35050565b6000600e54905090565b606080600b6000815481106129f757fe5b906000526020600020016040516020018080615c0e6025913960250182805460018160011615610100020316600290048015612a6a5780601f10612a48576101008083540402835291820191612a6a565b820191906000526020600020905b815481529060010190602001808311612a56575b505080615af360239139602301915050604051602081830303815290604052600b600181548110612a9757fe5b906000526020600020016040516020018080615cf96025913960250182805460018160011615610100020316600290048015612b0a5780601f10612ae8576101008083540402835291820191612b0a565b820191906000526020600020905b815481529060010190602001808311612af6575b505080615af360239139602301915050604051602081830303815290604052600b600281548110612b3757fe5b906000526020600020016040516020018080615ca86025913960250182805460018160011615610100020316600290048015612baa5780601f10612b88576101008083540402835291820191612baa565b820191906000526020600020905b815481529060010190602001808311612b96575b505080615af360239139602301915050604051602081830303815290604052600b600381548110612bd757fe5b906000526020600020016040516020018080615dc06025913960250182805460018160011615610100020316600290048015612c4a5780601f10612c28576101008083540402835291820191612c4a565b820191906000526020600020905b815481529060010190602001808311612c36575b505080615af360239139602301915050604051602081830303815290604052600b600481548110612c7757fe5b906000526020600020016040516020018080615b8c6025913960250182805460018160011615610100020316600290048015612cea5780601f10612cc8576101008083540402835291820191612cea565b820191906000526020600020905b815481529060010190602001808311612cd6575b505080615af360239139602301915050604051602081830303815290604052600b600581548110612d1757fe5b906000526020600020016040516020018080615aa86025913960250182805460018160011615610100020316600290048015612d8a5780601f10612d68576101008083540402835291820191612d8a565b820191906000526020600020905b815481529060010190602001808311612d76575b505080615af360239139602301915050604051602081830303815290604052600b600681548110612db757fe5b906000526020600020016040516020018080615bb16025913960250182805460018160011615610100020316600290048015612e2a5780601f10612e08576101008083540402835291820191612e2a565b820191906000526020600020905b815481529060010190602001808311612e16575b505080615af360239139602301915050604051602081830303815290604052600b600781548110612e5757fe5b906000526020600020016040516020018080615d9b6025913960250182805460018160011615610100020316600290048015612eca5780601f10612ea8576101008083540402835291820191612eca565b820191906000526020600020905b815481529060010190602001808311612eb6575b505080615af360239139602301915050604051602081830303815290604052600b600881548110612ef757fe5b906000526020600020016040516020018080615d766025913960250182805460018160011615610100020316600290048015612f6a5780601f10612f48576101008083540402835291820191612f6a565b820191906000526020600020905b815481529060010190602001808311612f56575b505080615af36023913960230191505060405160208183030381529060405260405160200180807f3c7376672077696474683d2731353027206865696768743d27313830273e0000815250601e018a805190602001908083835b60208310612fe75780518252602082019150602081019050602083039250612fc4565b6001836020036101000a03801982511681845116808217855250505050505090500189805190602001908083835b602083106130385780518252602082019150602081019050602083039250613015565b6001836020036101000a03801982511681845116808217855250505050505090500188805190602001908083835b602083106130895780518252602082019150602081019050602083039250613066565b6001836020036101000a03801982511681845116808217855250505050505090500187805190602001908083835b602083106130da57805182526020820191506020810190506020830392506130b7565b6001836020036101000a03801982511681845116808217855250505050505090500186805190602001908083835b6020831061312b5780518252602082019150602081019050602083039250613108565b6001836020036101000a03801982511681845116808217855250505050505090500185805190602001908083835b6020831061317c5780518252602082019150602081019050602083039250613159565b6001836020036101000a03801982511681845116808217855250505050505090500184805190602001908083835b602083106131cd57805182526020820191506020810190506020830392506131aa565b6001836020036101000a03801982511681845116808217855250505050505090500183805190602001908083835b6020831061321e57805182526020820191506020810190506020830392506131fb565b6001836020036101000a03801982511681845116808217855250505050505090500182805190602001908083835b6020831061326f578051825260208201915060208101905060208303925061324c565b6001836020036101000a038019825116818451168082178552505050505050905001807f3c2f7376673e0000000000000000000000000000000000000000000000000000815250600601995050505050505050505060405160208183030381529060405290503373ffffffffffffffffffffffffffffffffffffffff167f73cc29bc981d0bb11f21b055e91e88c3955bbe54a252455677618cb64c31e356826040518080602001828103825283818151815260200191508051906020019080838360005b8381101561334e578082015181840152602081019050613333565b50505050905090810190601f16801561337b5780820380516001836020036101000a031916815260200191505b509250505060405180910390a28091505090565b60135481565b6133a66133a0613d0b565b83613de1565b6133fb576040517f08c379a0000000000000000000000000000000000000000000000000000000008152600401808060200182810382526031815260200180615e066031913960400191505060405180910390fd5b6134078484848461439b565b50505050565b6012818154811061341d57600080fd5b906000526020600020016000915090508054600181600116156101000203166002900480601f0160208091040260200160405190810160405280929190818152602001828054600181600116156101000203166002900480156134c15780601f10613496576101008083540402835291602001916134c1565b820191906000526020600020905b8154815290600101906020018083116134a457829003601f168201915b505050505081565b60606134d482613cee565b613529576040517f08c379a000000000000000000000000000000000000000000000000000000000815260040180806020018281038252602f815260200180615d47602f913960400191505060405180910390fd5b6060600860008481526020019081526020016000208054600181600116156101000203166002900480601f0160208091040260200160405190810160405280929190818152602001828054600181600116156101000203166002900480156135d25780601f106135a7576101008083540402835291602001916135d2565b820191906000526020600020905b8154815290600101906020018083116135b557829003601f168201915b5050505050905060606135e36122f1565b90506000815114156135f9578192505050613795565b6000825111156136ca5780826040516020018083805190602001908083835b6020831061363b5780518252602082019150602081019050602083039250613618565b6001836020036101000a03801982511681845116808217855250505050505090500182805190602001908083835b6020831061368c5780518252602082019150602081019050602083039250613669565b6001836020036101000a0380198251168184511680821785525050505050509050019250505060405160208183030381529060405292505050613795565b806136d48561440d565b6040516020018083805190602001908083835b6020831061370a57805182526020820191506020810190506020830392506136e7565b6001836020036101000a03801982511681845116808217855250505050505090500182805190602001908083835b6020831061375b5780518252602082019150602081019050602083039250613738565b6001836020036101000a03801982511681845116808217855250505050505090500192505050604051602081830303815290604052925050505b919050565b600c81815481106137aa57600080fd5b906000526020600020016000915090508054600181600116156101000203166002900480601f01602080910402602001604051908101604052809291908181526020018280546001816001161561010002031660029004801561384e5780601f106138235761010080835404028352916020019161384e565b820191906000526020600020905b81548152906001019060200180831161383157829003601f168201915b505050505081565b6060600b838154811061386557fe5b906000526020600020018054600181600116156101000203166002900480601f0160208091040260200160405190810160405280929190818152602001828054600181600116156101000203166002900480156139035780601f106138d857610100808354040283529160200191613903565b820191906000526020600020905b8154815290600101906020018083116138e657829003601f168201915b5050505050905081600b848154811061391857fe5b90600052602060002001908051906020019061393592919061581f565b503373ffffffffffffffffffffffffffffffffffffffff16837f176ff2d12d5df6e831b6cdf0336d3d96822178d039bdba36513529961b81a67d8385604051808060200180602001838103835285818151815260200191508051906020019080838360005b838110156139b557808201518184015260208101905061399a565b50505050905090810190601f1680156139e25780820380516001836020036101000a031916815260200191505b50838103825284818151815260200191508051906020019080838360005b83811015613a1b578082015181840152602081019050613a00565b50505050905090810190601f168015613a485780820380516001836020036101000a031916815260200191505b5094505050505060405180910390a3613a5f6129e6565b50505050565b6000600560008473ffffffffffffffffffffffffffffffffffffffff1673ffffffffffffffffffffffffffffffffffffffff16815260200190815260200160002060008373ffffffffffffffffffffffffffffffffffffffff1673ffffffffffffffffffffffffffffffffffffffff16815260200190815260200160002060009054906101000a900460ff16905092915050565b613b01613d0b565b73ffffffffffffffffffffffffffffffffffffffff16613b1f6125e2565b73ffffffffffffffffffffffffffffffffffffffff1614613ba8576040517f08c379a00000000000000000000000000000000000000000000000000000000081526004018080602001828103825260208152602001807f4f776e61626c653a2063616c6c6572206973206e6f7420746865206f776e657281525060200191505060405180910390fd5b600073ffffffffffffffffffffffffffffffffffffffff168173ffffffffffffffffffffffffffffffffffffffff161415613c2e576040517f08c379a0000000000000000000000000000000000000000000000000000000008152600401808060200182810382526026815260200180615acd6026913960400191505060405180910390fd5b8073ffffffffffffffffffffffffffffffffffffffff16600a60009054906101000a900473ffffffffffffffffffffffffffffffffffffffff1673ffffffffffffffffffffffffffffffffffffffff167f8be0079c531659141344cd1fd0a4f28419497f9722a3daafe3b4186f6b6457e060405160405180910390a380600a60006101000a81548173ffffffffffffffffffffffffffffffffffffffff021916908373ffffffffffffffffffffffffffffffffffffffff16021790555050565b6000613d0482600261455490919063ffffffff16565b9050919050565b600033905090565b816004600083815260200190815260200160002060006101000a81548173ffffffffffffffffffffffffffffffffffffffff021916908373ffffffffffffffffffffffffffffffffffffffff160217905550808273ffffffffffffffffffffffffffffffffffffffff16613d8683612142565b73ffffffffffffffffffffffffffffffffffffffff167f8c5be1e5ebec7d5bd14f71427d1e84f3dd0314c0f7b2291e5b200ac8c7c3b92560405160405180910390a45050565b6000613dda8260000161456e565b9050919050565b6000613dec82613cee565b613e41576040517f08c379a000000000000000000000000000000000000000000000000000000000815260040180806020018281038252602c815260200180615b60602c913960400191505060405180910390fd5b6000613e4c83612142565b90508073ffffffffffffffffffffffffffffffffffffffff168473ffffffffffffffffffffffffffffffffffffffff161480613ebb57508373ffffffffffffffffffffffffffffffffffffffff16613ea3846110de565b73ffffffffffffffffffffffffffffffffffffffff16145b80613ecc5750613ecb8185613a65565b5b91505092915050565b8273ffffffffffffffffffffffffffffffffffffffff16613ef582612142565b73ffffffffffffffffffffffffffffffffffffffff1614613f61576040517f08c379a0000000000000000000000000000000000000000000000000000000008152600401808060200182810382526029815260200180615d1e6029913960400191505060405180910390fd5b600073ffffffffffffffffffffffffffffffffffffffff168273ffffffffffffffffffffffffffffffffffffffff161415613fe7576040517f08c379a0000000000000000000000000000000000000000000000000000000008152600401808060200182810382526024815260200180615b166024913960400191505060405180910390fd5b613ff283838361457f565b613ffd600082613d13565b61404e81600160008673ffffffffffffffffffffffffffffffffffffffff1673ffffffffffffffffffffffffffffffffffffffff16815260200190815260200160002061458490919063ffffffff16565b506140a081600160008573ffffffffffffffffffffffffffffffffffffffff1673ffffffffffffffffffffffffffffffffffffffff16815260200190815260200160002061459e90919063ffffffff16565b506140b7818360026145b89092919063ffffffff16565b50808273ffffffffffffffffffffffffffffffffffffffff168473ffffffffffffffffffffffffffffffffffffffff167fddf252ad1be2c89b69c2b068fc378daa952ba7f163c4a11628f55a4df523b3ef60405160405180910390a4505050565b600061412783600001836145ed565b60001c905092915050565b6000806000806141458660000186614670565b915091508160001c8160001c9350935050509250929050565b6000614171846000018460001b84614709565b60001c90509392505050565b614186816147ff565b61418f81614e8d565b50565b600073ffffffffffffffffffffffffffffffffffffffff168273ffffffffffffffffffffffffffffffffffffffff161415614235576040517f08c379a00000000000000000000000000000000000000000000000000000000081526004018080602001828103825260208152602001807f4552433732313a206d696e7420746f20746865207a65726f206164647265737381525060200191505060405180910390fd5b61423e81613cee565b156142b1576040517f08c379a000000000000000000000000000000000000000000000000000000000815260040180806020018281038252601c8152602001807f4552433732313a20746f6b656e20616c7265616479206d696e7465640000000081525060200191505060405180910390fd5b6142bd6000838361457f565b61430e81600160008573ffffffffffffffffffffffffffffffffffffffff1673ffffffffffffffffffffffffffffffffffffffff16815260200190815260200160002061459e90919063ffffffff16565b50614325818360026145b89092919063ffffffff16565b50808273ffffffffffffffffffffffffffffffffffffffff16600073ffffffffffffffffffffffffffffffffffffffff167fddf252ad1be2c89b69c2b068fc378daa952ba7f163c4a11628f55a4df523b3ef60405160405180910390a45050565b600061439482600001614fd1565b9050919050565b6143a6848484613ed5565b6143b284848484614fe2565b614407576040517f08c379a0000000000000000000000000000000000000000000000000000000008152600401808060200182810382526032815260200180615a766032913960400191505060405180910390fd5b50505050565b60606000821415614455576040518060400160405280600181526020017f3000000000000000000000000000000000000000000000000000000000000000815250905061454f565b600082905060005b6000821461447f578080600101915050600a828161447757fe5b04915061445d565b60608167ffffffffffffffff8111801561449857600080fd5b506040519080825280601f01601f1916602001820160405280156144cb5781602001600182028036833780820191505090505b50905060006001830390508593505b6000841461454757600a84816144ec57fe5b0660300160f81b8282806001900393508151811061450657fe5b60200101907effffffffffffffffffffffffffffffffffffffffffffffffffffffffffffff1916908160001a905350600a848161453f57fe5b0493506144da565b819450505050505b919050565b6000614566836000018360001b6151fb565b905092915050565b600081600001805490509050919050565b505050565b6000614596836000018360001b61521e565b905092915050565b60006145b0836000018360001b615306565b905092915050565b60006145e4846000018460001b8473ffffffffffffffffffffffffffffffffffffffff1660001b615376565b90509392505050565b60008183600001805490501161464e576040517f08c379a0000000000000000000000000000000000000000000000000000000008152600401808060200182810382526022815260200180615a546022913960400191505060405180910390fd5b82600001828154811061465d57fe5b9060005260206000200154905092915050565b600080828460000180549050116146d2576040517f08c379a0000000000000000000000000000000000000000000000000000000008152600401808060200182810382526022815260200180615c866022913960400191505060405180910390fd5b60008460000184815481106146e357fe5b906000526020600020906002020190508060000154816001015492509250509250929050565b600080846001016000858152602001908152602001600020549050600081141583906147d0576040517f08c379a00000000000000000000000000000000000000000000000000000000081526004018080602001828103825283818151815260200191508051906020019080838360005b8381101561479557808201518184015260208101905061477a565b50505050905090810190601f1680156147c25780820380516001836020036101000a031916815260200191505b509250505060405180910390fd5b508460000160018203815481106147e357fe5b9060005260206000209060020201600101549150509392505050565b600061482b82604051602001808281526020019150506040516020818303038152906040526001615452565b905060008160ff1610158015614844575060558160ff16105b15614a56576015600083815260200190815260200160002060010180600181540180825580915050600190039060005260206000200160006040518060400160405280600781526020017f2330303030303000000000000000000000000000000000000000000000000000815250909190915090805190602001906148ca92919061581f565b506015600083815260200190815260200160002060010180600181540180825580915050600190039060005260206000200160006040518060400160405280600781526020017f23666630303030000000000000000000000000000000000000000000000000008152509091909150908051906020019061494c92919061581f565b506015600083815260200190815260200160002060010180600181540180825580915050600190039060005260206000200160006040518060400160405280600781526020017f2330306666303000000000000000000000000000000000000000000000000000815250909190915090805190602001906149ce92919061581f565b506015600083815260200190815260200160002060010180600181540180825580915050600190039060005260206000200160006040518060400160405280600781526020017f233030303066660000000000000000000000000000000000000000000000000081525090919091509080519060200190614a5092919061581f565b50614e89565b60558160ff1610158015614a6d575060aa8160ff16105b15614c7f576015600083815260200190815260200160002060010180600181540180825580915050600190039060005260206000200160006040518060400160405280600781526020017f233030303030300000000000000000000000000000000000000000000000000081525090919091509080519060200190614af392919061581f565b506015600083815260200190815260200160002060010180600181540180825580915050600190039060005260206000200160006040518060400160405280600781526020017f236666666630300000000000000000000000000000000000000000000000000081525090919091509080519060200190614b7592919061581f565b506015600083815260200190815260200160002060010180600181540180825580915050600190039060005260206000200160006040518060400160405280600781526020017f233030666666660000000000000000000000000000000000000000000000000081525090919091509080519060200190614bf792919061581f565b506015600083815260200190815260200160002060010180600181540180825580915050600190039060005260206000200160006040518060400160405280600781526020017f236666303066660000000000000000000000000000000000000000000000000081525090919091509080519060200190614c7992919061581f565b50614e88565b6015600083815260200190815260200160002060010180600181540180825580915050600190039060005260206000200160006040518060400160405280600781526020017f233030303030300000000000000000000000000000000000000000000000000081525090919091509080519060200190614d0092919061581f565b506015600083815260200190815260200160002060010180600181540180825580915050600190039060005260206000200160006040518060400160405280600781526020017f236666623330300000000000000000000000000000000000000000000000000081525090919091509080519060200190614d8292919061581f565b506015600083815260200190815260200160002060010180600181540180825580915050600190039060005260206000200160006040518060400160405280600881526020017f233761303030386100000000000000000000000000000000000000000000000081525090919091509080519060200190614e0492919061581f565b506015600083815260200190815260200160002060010180600181540180825580915050600190039060005260206000200160006040518060400160405280600781526020017f233032633063370000000000000000000000000000000000000000000000000081525090919091509080519060200190614e8692919061581f565b505b5b5050565b60005b601154811015614fcd576015600083815260200190815260200160002060000160156000848152602001908152602001600020600101600160038481614ed257fe5b060181548110614ede57fe5b90600052602060002001908060018154018082558091505060019003906000526020600020016000909190919091509080546001816001161561010002031660029004614f2c929190615935565b506015600083815260200190815260200160002060020160156000848152602001908152602001600020600101600160038481614f6557fe5b060181548110614f7157fe5b90600052602060002001908060018154018082558091505060019003906000526020600020016000909190919091509080546001816001161561010002031660029004614fbf929190615935565b508080600101915050614e90565b5050565b600081600001805490509050919050565b60006150038473ffffffffffffffffffffffffffffffffffffffff1661555c565b61501057600190506151f3565b606061517a63150b7a0260e01b615025613d0b565b888787604051602401808573ffffffffffffffffffffffffffffffffffffffff1681526020018473ffffffffffffffffffffffffffffffffffffffff16815260200183815260200180602001828103825283818151815260200191508051906020019080838360005b838110156150a957808201518184015260208101905061508e565b50505050905090810190601f1680156150d65780820380516001836020036101000a031916815260200191505b5095505050505050604051602081830303815290604052907bffffffffffffffffffffffffffffffffffffffffffffffffffffffff19166020820180517bffffffffffffffffffffffffffffffffffffffffffffffffffffffff8381831617835250505050604051806060016040528060328152602001615a76603291398773ffffffffffffffffffffffffffffffffffffffff1661556f9092919063ffffffff16565b9050600081806020019051602081101561519357600080fd5b8101908080519060200190929190505050905063150b7a0260e01b7bffffffffffffffffffffffffffffffffffffffffffffffffffffffff1916817bffffffffffffffffffffffffffffffffffffffffffffffffffffffff191614925050505b949350505050565b600080836001016000848152602001908152602001600020541415905092915050565b600080836001016000848152602001908152602001600020549050600081146152fa576000600182039050600060018660000180549050039050600086600001828154811061526957fe5b906000526020600020015490508087600001848154811061528657fe5b90600052602060002001819055506001830187600101600083815260200190815260200160002081905550866000018054806152be57fe5b60019003818190600052602060002001600090559055866001016000878152602001908152602001600020600090556001945050505050615300565b60009150505b92915050565b60006153128383615587565b61536b578260000182908060018154018082558091505060019003906000526020600020016000909190919091505582600001805490508360010160008481526020019081526020016000208190555060019050615370565b600090505b92915050565b600080846001016000858152602001908152602001600020549050600081141561541d5784600001604051806040016040528086815260200185815250908060018154018082558091505060019003906000526020600020906002020160009091909190915060008201518160000155602082015181600101555050846000018054905085600101600086815260200190815260200160002081905550600191505061544b565b8285600001600183038154811061543057fe5b90600052602060002090600202016001018190555060009150505b9392505050565b6000816001830110156154cd576040517f08c379a00000000000000000000000000000000000000000000000000000000081526004018080602001828103825260108152602001807f746f55696e74385f6f766572666c6f770000000000000000000000000000000081525060200191505060405180910390fd5b6001820183511015615547576040517f08c379a00000000000000000000000000000000000000000000000000000000081526004018080602001828103825260138152602001807f746f55696e74385f6f75744f66426f756e64730000000000000000000000000081525060200191505060405180910390fd5b60008260018501015190508091505092915050565b600080823b905060008111915050919050565b606061557e84846000856155aa565b90509392505050565b600080836001016000848152602001908152602001600020541415905092915050565b606082471015615605576040517f08c379a0000000000000000000000000000000000000000000000000000000008152600401808060200182810382526026815260200180615b3a6026913960400191505060405180910390fd5b61560e8561555c565b615680576040517f08c379a000000000000000000000000000000000000000000000000000000000815260040180806020018281038252601d8152602001807f416464726573733a2063616c6c20746f206e6f6e2d636f6e747261637400000081525060200191505060405180910390fd5b600060608673ffffffffffffffffffffffffffffffffffffffff1685876040518082805190602001908083835b602083106156d057805182526020820191506020810190506020830392506156ad565b6001836020036101000a03801982511681845116808217855250505050505090500191505060006040518083038185875af1925050503d8060008114615732576040519150601f19603f3d011682016040523d82523d6000602084013e615737565b606091505b5091509150615747828286615753565b92505050949350505050565b6060831561576357829050615818565b6000835111156157765782518084602001fd5b816040517f08c379a00000000000000000000000000000000000000000000000000000000081526004018080602001828103825283818151815260200191508051906020019080838360005b838110156157dd5780820151818401526020810190506157c2565b50505050905090810190601f16801561580a5780820380516001836020036101000a031916815260200191505b509250505060405180910390fd5b9392505050565b828054600181600116156101000203166002900490600052602060002090601f016020900481019282615855576000855561589c565b82601f1061586e57805160ff191683800117855561589c565b8280016001018555821561589c579182015b8281111561589b578251825591602001919060010190615880565b5b5090506158a991906159ca565b5090565b6040518060800160405280606081526020016060815260200160608152602001600081525090565b828054828255906000526020600020908101928215615924579160200282015b8281111561592357825182908051906020019061591392919061581f565b50916020019190600101906158f5565b5b50905061593191906159e7565b5090565b828054600181600116156101000203166002900490600052602060002090601f01602090048101928261596b57600085556159b9565b82601f1061597c57805485556159b9565b828001600101855582156159b957600052602060002091601f016020900482015b828111156159b857825482559160010191906001019061599d565b5b5090506159c691906159ca565b5090565b5b808211156159e35760008160009055506001016159cb565b5090565b5b80821115615a0757600081816159fe9190615a0b565b506001016159e8565b5090565b50805460018160011615610100020316600290046000825580601f10615a315750615a50565b601f016020900490600052602060002090810190615a4f91906159ca565b5b5056fe456e756d657261626c655365743a20696e646578206f7574206f6620626f756e64734552433732313a207472616e7366657220746f206e6f6e20455243373231526563656976657220696d706c656d656e7465723c636972636c652063783d273930272063793d2736302720723d273230272066696c6c3d274f776e61626c653a206e6577206f776e657220697320746865207a65726f206164647265737327207374726f6b652d77696474683d273927207374726f6b653d27626c61636b272f3e4552433732313a207472616e7366657220746f20746865207a65726f2061646472657373416464726573733a20696e73756666696369656e742062616c616e636520666f722063616c6c4552433732313a206f70657261746f7220717565727920666f72206e6f6e6578697374656e7420746f6b656e3c636972636c652063783d273630272063793d2736302720723d273230272066696c6c3d273c636972636c652063783d273330272063793d2739302720723d273230272066696c6c3d274552433732313a20617070726f76652063616c6c6572206973206e6f74206f776e6572206e6f7220617070726f76656420666f7220616c6c3c636972636c652063783d273330272063793d2733302720723d273230272066696c6c3d274552433732313a2062616c616e636520717565727920666f7220746865207a65726f20616464726573734552433732313a206f776e657220717565727920666f72206e6f6e6578697374656e7420746f6b656e456e756d657261626c654d61703a20696e646578206f7574206f6620626f756e64733c636972636c652063783d273930272063793d2733302720723d273230272066696c6c3d274552433732313a20617070726f76656420717565727920666f72206e6f6e6578697374656e7420746f6b656e3c636972636c652063783d273630272063793d2733302720723d273230272066696c6c3d274552433732313a207472616e73666572206f6620746f6b656e2074686174206973206e6f74206f776e4552433732314d657461646174613a2055524920717565727920666f72206e6f6e6578697374656e7420746f6b656e3c636972636c652063783d273930272063793d2739302720723d273230272066696c6c3d273c636972636c652063783d273630272063793d2739302720723d273230272066696c6c3d273c636972636c652063783d273330272063793d2736302720723d273230272066696c6c3d274552433732313a20617070726f76616c20746f2063757272656e74206f776e65724552433732313a207472616e736665722063616c6c6572206973206e6f74206f776e6572206e6f7220617070726f766564a264697066735822122036e82c1aae23984efd78744de3da9801ad173781b693f2c028a17196a7b67eea64736f6c634300070400333c636972636c652063783d273930272063793d2736302720723d273230272066696c6c3d2727207374726f6b652d77696474683d273927207374726f6b653d27626c61636b272f3e3c636972636c652063783d273630272063793d2736302720723d273230272066696c6c3d273c636972636c652063783d273330272063793d2739302720723d273230272066696c6c3d273c636972636c652063783d273330272063793d2733302720723d273230272066696c6c3d273c636972636c652063783d273930272063793d2733302720723d273230272066696c6c3d273c636972636c652063783d273630272063793d2733302720723d273230272066696c6c3d273c636972636c652063783d273930272063793d2739302720723d273230272066696c6c3d273c636972636c652063783d273630272063793d2739302720723d273230272066696c6c3d273c636972636c652063783d273330272063793d2736302720723d273230272066696c6c3d27",
  "immutableReferences": {},
  "source": "pragma solidity ^0.7.4;\r\n\r\nimport \"@openzeppelin/contracts/token/ERC721/ERC721.sol\";\r\nimport \"@openzeppelin/contracts/access/Ownable.sol\";\r\n\r\nimport \"./TestColor.sol\";\r\n\r\n\r\ncontract Color is ERC721,Ownable,TestColor {\r\n\r\n\tstring[] public colors;\r\n  \t// uint junk = 10;\r\n  \t// uint nPixX=3;\r\n  \t// uint nPixY=3;\r\n  \t// uint nPix=nPixX*nPixY;\r\n  \t// string[] public pixels;\r\n  \t// string[] public pallet; \r\n  \t// string[] public canvasSVG;\r\n  \tuint256 public numberOfEtherbrights = 0;\r\n\r\n\r\n\tmapping(string => bool) _colorExists;\r\n\tmapping (uint256 => Etherbright) allEtherbrights;\r\n\r\n\tstruct Etherbright {\r\n\t\tstring[] setPixels;\r\n\t\tstring[] pallet;\r\n\t\tstring[] mintPixels;\r\n\t\tuint256 seed;\r\n\t}\r\n\t\r\n\t\r\n\t// event PixelChanged(uint indexed changedPixel, string from, string to, address indexed by);\r\n\tevent ClearCanvas(address indexed by);\r\n\tevent ResetCanvas(address indexed by);\r\n\t// event SVGgenerated(string SVG, address indexed by);\r\n\tevent EtherbrightMinted(uint256 seed, address mintedBy, uint256 nEtherbrights);\r\n\tevent EtherbrightPixelChanged(uint256 tokenId, string from, string to, address indexed by);\r\n\tevent EtherbrightSVGgenerated(uint _tokenId, string svg, address indexed by);\r\n\t\r\n\t\r\n\tconstructor() ERC721(\"Color\", \"COLOR\") public {\r\n\t\tbuildLut();\r\n\t\tbuildCanvas();\r\n\t\tpaintCanvas();\r\n\t\tgenerateSVG();\r\n\t\t// geerateCanvasSVG();\r\n  \t}\r\n\r\n  \tfunction mintEtherbright(address to) public{\r\n\t  bytes32 idHash = keccak256(abi.encodePacked(block.timestamp, to));\r\n      uint256 tokenId = uint(idHash);\r\n      uint256 etherbrightSeed = tokenId % 4000;\r\n\r\n\t  Etherbright memory etherbright;\r\n\t  etherbright.seed=etherbrightSeed;\r\n\t  // etherbright.pallet=getPalletFromSeed(etherbrightSeed.seed);\r\n\t  allEtherbrights[tokenId]=etherbright;\r\n\t  buildEtherbright(tokenId);\r\n\r\n\t  _mint(msg.sender, tokenId);\r\n\t  numberOfEtherbrights+=1;\r\n\t  emit EtherbrightMinted(etherbrightSeed, to, numberOfEtherbrights);\r\n\r\n\t}\r\n\tfunction buildEtherbright (uint256 tokenId ) internal {\r\n\t\t// Etherbright memory ethb=allEtherbrights[tokenId];\r\n\t\t// ethb.pallet=getPalletFromSeed(tokenId, 1);\r\n\t\tsetEtherbrightPallet(tokenId);\r\n\t\tsetAllEtherbrightPixels(tokenId);\r\n\r\n\t\t// Etherbright memory ethb=allEtherbrights[tokenId];\r\n\t\t// // ethb.pallet=getPalletFromSeed(tokenId, 1);\r\n\t\t// setEthebrightPallet(tokenId);\r\n\t\t// for(uint p=0; p<nPix; p++){\r\n\t\t// \tethb.setPixels.push(ethb.pallet[(p%3)+1]);\r\n\t\t// \tethb.mintPixels.push(ethb.pallet[(p%3)+1]);\r\n\r\n\t\t// }\r\n\r\n\t}\r\n\tfunction setAllEtherbrightPixels (uint256 tokenId) internal {\r\n\t\tfor(uint p=0; p<nPix; p++){\r\n\t\t\tallEtherbrights[tokenId].setPixels.push(allEtherbrights[tokenId].pallet[(p%3)+1]);\r\n\t\t\tallEtherbrights[tokenId].mintPixels.push(allEtherbrights[tokenId].pallet[(p%3)+1]);\r\n\r\n\t\t}\r\n\t}\r\n\t\r\n\r\n\tfunction setEtherbrightPallet (uint256 tokenId)  internal {\r\n\t\t// Etherbright memory ethb=allEtherbrights[tokenId];\r\n\t\tuint8 selector=toUint8(abi.encodePacked(tokenId), 1);\r\n\t\tif(selector >= 0 && selector < 85 ){\r\n\t\t\tallEtherbrights[tokenId].pallet.push(\"#000000\");\r\n  \t\t\tallEtherbrights[tokenId].pallet.push(\"#ff0000\");\r\n\t\t\tallEtherbrights[tokenId].pallet.push(\"#00ff00\");\r\n\t\t\tallEtherbrights[tokenId].pallet.push(\"#0000ff\");\r\n\t\t}\r\n\t\telse if(selector >= 85 && selector < 170 ){\r\n\t\t\tallEtherbrights[tokenId].pallet.push(\"#000000\");\r\n  \t\t\tallEtherbrights[tokenId].pallet.push(\"#ffff00\");\r\n\t\t\tallEtherbrights[tokenId].pallet.push(\"#00ffff\");\r\n\t\t\tallEtherbrights[tokenId].pallet.push(\"#ff00ff\");\r\n\r\n\t\t}\r\n\t\telse{\r\n\t\t\tallEtherbrights[tokenId].pallet.push(\"#000000\");\r\n  \t\t\tallEtherbrights[tokenId].pallet.push(\"#ffb300\");\r\n\t\t\tallEtherbrights[tokenId].pallet.push(\"#7a0008a\");\r\n\t\t\tallEtherbrights[tokenId].pallet.push(\"#02c0c7\");\r\n\t\t}\r\n\r\n\t}\r\n\t\r\n    function toUint8(bytes memory _bytes, uint256 _start) internal pure returns (uint8) {\r\n        require(_start + 1 >= _start, \"toUint8_overflow\");\r\n        require(_bytes.length >= _start + 1 , \"toUint8_outOfBounds\");\r\n        uint8 tempUint;\r\n\r\n        assembly {\r\n            tempUint := mload(add(add(_bytes, 0x1), _start))\r\n        }\r\n\r\n        return tempUint;\r\n    }\r\n\r\n\r\n\tfunction setEtherbrightPixel (uint256 _tokenId,uint  _pixn, uint  _palletN ) public {\r\n\t\t// Etherbright storage ethb =allEtherbrights[_tokenId];\r\n\t\tstring memory _priorColor=allEtherbrights[_tokenId].setPixels[_pixn];\r\n\t\tstring memory _newColor=allEtherbrights[_tokenId].pallet[_palletN];\r\n\t\tallEtherbrights[_tokenId].setPixels[_pixn]=_newColor;\r\n\t\temit EtherbrightPixelChanged(_tokenId, _priorColor, _newColor, msg.sender);\r\n\t\t\r\n\t}\r\n\t\r\n\r\n  \tfunction generateEtherbrightsSVG(uint256 _tokenId) public{\r\n  \t\t//returns the svg string of the canvas\r\n  \t\t    string memory svg = \r\n  \t\t    string(\r\n  \t\t    \tabi.encodePacked(\r\n            \t\t\t\t\t\"<svg width='150' height='180'>\", \r\n            \t\t\t\t\tstring(abi.encodePacked(\"<circle cx='30' cy='30' r='20' fill='\",allEtherbrights[_tokenId].setPixels[0],\"' stroke-width='9' stroke='black'/>\")),\r\n            \t\t\t\t\tstring(abi.encodePacked(\"<circle cx='60' cy='30' r='20' fill='\",allEtherbrights[_tokenId].setPixels[1],\"' stroke-width='9' stroke='black'/>\")),\r\n            \t\t\t\t\tstring(abi.encodePacked(\"<circle cx='90' cy='30' r='20' fill='\",allEtherbrights[_tokenId].setPixels[2],\"' stroke-width='9' stroke='black'/>\")), \r\n            \t\t\t\t\tstring(abi.encodePacked(\"<circle cx='30' cy='60' r='20' fill='\",allEtherbrights[_tokenId].setPixels[3],\"' stroke-width='9' stroke='black'/>\")), \r\n            \t\t\t\t\tstring(abi.encodePacked(\"<circle cx='60' cy='60' r='20' fill='\",allEtherbrights[_tokenId].setPixels[4],\"' stroke-width='9' stroke='black'/>\")), \r\n            \t\t\t\t\tstring(abi.encodePacked(\"<circle cx='90' cy='60' r='20' fill='\",allEtherbrights[_tokenId].setPixels[5],\"' stroke-width='9' stroke='black'/>\")), \r\n            \t\t\t\t\tstring(abi.encodePacked(\"<circle cx='30' cy='90' r='20' fill='\",allEtherbrights[_tokenId].setPixels[6],\"' stroke-width='9' stroke='black'/>\")), \r\n            \t\t\t\t\tstring(abi.encodePacked(\"<circle cx='60' cy='90' r='20' fill='\",allEtherbrights[_tokenId].setPixels[7],\"' stroke-width='9' stroke='black'/>\")), \r\n            \t\t\t\t\tstring(abi.encodePacked(\"<circle cx='90' cy='90' r='20' fill='\",allEtherbrights[_tokenId].setPixels[8],\"' stroke-width='9' stroke='black'/>\")),\r\n            \t\t\t\t\t\"</svg>\"\r\n        \t\t\t\t\t\t)\r\n        \t);\r\n  \t\temit EtherbrightSVGgenerated(_tokenId,svg,msg.sender);\r\n\r\n  \t}\r\n\r\n\r\n\r\n  \t\r\n\r\n\r\n\r\n\r\n\t// function setPixel(uint  _pixn, string memory _pixcolor) public {\r\n\t// \tstring memory  _priorColor=pixels[_pixn];\r\n\t// \t// string memory  _priorColor=pixels[0];\r\n\t// \tpixels[_pixn]=_pixcolor;\r\n\t// \temit PixelChanged(_pixn,_priorColor,_pixcolor, msg.sender);\r\n\t// \tgenerateSVG();\r\n\t\t\r\n\t// }\r\n\t\r\n\r\n\r\n\r\n\r\n\r\n\r\n\r\n\r\n\r\n\t\r\n  \t\r\n\r\n\r\n\r\n\r\n\r\n  // \tfunction geerateCanvasSVG () public returns(string memory)  {\r\n  // \t\tstring[] memory pixelholder;\r\n  // \t\tstring memory canvasSVGheader=\"<svg width='100' height='100'>\";\r\n  // \t\tstring memory canvasSVGfooter=\"</svg>\";\r\n  // \t\t //attache header\r\n  // \t\t//iterate over the pixels and add generate individual strings\r\n  // \t\t//attach footer\r\n  // \t\t//pack and send\r\n  // \t\tcanvasSVG.push(canvasSVGheader);\r\n  // \t\tfor(uint p=0; p<nPix; p++){\r\n  // \t\t\tstring pixSring=string()\r\n  // \t\t\tcanvasSVG.push(pixels[p]);\r\n\t\t// }\t\r\n\t\t// canvasSVG.push(canvasSVGfooter);\r\n\t\t// return string(abi.encodePacked(canvasSVG));\r\n  \t\t\r\n  // \t}\r\n  \t\r\n  \t// function concat (string memory array) returns(string memory) view internal {\r\n  \t\t\r\n  \t// }\r\n  \t\r\n\r\n\r\n\r\n\r\n  \t// function setPixelTick(uint memory _tick) public payable \r\n\r\n    // function totalSupply\r\n    function getjunk() public view returns(uint){\r\n      return junk;\r\n    }\r\n  \r\n\tfunction testReturn(string memory _returnString) public returns(string memory) {\r\n\t    // _mint(msg.sender, 1);\r\n\t    return _returnString;\r\n\t}\r\n\r\n\t// function mint(string memory _color) public {\r\n\t//   require(!_colorExists[_color]);\r\n\t//   colors.push(_color);\r\n\t//   uint _id = colors.length-1;\r\n\t//   _mint(msg.sender, _id);\r\n\t//   _colorExists[_color] = true;\r\n\t// }\r\n\r\n}\r\n",
  "sourcePath": "H:/Expermental/nft/src/contracts/Color.sol",
  "compiler": {
    "name": "solc",
    "version": "0.7.4+commit.3f05b770.Emscripten.clang"
  },
  "schemaVersion": "3.3.4",
  "updatedAt": "2021-03-22T22:31:21.733Z",
  "networkType": "ethereum",
  "devdoc": {
    "kind": "dev",
    "methods": {
      "approve(address,uint256)": {
        "details": "See {IERC721-approve}."
      },
      "balanceOf(address)": {
        "details": "See {IERC721-balanceOf}."
      },
      "baseURI()": {
        "details": "Returns the base URI set via {_setBaseURI}. This will be automatically added as a prefix in {tokenURI} to each token's URI, or to the token ID if no specific URI is set for that token ID."
      },
      "getApproved(uint256)": {
        "details": "See {IERC721-getApproved}."
      },
      "isApprovedForAll(address,address)": {
        "details": "See {IERC721-isApprovedForAll}."
      },
      "name()": {
        "details": "See {IERC721Metadata-name}."
      },
      "owner()": {
        "details": "Returns the address of the current owner."
      },
      "ownerOf(uint256)": {
        "details": "See {IERC721-ownerOf}."
      },
      "renounceOwnership()": {
        "details": "Leaves the contract without owner. It will not be possible to call `onlyOwner` functions anymore. Can only be called by the current owner. NOTE: Renouncing ownership will leave the contract without an owner, thereby removing any functionality that is only available to the owner."
      },
      "safeTransferFrom(address,address,uint256)": {
        "details": "See {IERC721-safeTransferFrom}."
      },
      "safeTransferFrom(address,address,uint256,bytes)": {
        "details": "See {IERC721-safeTransferFrom}."
      },
      "setApprovalForAll(address,bool)": {
        "details": "See {IERC721-setApprovalForAll}."
      },
      "supportsInterface(bytes4)": {
        "details": "See {IERC165-supportsInterface}. Time complexity O(1), guaranteed to always use less than 30 000 gas."
      },
      "symbol()": {
        "details": "See {IERC721Metadata-symbol}."
      },
      "tokenByIndex(uint256)": {
        "details": "See {IERC721Enumerable-tokenByIndex}."
      },
      "tokenOfOwnerByIndex(address,uint256)": {
        "details": "See {IERC721Enumerable-tokenOfOwnerByIndex}."
      },
      "tokenURI(uint256)": {
        "details": "See {IERC721Metadata-tokenURI}."
      },
      "totalSupply()": {
        "details": "See {IERC721Enumerable-totalSupply}."
      },
      "transferFrom(address,address,uint256)": {
        "details": "See {IERC721-transferFrom}."
      },
      "transferOwnership(address)": {
        "details": "Transfers ownership of the contract to a new account (`newOwner`). Can only be called by the current owner."
      }
    },
    "version": 1
  },
  "userdoc": {
    "kind": "user",
    "methods": {},
    "version": 1
  }
}