{
  "contractName": "Color",
  "abi": [
    {
      "inputs": [],
      "stateMutability": "nonpayable",
      "type": "constructor"
    },
    {
      "anonymous": false,
      "inputs": [
        {
          "indexed": true,
          "internalType": "address",
          "name": "owner",
          "type": "address"
        },
        {
          "indexed": true,
          "internalType": "address",
          "name": "approved",
          "type": "address"
        },
        {
          "indexed": true,
          "internalType": "uint256",
          "name": "tokenId",
          "type": "uint256"
        }
      ],
      "name": "Approval",
      "type": "event"
    },
    {
      "anonymous": false,
      "inputs": [
        {
          "indexed": true,
          "internalType": "address",
          "name": "owner",
          "type": "address"
        },
        {
          "indexed": true,
          "internalType": "address",
          "name": "operator",
          "type": "address"
        },
        {
          "indexed": false,
          "internalType": "bool",
          "name": "approved",
          "type": "bool"
        }
      ],
      "name": "ApprovalForAll",
      "type": "event"
    },
    {
      "anonymous": false,
      "inputs": [
        {
          "indexed": true,
          "internalType": "address",
          "name": "by",
          "type": "address"
        }
      ],
      "name": "ClearCanvas",
      "type": "event"
    },
    {
      "anonymous": false,
      "inputs": [
        {
          "indexed": false,
          "internalType": "uint256",
          "name": "seed",
          "type": "uint256"
        },
        {
          "indexed": false,
          "internalType": "address",
          "name": "mintedBy",
          "type": "address"
        },
        {
          "indexed": false,
          "internalType": "uint256",
          "name": "nEtherbrights",
          "type": "uint256"
        }
      ],
      "name": "EtherbrightMinted",
      "type": "event"
    },
    {
      "anonymous": false,
      "inputs": [
        {
          "indexed": false,
          "internalType": "uint256",
          "name": "tokenId",
          "type": "uint256"
        },
        {
          "indexed": false,
          "internalType": "string",
          "name": "from",
          "type": "string"
        },
        {
          "indexed": false,
          "internalType": "string",
          "name": "to",
          "type": "string"
        },
        {
          "indexed": true,
          "internalType": "address",
          "name": "by",
          "type": "address"
        }
      ],
      "name": "EtherbrightPixelChanged",
      "type": "event"
    },
    {
      "anonymous": false,
      "inputs": [
        {
          "indexed": false,
          "internalType": "uint256",
          "name": "_tokenId",
          "type": "uint256"
        },
        {
          "indexed": false,
          "internalType": "string",
          "name": "svg",
          "type": "string"
        },
        {
          "indexed": true,
          "internalType": "address",
          "name": "by",
          "type": "address"
        }
      ],
      "name": "EtherbrightSVGgenerated",
      "type": "event"
    },
    {
      "anonymous": false,
      "inputs": [
        {
          "indexed": true,
          "internalType": "address",
          "name": "previousOwner",
          "type": "address"
        },
        {
          "indexed": true,
          "internalType": "address",
          "name": "newOwner",
          "type": "address"
        }
      ],
      "name": "OwnershipTransferred",
      "type": "event"
    },
    {
      "anonymous": false,
      "inputs": [
        {
          "indexed": true,
          "internalType": "uint256",
          "name": "changedPixel",
          "type": "uint256"
        },
        {
          "indexed": false,
          "internalType": "string",
          "name": "from",
          "type": "string"
        },
        {
          "indexed": false,
          "internalType": "string",
          "name": "to",
          "type": "string"
        },
        {
          "indexed": true,
          "internalType": "address",
          "name": "by",
          "type": "address"
        }
      ],
      "name": "PixelChanged",
      "type": "event"
    },
    {
      "anonymous": false,
      "inputs": [
        {
          "indexed": true,
          "internalType": "address",
          "name": "by",
          "type": "address"
        }
      ],
      "name": "ResetCanvas",
      "type": "event"
    },
    {
      "anonymous": false,
      "inputs": [
        {
          "indexed": false,
          "internalType": "string",
          "name": "SVG",
          "type": "string"
        },
        {
          "indexed": true,
          "internalType": "address",
          "name": "by",
          "type": "address"
        }
      ],
      "name": "SVGgenerated",
      "type": "event"
    },
    {
      "anonymous": false,
      "inputs": [
        {
          "indexed": true,
          "internalType": "address",
          "name": "from",
          "type": "address"
        },
        {
          "indexed": true,
          "internalType": "address",
          "name": "to",
          "type": "address"
        },
        {
          "indexed": true,
          "internalType": "uint256",
          "name": "tokenId",
          "type": "uint256"
        }
      ],
      "name": "Transfer",
      "type": "event"
    },
    {
      "inputs": [
        {
          "internalType": "address",
          "name": "to",
          "type": "address"
        },
        {
          "internalType": "uint256",
          "name": "tokenId",
          "type": "uint256"
        }
      ],
      "name": "approve",
      "outputs": [],
      "stateMutability": "nonpayable",
      "type": "function"
    },
    {
      "inputs": [
        {
          "internalType": "address",
          "name": "owner",
          "type": "address"
        }
      ],
      "name": "balanceOf",
      "outputs": [
        {
          "internalType": "uint256",
          "name": "",
          "type": "uint256"
        }
      ],
      "stateMutability": "view",
      "type": "function",
      "constant": true
    },
    {
      "inputs": [],
      "name": "baseURI",
      "outputs": [
        {
          "internalType": "string",
          "name": "",
          "type": "string"
        }
      ],
      "stateMutability": "view",
      "type": "function",
      "constant": true
    },
    {
      "inputs": [
        {
          "internalType": "uint256",
          "name": "",
          "type": "uint256"
        }
      ],
      "name": "canvasSVG",
      "outputs": [
        {
          "internalType": "string",
          "name": "",
          "type": "string"
        }
      ],
      "stateMutability": "view",
      "type": "function",
      "constant": true
    },
    {
      "inputs": [
        {
          "internalType": "uint256",
          "name": "",
          "type": "uint256"
        }
      ],
      "name": "colors",
      "outputs": [
        {
          "internalType": "string",
          "name": "",
          "type": "string"
        }
      ],
      "stateMutability": "view",
      "type": "function",
      "constant": true
    },
    {
      "inputs": [],
      "name": "generateSVG",
      "outputs": [
        {
          "internalType": "string",
          "name": "",
          "type": "string"
        }
      ],
      "stateMutability": "nonpayable",
      "type": "function"
    },
    {
      "inputs": [
        {
          "internalType": "uint256",
          "name": "tokenId",
          "type": "uint256"
        }
      ],
      "name": "getApproved",
      "outputs": [
        {
          "internalType": "address",
          "name": "",
          "type": "address"
        }
      ],
      "stateMutability": "view",
      "type": "function",
      "constant": true
    },
    {
      "inputs": [
        {
          "internalType": "address",
          "name": "owner",
          "type": "address"
        },
        {
          "internalType": "address",
          "name": "operator",
          "type": "address"
        }
      ],
      "name": "isApprovedForAll",
      "outputs": [
        {
          "internalType": "bool",
          "name": "",
          "type": "bool"
        }
      ],
      "stateMutability": "view",
      "type": "function",
      "constant": true
    },
    {
      "inputs": [],
      "name": "name",
      "outputs": [
        {
          "internalType": "string",
          "name": "",
          "type": "string"
        }
      ],
      "stateMutability": "view",
      "type": "function",
      "constant": true
    },
    {
      "inputs": [],
      "name": "numberOfEtherbrights",
      "outputs": [
        {
          "internalType": "uint256",
          "name": "",
          "type": "uint256"
        }
      ],
      "stateMutability": "view",
      "type": "function",
      "constant": true
    },
    {
      "inputs": [],
      "name": "owner",
      "outputs": [
        {
          "internalType": "address",
          "name": "",
          "type": "address"
        }
      ],
      "stateMutability": "view",
      "type": "function",
      "constant": true
    },
    {
      "inputs": [
        {
          "internalType": "uint256",
          "name": "tokenId",
          "type": "uint256"
        }
      ],
      "name": "ownerOf",
      "outputs": [
        {
          "internalType": "address",
          "name": "",
          "type": "address"
        }
      ],
      "stateMutability": "view",
      "type": "function",
      "constant": true
    },
    {
      "inputs": [
        {
          "internalType": "uint256",
          "name": "",
          "type": "uint256"
        }
      ],
      "name": "pallet",
      "outputs": [
        {
          "internalType": "string",
          "name": "",
          "type": "string"
        }
      ],
      "stateMutability": "view",
      "type": "function",
      "constant": true
    },
    {
      "inputs": [
        {
          "internalType": "uint256",
          "name": "",
          "type": "uint256"
        }
      ],
      "name": "pixels",
      "outputs": [
        {
          "internalType": "string",
          "name": "",
          "type": "string"
        }
      ],
      "stateMutability": "view",
      "type": "function",
      "constant": true
    },
    {
      "inputs": [],
      "name": "renounceOwnership",
      "outputs": [],
      "stateMutability": "nonpayable",
      "type": "function"
    },
    {
      "inputs": [
        {
          "internalType": "address",
          "name": "from",
          "type": "address"
        },
        {
          "internalType": "address",
          "name": "to",
          "type": "address"
        },
        {
          "internalType": "uint256",
          "name": "tokenId",
          "type": "uint256"
        }
      ],
      "name": "safeTransferFrom",
      "outputs": [],
      "stateMutability": "nonpayable",
      "type": "function"
    },
    {
      "inputs": [
        {
          "internalType": "address",
          "name": "from",
          "type": "address"
        },
        {
          "internalType": "address",
          "name": "to",
          "type": "address"
        },
        {
          "internalType": "uint256",
          "name": "tokenId",
          "type": "uint256"
        },
        {
          "internalType": "bytes",
          "name": "_data",
          "type": "bytes"
        }
      ],
      "name": "safeTransferFrom",
      "outputs": [],
      "stateMutability": "nonpayable",
      "type": "function"
    },
    {
      "inputs": [
        {
          "internalType": "address",
          "name": "operator",
          "type": "address"
        },
        {
          "internalType": "bool",
          "name": "approved",
          "type": "bool"
        }
      ],
      "name": "setApprovalForAll",
      "outputs": [],
      "stateMutability": "nonpayable",
      "type": "function"
    },
    {
      "inputs": [
        {
          "internalType": "uint256",
          "name": "_pixn",
          "type": "uint256"
        },
        {
          "internalType": "string",
          "name": "_pixcolor",
          "type": "string"
        }
      ],
      "name": "setPixel",
      "outputs": [],
      "stateMutability": "nonpayable",
      "type": "function"
    },
    {
      "inputs": [
        {
          "internalType": "bytes4",
          "name": "interfaceId",
          "type": "bytes4"
        }
      ],
      "name": "supportsInterface",
      "outputs": [
        {
          "internalType": "bool",
          "name": "",
          "type": "bool"
        }
      ],
      "stateMutability": "view",
      "type": "function",
      "constant": true
    },
    {
      "inputs": [],
      "name": "symbol",
      "outputs": [
        {
          "internalType": "string",
          "name": "",
          "type": "string"
        }
      ],
      "stateMutability": "view",
      "type": "function",
      "constant": true
    },
    {
      "inputs": [
        {
          "internalType": "uint256",
          "name": "index",
          "type": "uint256"
        }
      ],
      "name": "tokenByIndex",
      "outputs": [
        {
          "internalType": "uint256",
          "name": "",
          "type": "uint256"
        }
      ],
      "stateMutability": "view",
      "type": "function",
      "constant": true
    },
    {
      "inputs": [
        {
          "internalType": "address",
          "name": "owner",
          "type": "address"
        },
        {
          "internalType": "uint256",
          "name": "index",
          "type": "uint256"
        }
      ],
      "name": "tokenOfOwnerByIndex",
      "outputs": [
        {
          "internalType": "uint256",
          "name": "",
          "type": "uint256"
        }
      ],
      "stateMutability": "view",
      "type": "function",
      "constant": true
    },
    {
      "inputs": [
        {
          "internalType": "uint256",
          "name": "tokenId",
          "type": "uint256"
        }
      ],
      "name": "tokenURI",
      "outputs": [
        {
          "internalType": "string",
          "name": "",
          "type": "string"
        }
      ],
      "stateMutability": "view",
      "type": "function",
      "constant": true
    },
    {
      "inputs": [],
      "name": "totalSupply",
      "outputs": [
        {
          "internalType": "uint256",
          "name": "",
          "type": "uint256"
        }
      ],
      "stateMutability": "view",
      "type": "function",
      "constant": true
    },
    {
      "inputs": [
        {
          "internalType": "address",
          "name": "from",
          "type": "address"
        },
        {
          "internalType": "address",
          "name": "to",
          "type": "address"
        },
        {
          "internalType": "uint256",
          "name": "tokenId",
          "type": "uint256"
        }
      ],
      "name": "transferFrom",
      "outputs": [],
      "stateMutability": "nonpayable",
      "type": "function"
    },
    {
      "inputs": [
        {
          "internalType": "address",
          "name": "newOwner",
          "type": "address"
        }
      ],
      "name": "transferOwnership",
      "outputs": [],
      "stateMutability": "nonpayable",
      "type": "function"
    },
    {
      "inputs": [
        {
          "internalType": "address",
          "name": "to",
          "type": "address"
        }
      ],
      "name": "mintEtherbright",
      "outputs": [],
      "stateMutability": "nonpayable",
      "type": "function"
    },
    {
      "inputs": [
        {
          "internalType": "uint256",
          "name": "_tokenId",
          "type": "uint256"
        },
        {
          "internalType": "uint256",
          "name": "_pixn",
          "type": "uint256"
        },
        {
          "internalType": "uint256",
          "name": "_palletN",
          "type": "uint256"
        }
      ],
      "name": "setEtherbrightPixel",
      "outputs": [],
      "stateMutability": "nonpayable",
      "type": "function"
    },
    {
      "inputs": [
        {
          "internalType": "uint256",
          "name": "_tokenId",
          "type": "uint256"
        }
      ],
      "name": "generateEtherbrightsSVG",
      "outputs": [
        {
          "internalType": "string",
          "name": "",
          "type": "string"
        }
      ],
      "stateMutability": "nonpayable",
      "type": "function"
    },
    {
      "inputs": [],
      "name": "getjunk",
      "outputs": [
        {
          "internalType": "uint256",
          "name": "",
          "type": "uint256"
        }
      ],
      "stateMutability": "view",
      "type": "function",
      "constant": true
    },
    {
      "inputs": [
        {
          "internalType": "string",
          "name": "_returnString",
          "type": "string"
        }
      ],
      "name": "testReturn",
      "outputs": [
        {
          "internalType": "string",
          "name": "",
          "type": "string"
        }
      ],
      "stateMutability": "nonpayable",
      "type": "function"
    }
  ],
  "bytecode": "0x6080604052600a600e556003600f556003601055601054600f540260115560006013553480156200002f57600080fd5b506040518060400160405280600581526020017f436f6c6f720000000000000000000000000000000000000000000000000000008152506040518060400160405280600581526020017f434f4c4f52000000000000000000000000000000000000000000000000000000815250620000b46301ffc9a760e01b6200022860201b60201c565b8160069080519060200190620000cc92919062001291565b508060079080519060200190620000e592919062001291565b50620000fe6380ac58cd60e01b6200022860201b60201c565b62000116635b5e139f60e01b6200022860201b60201c565b6200012e63780e9d6360e01b6200022860201b60201c565b50506000620001426200033160201b60201c565b905080600a60006101000a81548173ffffffffffffffffffffffffffffffffffffffff021916908373ffffffffffffffffffffffffffffffffffffffff1602179055508073ffffffffffffffffffffffffffffffffffffffff16600073ffffffffffffffffffffffffffffffffffffffff167f8be0079c531659141344cd1fd0a4f28419497f9722a3daafe3b4186f6b6457e060405160405180910390a350620001f16200033960201b60201c565b62000201620004fb60201b60201c565b620002116200057c60201b60201c565b620002216200066f60201b60201c565b50620013e5565b63ffffffff60e01b817bffffffffffffffffffffffffffffffffffffffffffffffffffffffff19161415620002c5576040517f08c379a000000000000000000000000000000000000000000000000000000000815260040180806020018281038252601c8152602001807f4552433136353a20696e76616c696420696e746572666163652069640000000081525060200191505060405180910390fd5b6001600080837bffffffffffffffffffffffffffffffffffffffffffffffffffffffff19167bffffffffffffffffffffffffffffffffffffffffffffffffffffffff1916815260200190815260200160002060006101000a81548160ff02191690831515021790555050565b600033905090565b600c80600181540180825580915050600190039060005260206000200160006040518060400160405280600781526020017f233030303030300000000000000000000000000000000000000000000000000081525090919091509080519060200190620003a892919062001291565b50600c80600181540180825580915050600190039060005260206000200160006040518060400160405280600781526020017f2366663030303000000000000000000000000000000000000000000000000000815250909190915090805190602001906200041892919062001291565b50600c80600181540180825580915050600190039060005260206000200160006040518060400160405280600781526020017f2330306666303000000000000000000000000000000000000000000000000000815250909190915090805190602001906200048892919062001291565b50600c80600181540180825580915050600190039060005260206000200160006040518060400160405280600781526020017f233030303066660000000000000000000000000000000000000000000000000081525090919091509080519060200190620004f892919062001291565b50565b60005b6011548110156200057957600b600c6000815481106200051a57fe5b906000526020600020019080600181540180825580915050600190039060005260206000200160009091909190915090805460018160011615610100020316600290046200056a92919062001328565b508080600101915050620004fe565b50565b60005b6011548110156200066c576200065e81600c6001600385816200059e57fe5b060181548110620005ab57fe5b906000526020600020018054600181600116156101000203166002900480601f0160208091040260200160405190810160405280929190818152602001828054600181600116156101000203166002900480156200064d5780601f1062000621576101008083540402835291602001916200064d565b820191906000526020600020905b8154815290600101906020018083116200062f57829003601f168201915b50505050506200106c60201b60201c565b80806001019150506200057f565b50565b606080600b6000815481106200068157fe5b906000526020600020016040516020018080620073726025913960250182805460018160011615610100020316600290048015620006f95780601f10620006d6576101008083540402835291820191620006f9565b820191906000526020600020905b815481529060010190602001808311620006e4575b5050806200730560239139602301915050604051602081830303815290604052600b6001815481106200072857fe5b906000526020600020016040516020018080620073bc6025913960250182805460018160011615610100020316600290048015620007a05780601f106200077d576101008083540402835291820191620007a0565b820191906000526020600020905b8154815290600101906020018083116200078b575b5050806200730560239139602301915050604051602081830303815290604052600b600281548110620007cf57fe5b906000526020600020016040516020018080620073976025913960250182805460018160011615610100020316600290048015620008475780601f106200082457610100808354040283529182019162000847565b820191906000526020600020905b81548152906001019060200180831162000832575b5050806200730560239139602301915050604051602081830303815290604052600b6003815481106200087657fe5b9060005260206000200160405160200180806200742b6025913960250182805460018160011615610100020316600290048015620008ee5780601f10620008cb576101008083540402835291820191620008ee565b820191906000526020600020905b815481529060010190602001808311620008d9575b5050806200730560239139602301915050604051602081830303815290604052600b6004815481106200091d57fe5b906000526020600020016040516020018080620073286025913960250182805460018160011615610100020316600290048015620009955780601f106200097257610100808354040283529182019162000995565b820191906000526020600020905b81548152906001019060200180831162000980575b5050806200730560239139602301915050604051602081830303815290604052600b600581548110620009c457fe5b906000526020600020016040516020018080620072e0602591396025018280546001816001161561010002031660029004801562000a3c5780601f1062000a1957610100808354040283529182019162000a3c565b820191906000526020600020905b81548152906001019060200180831162000a27575b5050806200730560239139602301915050604051602081830303815290604052600b60068154811062000a6b57fe5b9060005260206000200160405160200180806200734d602591396025018280546001816001161561010002031660029004801562000ae35780601f1062000ac057610100808354040283529182019162000ae3565b820191906000526020600020905b81548152906001019060200180831162000ace575b5050806200730560239139602301915050604051602081830303815290604052600b60078154811062000b1257fe5b90600052602060002001604051602001808062007406602591396025018280546001816001161561010002031660029004801562000b8a5780601f1062000b6757610100808354040283529182019162000b8a565b820191906000526020600020905b81548152906001019060200180831162000b75575b5050806200730560239139602301915050604051602081830303815290604052600b60088154811062000bb957fe5b906000526020600020016040516020018080620073e1602591396025018280546001816001161561010002031660029004801562000c315780601f1062000c0e57610100808354040283529182019162000c31565b820191906000526020600020905b81548152906001019060200180831162000c1c575b505080620073056023913960230191505060405160208183030381529060405260405160200180807f3c7376672077696474683d2731353027206865696768743d27313830273e0000815250601e018a805190602001908083835b6020831062000cb1578051825260208201915060208101905060208303925062000c8c565b6001836020036101000a03801982511681845116808217855250505050505090500189805190602001908083835b6020831062000d04578051825260208201915060208101905060208303925062000cdf565b6001836020036101000a03801982511681845116808217855250505050505090500188805190602001908083835b6020831062000d57578051825260208201915060208101905060208303925062000d32565b6001836020036101000a03801982511681845116808217855250505050505090500187805190602001908083835b6020831062000daa578051825260208201915060208101905060208303925062000d85565b6001836020036101000a03801982511681845116808217855250505050505090500186805190602001908083835b6020831062000dfd578051825260208201915060208101905060208303925062000dd8565b6001836020036101000a03801982511681845116808217855250505050505090500185805190602001908083835b6020831062000e50578051825260208201915060208101905060208303925062000e2b565b6001836020036101000a03801982511681845116808217855250505050505090500184805190602001908083835b6020831062000ea3578051825260208201915060208101905060208303925062000e7e565b6001836020036101000a03801982511681845116808217855250505050505090500183805190602001908083835b6020831062000ef6578051825260208201915060208101905060208303925062000ed1565b6001836020036101000a03801982511681845116808217855250505050505090500182805190602001908083835b6020831062000f49578051825260208201915060208101905060208303925062000f24565b6001836020036101000a038019825116818451168082178552505050505050905001807f3c2f7376673e0000000000000000000000000000000000000000000000000000815250600601995050505050505050505060405160208183030381529060405290503373ffffffffffffffffffffffffffffffffffffffff167f73cc29bc981d0bb11f21b055e91e88c3955bbe54a252455677618cb64c31e356826040518080602001828103825283818151815260200191508051906020019080838360005b838110156200102a5780820151818401526020810190506200100d565b50505050905090810190601f168015620010585780820380516001836020036101000a031916815260200191505b509250505060405180910390a28091505090565b6060600b83815481106200107c57fe5b906000526020600020018054600181600116156101000203166002900480601f0160208091040260200160405190810160405280929190818152602001828054600181600116156101000203166002900480156200111e5780601f10620010f2576101008083540402835291602001916200111e565b820191906000526020600020905b8154815290600101906020018083116200110057829003601f168201915b5050505050905081600b84815481106200113457fe5b9060005260206000200190805190602001906200115392919062001291565b503373ffffffffffffffffffffffffffffffffffffffff16837f176ff2d12d5df6e831b6cdf0336d3d96822178d039bdba36513529961b81a67d8385604051808060200180602001838103835285818151815260200191508051906020019080838360005b83811015620011d5578082015181840152602081019050620011b8565b50505050905090810190601f168015620012035780820380516001836020036101000a031916815260200191505b50838103825284818151815260200191508051906020019080838360005b838110156200123e57808201518184015260208101905062001221565b50505050905090810190601f1680156200126c5780820380516001836020036101000a031916815260200191505b5094505050505060405180910390a36200128b6200066f60201b60201c565b50505050565b828054600181600116156101000203166002900490600052602060002090601f016020900481019282620012c9576000855562001315565b82601f10620012e457805160ff191683800117855562001315565b8280016001018555821562001315579182015b8281111562001314578251825591602001919060010190620012f7565b5b509050620013249190620013c6565b5090565b828054600181600116156101000203166002900490600052602060002090601f016020900481019282620013605760008555620013b3565b82601f10620013735780548555620013b3565b82800160010185558215620013b357600052602060002091601f016020900482015b82811115620013b257825482559160010191906001019062001395565b5b509050620013c29190620013c6565b5090565b5b80821115620013e1576000816000905550600101620013c7565b5090565b615eeb80620013f56000396000f3fe608060405234801561001057600080fd5b50600436106101f05760003560e01c80637707f2141161010f578063b1d22c4c116100a2578063d2ea1b7b11610071578063d2ea1b7b14610e24578063e758e2f314610ecb578063e985e9c514610f90578063f2fde38b1461100a576101f0565b8063b1d22c4c14610bb3578063b88d4fde14610bd1578063bd11f69d14610cd6578063c87b56dd14610d7d576101f0565b80639ff9d894116100de5780639ff9d89414610a1b578063a22cb46514610ac2578063a969e8a214610b12578063ad711e9e14610b30576101f0565b80637707f214146107895780638da5cb5b146108bd5780638da7f232146108f157806395d89b4114610998576101f0565b80634f6ccce711610187578063643c6dd911610156578063643c6dd9146106605780636c0360eb146106a457806370a0823114610727578063715018a61461077f576101f0565b80634f6ccce7146104dd5780635df3efd91461051f5780635e697d81146105615780636352211e14610608576101f0565b806318160ddd116101c357806318160ddd1461038157806323b872dd1461039f5780632f745c591461040d57806342842e0e1461046f576101f0565b806301ffc9a7146101f557806306fdde0314610258578063081812fc146102db578063095ea7b314610333575b600080fd5b6102406004803603602081101561020b57600080fd5b8101908080357bffffffffffffffffffffffffffffffffffffffffffffffffffffffff1916906020019092919050505061104e565b60405180821515815260200191505060405180910390f35b6102606110b5565b6040518080602001828103825283818151815260200191508051906020019080838360005b838110156102a0578082015181840152602081019050610285565b50505050905090810190601f1680156102cd5780820380516001836020036101000a031916815260200191505b509250505060405180910390f35b610307600480360360208110156102f157600080fd5b8101908080359060200190929190505050611157565b604051808273ffffffffffffffffffffffffffffffffffffffff16815260200191505060405180910390f35b61037f6004803603604081101561034957600080fd5b81019080803573ffffffffffffffffffffffffffffffffffffffff169060200190929190803590602001909291905050506111f2565b005b610389611336565b6040518082815260200191505060405180910390f35b61040b600480360360608110156103b557600080fd5b81019080803573ffffffffffffffffffffffffffffffffffffffff169060200190929190803573ffffffffffffffffffffffffffffffffffffffff16906020019092919080359060200190929190505050611347565b005b6104596004803603604081101561042357600080fd5b81019080803573ffffffffffffffffffffffffffffffffffffffff169060200190929190803590602001909291905050506113bd565b6040518082815260200191505060405180910390f35b6104db6004803603606081101561048557600080fd5b81019080803573ffffffffffffffffffffffffffffffffffffffff169060200190929190803573ffffffffffffffffffffffffffffffffffffffff16906020019092919080359060200190929190505050611418565b005b610509600480360360208110156104f357600080fd5b8101908080359060200190929190505050611438565b6040518082815260200191505060405180910390f35b61055f6004803603606081101561053557600080fd5b8101908080359060200190929190803590602001909291908035906020019092919050505061145b565b005b61058d6004803603602081101561057757600080fd5b810190808035906020019092919050505061175a565b6040518080602001828103825283818151815260200191508051906020019080838360005b838110156105cd5780820151818401526020810190506105b2565b50505050905090810190601f1680156105fa5780820380516001836020036101000a031916815260200191505b509250505060405180910390f35b6106346004803603602081101561061e57600080fd5b81019080803590602001909291905050506121c1565b604051808273ffffffffffffffffffffffffffffffffffffffff16815260200191505060405180910390f35b6106a26004803603602081101561067657600080fd5b81019080803573ffffffffffffffffffffffffffffffffffffffff1690602001909291905050506121f8565b005b6106ac612370565b6040518080602001828103825283818151815260200191508051906020019080838360005b838110156106ec5780820151818401526020810190506106d1565b50505050905090810190601f1680156107195780820380516001836020036101000a031916815260200191505b509250505060405180910390f35b6107696004803603602081101561073d57600080fd5b81019080803573ffffffffffffffffffffffffffffffffffffffff169060200190929190505050612412565b6040518082815260200191505060405180910390f35b6107876124e7565b005b6108426004803603602081101561079f57600080fd5b81019080803590602001906401000000008111156107bc57600080fd5b8201836020820111156107ce57600080fd5b803590602001918460018302840111640100000000831117156107f057600080fd5b91908080601f016020809104026020016040519081016040528093929190818152602001838380828437600081840152601f19601f820116905080830192505050505050509192919290505050612657565b6040518080602001828103825283818151815260200191508051906020019080838360005b83811015610882578082015181840152602081019050610867565b50505050905090810190601f1680156108af5780820380516001836020036101000a031916815260200191505b509250505060405180910390f35b6108c5612661565b604051808273ffffffffffffffffffffffffffffffffffffffff16815260200191505060405180910390f35b61091d6004803603602081101561090757600080fd5b810190808035906020019092919050505061268b565b6040518080602001828103825283818151815260200191508051906020019080838360005b8381101561095d578082015181840152602081019050610942565b50505050905090810190601f16801561098a5780820380516001836020036101000a031916815260200191505b509250505060405180910390f35b6109a0612747565b6040518080602001828103825283818151815260200191508051906020019080838360005b838110156109e05780820151818401526020810190506109c5565b50505050905090810190601f168015610a0d5780820380516001836020036101000a031916815260200191505b509250505060405180910390f35b610a4760048036036020811015610a3157600080fd5b81019080803590602001909291905050506127e9565b6040518080602001828103825283818151815260200191508051906020019080838360005b83811015610a87578082015181840152602081019050610a6c565b50505050905090810190601f168015610ab45780820380516001836020036101000a031916815260200191505b509250505060405180910390f35b610b1060048036036040811015610ad857600080fd5b81019080803573ffffffffffffffffffffffffffffffffffffffff1690602001909291908035151590602001909291905050506128a5565b005b610b1a612a5b565b6040518082815260200191505060405180910390f35b610b38612a65565b6040518080602001828103825283818151815260200191508051906020019080838360005b83811015610b78578082015181840152602081019050610b5d565b50505050905090810190601f168015610ba55780820380516001836020036101000a031916815260200191505b509250505060405180910390f35b610bbb61340e565b6040518082815260200191505060405180910390f35b610cd460048036036080811015610be757600080fd5b81019080803573ffffffffffffffffffffffffffffffffffffffff169060200190929190803573ffffffffffffffffffffffffffffffffffffffff1690602001909291908035906020019092919080359060200190640100000000811115610c4e57600080fd5b820183602082011115610c6057600080fd5b80359060200191846001830284011164010000000083111715610c8257600080fd5b91908080601f016020809104026020016040519081016040528093929190818152602001838380828437600081840152601f19601f820116905080830192505050505050509192919290505050613414565b005b610d0260048036036020811015610cec57600080fd5b810190808035906020019092919050505061348c565b6040518080602001828103825283818151815260200191508051906020019080838360005b83811015610d42578082015181840152602081019050610d27565b50505050905090810190601f168015610d6f5780820380516001836020036101000a031916815260200191505b509250505060405180910390f35b610da960048036036020811015610d9357600080fd5b8101908080359060200190929190505050613548565b6040518080602001828103825283818151815260200191508051906020019080838360005b83811015610de9578082015181840152602081019050610dce565b50505050905090810190601f168015610e165780820380516001836020036101000a031916815260200191505b509250505060405180910390f35b610e5060048036036020811015610e3a57600080fd5b8101908080359060200190929190505050613819565b6040518080602001828103825283818151815260200191508051906020019080838360005b83811015610e90578082015181840152602081019050610e75565b50505050905090810190601f168015610ebd5780820380516001836020036101000a031916815260200191505b509250505060405180910390f35b610f8e60048036036040811015610ee157600080fd5b810190808035906020019092919080359060200190640100000000811115610f0857600080fd5b820183602082011115610f1a57600080fd5b80359060200191846001830284011164010000000083111715610f3c57600080fd5b91908080601f016020809104026020016040519081016040528093929190818152602001838380828437600081840152601f19601f8201169050808301925050505050505091929192905050506138d5565b005b610ff260048036036040811015610fa657600080fd5b81019080803573ffffffffffffffffffffffffffffffffffffffff169060200190929190803573ffffffffffffffffffffffffffffffffffffffff169060200190929190505050613ae4565b60405180821515815260200191505060405180910390f35b61104c6004803603602081101561102057600080fd5b81019080803573ffffffffffffffffffffffffffffffffffffffff169060200190929190505050613b78565b005b6000806000837bffffffffffffffffffffffffffffffffffffffffffffffffffffffff19167bffffffffffffffffffffffffffffffffffffffffffffffffffffffff1916815260200190815260200160002060009054906101000a900460ff169050919050565b606060068054600181600116156101000203166002900480601f01602080910402602001604051908101604052809291908181526020018280546001816001161561010002031660029004801561114d5780601f106111225761010080835404028352916020019161114d565b820191906000526020600020905b81548152906001019060200180831161113057829003601f168201915b5050505050905090565b600061116282613d6d565b6111b7576040517f08c379a000000000000000000000000000000000000000000000000000000000815260040180806020018281038252602c815260200180615d4c602c913960400191505060405180910390fd5b6004600083815260200190815260200160002060009054906101000a900473ffffffffffffffffffffffffffffffffffffffff169050919050565b60006111fd826121c1565b90508073ffffffffffffffffffffffffffffffffffffffff168373ffffffffffffffffffffffffffffffffffffffff161415611284576040517f08c379a0000000000000000000000000000000000000000000000000000000008152600401808060200182810382526021815260200180615e646021913960400191505060405180910390fd5b8073ffffffffffffffffffffffffffffffffffffffff166112a3613d8a565b73ffffffffffffffffffffffffffffffffffffffff1614806112d257506112d1816112cc613d8a565b613ae4565b5b611327576040517f08c379a0000000000000000000000000000000000000000000000000000000008152600401808060200182810382526038815260200180615c556038913960400191505060405180910390fd5b6113318383613d92565b505050565b60006113426002613e4b565b905090565b611358611352613d8a565b82613e60565b6113ad576040517f08c379a0000000000000000000000000000000000000000000000000000000008152600401808060200182810382526031815260200180615e856031913960400191505060405180910390fd5b6113b8838383613f54565b505050565b600061141082600160008673ffffffffffffffffffffffffffffffffffffffff1673ffffffffffffffffffffffffffffffffffffffff16815260200190815260200160002061419790919063ffffffff16565b905092915050565b61143383838360405180602001604052806000815250613414565b505050565b60008061144f8360026141b190919063ffffffff16565b50905080915050919050565b606060156000858152602001908152602001600020600001838154811061147e57fe5b906000526020600020018054600181600116156101000203166002900480601f01602080910402602001604051908101604052809291908181526020018280546001816001161561010002031660029004801561151c5780601f106114f15761010080835404028352916020019161151c565b820191906000526020600020905b8154815290600101906020018083116114ff57829003601f168201915b50505050509050606060156000868152602001908152602001600020600101838154811061154657fe5b906000526020600020018054600181600116156101000203166002900480601f0160208091040260200160405190810160405280929190818152602001828054600181600116156101000203166002900480156115e45780601f106115b9576101008083540402835291602001916115e4565b820191906000526020600020905b8154815290600101906020018083116115c757829003601f168201915b505050505090508060156000878152602001908152602001600020600001858154811061160d57fe5b90600052602060002001908051906020019061162a92919061589e565b503373ffffffffffffffffffffffffffffffffffffffff167fd7f2ce3446c015bec94249b7a3b87cec2a8a37db3ada820a11f7f7c71e0860d9868484604051808481526020018060200180602001838103835285818151815260200191508051906020019080838360005b838110156116b0578082015181840152602081019050611695565b50505050905090810190601f1680156116dd5780820380516001836020036101000a031916815260200191505b50838103825284818151815260200191508051906020019080838360005b838110156117165780820151818401526020810190506116fb565b50505050905090810190601f1680156117435780820380516001836020036101000a031916815260200191505b509550505050505060405180910390a25050505050565b6060806015600084815260200190815260200160002060000160008154811061177f57fe5b906000526020600020016040516020018080615c8d60259139602501828054600181600116156101000203166002900480156117f25780601f106117d05761010080835404028352918201916117f2565b820191906000526020600020905b8154815290600101906020018083116117de575b505080615b72602391396023019150506040516020818303038152906040526015600085815260200190815260200160002060000160018154811061183357fe5b906000526020600020016040516020018080615d7860259139602501828054600181600116156101000203166002900480156118a65780601f106118845761010080835404028352918201916118a6565b820191906000526020600020905b815481529060010190602001808311611892575b505080615b7260239139602301915050604051602081830303815290604052601560008681526020019081526020016000206000016002815481106118e757fe5b906000526020600020016040516020018080615d27602591396025018280546001816001161561010002031660029004801561195a5780601f1061193857610100808354040283529182019161195a565b820191906000526020600020905b815481529060010190602001808311611946575b505080615b72602391396023019150506040516020818303038152906040526015600087815260200190815260200160002060000160038154811061199b57fe5b906000526020600020016040516020018080615e3f6025913960250182805460018160011615610100020316600290048015611a0e5780601f106119ec576101008083540402835291820191611a0e565b820191906000526020600020905b8154815290600101906020018083116119fa575b505080615b726023913960230191505060405160208183030381529060405260156000888152602001908152602001600020600001600481548110611a4f57fe5b906000526020600020016040516020018080615c0b6025913960250182805460018160011615610100020316600290048015611ac25780601f10611aa0576101008083540402835291820191611ac2565b820191906000526020600020905b815481529060010190602001808311611aae575b505080615b726023913960230191505060405160208183030381529060405260156000898152602001908152602001600020600001600581548110611b0357fe5b906000526020600020016040516020018080615b276025913960250182805460018160011615610100020316600290048015611b765780601f10611b54576101008083540402835291820191611b76565b820191906000526020600020905b815481529060010190602001808311611b62575b505080615b7260239139602301915050604051602081830303815290604052601560008a8152602001908152602001600020600001600681548110611bb757fe5b906000526020600020016040516020018080615c306025913960250182805460018160011615610100020316600290048015611c2a5780601f10611c08576101008083540402835291820191611c2a565b820191906000526020600020905b815481529060010190602001808311611c16575b505080615b7260239139602301915050604051602081830303815290604052601560008b8152602001908152602001600020600001600781548110611c6b57fe5b906000526020600020016040516020018080615e1a6025913960250182805460018160011615610100020316600290048015611cde5780601f10611cbc576101008083540402835291820191611cde565b820191906000526020600020905b815481529060010190602001808311611cca575b505080615b7260239139602301915050604051602081830303815290604052601560008c8152602001908152602001600020600001600881548110611d1f57fe5b906000526020600020016040516020018080615df56025913960250182805460018160011615610100020316600290048015611d925780601f10611d70576101008083540402835291820191611d92565b820191906000526020600020905b815481529060010190602001808311611d7e575b505080615b726023913960230191505060405160208183030381529060405260405160200180807f3c7376672077696474683d2731353027206865696768743d27313830273e0000815250601e018a805190602001908083835b60208310611e0f5780518252602082019150602081019050602083039250611dec565b6001836020036101000a03801982511681845116808217855250505050505090500189805190602001908083835b60208310611e605780518252602082019150602081019050602083039250611e3d565b6001836020036101000a03801982511681845116808217855250505050505090500188805190602001908083835b60208310611eb15780518252602082019150602081019050602083039250611e8e565b6001836020036101000a03801982511681845116808217855250505050505090500187805190602001908083835b60208310611f025780518252602082019150602081019050602083039250611edf565b6001836020036101000a03801982511681845116808217855250505050505090500186805190602001908083835b60208310611f535780518252602082019150602081019050602083039250611f30565b6001836020036101000a03801982511681845116808217855250505050505090500185805190602001908083835b60208310611fa45780518252602082019150602081019050602083039250611f81565b6001836020036101000a03801982511681845116808217855250505050505090500184805190602001908083835b60208310611ff55780518252602082019150602081019050602083039250611fd2565b6001836020036101000a03801982511681845116808217855250505050505090500183805190602001908083835b602083106120465780518252602082019150602081019050602083039250612023565b6001836020036101000a03801982511681845116808217855250505050505090500182805190602001908083835b602083106120975780518252602082019150602081019050602083039250612074565b6001836020036101000a038019825116818451168082178552505050505050905001807f3c2f7376673e0000000000000000000000000000000000000000000000000000815250600601995050505050505050505060405160208183030381529060405290503373ffffffffffffffffffffffffffffffffffffffff167fda728db9fe522c946828617761ea019c7a89ac79b647bf14c2b5c691bfad2fb384836040518083815260200180602001828103825283818151815260200191508051906020019080838360005b8381101561217d578082015181840152602081019050612162565b50505050905090810190601f1680156121aa5780820380516001836020036101000a031916815260200191505b50935050505060405180910390a280915050919050565b60006121f182604051806060016040528060298152602001615cdc6029913960026141dd9092919063ffffffff16565b9050919050565b60004282604051602001808381526020018273ffffffffffffffffffffffffffffffffffffffff1660601b81526014019250505060405160208183030381529060405280519060200120905060008160001c90506000610fa0828161225957fe5b06905061226461592c565b818160600181815250508060156000858152602001908152602001600020600082015181600001908051906020019061229e929190615954565b5060208201518160010190805190602001906122bb929190615954565b5060408201518160020190805190602001906122d8929190615954565b50606082015181600301559050506122ef836141fc565b6122f93384614211565b60016013600082825401925050819055507fc6a9fee4685459422a48632aa9afdc862bedbbb8e442df17ff5e51e0011ae5318286601354604051808481526020018373ffffffffffffffffffffffffffffffffffffffff168152602001828152602001935050505060405180910390a15050505050565b606060098054600181600116156101000203166002900480601f0160208091040260200160405190810160405280929190818152602001828054600181600116156101000203166002900480156124085780601f106123dd57610100808354040283529160200191612408565b820191906000526020600020905b8154815290600101906020018083116123eb57829003601f168201915b5050505050905090565b60008073ffffffffffffffffffffffffffffffffffffffff168273ffffffffffffffffffffffffffffffffffffffff161415612499576040517f08c379a000000000000000000000000000000000000000000000000000000000815260040180806020018281038252602a815260200180615cb2602a913960400191505060405180910390fd5b6124e0600160008473ffffffffffffffffffffffffffffffffffffffff1673ffffffffffffffffffffffffffffffffffffffff168152602001908152602001600020614405565b9050919050565b6124ef613d8a565b73ffffffffffffffffffffffffffffffffffffffff1661250d612661565b73ffffffffffffffffffffffffffffffffffffffff1614612596576040517f08c379a00000000000000000000000000000000000000000000000000000000081526004018080602001828103825260208152602001807f4f776e61626c653a2063616c6c6572206973206e6f7420746865206f776e657281525060200191505060405180910390fd5b600073ffffffffffffffffffffffffffffffffffffffff16600a60009054906101000a900473ffffffffffffffffffffffffffffffffffffffff1673ffffffffffffffffffffffffffffffffffffffff167f8be0079c531659141344cd1fd0a4f28419497f9722a3daafe3b4186f6b6457e060405160405180910390a36000600a60006101000a81548173ffffffffffffffffffffffffffffffffffffffff021916908373ffffffffffffffffffffffffffffffffffffffff160217905550565b6060819050919050565b6000600a60009054906101000a900473ffffffffffffffffffffffffffffffffffffffff16905090565b600b818154811061269b57600080fd5b906000526020600020016000915090508054600181600116156101000203166002900480601f01602080910402602001604051908101604052809291908181526020018280546001816001161561010002031660029004801561273f5780601f106127145761010080835404028352916020019161273f565b820191906000526020600020905b81548152906001019060200180831161272257829003601f168201915b505050505081565b606060078054600181600116156101000203166002900480601f0160208091040260200160405190810160405280929190818152602001828054600181600116156101000203166002900480156127df5780601f106127b4576101008083540402835291602001916127df565b820191906000526020600020905b8154815290600101906020018083116127c257829003601f168201915b5050505050905090565b600d81815481106127f957600080fd5b906000526020600020016000915090508054600181600116156101000203166002900480601f01602080910402602001604051908101604052809291908181526020018280546001816001161561010002031660029004801561289d5780601f106128725761010080835404028352916020019161289d565b820191906000526020600020905b81548152906001019060200180831161288057829003601f168201915b505050505081565b6128ad613d8a565b73ffffffffffffffffffffffffffffffffffffffff168273ffffffffffffffffffffffffffffffffffffffff16141561294e576040517f08c379a00000000000000000000000000000000000000000000000000000000081526004018080602001828103825260198152602001807f4552433732313a20617070726f766520746f2063616c6c65720000000000000081525060200191505060405180910390fd5b806005600061295b613d8a565b73ffffffffffffffffffffffffffffffffffffffff1673ffffffffffffffffffffffffffffffffffffffff16815260200190815260200160002060008473ffffffffffffffffffffffffffffffffffffffff1673ffffffffffffffffffffffffffffffffffffffff16815260200190815260200160002060006101000a81548160ff0219169083151502179055508173ffffffffffffffffffffffffffffffffffffffff16612a08613d8a565b73ffffffffffffffffffffffffffffffffffffffff167f17307eab39ab6107e8899845ad3d59bd9653f200f220920489ca2b5937696c318360405180821515815260200191505060405180910390a35050565b6000600e54905090565b606080600b600081548110612a7657fe5b906000526020600020016040516020018080615c8d6025913960250182805460018160011615610100020316600290048015612ae95780601f10612ac7576101008083540402835291820191612ae9565b820191906000526020600020905b815481529060010190602001808311612ad5575b505080615b7260239139602301915050604051602081830303815290604052600b600181548110612b1657fe5b906000526020600020016040516020018080615d786025913960250182805460018160011615610100020316600290048015612b895780601f10612b67576101008083540402835291820191612b89565b820191906000526020600020905b815481529060010190602001808311612b75575b505080615b7260239139602301915050604051602081830303815290604052600b600281548110612bb657fe5b906000526020600020016040516020018080615d276025913960250182805460018160011615610100020316600290048015612c295780601f10612c07576101008083540402835291820191612c29565b820191906000526020600020905b815481529060010190602001808311612c15575b505080615b7260239139602301915050604051602081830303815290604052600b600381548110612c5657fe5b906000526020600020016040516020018080615e3f6025913960250182805460018160011615610100020316600290048015612cc95780601f10612ca7576101008083540402835291820191612cc9565b820191906000526020600020905b815481529060010190602001808311612cb5575b505080615b7260239139602301915050604051602081830303815290604052600b600481548110612cf657fe5b906000526020600020016040516020018080615c0b6025913960250182805460018160011615610100020316600290048015612d695780601f10612d47576101008083540402835291820191612d69565b820191906000526020600020905b815481529060010190602001808311612d55575b505080615b7260239139602301915050604051602081830303815290604052600b600581548110612d9657fe5b906000526020600020016040516020018080615b276025913960250182805460018160011615610100020316600290048015612e095780601f10612de7576101008083540402835291820191612e09565b820191906000526020600020905b815481529060010190602001808311612df5575b505080615b7260239139602301915050604051602081830303815290604052600b600681548110612e3657fe5b906000526020600020016040516020018080615c306025913960250182805460018160011615610100020316600290048015612ea95780601f10612e87576101008083540402835291820191612ea9565b820191906000526020600020905b815481529060010190602001808311612e95575b505080615b7260239139602301915050604051602081830303815290604052600b600781548110612ed657fe5b906000526020600020016040516020018080615e1a6025913960250182805460018160011615610100020316600290048015612f495780601f10612f27576101008083540402835291820191612f49565b820191906000526020600020905b815481529060010190602001808311612f35575b505080615b7260239139602301915050604051602081830303815290604052600b600881548110612f7657fe5b906000526020600020016040516020018080615df56025913960250182805460018160011615610100020316600290048015612fe95780601f10612fc7576101008083540402835291820191612fe9565b820191906000526020600020905b815481529060010190602001808311612fd5575b505080615b726023913960230191505060405160208183030381529060405260405160200180807f3c7376672077696474683d2731353027206865696768743d27313830273e0000815250601e018a805190602001908083835b602083106130665780518252602082019150602081019050602083039250613043565b6001836020036101000a03801982511681845116808217855250505050505090500189805190602001908083835b602083106130b75780518252602082019150602081019050602083039250613094565b6001836020036101000a03801982511681845116808217855250505050505090500188805190602001908083835b6020831061310857805182526020820191506020810190506020830392506130e5565b6001836020036101000a03801982511681845116808217855250505050505090500187805190602001908083835b602083106131595780518252602082019150602081019050602083039250613136565b6001836020036101000a03801982511681845116808217855250505050505090500186805190602001908083835b602083106131aa5780518252602082019150602081019050602083039250613187565b6001836020036101000a03801982511681845116808217855250505050505090500185805190602001908083835b602083106131fb57805182526020820191506020810190506020830392506131d8565b6001836020036101000a03801982511681845116808217855250505050505090500184805190602001908083835b6020831061324c5780518252602082019150602081019050602083039250613229565b6001836020036101000a03801982511681845116808217855250505050505090500183805190602001908083835b6020831061329d578051825260208201915060208101905060208303925061327a565b6001836020036101000a03801982511681845116808217855250505050505090500182805190602001908083835b602083106132ee57805182526020820191506020810190506020830392506132cb565b6001836020036101000a038019825116818451168082178552505050505050905001807f3c2f7376673e0000000000000000000000000000000000000000000000000000815250600601995050505050505050505060405160208183030381529060405290503373ffffffffffffffffffffffffffffffffffffffff167f73cc29bc981d0bb11f21b055e91e88c3955bbe54a252455677618cb64c31e356826040518080602001828103825283818151815260200191508051906020019080838360005b838110156133cd5780820151818401526020810190506133b2565b50505050905090810190601f1680156133fa5780820380516001836020036101000a031916815260200191505b509250505060405180910390a28091505090565b60135481565b61342561341f613d8a565b83613e60565b61347a576040517f08c379a0000000000000000000000000000000000000000000000000000000008152600401808060200182810382526031815260200180615e856031913960400191505060405180910390fd5b6134868484848461441a565b50505050565b6012818154811061349c57600080fd5b906000526020600020016000915090508054600181600116156101000203166002900480601f0160208091040260200160405190810160405280929190818152602001828054600181600116156101000203166002900480156135405780601f1061351557610100808354040283529160200191613540565b820191906000526020600020905b81548152906001019060200180831161352357829003601f168201915b505050505081565b606061355382613d6d565b6135a8576040517f08c379a000000000000000000000000000000000000000000000000000000000815260040180806020018281038252602f815260200180615dc6602f913960400191505060405180910390fd5b6060600860008481526020019081526020016000208054600181600116156101000203166002900480601f0160208091040260200160405190810160405280929190818152602001828054600181600116156101000203166002900480156136515780601f1061362657610100808354040283529160200191613651565b820191906000526020600020905b81548152906001019060200180831161363457829003601f168201915b505050505090506060613662612370565b9050600081511415613678578192505050613814565b6000825111156137495780826040516020018083805190602001908083835b602083106136ba5780518252602082019150602081019050602083039250613697565b6001836020036101000a03801982511681845116808217855250505050505090500182805190602001908083835b6020831061370b57805182526020820191506020810190506020830392506136e8565b6001836020036101000a0380198251168184511680821785525050505050509050019250505060405160208183030381529060405292505050613814565b806137538561448c565b6040516020018083805190602001908083835b602083106137895780518252602082019150602081019050602083039250613766565b6001836020036101000a03801982511681845116808217855250505050505090500182805190602001908083835b602083106137da57805182526020820191506020810190506020830392506137b7565b6001836020036101000a03801982511681845116808217855250505050505090500192505050604051602081830303815290604052925050505b919050565b600c818154811061382957600080fd5b906000526020600020016000915090508054600181600116156101000203166002900480601f0160208091040260200160405190810160405280929190818152602001828054600181600116156101000203166002900480156138cd5780601f106138a2576101008083540402835291602001916138cd565b820191906000526020600020905b8154815290600101906020018083116138b057829003601f168201915b505050505081565b6060600b83815481106138e457fe5b906000526020600020018054600181600116156101000203166002900480601f0160208091040260200160405190810160405280929190818152602001828054600181600116156101000203166002900480156139825780601f1061395757610100808354040283529160200191613982565b820191906000526020600020905b81548152906001019060200180831161396557829003601f168201915b5050505050905081600b848154811061399757fe5b9060005260206000200190805190602001906139b492919061589e565b503373ffffffffffffffffffffffffffffffffffffffff16837f176ff2d12d5df6e831b6cdf0336d3d96822178d039bdba36513529961b81a67d8385604051808060200180602001838103835285818151815260200191508051906020019080838360005b83811015613a34578082015181840152602081019050613a19565b50505050905090810190601f168015613a615780820380516001836020036101000a031916815260200191505b50838103825284818151815260200191508051906020019080838360005b83811015613a9a578082015181840152602081019050613a7f565b50505050905090810190601f168015613ac75780820380516001836020036101000a031916815260200191505b5094505050505060405180910390a3613ade612a65565b50505050565b6000600560008473ffffffffffffffffffffffffffffffffffffffff1673ffffffffffffffffffffffffffffffffffffffff16815260200190815260200160002060008373ffffffffffffffffffffffffffffffffffffffff1673ffffffffffffffffffffffffffffffffffffffff16815260200190815260200160002060009054906101000a900460ff16905092915050565b613b80613d8a565b73ffffffffffffffffffffffffffffffffffffffff16613b9e612661565b73ffffffffffffffffffffffffffffffffffffffff1614613c27576040517f08c379a00000000000000000000000000000000000000000000000000000000081526004018080602001828103825260208152602001807f4f776e61626c653a2063616c6c6572206973206e6f7420746865206f776e657281525060200191505060405180910390fd5b600073ffffffffffffffffffffffffffffffffffffffff168173ffffffffffffffffffffffffffffffffffffffff161415613cad576040517f08c379a0000000000000000000000000000000000000000000000000000000008152600401808060200182810382526026815260200180615b4c6026913960400191505060405180910390fd5b8073ffffffffffffffffffffffffffffffffffffffff16600a60009054906101000a900473ffffffffffffffffffffffffffffffffffffffff1673ffffffffffffffffffffffffffffffffffffffff167f8be0079c531659141344cd1fd0a4f28419497f9722a3daafe3b4186f6b6457e060405160405180910390a380600a60006101000a81548173ffffffffffffffffffffffffffffffffffffffff021916908373ffffffffffffffffffffffffffffffffffffffff16021790555050565b6000613d838260026145d390919063ffffffff16565b9050919050565b600033905090565b816004600083815260200190815260200160002060006101000a81548173ffffffffffffffffffffffffffffffffffffffff021916908373ffffffffffffffffffffffffffffffffffffffff160217905550808273ffffffffffffffffffffffffffffffffffffffff16613e05836121c1565b73ffffffffffffffffffffffffffffffffffffffff167f8c5be1e5ebec7d5bd14f71427d1e84f3dd0314c0f7b2291e5b200ac8c7c3b92560405160405180910390a45050565b6000613e59826000016145ed565b9050919050565b6000613e6b82613d6d565b613ec0576040517f08c379a000000000000000000000000000000000000000000000000000000000815260040180806020018281038252602c815260200180615bdf602c913960400191505060405180910390fd5b6000613ecb836121c1565b90508073ffffffffffffffffffffffffffffffffffffffff168473ffffffffffffffffffffffffffffffffffffffff161480613f3a57508373ffffffffffffffffffffffffffffffffffffffff16613f2284611157565b73ffffffffffffffffffffffffffffffffffffffff16145b80613f4b5750613f4a8185613ae4565b5b91505092915050565b8273ffffffffffffffffffffffffffffffffffffffff16613f74826121c1565b73ffffffffffffffffffffffffffffffffffffffff1614613fe0576040517f08c379a0000000000000000000000000000000000000000000000000000000008152600401808060200182810382526029815260200180615d9d6029913960400191505060405180910390fd5b600073ffffffffffffffffffffffffffffffffffffffff168273ffffffffffffffffffffffffffffffffffffffff161415614066576040517f08c379a0000000000000000000000000000000000000000000000000000000008152600401808060200182810382526024815260200180615b956024913960400191505060405180910390fd5b6140718383836145fe565b61407c600082613d92565b6140cd81600160008673ffffffffffffffffffffffffffffffffffffffff1673ffffffffffffffffffffffffffffffffffffffff16815260200190815260200160002061460390919063ffffffff16565b5061411f81600160008573ffffffffffffffffffffffffffffffffffffffff1673ffffffffffffffffffffffffffffffffffffffff16815260200190815260200160002061461d90919063ffffffff16565b50614136818360026146379092919063ffffffff16565b50808273ffffffffffffffffffffffffffffffffffffffff168473ffffffffffffffffffffffffffffffffffffffff167fddf252ad1be2c89b69c2b068fc378daa952ba7f163c4a11628f55a4df523b3ef60405160405180910390a4505050565b60006141a6836000018361466c565b60001c905092915050565b6000806000806141c486600001866146ef565b915091508160001c8160001c9350935050509250929050565b60006141f0846000018460001b84614788565b60001c90509392505050565b6142058161487e565b61420e81614f0c565b50565b600073ffffffffffffffffffffffffffffffffffffffff168273ffffffffffffffffffffffffffffffffffffffff1614156142b4576040517f08c379a00000000000000000000000000000000000000000000000000000000081526004018080602001828103825260208152602001807f4552433732313a206d696e7420746f20746865207a65726f206164647265737381525060200191505060405180910390fd5b6142bd81613d6d565b15614330576040517f08c379a000000000000000000000000000000000000000000000000000000000815260040180806020018281038252601c8152602001807f4552433732313a20746f6b656e20616c7265616479206d696e7465640000000081525060200191505060405180910390fd5b61433c600083836145fe565b61438d81600160008573ffffffffffffffffffffffffffffffffffffffff1673ffffffffffffffffffffffffffffffffffffffff16815260200190815260200160002061461d90919063ffffffff16565b506143a4818360026146379092919063ffffffff16565b50808273ffffffffffffffffffffffffffffffffffffffff16600073ffffffffffffffffffffffffffffffffffffffff167fddf252ad1be2c89b69c2b068fc378daa952ba7f163c4a11628f55a4df523b3ef60405160405180910390a45050565b600061441382600001615050565b9050919050565b614425848484613f54565b61443184848484615061565b614486576040517f08c379a0000000000000000000000000000000000000000000000000000000008152600401808060200182810382526032815260200180615af56032913960400191505060405180910390fd5b50505050565b606060008214156144d4576040518060400160405280600181526020017f300000000000000000000000000000000000000000000000000000000000000081525090506145ce565b600082905060005b600082146144fe578080600101915050600a82816144f657fe5b0491506144dc565b60608167ffffffffffffffff8111801561451757600080fd5b506040519080825280601f01601f19166020018201604052801561454a5781602001600182028036833780820191505090505b50905060006001830390508593505b600084146145c657600a848161456b57fe5b0660300160f81b8282806001900393508151811061458557fe5b60200101907effffffffffffffffffffffffffffffffffffffffffffffffffffffffffffff1916908160001a905350600a84816145be57fe5b049350614559565b819450505050505b919050565b60006145e5836000018360001b61527a565b905092915050565b600081600001805490509050919050565b505050565b6000614615836000018360001b61529d565b905092915050565b600061462f836000018360001b615385565b905092915050565b6000614663846000018460001b8473ffffffffffffffffffffffffffffffffffffffff1660001b6153f5565b90509392505050565b6000818360000180549050116146cd576040517f08c379a0000000000000000000000000000000000000000000000000000000008152600401808060200182810382526022815260200180615ad36022913960400191505060405180910390fd5b8260000182815481106146dc57fe5b9060005260206000200154905092915050565b60008082846000018054905011614751576040517f08c379a0000000000000000000000000000000000000000000000000000000008152600401808060200182810382526022815260200180615d056022913960400191505060405180910390fd5b600084600001848154811061476257fe5b906000526020600020906002020190508060000154816001015492509250509250929050565b6000808460010160008581526020019081526020016000205490506000811415839061484f576040517f08c379a00000000000000000000000000000000000000000000000000000000081526004018080602001828103825283818151815260200191508051906020019080838360005b838110156148145780820151818401526020810190506147f9565b50505050905090810190601f1680156148415780820380516001836020036101000a031916815260200191505b509250505060405180910390fd5b5084600001600182038154811061486257fe5b9060005260206000209060020201600101549150509392505050565b60006148aa826040516020018082815260200191505060405160208183030381529060405260016154d1565b905060008160ff16101580156148c3575060558160ff16105b15614ad5576015600083815260200190815260200160002060010180600181540180825580915050600190039060005260206000200160006040518060400160405280600781526020017f23303030303030000000000000000000000000000000000000000000000000008152509091909150908051906020019061494992919061589e565b506015600083815260200190815260200160002060010180600181540180825580915050600190039060005260206000200160006040518060400160405280600781526020017f2366663030303000000000000000000000000000000000000000000000000000815250909190915090805190602001906149cb92919061589e565b506015600083815260200190815260200160002060010180600181540180825580915050600190039060005260206000200160006040518060400160405280600781526020017f233030666630300000000000000000000000000000000000000000000000000081525090919091509080519060200190614a4d92919061589e565b506015600083815260200190815260200160002060010180600181540180825580915050600190039060005260206000200160006040518060400160405280600781526020017f233030303066660000000000000000000000000000000000000000000000000081525090919091509080519060200190614acf92919061589e565b50614f08565b60558160ff1610158015614aec575060aa8160ff16105b15614cfe576015600083815260200190815260200160002060010180600181540180825580915050600190039060005260206000200160006040518060400160405280600781526020017f233030303030300000000000000000000000000000000000000000000000000081525090919091509080519060200190614b7292919061589e565b506015600083815260200190815260200160002060010180600181540180825580915050600190039060005260206000200160006040518060400160405280600781526020017f236666666630300000000000000000000000000000000000000000000000000081525090919091509080519060200190614bf492919061589e565b506015600083815260200190815260200160002060010180600181540180825580915050600190039060005260206000200160006040518060400160405280600781526020017f233030666666660000000000000000000000000000000000000000000000000081525090919091509080519060200190614c7692919061589e565b506015600083815260200190815260200160002060010180600181540180825580915050600190039060005260206000200160006040518060400160405280600781526020017f236666303066660000000000000000000000000000000000000000000000000081525090919091509080519060200190614cf892919061589e565b50614f07565b6015600083815260200190815260200160002060010180600181540180825580915050600190039060005260206000200160006040518060400160405280600781526020017f233030303030300000000000000000000000000000000000000000000000000081525090919091509080519060200190614d7f92919061589e565b506015600083815260200190815260200160002060010180600181540180825580915050600190039060005260206000200160006040518060400160405280600781526020017f236666623330300000000000000000000000000000000000000000000000000081525090919091509080519060200190614e0192919061589e565b506015600083815260200190815260200160002060010180600181540180825580915050600190039060005260206000200160006040518060400160405280600881526020017f233761303030386100000000000000000000000000000000000000000000000081525090919091509080519060200190614e8392919061589e565b506015600083815260200190815260200160002060010180600181540180825580915050600190039060005260206000200160006040518060400160405280600781526020017f233032633063370000000000000000000000000000000000000000000000000081525090919091509080519060200190614f0592919061589e565b505b5b5050565b60005b60115481101561504c576015600083815260200190815260200160002060000160156000848152602001908152602001600020600101600160038481614f5157fe5b060181548110614f5d57fe5b90600052602060002001908060018154018082558091505060019003906000526020600020016000909190919091509080546001816001161561010002031660029004614fab9291906159b4565b506015600083815260200190815260200160002060020160156000848152602001908152602001600020600101600160038481614fe457fe5b060181548110614ff057fe5b9060005260206000200190806001815401808255809150506001900390600052602060002001600090919091909150908054600181600116156101000203166002900461503e9291906159b4565b508080600101915050614f0f565b5050565b600081600001805490509050919050565b60006150828473ffffffffffffffffffffffffffffffffffffffff166155db565b61508f5760019050615272565b60606151f963150b7a0260e01b6150a4613d8a565b888787604051602401808573ffffffffffffffffffffffffffffffffffffffff1681526020018473ffffffffffffffffffffffffffffffffffffffff16815260200183815260200180602001828103825283818151815260200191508051906020019080838360005b8381101561512857808201518184015260208101905061510d565b50505050905090810190601f1680156151555780820380516001836020036101000a031916815260200191505b5095505050505050604051602081830303815290604052907bffffffffffffffffffffffffffffffffffffffffffffffffffffffff19166020820180517bffffffffffffffffffffffffffffffffffffffffffffffffffffffff8381831617835250505050604051806060016040528060328152602001615af5603291398773ffffffffffffffffffffffffffffffffffffffff166155ee9092919063ffffffff16565b9050600081806020019051602081101561521257600080fd5b8101908080519060200190929190505050905063150b7a0260e01b7bffffffffffffffffffffffffffffffffffffffffffffffffffffffff1916817bffffffffffffffffffffffffffffffffffffffffffffffffffffffff191614925050505b949350505050565b600080836001016000848152602001908152602001600020541415905092915050565b6000808360010160008481526020019081526020016000205490506000811461537957600060018203905060006001866000018054905003905060008660000182815481106152e857fe5b906000526020600020015490508087600001848154811061530557fe5b906000526020600020018190555060018301876001016000838152602001908152602001600020819055508660000180548061533d57fe5b6001900381819060005260206000200160009055905586600101600087815260200190815260200160002060009055600194505050505061537f565b60009150505b92915050565b60006153918383615606565b6153ea5782600001829080600181540180825580915050600190039060005260206000200160009091909190915055826000018054905083600101600084815260200190815260200160002081905550600190506153ef565b600090505b92915050565b600080846001016000858152602001908152602001600020549050600081141561549c578460000160405180604001604052808681526020018581525090806001815401808255809150506001900390600052602060002090600202016000909190919091506000820151816000015560208201518160010155505084600001805490508560010160008681526020019081526020016000208190555060019150506154ca565b828560000160018303815481106154af57fe5b90600052602060002090600202016001018190555060009150505b9392505050565b60008160018301101561554c576040517f08c379a00000000000000000000000000000000000000000000000000000000081526004018080602001828103825260108152602001807f746f55696e74385f6f766572666c6f770000000000000000000000000000000081525060200191505060405180910390fd5b60018201835110156155c6576040517f08c379a00000000000000000000000000000000000000000000000000000000081526004018080602001828103825260138152602001807f746f55696e74385f6f75744f66426f756e64730000000000000000000000000081525060200191505060405180910390fd5b60008260018501015190508091505092915050565b600080823b905060008111915050919050565b60606155fd8484600085615629565b90509392505050565b600080836001016000848152602001908152602001600020541415905092915050565b606082471015615684576040517f08c379a0000000000000000000000000000000000000000000000000000000008152600401808060200182810382526026815260200180615bb96026913960400191505060405180910390fd5b61568d856155db565b6156ff576040517f08c379a000000000000000000000000000000000000000000000000000000000815260040180806020018281038252601d8152602001807f416464726573733a2063616c6c20746f206e6f6e2d636f6e747261637400000081525060200191505060405180910390fd5b600060608673ffffffffffffffffffffffffffffffffffffffff1685876040518082805190602001908083835b6020831061574f578051825260208201915060208101905060208303925061572c565b6001836020036101000a03801982511681845116808217855250505050505090500191505060006040518083038185875af1925050503d80600081146157b1576040519150601f19603f3d011682016040523d82523d6000602084013e6157b6565b606091505b50915091506157c68282866157d2565b92505050949350505050565b606083156157e257829050615897565b6000835111156157f55782518084602001fd5b816040517f08c379a00000000000000000000000000000000000000000000000000000000081526004018080602001828103825283818151815260200191508051906020019080838360005b8381101561585c578082015181840152602081019050615841565b50505050905090810190601f1680156158895780820380516001836020036101000a031916815260200191505b509250505060405180910390fd5b9392505050565b828054600181600116156101000203166002900490600052602060002090601f0160209004810192826158d4576000855561591b565b82601f106158ed57805160ff191683800117855561591b565b8280016001018555821561591b579182015b8281111561591a5782518255916020019190600101906158ff565b5b5090506159289190615a49565b5090565b6040518060800160405280606081526020016060815260200160608152602001600081525090565b8280548282559060005260206000209081019282156159a3579160200282015b828111156159a257825182908051906020019061599292919061589e565b5091602001919060010190615974565b5b5090506159b09190615a66565b5090565b828054600181600116156101000203166002900490600052602060002090601f0160209004810192826159ea5760008555615a38565b82601f106159fb5780548555615a38565b82800160010185558215615a3857600052602060002091601f016020900482015b82811115615a37578254825591600101919060010190615a1c565b5b509050615a459190615a49565b5090565b5b80821115615a62576000816000905550600101615a4a565b5090565b5b80821115615a865760008181615a7d9190615a8a565b50600101615a67565b5090565b50805460018160011615610100020316600290046000825580601f10615ab05750615acf565b601f016020900490600052602060002090810190615ace9190615a49565b5b5056fe456e756d657261626c655365743a20696e646578206f7574206f6620626f756e64734552433732313a207472616e7366657220746f206e6f6e20455243373231526563656976657220696d706c656d656e7465723c636972636c652063783d273930272063793d2736302720723d273230272066696c6c3d274f776e61626c653a206e6577206f776e657220697320746865207a65726f206164647265737327207374726f6b652d77696474683d273927207374726f6b653d27626c61636b272f3e4552433732313a207472616e7366657220746f20746865207a65726f2061646472657373416464726573733a20696e73756666696369656e742062616c616e636520666f722063616c6c4552433732313a206f70657261746f7220717565727920666f72206e6f6e6578697374656e7420746f6b656e3c636972636c652063783d273630272063793d2736302720723d273230272066696c6c3d273c636972636c652063783d273330272063793d2739302720723d273230272066696c6c3d274552433732313a20617070726f76652063616c6c6572206973206e6f74206f776e6572206e6f7220617070726f76656420666f7220616c6c3c636972636c652063783d273330272063793d2733302720723d273230272066696c6c3d274552433732313a2062616c616e636520717565727920666f7220746865207a65726f20616464726573734552433732313a206f776e657220717565727920666f72206e6f6e6578697374656e7420746f6b656e456e756d657261626c654d61703a20696e646578206f7574206f6620626f756e64733c636972636c652063783d273930272063793d2733302720723d273230272066696c6c3d274552433732313a20617070726f76656420717565727920666f72206e6f6e6578697374656e7420746f6b656e3c636972636c652063783d273630272063793d2733302720723d273230272066696c6c3d274552433732313a207472616e73666572206f6620746f6b656e2074686174206973206e6f74206f776e4552433732314d657461646174613a2055524920717565727920666f72206e6f6e6578697374656e7420746f6b656e3c636972636c652063783d273930272063793d2739302720723d273230272066696c6c3d273c636972636c652063783d273630272063793d2739302720723d273230272066696c6c3d273c636972636c652063783d273330272063793d2736302720723d273230272066696c6c3d274552433732313a20617070726f76616c20746f2063757272656e74206f776e65724552433732313a207472616e736665722063616c6c6572206973206e6f74206f776e6572206e6f7220617070726f766564a264697066735822122035517663cc3c11088e3e3e02791b363ab4f7f9ade53d31e954f67874696a06b964736f6c634300070400333c636972636c652063783d273930272063793d2736302720723d273230272066696c6c3d2727207374726f6b652d77696474683d273927207374726f6b653d27626c61636b272f3e3c636972636c652063783d273630272063793d2736302720723d273230272066696c6c3d273c636972636c652063783d273330272063793d2739302720723d273230272066696c6c3d273c636972636c652063783d273330272063793d2733302720723d273230272066696c6c3d273c636972636c652063783d273930272063793d2733302720723d273230272066696c6c3d273c636972636c652063783d273630272063793d2733302720723d273230272066696c6c3d273c636972636c652063783d273930272063793d2739302720723d273230272066696c6c3d273c636972636c652063783d273630272063793d2739302720723d273230272066696c6c3d273c636972636c652063783d273330272063793d2736302720723d273230272066696c6c3d27",
  "immutableReferences": {},
  "source": "pragma solidity ^0.7.4;\r\n\r\nimport \"@openzeppelin/contracts/token/ERC721/ERC721.sol\";\r\nimport \"@openzeppelin/contracts/access/Ownable.sol\";\r\n\r\nimport \"./TestColor.sol\";\r\n\r\n\r\ncontract Color is ERC721,Ownable,TestColor {\r\n\r\n\tstring[] public colors;\r\n  \t// uint junk = 10;\r\n  \t// uint nPixX=3;\r\n  \t// uint nPixY=3;\r\n  \t// uint nPix=nPixX*nPixY;\r\n  \t// string[] public pixels;\r\n  \t// string[] public pallet; \r\n  \t// string[] public canvasSVG;\r\n  \tuint256 public numberOfEtherbrights = 0;\r\n\r\n\r\n\tmapping(string => bool) _colorExists;\r\n\tmapping (uint256 => Etherbright) allEtherbrights;\r\n\r\n\tstruct Etherbright {\r\n\t\tstring[] setPixels;\r\n\t\tstring[] pallet;\r\n\t\tstring[] mintPixels;\r\n\t\tuint256 seed;\r\n\t}\r\n\t\r\n\t\r\n\t// event PixelChanged(uint indexed changedPixel, string from, string to, address indexed by);\r\n\tevent ClearCanvas(address indexed by);\r\n\tevent ResetCanvas(address indexed by);\r\n\t// event SVGgenerated(string SVG, address indexed by);\r\n\tevent EtherbrightMinted(uint256 seed, address mintedBy, uint256 nEtherbrights);\r\n\tevent EtherbrightPixelChanged(uint256 tokenId, string from, string to, address indexed by);\r\n\tevent EtherbrightSVGgenerated(uint _tokenId, string svg, address indexed by);\r\n\t\r\n\t\r\n\tconstructor() ERC721(\"Color\", \"COLOR\") public {\r\n\t\tbuildLut();\r\n\t\tbuildCanvas();\r\n\t\tpaintCanvas();\r\n\t\tgenerateSVG();\r\n\t\t// geerateCanvasSVG();\r\n  \t}\r\n\r\n  \tfunction mintEtherbright(address to) public{\r\n\t  bytes32 idHash = keccak256(abi.encodePacked(block.timestamp, to));\r\n      uint256 tokenId = uint(idHash);\r\n      uint256 etherbrightSeed = tokenId % 4000;\r\n\r\n\t  Etherbright memory etherbright;\r\n\t  etherbright.seed=etherbrightSeed;\r\n\t  // etherbright.pallet=getPalletFromSeed(etherbrightSeed.seed);\r\n\t  allEtherbrights[tokenId]=etherbright;\r\n\t  buildEtherbright(tokenId);\r\n\r\n\t  _mint(msg.sender, tokenId);\r\n\t  numberOfEtherbrights+=1;\r\n\t  emit EtherbrightMinted(etherbrightSeed, to, numberOfEtherbrights);\r\n\r\n\t}\r\n\tfunction buildEtherbright (uint256 tokenId ) internal {\r\n\t\t// Etherbright memory ethb=allEtherbrights[tokenId];\r\n\t\t// ethb.pallet=getPalletFromSeed(tokenId, 1);\r\n\t\tsetEtherbrightPallet(tokenId);\r\n\t\tsetAllEtherbrightPixels(tokenId);\r\n\r\n\t\t// Etherbright memory ethb=allEtherbrights[tokenId];\r\n\t\t// // ethb.pallet=getPalletFromSeed(tokenId, 1);\r\n\t\t// setEthebrightPallet(tokenId);\r\n\t\t// for(uint p=0; p<nPix; p++){\r\n\t\t// \tethb.setPixels.push(ethb.pallet[(p%3)+1]);\r\n\t\t// \tethb.mintPixels.push(ethb.pallet[(p%3)+1]);\r\n\r\n\t\t// }\r\n\r\n\t}\r\n\tfunction setAllEtherbrightPixels (uint256 tokenId) internal {\r\n\t\tfor(uint p=0; p<nPix; p++){\r\n\t\t\tallEtherbrights[tokenId].setPixels.push(allEtherbrights[tokenId].pallet[(p%3)+1]);\r\n\t\t\tallEtherbrights[tokenId].mintPixels.push(allEtherbrights[tokenId].pallet[(p%3)+1]);\r\n\r\n\t\t}\r\n\t}\r\n\t\r\n\r\n\tfunction setEtherbrightPallet (uint256 tokenId)  internal {\r\n\t\t// Etherbright memory ethb=allEtherbrights[tokenId];\r\n\t\tuint8 selector=toUint8(abi.encodePacked(tokenId), 1);\r\n\t\tif(selector >= 0 && selector < 85 ){\r\n\t\t\tallEtherbrights[tokenId].pallet.push(\"#000000\");\r\n  \t\t\tallEtherbrights[tokenId].pallet.push(\"#ff0000\");\r\n\t\t\tallEtherbrights[tokenId].pallet.push(\"#00ff00\");\r\n\t\t\tallEtherbrights[tokenId].pallet.push(\"#0000ff\");\r\n\t\t}\r\n\t\telse if(selector >= 85 && selector < 170 ){\r\n\t\t\tallEtherbrights[tokenId].pallet.push(\"#000000\");\r\n  \t\t\tallEtherbrights[tokenId].pallet.push(\"#ffff00\");\r\n\t\t\tallEtherbrights[tokenId].pallet.push(\"#00ffff\");\r\n\t\t\tallEtherbrights[tokenId].pallet.push(\"#ff00ff\");\r\n\r\n\t\t}\r\n\t\telse{\r\n\t\t\tallEtherbrights[tokenId].pallet.push(\"#000000\");\r\n  \t\t\tallEtherbrights[tokenId].pallet.push(\"#ffb300\");\r\n\t\t\tallEtherbrights[tokenId].pallet.push(\"#7a0008a\");\r\n\t\t\tallEtherbrights[tokenId].pallet.push(\"#02c0c7\");\r\n\t\t}\r\n\r\n\t}\r\n\t\r\n    function toUint8(bytes memory _bytes, uint256 _start) internal pure returns (uint8) {\r\n        require(_start + 1 >= _start, \"toUint8_overflow\");\r\n        require(_bytes.length >= _start + 1 , \"toUint8_outOfBounds\");\r\n        uint8 tempUint;\r\n\r\n        assembly {\r\n            tempUint := mload(add(add(_bytes, 0x1), _start))\r\n        }\r\n\r\n        return tempUint;\r\n    }\r\n\r\n\r\n\tfunction setEtherbrightPixel (uint256 _tokenId,uint  _pixn, uint  _palletN ) public {\r\n\t\t// Etherbright storage ethb =allEtherbrights[_tokenId];\r\n\t\tstring memory _priorColor=allEtherbrights[_tokenId].setPixels[_pixn];\r\n\t\tstring memory _newColor=allEtherbrights[_tokenId].pallet[_palletN];\r\n\t\tallEtherbrights[_tokenId].setPixels[_pixn]=_newColor;\r\n\t\temit EtherbrightPixelChanged(_tokenId, _priorColor, _newColor, msg.sender);\r\n\t\t\r\n\t}\r\n\t\r\n\r\n  \tfunction generateEtherbrightsSVG(uint256 _tokenId) public returns (string memory){\r\n  \t\t//returns the svg string of the canvas\r\n  \t\t    string memory ethbsvg = \r\n  \t\t    string(\r\n  \t\t    \tabi.encodePacked(\r\n            \t\t\t\t\t\"<svg width='150' height='180'>\", \r\n            \t\t\t\t\tstring(abi.encodePacked(\"<circle cx='30' cy='30' r='20' fill='\",allEtherbrights[_tokenId].setPixels[0],\"' stroke-width='9' stroke='black'/>\")),\r\n            \t\t\t\t\tstring(abi.encodePacked(\"<circle cx='60' cy='30' r='20' fill='\",allEtherbrights[_tokenId].setPixels[1],\"' stroke-width='9' stroke='black'/>\")),\r\n            \t\t\t\t\tstring(abi.encodePacked(\"<circle cx='90' cy='30' r='20' fill='\",allEtherbrights[_tokenId].setPixels[2],\"' stroke-width='9' stroke='black'/>\")), \r\n            \t\t\t\t\tstring(abi.encodePacked(\"<circle cx='30' cy='60' r='20' fill='\",allEtherbrights[_tokenId].setPixels[3],\"' stroke-width='9' stroke='black'/>\")), \r\n            \t\t\t\t\tstring(abi.encodePacked(\"<circle cx='60' cy='60' r='20' fill='\",allEtherbrights[_tokenId].setPixels[4],\"' stroke-width='9' stroke='black'/>\")), \r\n            \t\t\t\t\tstring(abi.encodePacked(\"<circle cx='90' cy='60' r='20' fill='\",allEtherbrights[_tokenId].setPixels[5],\"' stroke-width='9' stroke='black'/>\")), \r\n            \t\t\t\t\tstring(abi.encodePacked(\"<circle cx='30' cy='90' r='20' fill='\",allEtherbrights[_tokenId].setPixels[6],\"' stroke-width='9' stroke='black'/>\")), \r\n            \t\t\t\t\tstring(abi.encodePacked(\"<circle cx='60' cy='90' r='20' fill='\",allEtherbrights[_tokenId].setPixels[7],\"' stroke-width='9' stroke='black'/>\")), \r\n            \t\t\t\t\tstring(abi.encodePacked(\"<circle cx='90' cy='90' r='20' fill='\",allEtherbrights[_tokenId].setPixels[8],\"' stroke-width='9' stroke='black'/>\")),\r\n            \t\t\t\t\t\"</svg>\"\r\n        \t\t\t\t\t\t)\r\n        \t);\r\n  \t\temit EtherbrightSVGgenerated(_tokenId,ethbsvg,msg.sender);\r\n  \t\treturn ethbsvg;\r\n\r\n  \t}\r\n\r\n\r\n\r\n  \t\r\n\r\n\r\n\r\n\r\n\t// function setPixel(uint  _pixn, string memory _pixcolor) public {\r\n\t// \tstring memory  _priorColor=pixels[_pixn];\r\n\t// \t// string memory  _priorColor=pixels[0];\r\n\t// \tpixels[_pixn]=_pixcolor;\r\n\t// \temit PixelChanged(_pixn,_priorColor,_pixcolor, msg.sender);\r\n\t// \tgenerateSVG();\r\n\t\t\r\n\t// }\r\n\t\r\n\r\n\r\n\r\n\r\n\r\n\r\n\r\n\r\n\r\n\t\r\n  \t\r\n\r\n\r\n\r\n\r\n\r\n  // \tfunction geerateCanvasSVG () public returns(string memory)  {\r\n  // \t\tstring[] memory pixelholder;\r\n  // \t\tstring memory canvasSVGheader=\"<svg width='100' height='100'>\";\r\n  // \t\tstring memory canvasSVGfooter=\"</svg>\";\r\n  // \t\t //attache header\r\n  // \t\t//iterate over the pixels and add generate individual strings\r\n  // \t\t//attach footer\r\n  // \t\t//pack and send\r\n  // \t\tcanvasSVG.push(canvasSVGheader);\r\n  // \t\tfor(uint p=0; p<nPix; p++){\r\n  // \t\t\tstring pixSring=string()\r\n  // \t\t\tcanvasSVG.push(pixels[p]);\r\n\t\t// }\t\r\n\t\t// canvasSVG.push(canvasSVGfooter);\r\n\t\t// return string(abi.encodePacked(canvasSVG));\r\n  \t\t\r\n  // \t}\r\n  \t\r\n  \t// function concat (string memory array) returns(string memory) view internal {\r\n  \t\t\r\n  \t// }\r\n  \t\r\n\r\n\r\n\r\n\r\n  \t// function setPixelTick(uint memory _tick) public payable \r\n\r\n    // function totalSupply\r\n    function getjunk() public view returns(uint){\r\n      return junk;\r\n    }\r\n  \r\n\tfunction testReturn(string memory _returnString) public returns(string memory) {\r\n\t    // _mint(msg.sender, 1);\r\n\t    return _returnString;\r\n\t}\r\n\r\n\t// function mint(string memory _color) public {\r\n\t//   require(!_colorExists[_color]);\r\n\t//   colors.push(_color);\r\n\t//   uint _id = colors.length-1;\r\n\t//   _mint(msg.sender, _id);\r\n\t//   _colorExists[_color] = true;\r\n\t// }\r\n\r\n}\r\n",
  "sourcePath": "H:/Expermental/nft/src/contracts/Color.sol",
  "compiler": {
    "name": "solc",
    "version": "0.7.4+commit.3f05b770.Emscripten.clang"
  },
  "schemaVersion": "3.3.4",
  "updatedAt": "2021-03-22T23:35:57.896Z",
  "networkType": "ethereum",
  "devdoc": {
    "kind": "dev",
    "methods": {
      "approve(address,uint256)": {
        "details": "See {IERC721-approve}."
      },
      "balanceOf(address)": {
        "details": "See {IERC721-balanceOf}."
      },
      "baseURI()": {
        "details": "Returns the base URI set via {_setBaseURI}. This will be automatically added as a prefix in {tokenURI} to each token's URI, or to the token ID if no specific URI is set for that token ID."
      },
      "getApproved(uint256)": {
        "details": "See {IERC721-getApproved}."
      },
      "isApprovedForAll(address,address)": {
        "details": "See {IERC721-isApprovedForAll}."
      },
      "name()": {
        "details": "See {IERC721Metadata-name}."
      },
      "owner()": {
        "details": "Returns the address of the current owner."
      },
      "ownerOf(uint256)": {
        "details": "See {IERC721-ownerOf}."
      },
      "renounceOwnership()": {
        "details": "Leaves the contract without owner. It will not be possible to call `onlyOwner` functions anymore. Can only be called by the current owner. NOTE: Renouncing ownership will leave the contract without an owner, thereby removing any functionality that is only available to the owner."
      },
      "safeTransferFrom(address,address,uint256)": {
        "details": "See {IERC721-safeTransferFrom}."
      },
      "safeTransferFrom(address,address,uint256,bytes)": {
        "details": "See {IERC721-safeTransferFrom}."
      },
      "setApprovalForAll(address,bool)": {
        "details": "See {IERC721-setApprovalForAll}."
      },
      "supportsInterface(bytes4)": {
        "details": "See {IERC165-supportsInterface}. Time complexity O(1), guaranteed to always use less than 30 000 gas."
      },
      "symbol()": {
        "details": "See {IERC721Metadata-symbol}."
      },
      "tokenByIndex(uint256)": {
        "details": "See {IERC721Enumerable-tokenByIndex}."
      },
      "tokenOfOwnerByIndex(address,uint256)": {
        "details": "See {IERC721Enumerable-tokenOfOwnerByIndex}."
      },
      "tokenURI(uint256)": {
        "details": "See {IERC721Metadata-tokenURI}."
      },
      "totalSupply()": {
        "details": "See {IERC721Enumerable-totalSupply}."
      },
      "transferFrom(address,address,uint256)": {
        "details": "See {IERC721-transferFrom}."
      },
      "transferOwnership(address)": {
        "details": "Transfers ownership of the contract to a new account (`newOwner`). Can only be called by the current owner."
      }
    },
    "version": 1
  },
  "userdoc": {
    "kind": "user",
    "methods": {},
    "version": 1
  }
}