{
  "contractName": "Color",
  "abi": [
    {
      "inputs": [],
      "stateMutability": "nonpayable",
      "type": "constructor"
    },
    {
      "anonymous": false,
      "inputs": [
        {
          "indexed": true,
          "internalType": "address",
          "name": "owner",
          "type": "address"
        },
        {
          "indexed": true,
          "internalType": "address",
          "name": "approved",
          "type": "address"
        },
        {
          "indexed": true,
          "internalType": "uint256",
          "name": "tokenId",
          "type": "uint256"
        }
      ],
      "name": "Approval",
      "type": "event"
    },
    {
      "anonymous": false,
      "inputs": [
        {
          "indexed": true,
          "internalType": "address",
          "name": "owner",
          "type": "address"
        },
        {
          "indexed": true,
          "internalType": "address",
          "name": "operator",
          "type": "address"
        },
        {
          "indexed": false,
          "internalType": "bool",
          "name": "approved",
          "type": "bool"
        }
      ],
      "name": "ApprovalForAll",
      "type": "event"
    },
    {
      "anonymous": false,
      "inputs": [
        {
          "indexed": true,
          "internalType": "address",
          "name": "by",
          "type": "address"
        }
      ],
      "name": "ClearCanvas",
      "type": "event"
    },
    {
      "anonymous": false,
      "inputs": [
        {
          "indexed": false,
          "internalType": "uint256",
          "name": "tokenId",
          "type": "uint256"
        },
        {
          "indexed": false,
          "internalType": "address",
          "name": "mintedBy",
          "type": "address"
        },
        {
          "indexed": false,
          "internalType": "uint256",
          "name": "nEtherbrights",
          "type": "uint256"
        }
      ],
      "name": "EtherbrightMinted",
      "type": "event"
    },
    {
      "anonymous": false,
      "inputs": [
        {
          "indexed": false,
          "internalType": "uint256",
          "name": "tokenId",
          "type": "uint256"
        },
        {
          "indexed": false,
          "internalType": "string",
          "name": "svg",
          "type": "string"
        },
        {
          "indexed": false,
          "internalType": "string",
          "name": "from",
          "type": "string"
        },
        {
          "indexed": false,
          "internalType": "string",
          "name": "to",
          "type": "string"
        },
        {
          "indexed": true,
          "internalType": "address",
          "name": "by",
          "type": "address"
        }
      ],
      "name": "EtherbrightPixelChanged",
      "type": "event"
    },
    {
      "anonymous": false,
      "inputs": [
        {
          "indexed": false,
          "internalType": "uint256",
          "name": "_tokenId",
          "type": "uint256"
        },
        {
          "indexed": false,
          "internalType": "string",
          "name": "svg",
          "type": "string"
        },
        {
          "indexed": true,
          "internalType": "address",
          "name": "by",
          "type": "address"
        }
      ],
      "name": "EtherbrightSVGgenerated",
      "type": "event"
    },
    {
      "anonymous": false,
      "inputs": [
        {
          "indexed": true,
          "internalType": "address",
          "name": "previousOwner",
          "type": "address"
        },
        {
          "indexed": true,
          "internalType": "address",
          "name": "newOwner",
          "type": "address"
        }
      ],
      "name": "OwnershipTransferred",
      "type": "event"
    },
    {
      "anonymous": false,
      "inputs": [
        {
          "indexed": true,
          "internalType": "address",
          "name": "by",
          "type": "address"
        }
      ],
      "name": "ResetCanvas",
      "type": "event"
    },
    {
      "anonymous": false,
      "inputs": [
        {
          "indexed": true,
          "internalType": "address",
          "name": "from",
          "type": "address"
        },
        {
          "indexed": true,
          "internalType": "address",
          "name": "to",
          "type": "address"
        },
        {
          "indexed": true,
          "internalType": "uint256",
          "name": "tokenId",
          "type": "uint256"
        }
      ],
      "name": "Transfer",
      "type": "event"
    },
    {
      "inputs": [
        {
          "internalType": "address",
          "name": "to",
          "type": "address"
        },
        {
          "internalType": "uint256",
          "name": "tokenId",
          "type": "uint256"
        }
      ],
      "name": "approve",
      "outputs": [],
      "stateMutability": "nonpayable",
      "type": "function"
    },
    {
      "inputs": [
        {
          "internalType": "address",
          "name": "owner",
          "type": "address"
        }
      ],
      "name": "balanceOf",
      "outputs": [
        {
          "internalType": "uint256",
          "name": "",
          "type": "uint256"
        }
      ],
      "stateMutability": "view",
      "type": "function",
      "constant": true
    },
    {
      "inputs": [],
      "name": "baseURI",
      "outputs": [
        {
          "internalType": "string",
          "name": "",
          "type": "string"
        }
      ],
      "stateMutability": "view",
      "type": "function",
      "constant": true
    },
    {
      "inputs": [
        {
          "internalType": "uint256",
          "name": "",
          "type": "uint256"
        }
      ],
      "name": "colors",
      "outputs": [
        {
          "internalType": "string",
          "name": "",
          "type": "string"
        }
      ],
      "stateMutability": "view",
      "type": "function",
      "constant": true
    },
    {
      "inputs": [
        {
          "internalType": "uint256",
          "name": "tokenId",
          "type": "uint256"
        }
      ],
      "name": "getApproved",
      "outputs": [
        {
          "internalType": "address",
          "name": "",
          "type": "address"
        }
      ],
      "stateMutability": "view",
      "type": "function",
      "constant": true
    },
    {
      "inputs": [
        {
          "internalType": "address",
          "name": "owner",
          "type": "address"
        },
        {
          "internalType": "address",
          "name": "operator",
          "type": "address"
        }
      ],
      "name": "isApprovedForAll",
      "outputs": [
        {
          "internalType": "bool",
          "name": "",
          "type": "bool"
        }
      ],
      "stateMutability": "view",
      "type": "function",
      "constant": true
    },
    {
      "inputs": [],
      "name": "name",
      "outputs": [
        {
          "internalType": "string",
          "name": "",
          "type": "string"
        }
      ],
      "stateMutability": "view",
      "type": "function",
      "constant": true
    },
    {
      "inputs": [],
      "name": "numberOfEtherbrights",
      "outputs": [
        {
          "internalType": "uint256",
          "name": "",
          "type": "uint256"
        }
      ],
      "stateMutability": "view",
      "type": "function",
      "constant": true
    },
    {
      "inputs": [],
      "name": "owner",
      "outputs": [
        {
          "internalType": "address",
          "name": "",
          "type": "address"
        }
      ],
      "stateMutability": "view",
      "type": "function",
      "constant": true
    },
    {
      "inputs": [
        {
          "internalType": "uint256",
          "name": "tokenId",
          "type": "uint256"
        }
      ],
      "name": "ownerOf",
      "outputs": [
        {
          "internalType": "address",
          "name": "",
          "type": "address"
        }
      ],
      "stateMutability": "view",
      "type": "function",
      "constant": true
    },
    {
      "inputs": [],
      "name": "renounceOwnership",
      "outputs": [],
      "stateMutability": "nonpayable",
      "type": "function"
    },
    {
      "inputs": [
        {
          "internalType": "address",
          "name": "from",
          "type": "address"
        },
        {
          "internalType": "address",
          "name": "to",
          "type": "address"
        },
        {
          "internalType": "uint256",
          "name": "tokenId",
          "type": "uint256"
        }
      ],
      "name": "safeTransferFrom",
      "outputs": [],
      "stateMutability": "nonpayable",
      "type": "function"
    },
    {
      "inputs": [
        {
          "internalType": "address",
          "name": "from",
          "type": "address"
        },
        {
          "internalType": "address",
          "name": "to",
          "type": "address"
        },
        {
          "internalType": "uint256",
          "name": "tokenId",
          "type": "uint256"
        },
        {
          "internalType": "bytes",
          "name": "_data",
          "type": "bytes"
        }
      ],
      "name": "safeTransferFrom",
      "outputs": [],
      "stateMutability": "nonpayable",
      "type": "function"
    },
    {
      "inputs": [
        {
          "internalType": "address",
          "name": "operator",
          "type": "address"
        },
        {
          "internalType": "bool",
          "name": "approved",
          "type": "bool"
        }
      ],
      "name": "setApprovalForAll",
      "outputs": [],
      "stateMutability": "nonpayable",
      "type": "function"
    },
    {
      "inputs": [
        {
          "internalType": "bytes4",
          "name": "interfaceId",
          "type": "bytes4"
        }
      ],
      "name": "supportsInterface",
      "outputs": [
        {
          "internalType": "bool",
          "name": "",
          "type": "bool"
        }
      ],
      "stateMutability": "view",
      "type": "function",
      "constant": true
    },
    {
      "inputs": [],
      "name": "symbol",
      "outputs": [
        {
          "internalType": "string",
          "name": "",
          "type": "string"
        }
      ],
      "stateMutability": "view",
      "type": "function",
      "constant": true
    },
    {
      "inputs": [
        {
          "internalType": "uint256",
          "name": "index",
          "type": "uint256"
        }
      ],
      "name": "tokenByIndex",
      "outputs": [
        {
          "internalType": "uint256",
          "name": "",
          "type": "uint256"
        }
      ],
      "stateMutability": "view",
      "type": "function",
      "constant": true
    },
    {
      "inputs": [
        {
          "internalType": "address",
          "name": "owner",
          "type": "address"
        },
        {
          "internalType": "uint256",
          "name": "index",
          "type": "uint256"
        }
      ],
      "name": "tokenOfOwnerByIndex",
      "outputs": [
        {
          "internalType": "uint256",
          "name": "",
          "type": "uint256"
        }
      ],
      "stateMutability": "view",
      "type": "function",
      "constant": true
    },
    {
      "inputs": [
        {
          "internalType": "uint256",
          "name": "tokenId",
          "type": "uint256"
        }
      ],
      "name": "tokenURI",
      "outputs": [
        {
          "internalType": "string",
          "name": "",
          "type": "string"
        }
      ],
      "stateMutability": "view",
      "type": "function",
      "constant": true
    },
    {
      "inputs": [],
      "name": "totalSupply",
      "outputs": [
        {
          "internalType": "uint256",
          "name": "",
          "type": "uint256"
        }
      ],
      "stateMutability": "view",
      "type": "function",
      "constant": true
    },
    {
      "inputs": [
        {
          "internalType": "address",
          "name": "from",
          "type": "address"
        },
        {
          "internalType": "address",
          "name": "to",
          "type": "address"
        },
        {
          "internalType": "uint256",
          "name": "tokenId",
          "type": "uint256"
        }
      ],
      "name": "transferFrom",
      "outputs": [],
      "stateMutability": "nonpayable",
      "type": "function"
    },
    {
      "inputs": [
        {
          "internalType": "address",
          "name": "newOwner",
          "type": "address"
        }
      ],
      "name": "transferOwnership",
      "outputs": [],
      "stateMutability": "nonpayable",
      "type": "function"
    },
    {
      "inputs": [
        {
          "internalType": "address",
          "name": "to",
          "type": "address"
        }
      ],
      "name": "mintEtherbright",
      "outputs": [],
      "stateMutability": "nonpayable",
      "type": "function"
    },
    {
      "inputs": [
        {
          "internalType": "uint256",
          "name": "_tokenId",
          "type": "uint256"
        },
        {
          "internalType": "uint256",
          "name": "_pixn",
          "type": "uint256"
        },
        {
          "internalType": "uint256",
          "name": "_palletN",
          "type": "uint256"
        }
      ],
      "name": "setEtherbrightPixel",
      "outputs": [],
      "stateMutability": "nonpayable",
      "type": "function"
    },
    {
      "inputs": [
        {
          "internalType": "uint256",
          "name": "_tokenId",
          "type": "uint256"
        },
        {
          "internalType": "uint256",
          "name": "pn",
          "type": "uint256"
        }
      ],
      "name": "getEtherbrightPixelColor",
      "outputs": [
        {
          "internalType": "string",
          "name": "",
          "type": "string"
        }
      ],
      "stateMutability": "nonpayable",
      "type": "function"
    },
    {
      "inputs": [
        {
          "internalType": "uint256",
          "name": "_tokenId",
          "type": "uint256"
        }
      ],
      "name": "generateEtherbrightsSVG",
      "outputs": [
        {
          "internalType": "string",
          "name": "",
          "type": "string"
        }
      ],
      "stateMutability": "nonpayable",
      "type": "function"
    }
  ],
  "bytecode": "0x60806040526000600c556005600d556005600e55600e54600d5402600f553480156200002a57600080fd5b506040518060400160405280600581526020017f436f6c6f720000000000000000000000000000000000000000000000000000008152506040518060400160405280600581526020017f434f4c4f52000000000000000000000000000000000000000000000000000000815250620000af6301ffc9a760e01b620001e260201b60201c565b8160069080519060200190620000c7929190620002f3565b508060079080519060200190620000e0929190620002f3565b50620000f96380ac58cd60e01b620001e260201b60201c565b62000111635b5e139f60e01b620001e260201b60201c565b6200012963780e9d6360e01b620001e260201b60201c565b505060006200013d620002eb60201b60201c565b905080600a60006101000a81548173ffffffffffffffffffffffffffffffffffffffff021916908373ffffffffffffffffffffffffffffffffffffffff1602179055508073ffffffffffffffffffffffffffffffffffffffff16600073ffffffffffffffffffffffffffffffffffffffff167f8be0079c531659141344cd1fd0a4f28419497f9722a3daafe3b4186f6b6457e060405160405180910390a350620003a9565b63ffffffff60e01b817bffffffffffffffffffffffffffffffffffffffffffffffffffffffff191614156200027f576040517f08c379a000000000000000000000000000000000000000000000000000000000815260040180806020018281038252601c8152602001807f4552433136353a20696e76616c696420696e746572666163652069640000000081525060200191505060405180910390fd5b6001600080837bffffffffffffffffffffffffffffffffffffffffffffffffffffffff19167bffffffffffffffffffffffffffffffffffffffffffffffffffffffff1916815260200190815260200160002060006101000a81548160ff02191690831515021790555050565b600033905090565b828054600181600116156101000203166002900490600052602060002090601f0160209004810192826200032b576000855562000377565b82601f106200034657805160ff191683800117855562000377565b8280016001018555821562000377579182015b828111156200037657825182559160200191906001019062000359565b5b5090506200038691906200038a565b5090565b5b80821115620003a55760008160009055506001016200038b565b5090565b614e1180620003b96000396000f3fe608060405234801561001057600080fd5b506004361061018e5760003560e01c8063643c6dd9116100de578063a22cb46511610097578063bd11f69d11610071578063bd11f69d14610a02578063c87b56dd14610aa9578063e985e9c514610b50578063f2fde38b14610bca5761018e565b8063a22cb4651461088f578063b1d22c4c146108df578063b88d4fde146108fd5761018e565b8063643c6dd9146106af5780636c0360eb146106f357806370a0823114610776578063715018a6146107ce5780638da5cb5b146107d857806395d89b411461080c5761018e565b80632f745c591161014b5780634f6ccce7116101255780634f6ccce71461052c5780635df3efd91461056e5780635e697d81146105b05780636352211e146106575761018e565b80632f745c59146103ab5780633efd80d11461040d57806342842e0e146104be5761018e565b806301ffc9a71461019357806306fdde03146101f6578063081812fc14610279578063095ea7b3146102d157806318160ddd1461031f57806323b872dd1461033d575b600080fd5b6101de600480360360208110156101a957600080fd5b8101908080357bffffffffffffffffffffffffffffffffffffffffffffffffffffffff19169060200190929190505050610c0e565b60405180821515815260200191505060405180910390f35b6101fe610c75565b6040518080602001828103825283818151815260200191508051906020019080838360005b8381101561023e578082015181840152602081019050610223565b50505050905090810190601f16801561026b5780820380516001836020036101000a031916815260200191505b509250505060405180910390f35b6102a56004803603602081101561028f57600080fd5b8101908080359060200190929190505050610d17565b604051808273ffffffffffffffffffffffffffffffffffffffff16815260200191505060405180910390f35b61031d600480360360408110156102e757600080fd5b81019080803573ffffffffffffffffffffffffffffffffffffffff16906020019092919080359060200190929190505050610db2565b005b610327610ef6565b6040518082815260200191505060405180910390f35b6103a96004803603606081101561035357600080fd5b81019080803573ffffffffffffffffffffffffffffffffffffffff169060200190929190803573ffffffffffffffffffffffffffffffffffffffff16906020019092919080359060200190929190505050610f07565b005b6103f7600480360360408110156103c157600080fd5b81019080803573ffffffffffffffffffffffffffffffffffffffff16906020019092919080359060200190929190505050610f7d565b6040518082815260200191505060405180910390f35b6104436004803603604081101561042357600080fd5b810190808035906020019092919080359060200190929190505050610fd8565b6040518080602001828103825283818151815260200191508051906020019080838360005b83811015610483578082015181840152602081019050610468565b50505050905090810190601f1680156104b05780820380516001836020036101000a031916815260200191505b509250505060405180910390f35b61052a600480360360608110156104d457600080fd5b81019080803573ffffffffffffffffffffffffffffffffffffffff169060200190929190803573ffffffffffffffffffffffffffffffffffffffff169060200190929190803590602001909291905050506110a6565b005b6105586004803603602081101561054257600080fd5b81019080803590602001909291905050506110c6565b6040518082815260200191505060405180910390f35b6105ae6004803603606081101561058457600080fd5b810190808035906020019092919080359060200190929190803590602001909291905050506110e9565b005b6105dc600480360360208110156105c657600080fd5b8101908080359060200190929190505050611463565b6040518080602001828103825283818151815260200191508051906020019080838360005b8381101561061c578082015181840152602081019050610601565b50505050905090810190601f1680156106495780820380516001836020036101000a031916815260200191505b509250505060405180910390f35b6106836004803603602081101561066d57600080fd5b8101908080359060200190929190505050611eca565b604051808273ffffffffffffffffffffffffffffffffffffffff16815260200191505060405180910390f35b6106f1600480360360208110156106c557600080fd5b81019080803573ffffffffffffffffffffffffffffffffffffffff169060200190929190505050611f01565b005b6106fb61208f565b6040518080602001828103825283818151815260200191508051906020019080838360005b8381101561073b578082015181840152602081019050610720565b50505050905090810190601f1680156107685780820380516001836020036101000a031916815260200191505b509250505060405180910390f35b6107b86004803603602081101561078c57600080fd5b81019080803573ffffffffffffffffffffffffffffffffffffffff169060200190929190505050612131565b6040518082815260200191505060405180910390f35b6107d6612206565b005b6107e0612376565b604051808273ffffffffffffffffffffffffffffffffffffffff16815260200191505060405180910390f35b6108146123a0565b6040518080602001828103825283818151815260200191508051906020019080838360005b83811015610854578082015181840152602081019050610839565b50505050905090810190601f1680156108815780820380516001836020036101000a031916815260200191505b509250505060405180910390f35b6108dd600480360360408110156108a557600080fd5b81019080803573ffffffffffffffffffffffffffffffffffffffff169060200190929190803515159060200190929190505050612442565b005b6108e76125f8565b6040518082815260200191505060405180910390f35b610a006004803603608081101561091357600080fd5b81019080803573ffffffffffffffffffffffffffffffffffffffff169060200190929190803573ffffffffffffffffffffffffffffffffffffffff169060200190929190803590602001909291908035906020019064010000000081111561097a57600080fd5b82018360208201111561098c57600080fd5b803590602001918460018302840111640100000000831117156109ae57600080fd5b91908080601f016020809104026020016040519081016040528093929190818152602001838380828437600081840152601f19601f8201169050808301925050505050505091929192905050506125fe565b005b610a2e60048036036020811015610a1857600080fd5b8101908080359060200190929190505050612676565b6040518080602001828103825283818151815260200191508051906020019080838360005b83811015610a6e578082015181840152602081019050610a53565b50505050905090810190601f168015610a9b5780820380516001836020036101000a031916815260200191505b509250505060405180910390f35b610ad560048036036020811015610abf57600080fd5b8101908080359060200190929190505050612732565b6040518080602001828103825283818151815260200191508051906020019080838360005b83811015610b15578082015181840152602081019050610afa565b50505050905090810190601f168015610b425780820380516001836020036101000a031916815260200191505b509250505060405180910390f35b610bb260048036036040811015610b6657600080fd5b81019080803573ffffffffffffffffffffffffffffffffffffffff169060200190929190803573ffffffffffffffffffffffffffffffffffffffff169060200190929190505050612a03565b60405180821515815260200191505060405180910390f35b610c0c60048036036020811015610be057600080fd5b81019080803573ffffffffffffffffffffffffffffffffffffffff169060200190929190505050612a97565b005b6000806000837bffffffffffffffffffffffffffffffffffffffffffffffffffffffff19167bffffffffffffffffffffffffffffffffffffffffffffffffffffffff1916815260200190815260200160002060009054906101000a900460ff169050919050565b606060068054600181600116156101000203166002900480601f016020809104026020016040519081016040528092919081815260200182805460018160011615610100020316600290048015610d0d5780601f10610ce257610100808354040283529160200191610d0d565b820191906000526020600020905b815481529060010190602001808311610cf057829003601f168201915b5050505050905090565b6000610d2282612c8c565b610d77576040517f08c379a000000000000000000000000000000000000000000000000000000000815260040180806020018281038252602c815260200180614c72602c913960400191505060405180910390fd5b6004600083815260200190815260200160002060009054906101000a900473ffffffffffffffffffffffffffffffffffffffff169050919050565b6000610dbd82611eca565b90508073ffffffffffffffffffffffffffffffffffffffff168373ffffffffffffffffffffffffffffffffffffffff161415610e44576040517f08c379a0000000000000000000000000000000000000000000000000000000008152600401808060200182810382526021815260200180614d8a6021913960400191505060405180910390fd5b8073ffffffffffffffffffffffffffffffffffffffff16610e63612ca9565b73ffffffffffffffffffffffffffffffffffffffff161480610e925750610e9181610e8c612ca9565b612a03565b5b610ee7576040517f08c379a0000000000000000000000000000000000000000000000000000000008152600401808060200182810382526038815260200180614b7b6038913960400191505060405180910390fd5b610ef18383612cb1565b505050565b6000610f026002612d6a565b905090565b610f18610f12612ca9565b82612d7f565b610f6d576040517f08c379a0000000000000000000000000000000000000000000000000000000008152600401808060200182810382526031815260200180614dab6031913960400191505060405180910390fd5b610f78838383612e73565b505050565b6000610fd082600160008673ffffffffffffffffffffffffffffffffffffffff1673ffffffffffffffffffffffffffffffffffffffff1681526020019081526020016000206130b690919063ffffffff16565b905092915050565b6060601160008481526020019081526020016000206000018281548110610ffb57fe5b906000526020600020018054600181600116156101000203166002900480601f0160208091040260200160405190810160405280929190818152602001828054600181600116156101000203166002900480156110995780601f1061106e57610100808354040283529160200191611099565b820191906000526020600020905b81548152906001019060200180831161107c57829003601f168201915b5050505050905092915050565b6110c1838383604051806020016040528060008152506125fe565b505050565b6000806110dd8360026130d090919063ffffffff16565b50905080915050919050565b606060116000858152602001908152602001600020600001838154811061110c57fe5b906000526020600020018054600181600116156101000203166002900480601f0160208091040260200160405190810160405280929190818152602001828054600181600116156101000203166002900480156111aa5780601f1061117f576101008083540402835291602001916111aa565b820191906000526020600020905b81548152906001019060200180831161118d57829003601f168201915b5050505050905060606011600086815260200190815260200160002060010183815481106111d457fe5b906000526020600020018054600181600116156101000203166002900480601f0160208091040260200160405190810160405280929190818152602001828054600181600116156101000203166002900480156112725780601f1061124757610100808354040283529160200191611272565b820191906000526020600020905b81548152906001019060200180831161125557829003601f168201915b505050505090508060116000878152602001908152602001600020600001858154811061129b57fe5b9060005260206000200190805190602001906112b89291906147bd565b5060606112c486611463565b90503373ffffffffffffffffffffffffffffffffffffffff167ffc1c7aa924a1f7d6499bf2864591c793922f96acd9355b0bd80e51541e0a23b78783868660405180858152602001806020018060200180602001848103845287818151815260200191508051906020019080838360005b83811015611350578082015181840152602081019050611335565b50505050905090810190601f16801561137d5780820380516001836020036101000a031916815260200191505b50848103835286818151815260200191508051906020019080838360005b838110156113b657808201518184015260208101905061139b565b50505050905090810190601f1680156113e35780820380516001836020036101000a031916815260200191505b50848103825285818151815260200191508051906020019080838360005b8381101561141c578082015181840152602081019050611401565b50505050905090810190601f1680156114495780820380516001836020036101000a031916815260200191505b5097505050505050505060405180910390a2505050505050565b6060806011600084815260200190815260200160002060000160008154811061148857fe5b906000526020600020016040516020018080614bb360259139602501828054600181600116156101000203166002900480156114fb5780601f106114d95761010080835404028352918201916114fb565b820191906000526020600020905b8154815290600101906020018083116114e7575b505080614a98602391396023019150506040516020818303038152906040526011600085815260200190815260200160002060000160018154811061153c57fe5b906000526020600020016040516020018080614c9e60259139602501828054600181600116156101000203166002900480156115af5780601f1061158d5761010080835404028352918201916115af565b820191906000526020600020905b81548152906001019060200180831161159b575b505080614a9860239139602301915050604051602081830303815290604052601160008681526020019081526020016000206000016002815481106115f057fe5b906000526020600020016040516020018080614c4d60259139602501828054600181600116156101000203166002900480156116635780601f10611641576101008083540402835291820191611663565b820191906000526020600020905b81548152906001019060200180831161164f575b505080614a9860239139602301915050604051602081830303815290604052601160008781526020019081526020016000206000016003815481106116a457fe5b906000526020600020016040516020018080614d6560259139602501828054600181600116156101000203166002900480156117175780601f106116f5576101008083540402835291820191611717565b820191906000526020600020905b815481529060010190602001808311611703575b505080614a98602391396023019150506040516020818303038152906040526011600088815260200190815260200160002060000160048154811061175857fe5b906000526020600020016040516020018080614b3160259139602501828054600181600116156101000203166002900480156117cb5780601f106117a95761010080835404028352918201916117cb565b820191906000526020600020905b8154815290600101906020018083116117b7575b505080614a98602391396023019150506040516020818303038152906040526011600089815260200190815260200160002060000160058154811061180c57fe5b906000526020600020016040516020018080614a4d602591396025018280546001816001161561010002031660029004801561187f5780601f1061185d57610100808354040283529182019161187f565b820191906000526020600020905b81548152906001019060200180831161186b575b505080614a9860239139602301915050604051602081830303815290604052601160008a81526020019081526020016000206000016006815481106118c057fe5b906000526020600020016040516020018080614b5660259139602501828054600181600116156101000203166002900480156119335780601f10611911576101008083540402835291820191611933565b820191906000526020600020905b81548152906001019060200180831161191f575b505080614a9860239139602301915050604051602081830303815290604052601160008b815260200190815260200160002060000160078154811061197457fe5b906000526020600020016040516020018080614d4060259139602501828054600181600116156101000203166002900480156119e75780601f106119c55761010080835404028352918201916119e7565b820191906000526020600020905b8154815290600101906020018083116119d3575b505080614a9860239139602301915050604051602081830303815290604052601160008c8152602001908152602001600020600001600881548110611a2857fe5b906000526020600020016040516020018080614d1b6025913960250182805460018160011615610100020316600290048015611a9b5780601f10611a79576101008083540402835291820191611a9b565b820191906000526020600020905b815481529060010190602001808311611a87575b505080614a986023913960230191505060405160208183030381529060405260405160200180807f3c7376672077696474683d2731353027206865696768743d27313830273e0000815250601e018a805190602001908083835b60208310611b185780518252602082019150602081019050602083039250611af5565b6001836020036101000a03801982511681845116808217855250505050505090500189805190602001908083835b60208310611b695780518252602082019150602081019050602083039250611b46565b6001836020036101000a03801982511681845116808217855250505050505090500188805190602001908083835b60208310611bba5780518252602082019150602081019050602083039250611b97565b6001836020036101000a03801982511681845116808217855250505050505090500187805190602001908083835b60208310611c0b5780518252602082019150602081019050602083039250611be8565b6001836020036101000a03801982511681845116808217855250505050505090500186805190602001908083835b60208310611c5c5780518252602082019150602081019050602083039250611c39565b6001836020036101000a03801982511681845116808217855250505050505090500185805190602001908083835b60208310611cad5780518252602082019150602081019050602083039250611c8a565b6001836020036101000a03801982511681845116808217855250505050505090500184805190602001908083835b60208310611cfe5780518252602082019150602081019050602083039250611cdb565b6001836020036101000a03801982511681845116808217855250505050505090500183805190602001908083835b60208310611d4f5780518252602082019150602081019050602083039250611d2c565b6001836020036101000a03801982511681845116808217855250505050505090500182805190602001908083835b60208310611da05780518252602082019150602081019050602083039250611d7d565b6001836020036101000a038019825116818451168082178552505050505050905001807f3c2f7376673e0000000000000000000000000000000000000000000000000000815250600601995050505050505050505060405160208183030381529060405290503373ffffffffffffffffffffffffffffffffffffffff167fda728db9fe522c946828617761ea019c7a89ac79b647bf14c2b5c691bfad2fb384836040518083815260200180602001828103825283818151815260200191508051906020019080838360005b83811015611e86578082015181840152602081019050611e6b565b50505050905090810190601f168015611eb35780820380516001836020036101000a031916815260200191505b50935050505060405180910390a280915050919050565b6000611efa82604051806060016040528060298152602001614c026029913960026130fc9092919063ffffffff16565b9050919050565b60004282604051602001808381526020018273ffffffffffffffffffffffffffffffffffffffff1660601b81526014019250505060405160208183030381529060405280519060200120905060008160001c90506000610fa08281611f6257fe5b069050611f6d61484b565b81816060018181525050600c5481608001818152505080601160008581526020019081526020016000206000820151816000019080519060200190611fb392919061487a565b506020820151816001019080519060200190611fd092919061487a565b506040820151816002019080519060200190611fed92919061487a565b50606082015181600301556080820151816004015590505061200e8361311b565b6120183384613130565b6001600c600082825401925050819055507fc6a9fee4685459422a48632aa9afdc862bedbbb8e442df17ff5e51e0011ae5318386600c54604051808481526020018373ffffffffffffffffffffffffffffffffffffffff168152602001828152602001935050505060405180910390a15050505050565b606060098054600181600116156101000203166002900480601f0160208091040260200160405190810160405280929190818152602001828054600181600116156101000203166002900480156121275780601f106120fc57610100808354040283529160200191612127565b820191906000526020600020905b81548152906001019060200180831161210a57829003601f168201915b5050505050905090565b60008073ffffffffffffffffffffffffffffffffffffffff168273ffffffffffffffffffffffffffffffffffffffff1614156121b8576040517f08c379a000000000000000000000000000000000000000000000000000000000815260040180806020018281038252602a815260200180614bd8602a913960400191505060405180910390fd5b6121ff600160008473ffffffffffffffffffffffffffffffffffffffff1673ffffffffffffffffffffffffffffffffffffffff168152602001908152602001600020613324565b9050919050565b61220e612ca9565b73ffffffffffffffffffffffffffffffffffffffff1661222c612376565b73ffffffffffffffffffffffffffffffffffffffff16146122b5576040517f08c379a00000000000000000000000000000000000000000000000000000000081526004018080602001828103825260208152602001807f4f776e61626c653a2063616c6c6572206973206e6f7420746865206f776e657281525060200191505060405180910390fd5b600073ffffffffffffffffffffffffffffffffffffffff16600a60009054906101000a900473ffffffffffffffffffffffffffffffffffffffff1673ffffffffffffffffffffffffffffffffffffffff167f8be0079c531659141344cd1fd0a4f28419497f9722a3daafe3b4186f6b6457e060405160405180910390a36000600a60006101000a81548173ffffffffffffffffffffffffffffffffffffffff021916908373ffffffffffffffffffffffffffffffffffffffff160217905550565b6000600a60009054906101000a900473ffffffffffffffffffffffffffffffffffffffff16905090565b606060078054600181600116156101000203166002900480601f0160208091040260200160405190810160405280929190818152602001828054600181600116156101000203166002900480156124385780601f1061240d57610100808354040283529160200191612438565b820191906000526020600020905b81548152906001019060200180831161241b57829003601f168201915b5050505050905090565b61244a612ca9565b73ffffffffffffffffffffffffffffffffffffffff168273ffffffffffffffffffffffffffffffffffffffff1614156124eb576040517f08c379a00000000000000000000000000000000000000000000000000000000081526004018080602001828103825260198152602001807f4552433732313a20617070726f766520746f2063616c6c65720000000000000081525060200191505060405180910390fd5b80600560006124f8612ca9565b73ffffffffffffffffffffffffffffffffffffffff1673ffffffffffffffffffffffffffffffffffffffff16815260200190815260200160002060008473ffffffffffffffffffffffffffffffffffffffff1673ffffffffffffffffffffffffffffffffffffffff16815260200190815260200160002060006101000a81548160ff0219169083151502179055508173ffffffffffffffffffffffffffffffffffffffff166125a5612ca9565b73ffffffffffffffffffffffffffffffffffffffff167f17307eab39ab6107e8899845ad3d59bd9653f200f220920489ca2b5937696c318360405180821515815260200191505060405180910390a35050565b600c5481565b61260f612609612ca9565b83612d7f565b612664576040517f08c379a0000000000000000000000000000000000000000000000000000000008152600401808060200182810382526031815260200180614dab6031913960400191505060405180910390fd5b61267084848484613339565b50505050565b600b818154811061268657600080fd5b906000526020600020016000915090508054600181600116156101000203166002900480601f01602080910402602001604051908101604052809291908181526020018280546001816001161561010002031660029004801561272a5780601f106126ff5761010080835404028352916020019161272a565b820191906000526020600020905b81548152906001019060200180831161270d57829003601f168201915b505050505081565b606061273d82612c8c565b612792576040517f08c379a000000000000000000000000000000000000000000000000000000000815260040180806020018281038252602f815260200180614cec602f913960400191505060405180910390fd5b6060600860008481526020019081526020016000208054600181600116156101000203166002900480601f01602080910402602001604051908101604052809291908181526020018280546001816001161561010002031660029004801561283b5780601f106128105761010080835404028352916020019161283b565b820191906000526020600020905b81548152906001019060200180831161281e57829003601f168201915b50505050509050606061284c61208f565b90506000815114156128625781925050506129fe565b6000825111156129335780826040516020018083805190602001908083835b602083106128a45780518252602082019150602081019050602083039250612881565b6001836020036101000a03801982511681845116808217855250505050505090500182805190602001908083835b602083106128f557805182526020820191506020810190506020830392506128d2565b6001836020036101000a03801982511681845116808217855250505050505090500192505050604051602081830303815290604052925050506129fe565b8061293d856133ab565b6040516020018083805190602001908083835b602083106129735780518252602082019150602081019050602083039250612950565b6001836020036101000a03801982511681845116808217855250505050505090500182805190602001908083835b602083106129c457805182526020820191506020810190506020830392506129a1565b6001836020036101000a03801982511681845116808217855250505050505090500192505050604051602081830303815290604052925050505b919050565b6000600560008473ffffffffffffffffffffffffffffffffffffffff1673ffffffffffffffffffffffffffffffffffffffff16815260200190815260200160002060008373ffffffffffffffffffffffffffffffffffffffff1673ffffffffffffffffffffffffffffffffffffffff16815260200190815260200160002060009054906101000a900460ff16905092915050565b612a9f612ca9565b73ffffffffffffffffffffffffffffffffffffffff16612abd612376565b73ffffffffffffffffffffffffffffffffffffffff1614612b46576040517f08c379a00000000000000000000000000000000000000000000000000000000081526004018080602001828103825260208152602001807f4f776e61626c653a2063616c6c6572206973206e6f7420746865206f776e657281525060200191505060405180910390fd5b600073ffffffffffffffffffffffffffffffffffffffff168173ffffffffffffffffffffffffffffffffffffffff161415612bcc576040517f08c379a0000000000000000000000000000000000000000000000000000000008152600401808060200182810382526026815260200180614a726026913960400191505060405180910390fd5b8073ffffffffffffffffffffffffffffffffffffffff16600a60009054906101000a900473ffffffffffffffffffffffffffffffffffffffff1673ffffffffffffffffffffffffffffffffffffffff167f8be0079c531659141344cd1fd0a4f28419497f9722a3daafe3b4186f6b6457e060405160405180910390a380600a60006101000a81548173ffffffffffffffffffffffffffffffffffffffff021916908373ffffffffffffffffffffffffffffffffffffffff16021790555050565b6000612ca28260026134f290919063ffffffff16565b9050919050565b600033905090565b816004600083815260200190815260200160002060006101000a81548173ffffffffffffffffffffffffffffffffffffffff021916908373ffffffffffffffffffffffffffffffffffffffff160217905550808273ffffffffffffffffffffffffffffffffffffffff16612d2483611eca565b73ffffffffffffffffffffffffffffffffffffffff167f8c5be1e5ebec7d5bd14f71427d1e84f3dd0314c0f7b2291e5b200ac8c7c3b92560405160405180910390a45050565b6000612d788260000161350c565b9050919050565b6000612d8a82612c8c565b612ddf576040517f08c379a000000000000000000000000000000000000000000000000000000000815260040180806020018281038252602c815260200180614b05602c913960400191505060405180910390fd5b6000612dea83611eca565b90508073ffffffffffffffffffffffffffffffffffffffff168473ffffffffffffffffffffffffffffffffffffffff161480612e5957508373ffffffffffffffffffffffffffffffffffffffff16612e4184610d17565b73ffffffffffffffffffffffffffffffffffffffff16145b80612e6a5750612e698185612a03565b5b91505092915050565b8273ffffffffffffffffffffffffffffffffffffffff16612e9382611eca565b73ffffffffffffffffffffffffffffffffffffffff1614612eff576040517f08c379a0000000000000000000000000000000000000000000000000000000008152600401808060200182810382526029815260200180614cc36029913960400191505060405180910390fd5b600073ffffffffffffffffffffffffffffffffffffffff168273ffffffffffffffffffffffffffffffffffffffff161415612f85576040517f08c379a0000000000000000000000000000000000000000000000000000000008152600401808060200182810382526024815260200180614abb6024913960400191505060405180910390fd5b612f9083838361351d565b612f9b600082612cb1565b612fec81600160008673ffffffffffffffffffffffffffffffffffffffff1673ffffffffffffffffffffffffffffffffffffffff16815260200190815260200160002061352290919063ffffffff16565b5061303e81600160008573ffffffffffffffffffffffffffffffffffffffff1673ffffffffffffffffffffffffffffffffffffffff16815260200190815260200160002061353c90919063ffffffff16565b50613055818360026135569092919063ffffffff16565b50808273ffffffffffffffffffffffffffffffffffffffff168473ffffffffffffffffffffffffffffffffffffffff167fddf252ad1be2c89b69c2b068fc378daa952ba7f163c4a11628f55a4df523b3ef60405160405180910390a4505050565b60006130c5836000018361358b565b60001c905092915050565b6000806000806130e3866000018661360e565b915091508160001c8160001c9350935050509250929050565b600061310f846000018460001b846136a7565b60001c90509392505050565b6131248161379d565b61312d81613e2b565b50565b600073ffffffffffffffffffffffffffffffffffffffff168273ffffffffffffffffffffffffffffffffffffffff1614156131d3576040517f08c379a00000000000000000000000000000000000000000000000000000000081526004018080602001828103825260208152602001807f4552433732313a206d696e7420746f20746865207a65726f206164647265737381525060200191505060405180910390fd5b6131dc81612c8c565b1561324f576040517f08c379a000000000000000000000000000000000000000000000000000000000815260040180806020018281038252601c8152602001807f4552433732313a20746f6b656e20616c7265616479206d696e7465640000000081525060200191505060405180910390fd5b61325b6000838361351d565b6132ac81600160008573ffffffffffffffffffffffffffffffffffffffff1673ffffffffffffffffffffffffffffffffffffffff16815260200190815260200160002061353c90919063ffffffff16565b506132c3818360026135569092919063ffffffff16565b50808273ffffffffffffffffffffffffffffffffffffffff16600073ffffffffffffffffffffffffffffffffffffffff167fddf252ad1be2c89b69c2b068fc378daa952ba7f163c4a11628f55a4df523b3ef60405160405180910390a45050565b600061333282600001613f6f565b9050919050565b613344848484612e73565b61335084848484613f80565b6133a5576040517f08c379a0000000000000000000000000000000000000000000000000000000008152600401808060200182810382526032815260200180614a1b6032913960400191505060405180910390fd5b50505050565b606060008214156133f3576040518060400160405280600181526020017f300000000000000000000000000000000000000000000000000000000000000081525090506134ed565b600082905060005b6000821461341d578080600101915050600a828161341557fe5b0491506133fb565b60608167ffffffffffffffff8111801561343657600080fd5b506040519080825280601f01601f1916602001820160405280156134695781602001600182028036833780820191505090505b50905060006001830390508593505b600084146134e557600a848161348a57fe5b0660300160f81b828280600190039350815181106134a457fe5b60200101907effffffffffffffffffffffffffffffffffffffffffffffffffffffffffffff1916908160001a905350600a84816134dd57fe5b049350613478565b819450505050505b919050565b6000613504836000018360001b614199565b905092915050565b600081600001805490509050919050565b505050565b6000613534836000018360001b6141bc565b905092915050565b600061354e836000018360001b6142a4565b905092915050565b6000613582846000018460001b8473ffffffffffffffffffffffffffffffffffffffff1660001b614314565b90509392505050565b6000818360000180549050116135ec576040517f08c379a00000000000000000000000000000000000000000000000000000000081526004018080602001828103825260228152602001806149f96022913960400191505060405180910390fd5b8260000182815481106135fb57fe5b9060005260206000200154905092915050565b60008082846000018054905011613670576040517f08c379a0000000000000000000000000000000000000000000000000000000008152600401808060200182810382526022815260200180614c2b6022913960400191505060405180910390fd5b600084600001848154811061368157fe5b906000526020600020906002020190508060000154816001015492509250509250929050565b6000808460010160008581526020019081526020016000205490506000811415839061376e576040517f08c379a00000000000000000000000000000000000000000000000000000000081526004018080602001828103825283818151815260200191508051906020019080838360005b83811015613733578082015181840152602081019050613718565b50505050905090810190601f1680156137605780820380516001836020036101000a031916815260200191505b509250505060405180910390fd5b5084600001600182038154811061378157fe5b9060005260206000209060020201600101549150509392505050565b60006137c9826040516020018082815260200191505060405160208183030381529060405260016143f0565b905060008160ff16101580156137e2575060558160ff16105b156139f4576011600083815260200190815260200160002060010180600181540180825580915050600190039060005260206000200160006040518060400160405280600781526020017f2330303030303000000000000000000000000000000000000000000000000000815250909190915090805190602001906138689291906147bd565b506011600083815260200190815260200160002060010180600181540180825580915050600190039060005260206000200160006040518060400160405280600781526020017f2366663030303000000000000000000000000000000000000000000000000000815250909190915090805190602001906138ea9291906147bd565b506011600083815260200190815260200160002060010180600181540180825580915050600190039060005260206000200160006040518060400160405280600781526020017f23303066663030000000000000000000000000000000000000000000000000008152509091909150908051906020019061396c9291906147bd565b506011600083815260200190815260200160002060010180600181540180825580915050600190039060005260206000200160006040518060400160405280600781526020017f2330303030666600000000000000000000000000000000000000000000000000815250909190915090805190602001906139ee9291906147bd565b50613e27565b60558160ff1610158015613a0b575060aa8160ff16105b15613c1d576011600083815260200190815260200160002060010180600181540180825580915050600190039060005260206000200160006040518060400160405280600781526020017f233030303030300000000000000000000000000000000000000000000000000081525090919091509080519060200190613a919291906147bd565b506011600083815260200190815260200160002060010180600181540180825580915050600190039060005260206000200160006040518060400160405280600781526020017f236666666630300000000000000000000000000000000000000000000000000081525090919091509080519060200190613b139291906147bd565b506011600083815260200190815260200160002060010180600181540180825580915050600190039060005260206000200160006040518060400160405280600781526020017f233030666666660000000000000000000000000000000000000000000000000081525090919091509080519060200190613b959291906147bd565b506011600083815260200190815260200160002060010180600181540180825580915050600190039060005260206000200160006040518060400160405280600781526020017f236666303066660000000000000000000000000000000000000000000000000081525090919091509080519060200190613c179291906147bd565b50613e26565b6011600083815260200190815260200160002060010180600181540180825580915050600190039060005260206000200160006040518060400160405280600781526020017f233030303030300000000000000000000000000000000000000000000000000081525090919091509080519060200190613c9e9291906147bd565b506011600083815260200190815260200160002060010180600181540180825580915050600190039060005260206000200160006040518060400160405280600781526020017f236666623330300000000000000000000000000000000000000000000000000081525090919091509080519060200190613d209291906147bd565b506011600083815260200190815260200160002060010180600181540180825580915050600190039060005260206000200160006040518060400160405280600881526020017f233761303030386100000000000000000000000000000000000000000000000081525090919091509080519060200190613da29291906147bd565b506011600083815260200190815260200160002060010180600181540180825580915050600190039060005260206000200160006040518060400160405280600781526020017f233032633063370000000000000000000000000000000000000000000000000081525090919091509080519060200190613e249291906147bd565b505b5b5050565b60005b600f54811015613f6b576011600083815260200190815260200160002060000160116000848152602001908152602001600020600101600160038481613e7057fe5b060181548110613e7c57fe5b90600052602060002001908060018154018082558091505060019003906000526020600020016000909190919091509080546001816001161561010002031660029004613eca9291906148da565b506011600083815260200190815260200160002060020160116000848152602001908152602001600020600101600160038481613f0357fe5b060181548110613f0f57fe5b90600052602060002001908060018154018082558091505060019003906000526020600020016000909190919091509080546001816001161561010002031660029004613f5d9291906148da565b508080600101915050613e2e565b5050565b600081600001805490509050919050565b6000613fa18473ffffffffffffffffffffffffffffffffffffffff166144fa565b613fae5760019050614191565b606061411863150b7a0260e01b613fc3612ca9565b888787604051602401808573ffffffffffffffffffffffffffffffffffffffff1681526020018473ffffffffffffffffffffffffffffffffffffffff16815260200183815260200180602001828103825283818151815260200191508051906020019080838360005b8381101561404757808201518184015260208101905061402c565b50505050905090810190601f1680156140745780820380516001836020036101000a031916815260200191505b5095505050505050604051602081830303815290604052907bffffffffffffffffffffffffffffffffffffffffffffffffffffffff19166020820180517bffffffffffffffffffffffffffffffffffffffffffffffffffffffff8381831617835250505050604051806060016040528060328152602001614a1b603291398773ffffffffffffffffffffffffffffffffffffffff1661450d9092919063ffffffff16565b9050600081806020019051602081101561413157600080fd5b8101908080519060200190929190505050905063150b7a0260e01b7bffffffffffffffffffffffffffffffffffffffffffffffffffffffff1916817bffffffffffffffffffffffffffffffffffffffffffffffffffffffff191614925050505b949350505050565b600080836001016000848152602001908152602001600020541415905092915050565b60008083600101600084815260200190815260200160002054905060008114614298576000600182039050600060018660000180549050039050600086600001828154811061420757fe5b906000526020600020015490508087600001848154811061422457fe5b906000526020600020018190555060018301876001016000838152602001908152602001600020819055508660000180548061425c57fe5b6001900381819060005260206000200160009055905586600101600087815260200190815260200160002060009055600194505050505061429e565b60009150505b92915050565b60006142b08383614525565b61430957826000018290806001815401808255809150506001900390600052602060002001600090919091909150558260000180549050836001016000848152602001908152602001600020819055506001905061430e565b600090505b92915050565b60008084600101600085815260200190815260200160002054905060008114156143bb578460000160405180604001604052808681526020018581525090806001815401808255809150506001900390600052602060002090600202016000909190919091506000820151816000015560208201518160010155505084600001805490508560010160008681526020019081526020016000208190555060019150506143e9565b828560000160018303815481106143ce57fe5b90600052602060002090600202016001018190555060009150505b9392505050565b60008160018301101561446b576040517f08c379a00000000000000000000000000000000000000000000000000000000081526004018080602001828103825260108152602001807f746f55696e74385f6f766572666c6f770000000000000000000000000000000081525060200191505060405180910390fd5b60018201835110156144e5576040517f08c379a00000000000000000000000000000000000000000000000000000000081526004018080602001828103825260138152602001807f746f55696e74385f6f75744f66426f756e64730000000000000000000000000081525060200191505060405180910390fd5b60008260018501015190508091505092915050565b600080823b905060008111915050919050565b606061451c8484600085614548565b90509392505050565b600080836001016000848152602001908152602001600020541415905092915050565b6060824710156145a3576040517f08c379a0000000000000000000000000000000000000000000000000000000008152600401808060200182810382526026815260200180614adf6026913960400191505060405180910390fd5b6145ac856144fa565b61461e576040517f08c379a000000000000000000000000000000000000000000000000000000000815260040180806020018281038252601d8152602001807f416464726573733a2063616c6c20746f206e6f6e2d636f6e747261637400000081525060200191505060405180910390fd5b600060608673ffffffffffffffffffffffffffffffffffffffff1685876040518082805190602001908083835b6020831061466e578051825260208201915060208101905060208303925061464b565b6001836020036101000a03801982511681845116808217855250505050505090500191505060006040518083038185875af1925050503d80600081146146d0576040519150601f19603f3d011682016040523d82523d6000602084013e6146d5565b606091505b50915091506146e58282866146f1565b92505050949350505050565b60608315614701578290506147b6565b6000835111156147145782518084602001fd5b816040517f08c379a00000000000000000000000000000000000000000000000000000000081526004018080602001828103825283818151815260200191508051906020019080838360005b8381101561477b578082015181840152602081019050614760565b50505050905090810190601f1680156147a85780820380516001836020036101000a031916815260200191505b509250505060405180910390fd5b9392505050565b828054600181600116156101000203166002900490600052602060002090601f0160209004810192826147f3576000855561483a565b82601f1061480c57805160ff191683800117855561483a565b8280016001018555821561483a579182015b8281111561483957825182559160200191906001019061481e565b5b509050614847919061496f565b5090565b6040518060a0016040528060608152602001606081526020016060815260200160008152602001600081525090565b8280548282559060005260206000209081019282156148c9579160200282015b828111156148c85782518290805190602001906148b89291906147bd565b509160200191906001019061489a565b5b5090506148d6919061498c565b5090565b828054600181600116156101000203166002900490600052602060002090601f016020900481019282614910576000855561495e565b82601f10614921578054855561495e565b8280016001018555821561495e57600052602060002091601f016020900482015b8281111561495d578254825591600101919060010190614942565b5b50905061496b919061496f565b5090565b5b80821115614988576000816000905550600101614970565b5090565b5b808211156149ac57600081816149a391906149b0565b5060010161498d565b5090565b50805460018160011615610100020316600290046000825580601f106149d657506149f5565b601f0160209004906000526020600020908101906149f4919061496f565b5b5056fe456e756d657261626c655365743a20696e646578206f7574206f6620626f756e64734552433732313a207472616e7366657220746f206e6f6e20455243373231526563656976657220696d706c656d656e7465723c636972636c652063783d273930272063793d2736302720723d273230272066696c6c3d274f776e61626c653a206e6577206f776e657220697320746865207a65726f206164647265737327207374726f6b652d77696474683d273927207374726f6b653d27626c61636b272f3e4552433732313a207472616e7366657220746f20746865207a65726f2061646472657373416464726573733a20696e73756666696369656e742062616c616e636520666f722063616c6c4552433732313a206f70657261746f7220717565727920666f72206e6f6e6578697374656e7420746f6b656e3c636972636c652063783d273630272063793d2736302720723d273230272066696c6c3d273c636972636c652063783d273330272063793d2739302720723d273230272066696c6c3d274552433732313a20617070726f76652063616c6c6572206973206e6f74206f776e6572206e6f7220617070726f76656420666f7220616c6c3c636972636c652063783d273330272063793d2733302720723d273230272066696c6c3d274552433732313a2062616c616e636520717565727920666f7220746865207a65726f20616464726573734552433732313a206f776e657220717565727920666f72206e6f6e6578697374656e7420746f6b656e456e756d657261626c654d61703a20696e646578206f7574206f6620626f756e64733c636972636c652063783d273930272063793d2733302720723d273230272066696c6c3d274552433732313a20617070726f76656420717565727920666f72206e6f6e6578697374656e7420746f6b656e3c636972636c652063783d273630272063793d2733302720723d273230272066696c6c3d274552433732313a207472616e73666572206f6620746f6b656e2074686174206973206e6f74206f776e4552433732314d657461646174613a2055524920717565727920666f72206e6f6e6578697374656e7420746f6b656e3c636972636c652063783d273930272063793d2739302720723d273230272066696c6c3d273c636972636c652063783d273630272063793d2739302720723d273230272066696c6c3d273c636972636c652063783d273330272063793d2736302720723d273230272066696c6c3d274552433732313a20617070726f76616c20746f2063757272656e74206f776e65724552433732313a207472616e736665722063616c6c6572206973206e6f74206f776e6572206e6f7220617070726f766564a26469706673582212201ef31da7f73beb8348997a0e53ae816c5b8f90526336e662dd767223fd33918b64736f6c63430007040033",
  "immutableReferences": {},
  "source": "pragma solidity ^0.7.4;\r\n\r\nimport \"@openzeppelin/contracts/token/ERC721/ERC721.sol\";\r\nimport \"@openzeppelin/contracts/access/Ownable.sol\";\r\n\r\n// import \"./TestColor.sol\";\r\n\r\n\r\ncontract Color is ERC721,Ownable {\r\n\r\n\tstring[] public colors;\r\n  \tuint256 public numberOfEtherbrights = 0;\r\n  \tuint nPixX=5;\r\n  \tuint nPixY=5;\r\n  \tuint nPix=nPixX*nPixY;\r\n\r\n\tmapping(string => bool) _colorExists;\r\n\tmapping (uint256 => Etherbright) allEtherbrights;\r\n\r\n\tstruct Etherbright {\r\n\t\tstring[] setPixels;\r\n\t\tstring[] pallet;\r\n\t\tstring[] mintPixels;\r\n\t\tuint256 seed;\r\n\t\tuint256 seriesNumber;\r\n\t}\r\n\t\r\n\t\r\n\t// event PixelChanged(uint indexed changedPixel, string from, string to, address indexed by);\r\n\tevent ClearCanvas(address indexed by);\r\n\tevent ResetCanvas(address indexed by);\r\n\t// event SVGgenerated(string SVG, address indexed by);\r\n\t// event EtherbrightMinted(uint256 tokenId, string svg, address mintedBy, uint256 nEtherbrights);\r\n\tevent EtherbrightMinted(uint256 tokenId, address mintedBy, uint256 nEtherbrights);\r\n\tevent EtherbrightPixelChanged(uint256 tokenId, string svg, string from, string to, address indexed by);\r\n\tevent EtherbrightSVGgenerated(uint _tokenId, string svg, address indexed by);\r\n\t\r\n\t\r\n\tconstructor() ERC721(\"Color\", \"COLOR\") public {\r\n\r\n  \t}\r\n\r\n  \tfunction mintEtherbright(address to) public{\r\n\t  bytes32 idHash = keccak256(abi.encodePacked(block.timestamp, to));\r\n      uint256 tokenId = uint(idHash);\r\n      uint256 etherbrightSeed = tokenId % 4000;\r\n\r\n\t  Etherbright memory etherbright;\r\n\t  etherbright.seed=etherbrightSeed;\r\n\t  etherbright.seriesNumber=numberOfEtherbrights;\r\n\t  // etherbright.pallet=getPalletFromSeed(etherbrightSeed.seed);\r\n\t  allEtherbrights[tokenId]=etherbright;\r\n\t  buildEtherbright(tokenId);\r\n\r\n\t  _mint(msg.sender, tokenId);\r\n\t  numberOfEtherbrights+=1;\r\n\t  // string memory tmpsvg=generateEtherbrightsSVG(tokenId);\r\n\t  emit EtherbrightMinted(tokenId, to, numberOfEtherbrights);\r\n\r\n\t  // emit EtherbrightMinted(tokenId, tmpsvg, to, numberOfEtherbrights);\r\n\t// event EtherbrightMinted(uint256 tokenId, address mintedBy, uint256 nEtherbrights, string svg);\r\n\r\n\t}\r\n\tfunction buildEtherbright (uint256 tokenId ) internal {\r\n\r\n\t\tsetEtherbrightPallet(tokenId);\r\n\t\tsetAllEtherbrightPixels(tokenId);\r\n\r\n\r\n\t}\r\n\tfunction setAllEtherbrightPixels (uint256 tokenId) internal {\r\n\t\tfor(uint p=0; p<nPix; p++){\r\n\t\t\tallEtherbrights[tokenId].setPixels.push(allEtherbrights[tokenId].pallet[(p%3)+1]);\r\n\t\t\tallEtherbrights[tokenId].mintPixels.push(allEtherbrights[tokenId].pallet[(p%3)+1]);\r\n\r\n\t\t}\r\n\t}\r\n\t\r\n\r\n\tfunction setEtherbrightPallet (uint256 tokenId)  internal {\r\n\t\t// Etherbright memory ethb=allEtherbrights[tokenId];\r\n\t\tuint8 selector=toUint8(abi.encodePacked(tokenId), 1);\r\n\t\tif(selector >= 0 && selector < 85 ){\r\n\t\t\tallEtherbrights[tokenId].pallet.push(\"#000000\");\r\n  \t\t\tallEtherbrights[tokenId].pallet.push(\"#ff0000\");\r\n\t\t\tallEtherbrights[tokenId].pallet.push(\"#00ff00\");\r\n\t\t\tallEtherbrights[tokenId].pallet.push(\"#0000ff\");\r\n\r\n\t\t\t// \t\t\tallEtherbrights[tokenId].pallet.push(\"#000000\");\r\n  \t// \t\tallEtherbrights[tokenId].pallet.push(\"#ff0000\");\r\n\t\t\t// allEtherbrights[tokenId].pallet.push(\"#00ff00\");\r\n\t\t\t// allEtherbrights[tokenId].pallet.push(\"#0000ff\");\r\n\t\t\t// \t\t\tallEtherbrights[tokenId].pallet.push(\"#000000\");\r\n  \t// \t\tallEtherbrights[tokenId].pallet.push(\"#ff0000\");\r\n\t\t\t// allEtherbrights[tokenId].pallet.push(\"#00ff00\");\r\n\t\t\t// allEtherbrights[tokenId].pallet.push(\"#0000ff\");\r\n\r\n\t\t}\r\n\t\telse if(selector >= 85 && selector < 170 ){\r\n\t\t\tallEtherbrights[tokenId].pallet.push(\"#000000\");\r\n  \t\t\tallEtherbrights[tokenId].pallet.push(\"#ffff00\");\r\n\t\t\tallEtherbrights[tokenId].pallet.push(\"#00ffff\");\r\n\t\t\tallEtherbrights[tokenId].pallet.push(\"#ff00ff\");\r\n\t\t\t// \t\t\tallEtherbrights[tokenId].pallet.push(\"#000000\");\r\n  \t// \t\tallEtherbrights[tokenId].pallet.push(\"#ffff00\");\r\n\t\t\t// allEtherbrights[tokenId].pallet.push(\"#00ffff\");\r\n\t\t\t// allEtherbrights[tokenId].pallet.push(\"#ff00ff\");\r\n\t\t\t// \t\t\t\t\t\tallEtherbrights[tokenId].pallet.push(\"#000000\");\r\n  \t// \t\tallEtherbrights[tokenId].pallet.push(\"#ff0000\");\r\n\t\t\t// allEtherbrights[tokenId].pallet.push(\"#00ff00\");\r\n\t\t\t// allEtherbrights[tokenId].pallet.push(\"#0000ff\");\r\n\r\n\r\n\r\n\t\t}\r\n\t\telse{\r\n\t\t\tallEtherbrights[tokenId].pallet.push(\"#000000\");\r\n  \t\t\tallEtherbrights[tokenId].pallet.push(\"#ffb300\");\r\n\t\t\tallEtherbrights[tokenId].pallet.push(\"#7a0008a\");\r\n\t\t\tallEtherbrights[tokenId].pallet.push(\"#02c0c7\");\r\n\t\t\t// \t\t\tallEtherbrights[tokenId].pallet.push(\"#000000\");\r\n  \t// \t\tallEtherbrights[tokenId].pallet.push(\"#ffb300\");\r\n\t\t\t// allEtherbrights[tokenId].pallet.push(\"#7a0008a\");\r\n\t\t\t// allEtherbrights[tokenId].pallet.push(\"#02c0c7\");\r\n\t\t\t// \t\t\t\t\t\tallEtherbrights[tokenId].pallet.push(\"#000000\");\r\n  \t// \t\tallEtherbrights[tokenId].pallet.push(\"#ff0000\");\r\n\t\t\t// allEtherbrights[tokenId].pallet.push(\"#00ff00\");\r\n\t\t\t// allEtherbrights[tokenId].pallet.push(\"#0000ff\");\r\n\r\n\r\n\t\t}\r\n\r\n\t}\r\n\t\r\n\r\n    function toUint8(bytes memory _bytes, uint256 _start) internal pure returns (uint8) {\r\n        require(_start + 1 >= _start, \"toUint8_overflow\");\r\n        require(_bytes.length >= _start + 1 , \"toUint8_outOfBounds\");\r\n        uint8 tempUint;\r\n\r\n        assembly {\r\n            tempUint := mload(add(add(_bytes, 0x1), _start))\r\n        }\r\n\r\n        return tempUint;\r\n    }\r\n\r\n\tfunction setEtherbrightPixel (uint256 _tokenId,uint  _pixn, uint  _palletN ) public {\r\n\t\t// Etherbright storage ethb =allEtherbrights[_tokenId];\r\n\t\tstring memory _priorColor=allEtherbrights[_tokenId].setPixels[_pixn];\r\n\t\tstring memory _newColor=allEtherbrights[_tokenId].pallet[_palletN];\r\n\t\tallEtherbrights[_tokenId].setPixels[_pixn]=_newColor;\r\n\t\tstring memory _newSVG=generateEtherbrightsSVG(_tokenId);\t\r\n\t\temit EtherbrightPixelChanged(_tokenId, _newSVG, _priorColor, _newColor, msg.sender);\r\n\t\t\r\n\t}\r\n\tfunction getEtherbrightPixelColor (uint256 _tokenId,uint pn) public returns(string memory) {\r\n\t\treturn allEtherbrights[_tokenId].setPixels[pn];\r\n\t}\r\n\t\r\n\r\n\r\n  \tfunction generateEtherbrightsSVG(uint256 _tokenId) public returns (string memory){\r\n  \t\t//returns the svg string of the canvas\r\n  \t\t    string memory ethbsvg = \r\n  \t\t    string(\r\n  \t\t    \tabi.encodePacked(\r\n            \t\t\t\t\t\"<svg width='150' height='180'>\", \r\n            \t\t\t\t\tstring(abi.encodePacked(\"<circle cx='30' cy='30' r='20' fill='\",allEtherbrights[_tokenId].setPixels[0],\"' stroke-width='9' stroke='black'/>\")),\r\n            \t\t\t\t\tstring(abi.encodePacked(\"<circle cx='60' cy='30' r='20' fill='\",allEtherbrights[_tokenId].setPixels[1],\"' stroke-width='9' stroke='black'/>\")),\r\n            \t\t\t\t\tstring(abi.encodePacked(\"<circle cx='90' cy='30' r='20' fill='\",allEtherbrights[_tokenId].setPixels[2],\"' stroke-width='9' stroke='black'/>\")), \r\n            \t\t\t\t\tstring(abi.encodePacked(\"<circle cx='30' cy='60' r='20' fill='\",allEtherbrights[_tokenId].setPixels[3],\"' stroke-width='9' stroke='black'/>\")), \r\n            \t\t\t\t\tstring(abi.encodePacked(\"<circle cx='60' cy='60' r='20' fill='\",allEtherbrights[_tokenId].setPixels[4],\"' stroke-width='9' stroke='black'/>\")), \r\n            \t\t\t\t\tstring(abi.encodePacked(\"<circle cx='90' cy='60' r='20' fill='\",allEtherbrights[_tokenId].setPixels[5],\"' stroke-width='9' stroke='black'/>\")), \r\n            \t\t\t\t\tstring(abi.encodePacked(\"<circle cx='30' cy='90' r='20' fill='\",allEtherbrights[_tokenId].setPixels[6],\"' stroke-width='9' stroke='black'/>\")), \r\n            \t\t\t\t\tstring(abi.encodePacked(\"<circle cx='60' cy='90' r='20' fill='\",allEtherbrights[_tokenId].setPixels[7],\"' stroke-width='9' stroke='black'/>\")), \r\n            \t\t\t\t\tstring(abi.encodePacked(\"<circle cx='90' cy='90' r='20' fill='\",allEtherbrights[_tokenId].setPixels[8],\"' stroke-width='9' stroke='black'/>\")),\r\n            \t\t\t\t\t\"</svg>\"\r\n        \t\t\t\t\t\t)\r\n        \t);\r\n  \t\temit EtherbrightSVGgenerated(_tokenId,ethbsvg,msg.sender);\r\n  \t\treturn ethbsvg;\r\n\r\n  \t}\r\n\r\n\r\n}\r\n",
  "sourcePath": "H:/Expermental/nft/src/contracts/Color.sol",
  "compiler": {
    "name": "solc",
    "version": "0.7.4+commit.3f05b770.Emscripten.clang"
  },
  "schemaVersion": "3.3.4",
  "updatedAt": "2021-03-30T04:41:11.004Z",
  "networkType": "ethereum",
  "devdoc": {
    "kind": "dev",
    "methods": {
      "approve(address,uint256)": {
        "details": "See {IERC721-approve}."
      },
      "balanceOf(address)": {
        "details": "See {IERC721-balanceOf}."
      },
      "baseURI()": {
        "details": "Returns the base URI set via {_setBaseURI}. This will be automatically added as a prefix in {tokenURI} to each token's URI, or to the token ID if no specific URI is set for that token ID."
      },
      "getApproved(uint256)": {
        "details": "See {IERC721-getApproved}."
      },
      "isApprovedForAll(address,address)": {
        "details": "See {IERC721-isApprovedForAll}."
      },
      "name()": {
        "details": "See {IERC721Metadata-name}."
      },
      "owner()": {
        "details": "Returns the address of the current owner."
      },
      "ownerOf(uint256)": {
        "details": "See {IERC721-ownerOf}."
      },
      "renounceOwnership()": {
        "details": "Leaves the contract without owner. It will not be possible to call `onlyOwner` functions anymore. Can only be called by the current owner. NOTE: Renouncing ownership will leave the contract without an owner, thereby removing any functionality that is only available to the owner."
      },
      "safeTransferFrom(address,address,uint256)": {
        "details": "See {IERC721-safeTransferFrom}."
      },
      "safeTransferFrom(address,address,uint256,bytes)": {
        "details": "See {IERC721-safeTransferFrom}."
      },
      "setApprovalForAll(address,bool)": {
        "details": "See {IERC721-setApprovalForAll}."
      },
      "supportsInterface(bytes4)": {
        "details": "See {IERC165-supportsInterface}. Time complexity O(1), guaranteed to always use less than 30 000 gas."
      },
      "symbol()": {
        "details": "See {IERC721Metadata-symbol}."
      },
      "tokenByIndex(uint256)": {
        "details": "See {IERC721Enumerable-tokenByIndex}."
      },
      "tokenOfOwnerByIndex(address,uint256)": {
        "details": "See {IERC721Enumerable-tokenOfOwnerByIndex}."
      },
      "tokenURI(uint256)": {
        "details": "See {IERC721Metadata-tokenURI}."
      },
      "totalSupply()": {
        "details": "See {IERC721Enumerable-totalSupply}."
      },
      "transferFrom(address,address,uint256)": {
        "details": "See {IERC721-transferFrom}."
      },
      "transferOwnership(address)": {
        "details": "Transfers ownership of the contract to a new account (`newOwner`). Can only be called by the current owner."
      }
    },
    "version": 1
  },
  "userdoc": {
    "kind": "user",
    "methods": {},
    "version": 1
  }
}