{
  "contractName": "Color",
  "abi": [
    {
      "inputs": [],
      "stateMutability": "nonpayable",
      "type": "constructor"
    },
    {
      "anonymous": false,
      "inputs": [
        {
          "indexed": true,
          "internalType": "address",
          "name": "owner",
          "type": "address"
        },
        {
          "indexed": true,
          "internalType": "address",
          "name": "approved",
          "type": "address"
        },
        {
          "indexed": true,
          "internalType": "uint256",
          "name": "tokenId",
          "type": "uint256"
        }
      ],
      "name": "Approval",
      "type": "event"
    },
    {
      "anonymous": false,
      "inputs": [
        {
          "indexed": true,
          "internalType": "address",
          "name": "owner",
          "type": "address"
        },
        {
          "indexed": true,
          "internalType": "address",
          "name": "operator",
          "type": "address"
        },
        {
          "indexed": false,
          "internalType": "bool",
          "name": "approved",
          "type": "bool"
        }
      ],
      "name": "ApprovalForAll",
      "type": "event"
    },
    {
      "anonymous": false,
      "inputs": [
        {
          "indexed": true,
          "internalType": "address",
          "name": "by",
          "type": "address"
        }
      ],
      "name": "ClearCanvas",
      "type": "event"
    },
    {
      "anonymous": false,
      "inputs": [
        {
          "indexed": false,
          "internalType": "uint256",
          "name": "tokenId",
          "type": "uint256"
        },
        {
          "indexed": false,
          "internalType": "address",
          "name": "mintedBy",
          "type": "address"
        },
        {
          "indexed": false,
          "internalType": "uint256",
          "name": "nEtherbrights",
          "type": "uint256"
        }
      ],
      "name": "EtherbrightMinted",
      "type": "event"
    },
    {
      "anonymous": false,
      "inputs": [
        {
          "indexed": false,
          "internalType": "uint256",
          "name": "tokenId",
          "type": "uint256"
        },
        {
          "indexed": false,
          "internalType": "uint256",
          "name": "pn",
          "type": "uint256"
        },
        {
          "indexed": false,
          "internalType": "string",
          "name": "from",
          "type": "string"
        },
        {
          "indexed": false,
          "internalType": "string",
          "name": "to",
          "type": "string"
        },
        {
          "indexed": true,
          "internalType": "address",
          "name": "by",
          "type": "address"
        }
      ],
      "name": "EtherbrightPixelChanged",
      "type": "event"
    },
    {
      "anonymous": false,
      "inputs": [
        {
          "indexed": true,
          "internalType": "address",
          "name": "previousOwner",
          "type": "address"
        },
        {
          "indexed": true,
          "internalType": "address",
          "name": "newOwner",
          "type": "address"
        }
      ],
      "name": "OwnershipTransferred",
      "type": "event"
    },
    {
      "anonymous": false,
      "inputs": [
        {
          "indexed": true,
          "internalType": "address",
          "name": "by",
          "type": "address"
        }
      ],
      "name": "ResetCanvas",
      "type": "event"
    },
    {
      "anonymous": false,
      "inputs": [
        {
          "indexed": true,
          "internalType": "address",
          "name": "from",
          "type": "address"
        },
        {
          "indexed": true,
          "internalType": "address",
          "name": "to",
          "type": "address"
        },
        {
          "indexed": true,
          "internalType": "uint256",
          "name": "tokenId",
          "type": "uint256"
        }
      ],
      "name": "Transfer",
      "type": "event"
    },
    {
      "inputs": [
        {
          "internalType": "address",
          "name": "to",
          "type": "address"
        },
        {
          "internalType": "uint256",
          "name": "tokenId",
          "type": "uint256"
        }
      ],
      "name": "approve",
      "outputs": [],
      "stateMutability": "nonpayable",
      "type": "function"
    },
    {
      "inputs": [
        {
          "internalType": "address",
          "name": "owner",
          "type": "address"
        }
      ],
      "name": "balanceOf",
      "outputs": [
        {
          "internalType": "uint256",
          "name": "",
          "type": "uint256"
        }
      ],
      "stateMutability": "view",
      "type": "function",
      "constant": true
    },
    {
      "inputs": [],
      "name": "baseURI",
      "outputs": [
        {
          "internalType": "string",
          "name": "",
          "type": "string"
        }
      ],
      "stateMutability": "view",
      "type": "function",
      "constant": true
    },
    {
      "inputs": [
        {
          "internalType": "uint256",
          "name": "tokenId",
          "type": "uint256"
        }
      ],
      "name": "getApproved",
      "outputs": [
        {
          "internalType": "address",
          "name": "",
          "type": "address"
        }
      ],
      "stateMutability": "view",
      "type": "function",
      "constant": true
    },
    {
      "inputs": [
        {
          "internalType": "address",
          "name": "owner",
          "type": "address"
        },
        {
          "internalType": "address",
          "name": "operator",
          "type": "address"
        }
      ],
      "name": "isApprovedForAll",
      "outputs": [
        {
          "internalType": "bool",
          "name": "",
          "type": "bool"
        }
      ],
      "stateMutability": "view",
      "type": "function",
      "constant": true
    },
    {
      "inputs": [],
      "name": "name",
      "outputs": [
        {
          "internalType": "string",
          "name": "",
          "type": "string"
        }
      ],
      "stateMutability": "view",
      "type": "function",
      "constant": true
    },
    {
      "inputs": [],
      "name": "numberOfEtherbrights",
      "outputs": [
        {
          "internalType": "uint256",
          "name": "",
          "type": "uint256"
        }
      ],
      "stateMutability": "view",
      "type": "function",
      "constant": true
    },
    {
      "inputs": [],
      "name": "owner",
      "outputs": [
        {
          "internalType": "address",
          "name": "",
          "type": "address"
        }
      ],
      "stateMutability": "view",
      "type": "function",
      "constant": true
    },
    {
      "inputs": [
        {
          "internalType": "uint256",
          "name": "tokenId",
          "type": "uint256"
        }
      ],
      "name": "ownerOf",
      "outputs": [
        {
          "internalType": "address",
          "name": "",
          "type": "address"
        }
      ],
      "stateMutability": "view",
      "type": "function",
      "constant": true
    },
    {
      "inputs": [],
      "name": "renounceOwnership",
      "outputs": [],
      "stateMutability": "nonpayable",
      "type": "function"
    },
    {
      "inputs": [
        {
          "internalType": "address",
          "name": "from",
          "type": "address"
        },
        {
          "internalType": "address",
          "name": "to",
          "type": "address"
        },
        {
          "internalType": "uint256",
          "name": "tokenId",
          "type": "uint256"
        }
      ],
      "name": "safeTransferFrom",
      "outputs": [],
      "stateMutability": "nonpayable",
      "type": "function"
    },
    {
      "inputs": [
        {
          "internalType": "address",
          "name": "from",
          "type": "address"
        },
        {
          "internalType": "address",
          "name": "to",
          "type": "address"
        },
        {
          "internalType": "uint256",
          "name": "tokenId",
          "type": "uint256"
        },
        {
          "internalType": "bytes",
          "name": "_data",
          "type": "bytes"
        }
      ],
      "name": "safeTransferFrom",
      "outputs": [],
      "stateMutability": "nonpayable",
      "type": "function"
    },
    {
      "inputs": [
        {
          "internalType": "address",
          "name": "operator",
          "type": "address"
        },
        {
          "internalType": "bool",
          "name": "approved",
          "type": "bool"
        }
      ],
      "name": "setApprovalForAll",
      "outputs": [],
      "stateMutability": "nonpayable",
      "type": "function"
    },
    {
      "inputs": [
        {
          "internalType": "bytes4",
          "name": "interfaceId",
          "type": "bytes4"
        }
      ],
      "name": "supportsInterface",
      "outputs": [
        {
          "internalType": "bool",
          "name": "",
          "type": "bool"
        }
      ],
      "stateMutability": "view",
      "type": "function",
      "constant": true
    },
    {
      "inputs": [],
      "name": "symbol",
      "outputs": [
        {
          "internalType": "string",
          "name": "",
          "type": "string"
        }
      ],
      "stateMutability": "view",
      "type": "function",
      "constant": true
    },
    {
      "inputs": [
        {
          "internalType": "uint256",
          "name": "index",
          "type": "uint256"
        }
      ],
      "name": "tokenByIndex",
      "outputs": [
        {
          "internalType": "uint256",
          "name": "",
          "type": "uint256"
        }
      ],
      "stateMutability": "view",
      "type": "function",
      "constant": true
    },
    {
      "inputs": [
        {
          "internalType": "address",
          "name": "owner",
          "type": "address"
        },
        {
          "internalType": "uint256",
          "name": "index",
          "type": "uint256"
        }
      ],
      "name": "tokenOfOwnerByIndex",
      "outputs": [
        {
          "internalType": "uint256",
          "name": "",
          "type": "uint256"
        }
      ],
      "stateMutability": "view",
      "type": "function",
      "constant": true
    },
    {
      "inputs": [
        {
          "internalType": "uint256",
          "name": "tokenId",
          "type": "uint256"
        }
      ],
      "name": "tokenURI",
      "outputs": [
        {
          "internalType": "string",
          "name": "",
          "type": "string"
        }
      ],
      "stateMutability": "view",
      "type": "function",
      "constant": true
    },
    {
      "inputs": [],
      "name": "totalSupply",
      "outputs": [
        {
          "internalType": "uint256",
          "name": "",
          "type": "uint256"
        }
      ],
      "stateMutability": "view",
      "type": "function",
      "constant": true
    },
    {
      "inputs": [
        {
          "internalType": "address",
          "name": "from",
          "type": "address"
        },
        {
          "internalType": "address",
          "name": "to",
          "type": "address"
        },
        {
          "internalType": "uint256",
          "name": "tokenId",
          "type": "uint256"
        }
      ],
      "name": "transferFrom",
      "outputs": [],
      "stateMutability": "nonpayable",
      "type": "function"
    },
    {
      "inputs": [
        {
          "internalType": "address",
          "name": "newOwner",
          "type": "address"
        }
      ],
      "name": "transferOwnership",
      "outputs": [],
      "stateMutability": "nonpayable",
      "type": "function"
    },
    {
      "inputs": [
        {
          "internalType": "address",
          "name": "to",
          "type": "address"
        }
      ],
      "name": "mintEtherbright",
      "outputs": [],
      "stateMutability": "nonpayable",
      "type": "function"
    },
    {
      "inputs": [
        {
          "internalType": "uint256",
          "name": "_tokenId",
          "type": "uint256"
        },
        {
          "internalType": "uint256",
          "name": "_pixn",
          "type": "uint256"
        },
        {
          "internalType": "uint256",
          "name": "_palletN",
          "type": "uint256"
        }
      ],
      "name": "setEtherbrightPixel",
      "outputs": [],
      "stateMutability": "nonpayable",
      "type": "function"
    },
    {
      "inputs": [
        {
          "internalType": "uint256",
          "name": "_tokenId",
          "type": "uint256"
        },
        {
          "internalType": "uint256",
          "name": "pn",
          "type": "uint256"
        }
      ],
      "name": "getEtherbrightPixelColor",
      "outputs": [
        {
          "internalType": "string",
          "name": "",
          "type": "string"
        }
      ],
      "stateMutability": "nonpayable",
      "type": "function"
    },
    {
      "inputs": [
        {
          "internalType": "uint256",
          "name": "_tokenId",
          "type": "uint256"
        }
      ],
      "name": "getEtherbrightPallet",
      "outputs": [
        {
          "internalType": "string[]",
          "name": "",
          "type": "string[]"
        }
      ],
      "stateMutability": "nonpayable",
      "type": "function"
    },
    {
      "inputs": [
        {
          "internalType": "uint256",
          "name": "_tokenId",
          "type": "uint256"
        }
      ],
      "name": "getEtherbrightPixels",
      "outputs": [
        {
          "internalType": "string[]",
          "name": "",
          "type": "string[]"
        }
      ],
      "stateMutability": "nonpayable",
      "type": "function"
    }
  ],
  "bytecode": "0x60806040526000600b556005600c556005600d55600d54600c5402600e553480156200002a57600080fd5b506040518060400160405280600581526020017f436f6c6f720000000000000000000000000000000000000000000000000000008152506040518060400160405280600581526020017f434f4c4f52000000000000000000000000000000000000000000000000000000815250620000af6301ffc9a760e01b620001e260201b60201c565b8160069080519060200190620000c7929190620002f3565b508060079080519060200190620000e0929190620002f3565b50620000f96380ac58cd60e01b620001e260201b60201c565b62000111635b5e139f60e01b620001e260201b60201c565b6200012963780e9d6360e01b620001e260201b60201c565b505060006200013d620002eb60201b60201c565b905080600a60006101000a81548173ffffffffffffffffffffffffffffffffffffffff021916908373ffffffffffffffffffffffffffffffffffffffff1602179055508073ffffffffffffffffffffffffffffffffffffffff16600073ffffffffffffffffffffffffffffffffffffffff167f8be0079c531659141344cd1fd0a4f28419497f9722a3daafe3b4186f6b6457e060405160405180910390a350620003a9565b63ffffffff60e01b817bffffffffffffffffffffffffffffffffffffffffffffffffffffffff191614156200027f576040517f08c379a000000000000000000000000000000000000000000000000000000000815260040180806020018281038252601c8152602001807f4552433136353a20696e76616c696420696e746572666163652069640000000081525060200191505060405180910390fd5b6001600080837bffffffffffffffffffffffffffffffffffffffffffffffffffffffff19167bffffffffffffffffffffffffffffffffffffffffffffffffffffffff1916815260200190815260200160002060006101000a81548160ff02191690831515021790555050565b600033905090565b828054600181600116156101000203166002900490600052602060002090601f0160209004810192826200032b576000855562000377565b82601f106200034657805160ff191683800117855562000377565b8280016001018555821562000377579182015b828111156200037657825182559160200191906001019062000359565b5b5090506200038691906200038a565b5090565b5b80821115620003a55760008160009055506001016200038b565b5090565b6158e180620003b96000396000f3fe608060405234801561001057600080fd5b506004361061018e5760003560e01c80636352211e116100de57806395d89b4111610097578063b88d4fde11610071578063b88d4fde146104a9578063c87b56dd146104c5578063e985e9c5146104f5578063f2fde38b146105255761018e565b806395d89b4114610451578063a22cb4651461046f578063b1d22c4c1461048b5761018e565b80636352211e1461038f578063643c6dd9146103bf5780636c0360eb146103db57806370a08231146103f9578063715018a6146104295780638da5cb5b146104335761018e565b806323b872dd1161014b5780633efd80d1116101255780633efd80d1146102f757806342842e0e146103275780634f6ccce7146103435780635df3efd9146103735761018e565b806323b872dd1461027b5780632f745c591461029757806332e02285146102c75761018e565b806301ffc9a71461019357806306fdde03146101c3578063081812fc146101e1578063095ea7b31461021157806318160ddd1461022d5780631a8f37c81461024b575b600080fd5b6101ad60048036038101906101a89190614fb8565b610541565b6040516101ba91906152ef565b60405180910390f35b6101cb6105a8565b6040516101d8919061530a565b60405180910390f35b6101fb60048036038101906101f69190614fe1565b61064a565b60405161020891906152b2565b60405180910390f35b61022b60048036038101906102269190614f7c565b6106e5565b005b610235610829565b604051610242919061536c565b60405180910390f35b61026560048036038101906102609190614fe1565b61083a565b60405161027291906152cd565b60405180910390f35b61029560048036038101906102909190614e76565b610939565b005b6102b160048036038101906102ac9190614f7c565b6109af565b6040516102be919061536c565b60405180910390f35b6102e160048036038101906102dc9190614fe1565b610a0a565b6040516102ee91906152cd565b60405180910390f35b610311600480360381019061030c919061500a565b610b09565b60405161031e919061530a565b60405180910390f35b610341600480360381019061033c9190614e76565b610bd7565b005b61035d60048036038101906103589190614fe1565b610bf7565b60405161036a919061536c565b60405180910390f35b61038d60048036038101906103889190615046565b610c1a565b005b6103a960048036038101906103a49190614fe1565b610e45565b6040516103b691906152b2565b60405180910390f35b6103d960048036038101906103d49190614e11565b610e7c565b005b6103e3610fb3565b6040516103f0919061530a565b60405180910390f35b610413600480360381019061040e9190614e11565b611055565b604051610420919061536c565b60405180910390f35b61043161112a565b005b61043b61129a565b60405161044891906152b2565b60405180910390f35b6104596112c4565b604051610466919061530a565b60405180910390f35b61048960048036038101906104849190614f40565b611366565b005b61049361151c565b6040516104a0919061536c565b60405180910390f35b6104c360048036038101906104be9190614ec5565b611522565b005b6104df60048036038101906104da9190614fe1565b61159a565b6040516104ec919061530a565b60405180910390f35b61050f600480360381019061050a9190614e3a565b61186b565b60405161051c91906152ef565b60405180910390f35b61053f600480360381019061053a9190614e11565b6118ff565b005b6000806000837bffffffffffffffffffffffffffffffffffffffffffffffffffffffff19167bffffffffffffffffffffffffffffffffffffffffffffffffffffffff1916815260200190815260200160002060009054906101000a900460ff169050919050565b606060068054600181600116156101000203166002900480601f0160208091040260200160405190810160405280929190818152602001828054600181600116156101000203166002900480156106405780601f1061061557610100808354040283529160200191610640565b820191906000526020600020905b81548152906001019060200180831161062357829003601f168201915b5050505050905090565b600061065582611af4565b6106aa576040517f08c379a000000000000000000000000000000000000000000000000000000000815260040180806020018281038252602c8152602001806157d6602c913960400191505060405180910390fd5b6004600083815260200190815260200160002060009054906101000a900473ffffffffffffffffffffffffffffffffffffffff169050919050565b60006106f082610e45565b90508073ffffffffffffffffffffffffffffffffffffffff168373ffffffffffffffffffffffffffffffffffffffff161415610777576040517f08c379a000000000000000000000000000000000000000000000000000000000815260040180806020018281038252602181526020018061585a6021913960400191505060405180910390fd5b8073ffffffffffffffffffffffffffffffffffffffff16610796611b11565b73ffffffffffffffffffffffffffffffffffffffff1614806107c557506107c4816107bf611b11565b61186b565b5b61081a576040517f08c379a00000000000000000000000000000000000000000000000000000000081526004018080602001828103825260388152602001806157296038913960400191505060405180910390fd5b6108248383611b19565b505050565b60006108356002611bd2565b905090565b606060106000838152602001908152602001600020600101805480602002602001604051908101604052809291908181526020016000905b8282101561092e578382906000526020600020018054600181600116156101000203166002900480601f01602080910402602001604051908101604052809291908181526020018280546001816001161561010002031660029004801561091a5780601f106108ef5761010080835404028352916020019161091a565b820191906000526020600020905b8154815290600101906020018083116108fd57829003601f168201915b505050505081526020019060010190610872565b505050509050919050565b61094a610944611b11565b82611be7565b61099f576040517f08c379a000000000000000000000000000000000000000000000000000000000815260040180806020018281038252603181526020018061587b6031913960400191505060405180910390fd5b6109aa838383611cdb565b505050565b6000610a0282600160008673ffffffffffffffffffffffffffffffffffffffff1673ffffffffffffffffffffffffffffffffffffffff168152602001908152602001600020611f1e90919063ffffffff16565b905092915050565b606060106000838152602001908152602001600020600001805480602002602001604051908101604052809291908181526020016000905b82821015610afe578382906000526020600020018054600181600116156101000203166002900480601f016020809104026020016040519081016040528092919081815260200182805460018160011615610100020316600290048015610aea5780601f10610abf57610100808354040283529160200191610aea565b820191906000526020600020905b815481529060010190602001808311610acd57829003601f168201915b505050505081526020019060010190610a42565b505050509050919050565b6060601060008481526020019081526020016000206000018281548110610b2c57fe5b906000526020600020018054600181600116156101000203166002900480601f016020809104026020016040519081016040528092919081815260200182805460018160011615610100020316600290048015610bca5780601f10610b9f57610100808354040283529160200191610bca565b820191906000526020600020905b815481529060010190602001808311610bad57829003601f168201915b5050505050905092915050565b610bf283838360405180602001604052806000815250611522565b505050565b600080610c0e836002611f3890919063ffffffff16565b50905080915050919050565b6060601060008581526020019081526020016000206000018381548110610c3d57fe5b906000526020600020018054600181600116156101000203166002900480601f016020809104026020016040519081016040528092919081815260200182805460018160011615610100020316600290048015610cdb5780601f10610cb057610100808354040283529160200191610cdb565b820191906000526020600020905b815481529060010190602001808311610cbe57829003601f168201915b505050505090506060601060008681526020019081526020016000206001018381548110610d0557fe5b906000526020600020018054600181600116156101000203166002900480601f016020809104026020016040519081016040528092919081815260200182805460018160011615610100020316600290048015610da35780601f10610d7857610100808354040283529160200191610da3565b820191906000526020600020905b815481529060010190602001808311610d8657829003601f168201915b5050505050905080601060008781526020019081526020016000206000018581548110610dcc57fe5b906000526020600020019080519060200190610de9929190614b35565b503373ffffffffffffffffffffffffffffffffffffffff167f7620784a76887cea6e6fecdb5593e87dbb8f0770dcab06d3e854c308674f1d7186868585604051610e3694939291906153be565b60405180910390a25050505050565b6000610e758260405180606001604052806029815260200161578b602991396002611f649092919063ffffffff16565b9050919050565b60004282604051602001610e91929190615286565b60405160208183030381529060405280519060200120905060008160001c90506000610fa08281610ebe57fe5b069050610ec9614bc3565b8181606001818152505080601060008581526020019081526020016000206000820151816000019080519060200190610f03929190614beb565b506020820151816001019080519060200190610f20929190614beb565b506040820151816002019080519060200190610f3d929190614beb565b5060608201518160030155905050610f5483611f83565b610f5e3384611f98565b6001600b600082825401925050819055507fc6a9fee4685459422a48632aa9afdc862bedbbb8e442df17ff5e51e0011ae5318386600b54604051610fa493929190615387565b60405180910390a15050505050565b606060098054600181600116156101000203166002900480601f01602080910402602001604051908101604052809291908181526020018280546001816001161561010002031660029004801561104b5780601f106110205761010080835404028352916020019161104b565b820191906000526020600020905b81548152906001019060200180831161102e57829003601f168201915b5050505050905090565b60008073ffffffffffffffffffffffffffffffffffffffff168273ffffffffffffffffffffffffffffffffffffffff1614156110dc576040517f08c379a000000000000000000000000000000000000000000000000000000000815260040180806020018281038252602a815260200180615761602a913960400191505060405180910390fd5b611123600160008473ffffffffffffffffffffffffffffffffffffffff1673ffffffffffffffffffffffffffffffffffffffff16815260200190815260200160002061218c565b9050919050565b611132611b11565b73ffffffffffffffffffffffffffffffffffffffff1661115061129a565b73ffffffffffffffffffffffffffffffffffffffff16146111d9576040517f08c379a00000000000000000000000000000000000000000000000000000000081526004018080602001828103825260208152602001807f4f776e61626c653a2063616c6c6572206973206e6f7420746865206f776e657281525060200191505060405180910390fd5b600073ffffffffffffffffffffffffffffffffffffffff16600a60009054906101000a900473ffffffffffffffffffffffffffffffffffffffff1673ffffffffffffffffffffffffffffffffffffffff167f8be0079c531659141344cd1fd0a4f28419497f9722a3daafe3b4186f6b6457e060405160405180910390a36000600a60006101000a81548173ffffffffffffffffffffffffffffffffffffffff021916908373ffffffffffffffffffffffffffffffffffffffff160217905550565b6000600a60009054906101000a900473ffffffffffffffffffffffffffffffffffffffff16905090565b606060078054600181600116156101000203166002900480601f01602080910402602001604051908101604052809291908181526020018280546001816001161561010002031660029004801561135c5780601f106113315761010080835404028352916020019161135c565b820191906000526020600020905b81548152906001019060200180831161133f57829003601f168201915b5050505050905090565b61136e611b11565b73ffffffffffffffffffffffffffffffffffffffff168273ffffffffffffffffffffffffffffffffffffffff16141561140f576040517f08c379a00000000000000000000000000000000000000000000000000000000081526004018080602001828103825260198152602001807f4552433732313a20617070726f766520746f2063616c6c65720000000000000081525060200191505060405180910390fd5b806005600061141c611b11565b73ffffffffffffffffffffffffffffffffffffffff1673ffffffffffffffffffffffffffffffffffffffff16815260200190815260200160002060008473ffffffffffffffffffffffffffffffffffffffff1673ffffffffffffffffffffffffffffffffffffffff16815260200190815260200160002060006101000a81548160ff0219169083151502179055508173ffffffffffffffffffffffffffffffffffffffff166114c9611b11565b73ffffffffffffffffffffffffffffffffffffffff167f17307eab39ab6107e8899845ad3d59bd9653f200f220920489ca2b5937696c318360405180821515815260200191505060405180910390a35050565b600b5481565b61153361152d611b11565b83611be7565b611588576040517f08c379a000000000000000000000000000000000000000000000000000000000815260040180806020018281038252603181526020018061587b6031913960400191505060405180910390fd5b611594848484846121a1565b50505050565b60606115a582611af4565b6115fa576040517f08c379a000000000000000000000000000000000000000000000000000000000815260040180806020018281038252602f81526020018061582b602f913960400191505060405180910390fd5b6060600860008481526020019081526020016000208054600181600116156101000203166002900480601f0160208091040260200160405190810160405280929190818152602001828054600181600116156101000203166002900480156116a35780601f10611678576101008083540402835291602001916116a3565b820191906000526020600020905b81548152906001019060200180831161168657829003601f168201915b5050505050905060606116b4610fb3565b90506000815114156116ca578192505050611866565b60008251111561179b5780826040516020018083805190602001908083835b6020831061170c57805182526020820191506020810190506020830392506116e9565b6001836020036101000a03801982511681845116808217855250505050505090500182805190602001908083835b6020831061175d578051825260208201915060208101905060208303925061173a565b6001836020036101000a0380198251168184511680821785525050505050509050019250505060405160208183030381529060405292505050611866565b806117a585612213565b6040516020018083805190602001908083835b602083106117db57805182526020820191506020810190506020830392506117b8565b6001836020036101000a03801982511681845116808217855250505050505090500182805190602001908083835b6020831061182c5780518252602082019150602081019050602083039250611809565b6001836020036101000a03801982511681845116808217855250505050505090500192505050604051602081830303815290604052925050505b919050565b6000600560008473ffffffffffffffffffffffffffffffffffffffff1673ffffffffffffffffffffffffffffffffffffffff16815260200190815260200160002060008373ffffffffffffffffffffffffffffffffffffffff1673ffffffffffffffffffffffffffffffffffffffff16815260200190815260200160002060009054906101000a900460ff16905092915050565b611907611b11565b73ffffffffffffffffffffffffffffffffffffffff1661192561129a565b73ffffffffffffffffffffffffffffffffffffffff16146119ae576040517f08c379a00000000000000000000000000000000000000000000000000000000081526004018080602001828103825260208152602001807f4f776e61626c653a2063616c6c6572206973206e6f7420746865206f776e657281525060200191505060405180910390fd5b600073ffffffffffffffffffffffffffffffffffffffff168173ffffffffffffffffffffffffffffffffffffffff161415611a34576040517f08c379a000000000000000000000000000000000000000000000000000000000815260040180806020018281038252602681526020018061568d6026913960400191505060405180910390fd5b8073ffffffffffffffffffffffffffffffffffffffff16600a60009054906101000a900473ffffffffffffffffffffffffffffffffffffffff1673ffffffffffffffffffffffffffffffffffffffff167f8be0079c531659141344cd1fd0a4f28419497f9722a3daafe3b4186f6b6457e060405160405180910390a380600a60006101000a81548173ffffffffffffffffffffffffffffffffffffffff021916908373ffffffffffffffffffffffffffffffffffffffff16021790555050565b6000611b0a82600261235a90919063ffffffff16565b9050919050565b600033905090565b816004600083815260200190815260200160002060006101000a81548173ffffffffffffffffffffffffffffffffffffffff021916908373ffffffffffffffffffffffffffffffffffffffff160217905550808273ffffffffffffffffffffffffffffffffffffffff16611b8c83610e45565b73ffffffffffffffffffffffffffffffffffffffff167f8c5be1e5ebec7d5bd14f71427d1e84f3dd0314c0f7b2291e5b200ac8c7c3b92560405160405180910390a45050565b6000611be082600001612374565b9050919050565b6000611bf282611af4565b611c47576040517f08c379a000000000000000000000000000000000000000000000000000000000815260040180806020018281038252602c8152602001806156fd602c913960400191505060405180910390fd5b6000611c5283610e45565b90508073ffffffffffffffffffffffffffffffffffffffff168473ffffffffffffffffffffffffffffffffffffffff161480611cc157508373ffffffffffffffffffffffffffffffffffffffff16611ca98461064a565b73ffffffffffffffffffffffffffffffffffffffff16145b80611cd25750611cd1818561186b565b5b91505092915050565b8273ffffffffffffffffffffffffffffffffffffffff16611cfb82610e45565b73ffffffffffffffffffffffffffffffffffffffff1614611d67576040517f08c379a00000000000000000000000000000000000000000000000000000000081526004018080602001828103825260298152602001806158026029913960400191505060405180910390fd5b600073ffffffffffffffffffffffffffffffffffffffff168273ffffffffffffffffffffffffffffffffffffffff161415611ded576040517f08c379a00000000000000000000000000000000000000000000000000000000081526004018080602001828103825260248152602001806156b36024913960400191505060405180910390fd5b611df8838383612385565b611e03600082611b19565b611e5481600160008673ffffffffffffffffffffffffffffffffffffffff1673ffffffffffffffffffffffffffffffffffffffff16815260200190815260200160002061238a90919063ffffffff16565b50611ea681600160008573ffffffffffffffffffffffffffffffffffffffff1673ffffffffffffffffffffffffffffffffffffffff1681526020019081526020016000206123a490919063ffffffff16565b50611ebd818360026123be9092919063ffffffff16565b50808273ffffffffffffffffffffffffffffffffffffffff168473ffffffffffffffffffffffffffffffffffffffff167fddf252ad1be2c89b69c2b068fc378daa952ba7f163c4a11628f55a4df523b3ef60405160405180910390a4505050565b6000611f2d83600001836123f3565b60001c905092915050565b600080600080611f4b8660000186612476565b915091508160001c8160001c9350935050509250929050565b6000611f77846000018460001b8461250f565b60001c90509392505050565b611f8c81612605565b611f9581614209565b50565b600073ffffffffffffffffffffffffffffffffffffffff168273ffffffffffffffffffffffffffffffffffffffff16141561203b576040517f08c379a00000000000000000000000000000000000000000000000000000000081526004018080602001828103825260208152602001807f4552433732313a206d696e7420746f20746865207a65726f206164647265737381525060200191505060405180910390fd5b61204481611af4565b156120b7576040517f08c379a000000000000000000000000000000000000000000000000000000000815260040180806020018281038252601c8152602001807f4552433732313a20746f6b656e20616c7265616479206d696e7465640000000081525060200191505060405180910390fd5b6120c360008383612385565b61211481600160008573ffffffffffffffffffffffffffffffffffffffff1673ffffffffffffffffffffffffffffffffffffffff1681526020019081526020016000206123a490919063ffffffff16565b5061212b818360026123be9092919063ffffffff16565b50808273ffffffffffffffffffffffffffffffffffffffff16600073ffffffffffffffffffffffffffffffffffffffff167fddf252ad1be2c89b69c2b068fc378daa952ba7f163c4a11628f55a4df523b3ef60405160405180910390a45050565b600061219a8260000161434d565b9050919050565b6121ac848484611cdb565b6121b88484848461435e565b61220d576040517f08c379a000000000000000000000000000000000000000000000000000000000815260040180806020018281038252603281526020018061565b6032913960400191505060405180910390fd5b50505050565b6060600082141561225b576040518060400160405280600181526020017f30000000000000000000000000000000000000000000000000000000000000008152509050612355565b600082905060005b60008214612285578080600101915050600a828161227d57fe5b049150612263565b60608167ffffffffffffffff8111801561229e57600080fd5b506040519080825280601f01601f1916602001820160405280156122d15781602001600182028036833780820191505090505b50905060006001830390508593505b6000841461234d57600a84816122f257fe5b0660300160f81b8282806001900393508151811061230c57fe5b60200101907effffffffffffffffffffffffffffffffffffffffffffffffffffffffffffff1916908160001a905350600a848161234557fe5b0493506122e0565b819450505050505b919050565b600061236c836000018360001b614577565b905092915050565b600081600001805490509050919050565b505050565b600061239c836000018360001b61459a565b905092915050565b60006123b6836000018360001b614682565b905092915050565b60006123ea846000018460001b8473ffffffffffffffffffffffffffffffffffffffff1660001b6146f2565b90509392505050565b600081836000018054905011612454576040517f08c379a00000000000000000000000000000000000000000000000000000000081526004018080602001828103825260228152602001806156396022913960400191505060405180910390fd5b82600001828154811061246357fe5b9060005260206000200154905092915050565b600080828460000180549050116124d8576040517f08c379a00000000000000000000000000000000000000000000000000000000081526004018080602001828103825260228152602001806157b46022913960400191505060405180910390fd5b60008460000184815481106124e957fe5b906000526020600020906002020190508060000154816001015492509250509250929050565b600080846001016000858152602001908152602001600020549050600081141583906125d6576040517f08c379a00000000000000000000000000000000000000000000000000000000081526004018080602001828103825283818151815260200191508051906020019080838360005b8381101561259b578082015181840152602081019050612580565b50505050905090810190601f1680156125c85780820380516001836020036101000a031916815260200191505b509250505060405180910390fd5b508460000160018203815481106125e957fe5b9060005260206000209060020201600101549150509392505050565b60006126318260405160200161261b919061526b565b60405160208183030381529060405260016147ce565b905060008160ff161015801561264a575060558160ff16105b15612e74576010600083815260200190815260200160002060010180600181540180825580915050600190039060005260206000200160006040518060400160405280600781526020017f2330303030303000000000000000000000000000000000000000000000000000815250909190915090805190602001906126d0929190614b35565b506010600083815260200190815260200160002060010180600181540180825580915050600190039060005260206000200160006040518060400160405280600781526020017f236666303030300000000000000000000000000000000000000000000000000081525090919091509080519060200190612752929190614b35565b506010600083815260200190815260200160002060010180600181540180825580915050600190039060005260206000200160006040518060400160405280600781526020017f2366663737303000000000000000000000000000000000000000000000000000815250909190915090805190602001906127d4929190614b35565b506010600083815260200190815260200160002060010180600181540180825580915050600190039060005260206000200160006040518060400160405280600781526020017f236666646430300000000000000000000000000000000000000000000000000081525090919091509080519060200190612856929190614b35565b506010600083815260200190815260200160002060010180600181540180825580915050600190039060005260206000200160006040518060400160405280600781526020017f2365616666303000000000000000000000000000000000000000000000000000815250909190915090805190602001906128d8929190614b35565b506010600083815260200190815260200160002060010180600181540180825580915050600190039060005260206000200160006040518060400160405280600781526020017f23613266663030000000000000000000000000000000000000000000000000008152509091909150908051906020019061295a929190614b35565b506010600083815260200190815260200160002060010180600181540180825580915050600190039060005260206000200160006040518060400160405280600781526020017f2332366666303000000000000000000000000000000000000000000000000000815250909190915090805190602001906129dc929190614b35565b506010600083815260200190815260200160002060010180600181540180825580915050600190039060005260206000200160006040518060400160405280600781526020017f233030666634630000000000000000000000000000000000000000000000000081525090919091509080519060200190612a5e929190614b35565b506010600083815260200190815260200160002060010180600181540180825580915050600190039060005260206000200160006040518060400160405280600781526020017f233030666661360000000000000000000000000000000000000000000000000081525090919091509080519060200190612ae0929190614b35565b506010600083815260200190815260200160002060010180600181540180825580915050600190039060005260206000200160006040518060400160405280600781526020017f233030666664640000000000000000000000000000000000000000000000000081525090919091509080519060200190612b62929190614b35565b506010600083815260200190815260200160002060010180600181540180825580915050600190039060005260206000200160006040518060400160405280600781526020017f233030643066660000000000000000000000000000000000000000000000000081525090919091509080519060200190612be4929190614b35565b506010600083815260200190815260200160002060010180600181540180825580915050600190039060005260206000200160006040518060400160405280600781526020017f233030353566660000000000000000000000000000000000000000000000000081525090919091509080519060200190612c66929190614b35565b506010600083815260200190815260200160002060010180600181540180825580915050600190039060005260206000200160006040518060400160405280600781526020017f233135303066660000000000000000000000000000000000000000000000000081525090919091509080519060200190612ce8929190614b35565b506010600083815260200190815260200160002060010180600181540180825580915050600190039060005260206000200160006040518060400160405280600781526020017f233666303066660000000000000000000000000000000000000000000000000081525090919091509080519060200190612d6a929190614b35565b506010600083815260200190815260200160002060010180600181540180825580915050600190039060005260206000200160006040518060400160405280600781526020017f236262303066660000000000000000000000000000000000000000000000000081525090919091509080519060200190612dec929190614b35565b506010600083815260200190815260200160002060010180600181540180825580915050600190039060005260206000200160006040518060400160405280600781526020017f236666303066370000000000000000000000000000000000000000000000000081525090919091509080519060200190612e6e929190614b35565b50614205565b60558160ff1610158015612e8b5750605f8160ff16105b156136b5576010600083815260200190815260200160002060010180600181540180825580915050600190039060005260206000200160006040518060400160405280600781526020017f233030303030300000000000000000000000000000000000000000000000000081525090919091509080519060200190612f11929190614b35565b506010600083815260200190815260200160002060010180600181540180825580915050600190039060005260206000200160006040518060400160405280600781526020017f236666373537350000000000000000000000000000000000000000000000000081525090919091509080519060200190612f93929190614b35565b506010600083815260200190815260200160002060010180600181540180825580915050600190039060005260206000200160006040518060400160405280600781526020017f236666373563660000000000000000000000000000000000000000000000000081525090919091509080519060200190613015929190614b35565b506010600083815260200190815260200160002060010180600181540180825580915050600190039060005260206000200160006040518060400160405280600781526020017f236636373566660000000000000000000000000000000000000000000000000081525090919091509080519060200190613097929190614b35565b506010600083815260200190815260200160002060010180600181540180825580915050600190039060005260206000200160006040518060400160405280600781526020017f236266373566660000000000000000000000000000000000000000000000000081525090919091509080519060200190613119929190614b35565b506010600083815260200190815260200160002060010180600181540180825580915050600190039060005260206000200160006040518060400160405280600781526020017f23373537376666000000000000000000000000000000000000000000000000008152509091909150908051906020019061319b929190614b35565b506010600083815260200190815260200160002060010180600181540180825580915050600190039060005260206000200160006040518060400160405280600781526020017f23373563366666000000000000000000000000000000000000000000000000008152509091909150908051906020019061321d929190614b35565b506010600083815260200190815260200160002060010180600181540180825580915050600190039060005260206000200160006040518060400160405280600781526020017f23373566646666000000000000000000000000000000000000000000000000008152509091909150908051906020019061329f929190614b35565b506010600083815260200190815260200160002060010180600181540180825580915050600190039060005260206000200160006040518060400160405280600781526020017f233735666663630000000000000000000000000000000000000000000000000081525090919091509080519060200190613321929190614b35565b506010600083815260200190815260200160002060010180600181540180825580915050600190039060005260206000200160006040518060400160405280600781526020017f2337356666376100000000000000000000000000000000000000000000000000815250909190915090805190602001906133a3929190614b35565b506010600083815260200190815260200160002060010180600181540180825580915050600190039060005260206000200160006040518060400160405280600781526020017f236163666637350000000000000000000000000000000000000000000000000081525090919091509080519060200190613425929190614b35565b506010600083815260200190815260200160002060010180600181540180825580915050600190039060005260206000200160006040518060400160405280600781526020017f2365386666373500000000000000000000000000000000000000000000000000815250909190915090805190602001906134a7929190614b35565b506010600083815260200190815260200160002060010180600181540180825580915050600190039060005260206000200160006040518060400160405280600781526020017f236666663137350000000000000000000000000000000000000000000000000081525090919091509080519060200190613529929190614b35565b506010600083815260200190815260200160002060010180600181540180825580915050600190039060005260206000200160006040518060400160405280600781526020017f2366666433373500000000000000000000000000000000000000000000000000815250909190915090805190602001906135ab929190614b35565b506010600083815260200190815260200160002060010180600181540180825580915050600190039060005260206000200160006040518060400160405280600781526020017f23303066663030000000000000000000000000000000000000000000000000008152509091909150908051906020019061362d929190614b35565b506010600083815260200190815260200160002060010180600181540180825580915050600190039060005260206000200160006040518060400160405280600781526020017f2366663935373500000000000000000000000000000000000000000000000000815250909190915090805190602001906136af929190614b35565b50614204565b605f8160ff16101580156136cc575060c38160ff16105b156139e2576010600083815260200190815260200160002060010180600181540180825580915050600190039060005260206000200160006040518060400160405280600781526020017f233030303030300000000000000000000000000000000000000000000000000081525090919091509080519060200190613752929190614b35565b506010600083815260200190815260200160002060010180600181540180825580915050600190039060005260206000200160006040518060400160405280600781526020017f2366666662303000000000000000000000000000000000000000000000000000815250909190915090805190602001906137d4929190614b35565b506010600083815260200190815260200160002060010180600181540180825580915050600190039060005260206000200160006040518060400160405280600781526020017f233034666630300000000000000000000000000000000000000000000000000081525090919091509080519060200190613856929190614b35565b506010600083815260200190815260200160002060010180600181540180825580915050600190039060005260206000200160006040518060400160405280600781526020017f2330383030666600000000000000000000000000000000000000000000000000815250909190915090805190602001906138d8929190614b35565b506010600083815260200190815260200160002060010180600181540180825580915050600190039060005260206000200160006040518060400160405280600781526020017f23666630306637000000000000000000000000000000000000000000000000008152509091909150908051906020019061395a929190614b35565b506010600083815260200190815260200160002060010180600181540180825580915050600190039060005260206000200160006040518060400160405280600781526020017f2366666666666600000000000000000000000000000000000000000000000000815250909190915090805190602001906139dc929190614b35565b50614203565b6010600083815260200190815260200160002060010180600181540180825580915050600190039060005260206000200160006040518060400160405280600781526020017f233030303030300000000000000000000000000000000000000000000000000081525090919091509080519060200190613a63929190614b35565b506010600083815260200190815260200160002060010180600181540180825580915050600190039060005260206000200160006040518060400160405280600781526020017f236164316331630000000000000000000000000000000000000000000000000081525090919091509080519060200190613ae5929190614b35565b506010600083815260200190815260200160002060010180600181540180825580915050600190039060005260206000200160006040518060400160405280600781526020017f236164353831630000000000000000000000000000000000000000000000000081525090919091509080519060200190613b67929190614b35565b506010600083815260200190815260200160002060010180600181540180825580915050600190039060005260206000200160006040518060400160405280600781526020017f236164393231630000000000000000000000000000000000000000000000000081525090919091509080519060200190613be9929190614b35565b506010600083815260200190815260200160002060010180600181540180825580915050600190039060005260206000200160006040518060400160405280600781526020017f233865616431630000000000000000000000000000000000000000000000000081525090919091509080519060200190613c6b929190614b35565b506010600083815260200190815260200160002060010180600181540180825580915050600190039060005260206000200160006040518060400160405280600781526020017f233163616433390000000000000000000000000000000000000000000000000081525090919091509080519060200190613ced929190614b35565b506010600083815260200190815260200160002060010180600181540180825580915050600190039060005260206000200160006040518060400160405280600781526020017f233163616436320000000000000000000000000000000000000000000000000081525090919091509080519060200190613d6f929190614b35565b506010600083815260200190815260200160002060010180600181540180825580915050600190039060005260206000200160006040518060400160405280600781526020017f233163616461620000000000000000000000000000000000000000000000000081525090919091509080519060200190613df1929190614b35565b506010600083815260200190815260200160002060010180600181540180825580915050600190039060005260206000200160006040518060400160405280600781526020017f233163366561640000000000000000000000000000000000000000000000000081525090919091509080519060200190613e73929190614b35565b506010600083815260200190815260200160002060010180600181540180825580915050600190039060005260206000200160006040518060400160405280600781526020017f233163326461640000000000000000000000000000000000000000000000000081525090919091509080519060200190613ef5929190614b35565b506010600083815260200190815260200160002060010180600181540180825580915050600190039060005260206000200160006040518060400160405280600781526020017f233438316361640000000000000000000000000000000000000000000000000081525090919091509080519060200190613f77929190614b35565b506010600083815260200190815260200160002060010180600181540180825580915050600190039060005260206000200160006040518060400160405280600781526020017f233731316361640000000000000000000000000000000000000000000000000081525090919091509080519060200190613ff9929190614b35565b506010600083815260200190815260200160002060010180600181540180825580915050600190039060005260206000200160006040518060400160405280600781526020017f23613831636164000000000000000000000000000000000000000000000000008152509091909150908051906020019061407b929190614b35565b506010600083815260200190815260200160002060010180600181540180825580915050600190039060005260206000200160006040518060400160405280600781526020017f2361643163383400000000000000000000000000000000000000000000000000815250909190915090805190602001906140fd929190614b35565b506010600083815260200190815260200160002060010180600181540180825580915050600190039060005260206000200160006040518060400160405280600781526020017f23303066663030000000000000000000000000000000000000000000000000008152509091909150908051906020019061417f929190614b35565b506010600083815260200190815260200160002060010180600181540180825580915050600190039060005260206000200160006040518060400160405280600781526020017f233030303066660000000000000000000000000000000000000000000000000081525090919091509080519060200190614201929190614b35565b505b5b5b5050565b60005b600e5481101561434957601060008381526020019081526020016000206000016010600084815260200190815260200160002060010160016003848161424e57fe5b06018154811061425a57fe5b906000526020600020019080600181540180825580915050600190039060005260206000200160009091909190915090805460018160011615610100020316600290046142a8929190614c4b565b5060106000838152602001908152602001600020600201601060008481526020019081526020016000206001016001600384816142e157fe5b0601815481106142ed57fe5b9060005260206000200190806001815401808255809150506001900390600052602060002001600090919091909150908054600181600116156101000203166002900461433b929190614c4b565b50808060010191505061420c565b5050565b600081600001805490509050919050565b600061437f8473ffffffffffffffffffffffffffffffffffffffff16614872565b61438c576001905061456f565b60606144f663150b7a0260e01b6143a1611b11565b888787604051602401808573ffffffffffffffffffffffffffffffffffffffff1681526020018473ffffffffffffffffffffffffffffffffffffffff16815260200183815260200180602001828103825283818151815260200191508051906020019080838360005b8381101561442557808201518184015260208101905061440a565b50505050905090810190601f1680156144525780820380516001836020036101000a031916815260200191505b5095505050505050604051602081830303815290604052907bffffffffffffffffffffffffffffffffffffffffffffffffffffffff19166020820180517bffffffffffffffffffffffffffffffffffffffffffffffffffffffff838183161783525050505060405180606001604052806032815260200161565b603291398773ffffffffffffffffffffffffffffffffffffffff166148859092919063ffffffff16565b9050600081806020019051602081101561450f57600080fd5b8101908080519060200190929190505050905063150b7a0260e01b7bffffffffffffffffffffffffffffffffffffffffffffffffffffffff1916817bffffffffffffffffffffffffffffffffffffffffffffffffffffffff191614925050505b949350505050565b600080836001016000848152602001908152602001600020541415905092915050565b6000808360010160008481526020019081526020016000205490506000811461467657600060018203905060006001866000018054905003905060008660000182815481106145e557fe5b906000526020600020015490508087600001848154811061460257fe5b906000526020600020018190555060018301876001016000838152602001908152602001600020819055508660000180548061463a57fe5b6001900381819060005260206000200160009055905586600101600087815260200190815260200160002060009055600194505050505061467c565b60009150505b92915050565b600061468e838361489d565b6146e75782600001829080600181540180825580915050600190039060005260206000200160009091909190915055826000018054905083600101600084815260200190815260200160002081905550600190506146ec565b600090505b92915050565b6000808460010160008581526020019081526020016000205490506000811415614799578460000160405180604001604052808681526020018581525090806001815401808255809150506001900390600052602060002090600202016000909190919091506000820151816000015560208201518160010155505084600001805490508560010160008681526020019081526020016000208190555060019150506147c7565b828560000160018303815481106147ac57fe5b90600052602060002090600202016001018190555060009150505b9392505050565b600081600183011015614816576040517f08c379a000000000000000000000000000000000000000000000000000000000815260040161480d9061532c565b60405180910390fd5b600182018351101561485d576040517f08c379a00000000000000000000000000000000000000000000000000000000081526004016148549061534c565b60405180910390fd5b60008260018501015190508091505092915050565b600080823b905060008111915050919050565b606061489484846000856148c0565b90509392505050565b600080836001016000848152602001908152602001600020541415905092915050565b60608247101561491b576040517f08c379a00000000000000000000000000000000000000000000000000000000081526004018080602001828103825260268152602001806156d76026913960400191505060405180910390fd5b61492485614872565b614996576040517f08c379a000000000000000000000000000000000000000000000000000000000815260040180806020018281038252601d8152602001807f416464726573733a2063616c6c20746f206e6f6e2d636f6e747261637400000081525060200191505060405180910390fd5b600060608673ffffffffffffffffffffffffffffffffffffffff1685876040518082805190602001908083835b602083106149e657805182526020820191506020810190506020830392506149c3565b6001836020036101000a03801982511681845116808217855250505050505090500191505060006040518083038185875af1925050503d8060008114614a48576040519150601f19603f3d011682016040523d82523d6000602084013e614a4d565b606091505b5091509150614a5d828286614a69565b92505050949350505050565b60608315614a7957829050614b2e565b600083511115614a8c5782518084602001fd5b816040517f08c379a00000000000000000000000000000000000000000000000000000000081526004018080602001828103825283818151815260200191508051906020019080838360005b83811015614af3578082015181840152602081019050614ad8565b50505050905090810190601f168015614b205780820380516001836020036101000a031916815260200191505b509250505060405180910390fd5b9392505050565b828054600181600116156101000203166002900490600052602060002090601f016020900481019282614b6b5760008555614bb2565b82601f10614b8457805160ff1916838001178555614bb2565b82800160010185558215614bb2579182015b82811115614bb1578251825591602001919060010190614b96565b5b509050614bbf9190614ce0565b5090565b6040518060800160405280606081526020016060815260200160608152602001600081525090565b828054828255906000526020600020908101928215614c3a579160200282015b82811115614c39578251829080519060200190614c29929190614b35565b5091602001919060010190614c0b565b5b509050614c479190614cfd565b5090565b828054600181600116156101000203166002900490600052602060002090601f016020900481019282614c815760008555614ccf565b82601f10614c925780548555614ccf565b82800160010185558215614ccf57600052602060002091601f016020900482015b82811115614cce578254825591600101919060010190614cb3565b5b509050614cdc9190614ce0565b5090565b5b80821115614cf9576000816000905550600101614ce1565b5090565b5b80821115614d1d5760008181614d149190614d21565b50600101614cfe565b5090565b50805460018160011615610100020316600290046000825580601f10614d475750614d66565b601f016020900490600052602060002090810190614d659190614ce0565b5b50565b600081359050614d78816155dc565b92915050565b600081359050614d8d816155f3565b92915050565b600081359050614da28161560a565b92915050565b600082601f830112614db957600080fd5b8135614dcc614dc782615442565b615411565b91508082526020830160208301858383011115614de857600080fd5b614df383828461554c565b50505092915050565b600081359050614e0b81615621565b92915050565b600060208284031215614e2357600080fd5b6000614e3184828501614d69565b91505092915050565b60008060408385031215614e4d57600080fd5b6000614e5b85828601614d69565b9250506020614e6c85828601614d69565b9150509250929050565b600080600060608486031215614e8b57600080fd5b6000614e9986828701614d69565b9350506020614eaa86828701614d69565b9250506040614ebb86828701614dfc565b9150509250925092565b60008060008060808587031215614edb57600080fd5b6000614ee987828801614d69565b9450506020614efa87828801614d69565b9350506040614f0b87828801614dfc565b925050606085013567ffffffffffffffff811115614f2857600080fd5b614f3487828801614da8565b91505092959194509250565b60008060408385031215614f5357600080fd5b6000614f6185828601614d69565b9250506020614f7285828601614d7e565b9150509250929050565b60008060408385031215614f8f57600080fd5b6000614f9d85828601614d69565b9250506020614fae85828601614dfc565b9150509250929050565b600060208284031215614fca57600080fd5b6000614fd884828501614d93565b91505092915050565b600060208284031215614ff357600080fd5b600061500184828501614dfc565b91505092915050565b6000806040838503121561501d57600080fd5b600061502b85828601614dfc565b925050602061503c85828601614dfc565b9150509250929050565b60008060006060848603121561505b57600080fd5b600061506986828701614dfc565b935050602061507a86828701614dfc565b925050604061508b86828701614dfc565b9150509250925092565b60006150a18383615153565b905092915050565b6150b2816154d8565b82525050565b6150c96150c4826154d8565b61558e565b82525050565b60006150da82615482565b6150e481856154a5565b9350836020820285016150f685615472565b8060005b8581101561513257848403895281516151138582615095565b945061511e83615498565b925060208a019950506001810190506150fa565b50829750879550505050505092915050565b61514d816154ea565b82525050565b600061515e8261548d565b61516881856154b6565b935061517881856020860161555b565b615181816155be565b840191505092915050565b60006151978261548d565b6151a181856154c7565b93506151b181856020860161555b565b6151ba816155be565b840191505092915050565b60006151d26010836154c7565b91507f746f55696e74385f6f766572666c6f77000000000000000000000000000000006000830152602082019050919050565b60006152126013836154c7565b91507f746f55696e74385f6f75744f66426f756e6473000000000000000000000000006000830152602082019050919050565b61524e81615542565b82525050565b61526561526082615542565b6155b2565b82525050565b60006152778284615254565b60208201915081905092915050565b60006152928285615254565b6020820191506152a282846150b8565b6014820191508190509392505050565b60006020820190506152c760008301846150a9565b92915050565b600060208201905081810360008301526152e781846150cf565b905092915050565b60006020820190506153046000830184615144565b92915050565b60006020820190508181036000830152615324818461518c565b905092915050565b60006020820190508181036000830152615345816151c5565b9050919050565b6000602082019050818103600083015261536581615205565b9050919050565b60006020820190506153816000830184615245565b92915050565b600060608201905061539c6000830186615245565b6153a960208301856150a9565b6153b66040830184615245565b949350505050565b60006080820190506153d36000830187615245565b6153e06020830186615245565b81810360408301526153f2818561518c565b90508181036060830152615406818461518c565b905095945050505050565b6000604051905081810181811067ffffffffffffffff82111715615438576154376155bc565b5b8060405250919050565b600067ffffffffffffffff82111561545d5761545c6155bc565b5b601f19601f8301169050602081019050919050565b6000819050602082019050919050565b600081519050919050565b600081519050919050565b6000602082019050919050565b600082825260208201905092915050565b600082825260208201905092915050565b600082825260208201905092915050565b60006154e382615522565b9050919050565b60008115159050919050565b60007fffffffff0000000000000000000000000000000000000000000000000000000082169050919050565b600073ffffffffffffffffffffffffffffffffffffffff82169050919050565b6000819050919050565b82818337600083830152505050565b60005b8381101561557957808201518184015260208101905061555e565b83811115615588576000848401525b50505050565b6000615599826155a0565b9050919050565b60006155ab826155cf565b9050919050565b6000819050919050565bfe5b6000601f19601f8301169050919050565b60008160601b9050919050565b6155e5816154d8565b81146155f057600080fd5b50565b6155fc816154ea565b811461560757600080fd5b50565b615613816154f6565b811461561e57600080fd5b50565b61562a81615542565b811461563557600080fd5b5056fe456e756d657261626c655365743a20696e646578206f7574206f6620626f756e64734552433732313a207472616e7366657220746f206e6f6e20455243373231526563656976657220696d706c656d656e7465724f776e61626c653a206e6577206f776e657220697320746865207a65726f20616464726573734552433732313a207472616e7366657220746f20746865207a65726f2061646472657373416464726573733a20696e73756666696369656e742062616c616e636520666f722063616c6c4552433732313a206f70657261746f7220717565727920666f72206e6f6e6578697374656e7420746f6b656e4552433732313a20617070726f76652063616c6c6572206973206e6f74206f776e6572206e6f7220617070726f76656420666f7220616c6c4552433732313a2062616c616e636520717565727920666f7220746865207a65726f20616464726573734552433732313a206f776e657220717565727920666f72206e6f6e6578697374656e7420746f6b656e456e756d657261626c654d61703a20696e646578206f7574206f6620626f756e64734552433732313a20617070726f76656420717565727920666f72206e6f6e6578697374656e7420746f6b656e4552433732313a207472616e73666572206f6620746f6b656e2074686174206973206e6f74206f776e4552433732314d657461646174613a2055524920717565727920666f72206e6f6e6578697374656e7420746f6b656e4552433732313a20617070726f76616c20746f2063757272656e74206f776e65724552433732313a207472616e736665722063616c6c6572206973206e6f74206f776e6572206e6f7220617070726f766564a26469706673582212207f0df7b52265c9d96602f9419f74b3ab3fca9f9aab59c677db6c9188f00fe92664736f6c63430007040033",
  "immutableReferences": {},
  "source": "pragma solidity ^0.7.4;\r\npragma experimental ABIEncoderV2;\r\n\r\nimport \"@openzeppelin/contracts/token/ERC721/ERC721.sol\";\r\nimport \"@openzeppelin/contracts/access/Ownable.sol\";\r\n\r\n// import \"./TestColor.sol\";\r\n\r\n\r\ncontract Color is ERC721,Ownable {\r\n\r\n  \tuint256 public numberOfEtherbrights = 0;\r\n  \tuint nPixX=5;\r\n  \tuint nPixY=5;\r\n  \tuint nPix=nPixX*nPixY;\r\n\r\n\tmapping(string => bool) _colorExists;\r\n\tmapping (uint256 => Etherbright) allEtherbrights;\r\n\r\n\tstruct Etherbright {\r\n\t\tstring[] setPixels;\r\n\t\tstring[] pallet;\r\n\t\tstring[] mintPixels;\r\n\t\tuint256 seed;\r\n\t}\r\n\t\r\n\t\r\n\t// event PixelChanged(uint indexed changedPixel, string from, string to, address indexed by);\r\n\tevent ClearCanvas(address indexed by);\r\n\tevent ResetCanvas(address indexed by);\r\n\t// event SVGgenerated(string SVG, address indexed by);\r\n\t// event EtherbrightMinted(uint256 tokenId, string svg, address mintedBy, uint256 nEtherbrights);\r\n\tevent EtherbrightMinted(uint256 tokenId, address mintedBy, uint256 nEtherbrights);\r\n\tevent EtherbrightPixelChanged(uint256 tokenId, uint pn, string from, string to, address indexed by);\r\n\t// event EtherbrightSVGgenerated(uint _tokenId, string svg, address indexed by);\r\n\t\r\n\t\r\n\tconstructor() ERC721(\"Color\", \"COLOR\") public {\r\n\r\n  \t}\r\n\r\n  \tfunction mintEtherbright(address to) public{\r\n\t  bytes32 idHash = keccak256(abi.encodePacked(block.timestamp, to));\r\n      uint256 tokenId = uint(idHash);\r\n      uint256 etherbrightSeed = tokenId % 4000;\r\n\r\n\t  Etherbright memory etherbright;\r\n\t  etherbright.seed=etherbrightSeed;\r\n\t  // etherbright.seriesNumber=numberOfEtherbrights;\r\n\t  // etherbright.pallet=getPalletFromSeed(etherbrightSeed.seed);\r\n\t  allEtherbrights[tokenId]=etherbright;\r\n\t  buildEtherbright(tokenId);\r\n\r\n\t  _mint(msg.sender, tokenId);\r\n\t  numberOfEtherbrights+=1;\r\n\t  // string memory tmpsvg=generateEtherbrightsSVG(tokenId);\r\n\t  emit EtherbrightMinted(tokenId, to, numberOfEtherbrights);\r\n\r\n\t  // emit EtherbrightMinted(tokenId, tmpsvg, to, numberOfEtherbrights);\r\n\t// event EtherbrightMinted(uint256 tokenId, address mintedBy, uint256 nEtherbrights, string svg);\r\n\r\n\t}\r\n\tfunction buildEtherbright (uint256 tokenId ) internal {\r\n\r\n\t\tsetEtherbrightPallet(tokenId);\r\n\t\tsetAllEtherbrightPixels(tokenId);\r\n\r\n\r\n\t}\r\n\tfunction setAllEtherbrightPixels (uint256 tokenId) internal {\r\n\t\tfor(uint p=0; p<nPix; p++){\r\n\t\t\tallEtherbrights[tokenId].setPixels.push(allEtherbrights[tokenId].pallet[(p%3)+1]);\r\n\t\t\tallEtherbrights[tokenId].mintPixels.push(allEtherbrights[tokenId].pallet[(p%3)+1]);\r\n\r\n\t\t}\r\n\t}\r\n\t\r\n\r\n\tfunction setEtherbrightPallet (uint256 tokenId)  internal {\r\n\t\t// Etherbright memory ethb=allEtherbrights[tokenId];\r\n\t\tuint8 selector=toUint8(abi.encodePacked(tokenId), 1);\r\n\t\tif(selector >= 0 && selector < 85 ){\r\n\t\t\tallEtherbrights[tokenId].pallet.push(\"#000000\");\r\n  \t\t\tallEtherbrights[tokenId].pallet.push(\"#ff0000\");\r\n\t\t\tallEtherbrights[tokenId].pallet.push(\"#ff7700\");\r\n\t\t\tallEtherbrights[tokenId].pallet.push(\"#ffdd00\");\r\n\r\n\t\t\t\t\t\tallEtherbrights[tokenId].pallet.push(\"#eaff00\");\r\n  \t\t\tallEtherbrights[tokenId].pallet.push(\"#a2ff00\");\r\n\t\t\tallEtherbrights[tokenId].pallet.push(\"#26ff00\");\r\n\t\t\tallEtherbrights[tokenId].pallet.push(\"#00ff4c\");\r\n\t\t\t\t\t\tallEtherbrights[tokenId].pallet.push(\"#00ffa6\");\r\n  \t\t\tallEtherbrights[tokenId].pallet.push(\"#00ffdd\");\r\n\t\t\tallEtherbrights[tokenId].pallet.push(\"#00d0ff\");\r\n\t\t\tallEtherbrights[tokenId].pallet.push(\"#0055ff\");\r\n\t\t\t\t\t\t\t\t\tallEtherbrights[tokenId].pallet.push(\"#1500ff\");\r\n  \t\t\tallEtherbrights[tokenId].pallet.push(\"#6f00ff\");\r\n\t\t\tallEtherbrights[tokenId].pallet.push(\"#bb00ff\");\r\n\t\t\tallEtherbrights[tokenId].pallet.push(\"#ff00f7\");\r\n\r\n\t\t}\r\n\t\telse if(selector >= 85 && selector < 95 ){\r\n\t\t\tallEtherbrights[tokenId].pallet.push(\"#000000\");\r\n  \t\t\tallEtherbrights[tokenId].pallet.push(\"#ff7575\");\r\n\t\t\tallEtherbrights[tokenId].pallet.push(\"#ff75cf\");\r\n\t\t\tallEtherbrights[tokenId].pallet.push(\"#f675ff\");\r\n\t\t\t\t\t\tallEtherbrights[tokenId].pallet.push(\"#bf75ff\");\r\n  \t\t\tallEtherbrights[tokenId].pallet.push(\"#7577ff\");\r\n\t\t\tallEtherbrights[tokenId].pallet.push(\"#75c6ff\");\r\n\t\t\tallEtherbrights[tokenId].pallet.push(\"#75fdff\");\r\n\t\t\t\t\t\t\t\t\tallEtherbrights[tokenId].pallet.push(\"#75ffcc\");\r\n  \t\t\tallEtherbrights[tokenId].pallet.push(\"#75ff7a\");\r\n\t\t\tallEtherbrights[tokenId].pallet.push(\"#acff75\");\r\n\t\t\tallEtherbrights[tokenId].pallet.push(\"#e8ff75\");\r\n\r\n\t\t\t\t\t\t\t\t\tallEtherbrights[tokenId].pallet.push(\"#fff175\");\r\n  \t\t\tallEtherbrights[tokenId].pallet.push(\"#ffd375\");\r\n\t\t\tallEtherbrights[tokenId].pallet.push(\"#00ff00\");\r\n\t\t\tallEtherbrights[tokenId].pallet.push(\"#ff9575\");\r\n\r\n\t\t}\r\n\t\telse if(selector >=95 && selector< 195){\r\n\t\t\tallEtherbrights[tokenId].pallet.push(\"#000000\");\r\n\t\t\tallEtherbrights[tokenId].pallet.push(\"#fffb00\");\r\n\t\t\tallEtherbrights[tokenId].pallet.push(\"#04ff00\");\r\n\t\t\tallEtherbrights[tokenId].pallet.push(\"#0800ff\");\r\n\r\n\t\t\tallEtherbrights[tokenId].pallet.push(\"#ff00f7\");\r\n\t\t\t\t\t\tallEtherbrights[tokenId].pallet.push(\"#ffffff\");\r\n\r\n\t\t}\r\n\t\telse{\r\n\t\t\tallEtherbrights[tokenId].pallet.push(\"#000000\");\r\n  \t\t\tallEtherbrights[tokenId].pallet.push(\"#ad1c1c\");\r\n\t\t\tallEtherbrights[tokenId].pallet.push(\"#ad581c\");\r\n\t\t\tallEtherbrights[tokenId].pallet.push(\"#ad921c\");\r\n\t\t\t\t\t\tallEtherbrights[tokenId].pallet.push(\"#8ead1c\");\r\n  \t\t\tallEtherbrights[tokenId].pallet.push(\"#1cad39\");\r\n\t\t\tallEtherbrights[tokenId].pallet.push(\"#1cad62\");\r\n\t\t\tallEtherbrights[tokenId].pallet.push(\"#1cadab\");\r\n\t\t\t\t\t\t\t\t\tallEtherbrights[tokenId].pallet.push(\"#1c6ead\");\r\n  \t\t\tallEtherbrights[tokenId].pallet.push(\"#1c2dad\");\r\n\t\t\tallEtherbrights[tokenId].pallet.push(\"#481cad\");\r\n\t\t\tallEtherbrights[tokenId].pallet.push(\"#711cad\");\r\n\r\n\t\t\t\t\t\t\t\t\tallEtherbrights[tokenId].pallet.push(\"#a81cad\");\r\n  \t\t\tallEtherbrights[tokenId].pallet.push(\"#ad1c84\");\r\n\t\t\tallEtherbrights[tokenId].pallet.push(\"#00ff00\");\r\n\t\t\tallEtherbrights[tokenId].pallet.push(\"#0000ff\");\r\n\r\n\t\t}\r\n\r\n\t}\r\n\t\r\n\r\n    function toUint8(bytes memory _bytes, uint256 _start) internal pure returns (uint8) {\r\n        require(_start + 1 >= _start, \"toUint8_overflow\");\r\n        require(_bytes.length >= _start + 1 , \"toUint8_outOfBounds\");\r\n        uint8 tempUint;\r\n\r\n        assembly {\r\n            tempUint := mload(add(add(_bytes, 0x1), _start))\r\n        }\r\n\r\n        return tempUint;\r\n    }\r\n\r\n\tfunction setEtherbrightPixel (uint256 _tokenId,uint  _pixn, uint  _palletN ) public {\r\n\t\t// Etherbright storage ethb =allEtherbrights[_tokenId];\r\n\t\tstring memory _priorColor=allEtherbrights[_tokenId].setPixels[_pixn];\r\n\t\tstring memory _newColor=allEtherbrights[_tokenId].pallet[_palletN];\r\n\t\tallEtherbrights[_tokenId].setPixels[_pixn]=_newColor;\r\n\t\t// string memory _newSVG=generateEtherbrightsSVG(_tokenId);\t\r\n\t\temit EtherbrightPixelChanged(_tokenId, _pixn, _priorColor, _newColor, msg.sender);\r\n\t\t\r\n\t}\r\n\tfunction getEtherbrightPixelColor (uint256 _tokenId,uint pn) public returns(string memory) {\r\n\t\treturn allEtherbrights[_tokenId].setPixels[pn];\r\n\t}\r\n\t function getEtherbrightPallet(uint256 _tokenId) public returns(string[] memory)  {\r\n\t \treturn allEtherbrights[_tokenId].pallet;\r\n\t \t\r\n\t }\r\n\t\t function getEtherbrightPixels(uint256 _tokenId) public returns(string[] memory)  {\r\n\t \treturn allEtherbrights[_tokenId].setPixels;\r\n\t \t\r\n\t } \r\n\r\n\r\n  \t// function generateEtherbrightsSVG(uint256 _tokenId) public returns (string memory){\r\n  \t// \t//returns the svg string of the canvas\r\n  \t// \t    string memory ethbsvg = \r\n  \t// \t    string(\r\n  \t// \t    \tabi.encodePacked(\r\n   //          \t\t\t\t\t\"<svg width='150' height='180'>\", \r\n   //          \t\t\t\t\tstring(abi.encodePacked(\"<circle cx='30' cy='30' r='20' fill='\",allEtherbrights[_tokenId].setPixels[0],\"' stroke-width='9' stroke='black'/>\")),\r\n   //          \t\t\t\t\tstring(abi.encodePacked(\"<circle cx='60' cy='30' r='20' fill='\",allEtherbrights[_tokenId].setPixels[1],\"' stroke-width='9' stroke='black'/>\")),\r\n   //          \t\t\t\t\tstring(abi.encodePacked(\"<circle cx='90' cy='30' r='20' fill='\",allEtherbrights[_tokenId].setPixels[2],\"' stroke-width='9' stroke='black'/>\")), \r\n   //          \t\t\t\t\tstring(abi.encodePacked(\"<circle cx='30' cy='60' r='20' fill='\",allEtherbrights[_tokenId].setPixels[3],\"' stroke-width='9' stroke='black'/>\")), \r\n   //          \t\t\t\t\tstring(abi.encodePacked(\"<circle cx='60' cy='60' r='20' fill='\",allEtherbrights[_tokenId].setPixels[4],\"' stroke-width='9' stroke='black'/>\")), \r\n   //          \t\t\t\t\tstring(abi.encodePacked(\"<circle cx='90' cy='60' r='20' fill='\",allEtherbrights[_tokenId].setPixels[5],\"' stroke-width='9' stroke='black'/>\")), \r\n   //          \t\t\t\t\tstring(abi.encodePacked(\"<circle cx='30' cy='90' r='20' fill='\",allEtherbrights[_tokenId].setPixels[6],\"' stroke-width='9' stroke='black'/>\")), \r\n   //          \t\t\t\t\tstring(abi.encodePacked(\"<circle cx='60' cy='90' r='20' fill='\",allEtherbrights[_tokenId].setPixels[7],\"' stroke-width='9' stroke='black'/>\")), \r\n   //          \t\t\t\t\tstring(abi.encodePacked(\"<circle cx='90' cy='90' r='20' fill='\",allEtherbrights[_tokenId].setPixels[8],\"' stroke-width='9' stroke='black'/>\")),\r\n   //          \t\t\t\t\t\"</svg>\"\r\n   //      \t\t\t\t\t\t)\r\n   //      \t);\r\n  \t// \temit EtherbrightSVGgenerated(_tokenId,ethbsvg,msg.sender);\r\n  \t// \treturn ethbsvg;\r\n\r\n  \t// }\r\n\r\n\r\n}\r\n",
  "sourcePath": "H:/Expermental/nft/src/contracts/Color.sol",
  "compiler": {
    "name": "solc",
    "version": "0.7.4+commit.3f05b770.Emscripten.clang"
  },
  "schemaVersion": "3.3.4",
  "updatedAt": "2021-03-31T06:55:17.157Z",
  "networkType": "ethereum",
  "devdoc": {
    "kind": "dev",
    "methods": {
      "approve(address,uint256)": {
        "details": "See {IERC721-approve}."
      },
      "balanceOf(address)": {
        "details": "See {IERC721-balanceOf}."
      },
      "baseURI()": {
        "details": "Returns the base URI set via {_setBaseURI}. This will be automatically added as a prefix in {tokenURI} to each token's URI, or to the token ID if no specific URI is set for that token ID."
      },
      "getApproved(uint256)": {
        "details": "See {IERC721-getApproved}."
      },
      "isApprovedForAll(address,address)": {
        "details": "See {IERC721-isApprovedForAll}."
      },
      "name()": {
        "details": "See {IERC721Metadata-name}."
      },
      "owner()": {
        "details": "Returns the address of the current owner."
      },
      "ownerOf(uint256)": {
        "details": "See {IERC721-ownerOf}."
      },
      "renounceOwnership()": {
        "details": "Leaves the contract without owner. It will not be possible to call `onlyOwner` functions anymore. Can only be called by the current owner. NOTE: Renouncing ownership will leave the contract without an owner, thereby removing any functionality that is only available to the owner."
      },
      "safeTransferFrom(address,address,uint256)": {
        "details": "See {IERC721-safeTransferFrom}."
      },
      "safeTransferFrom(address,address,uint256,bytes)": {
        "details": "See {IERC721-safeTransferFrom}."
      },
      "setApprovalForAll(address,bool)": {
        "details": "See {IERC721-setApprovalForAll}."
      },
      "supportsInterface(bytes4)": {
        "details": "See {IERC165-supportsInterface}. Time complexity O(1), guaranteed to always use less than 30 000 gas."
      },
      "symbol()": {
        "details": "See {IERC721Metadata-symbol}."
      },
      "tokenByIndex(uint256)": {
        "details": "See {IERC721Enumerable-tokenByIndex}."
      },
      "tokenOfOwnerByIndex(address,uint256)": {
        "details": "See {IERC721Enumerable-tokenOfOwnerByIndex}."
      },
      "tokenURI(uint256)": {
        "details": "See {IERC721Metadata-tokenURI}."
      },
      "totalSupply()": {
        "details": "See {IERC721Enumerable-totalSupply}."
      },
      "transferFrom(address,address,uint256)": {
        "details": "See {IERC721-transferFrom}."
      },
      "transferOwnership(address)": {
        "details": "Transfers ownership of the contract to a new account (`newOwner`). Can only be called by the current owner."
      }
    },
    "version": 1
  },
  "userdoc": {
    "kind": "user",
    "methods": {},
    "version": 1
  }
}