{
  "contractName": "Color",
  "abi": [
    {
      "inputs": [],
      "stateMutability": "nonpayable",
      "type": "constructor"
    },
    {
      "anonymous": false,
      "inputs": [
        {
          "indexed": true,
          "internalType": "address",
          "name": "owner",
          "type": "address"
        },
        {
          "indexed": true,
          "internalType": "address",
          "name": "approved",
          "type": "address"
        },
        {
          "indexed": true,
          "internalType": "uint256",
          "name": "tokenId",
          "type": "uint256"
        }
      ],
      "name": "Approval",
      "type": "event"
    },
    {
      "anonymous": false,
      "inputs": [
        {
          "indexed": true,
          "internalType": "address",
          "name": "owner",
          "type": "address"
        },
        {
          "indexed": true,
          "internalType": "address",
          "name": "operator",
          "type": "address"
        },
        {
          "indexed": false,
          "internalType": "bool",
          "name": "approved",
          "type": "bool"
        }
      ],
      "name": "ApprovalForAll",
      "type": "event"
    },
    {
      "anonymous": false,
      "inputs": [
        {
          "indexed": true,
          "internalType": "address",
          "name": "previousOwner",
          "type": "address"
        },
        {
          "indexed": true,
          "internalType": "address",
          "name": "newOwner",
          "type": "address"
        }
      ],
      "name": "OwnershipTransferred",
      "type": "event"
    },
    {
      "anonymous": false,
      "inputs": [
        {
          "indexed": true,
          "internalType": "uint256",
          "name": "changedPixel",
          "type": "uint256"
        },
        {
          "indexed": false,
          "internalType": "string",
          "name": "from",
          "type": "string"
        },
        {
          "indexed": false,
          "internalType": "string",
          "name": "to",
          "type": "string"
        },
        {
          "indexed": true,
          "internalType": "address",
          "name": "by",
          "type": "address"
        }
      ],
      "name": "PixelChanged",
      "type": "event"
    },
    {
      "anonymous": false,
      "inputs": [
        {
          "indexed": true,
          "internalType": "address",
          "name": "from",
          "type": "address"
        },
        {
          "indexed": true,
          "internalType": "address",
          "name": "to",
          "type": "address"
        },
        {
          "indexed": true,
          "internalType": "uint256",
          "name": "tokenId",
          "type": "uint256"
        }
      ],
      "name": "Transfer",
      "type": "event"
    },
    {
      "inputs": [
        {
          "internalType": "address",
          "name": "to",
          "type": "address"
        },
        {
          "internalType": "uint256",
          "name": "tokenId",
          "type": "uint256"
        }
      ],
      "name": "approve",
      "outputs": [],
      "stateMutability": "nonpayable",
      "type": "function"
    },
    {
      "inputs": [
        {
          "internalType": "address",
          "name": "owner",
          "type": "address"
        }
      ],
      "name": "balanceOf",
      "outputs": [
        {
          "internalType": "uint256",
          "name": "",
          "type": "uint256"
        }
      ],
      "stateMutability": "view",
      "type": "function",
      "constant": true
    },
    {
      "inputs": [],
      "name": "baseURI",
      "outputs": [
        {
          "internalType": "string",
          "name": "",
          "type": "string"
        }
      ],
      "stateMutability": "view",
      "type": "function",
      "constant": true
    },
    {
      "inputs": [
        {
          "internalType": "uint256",
          "name": "",
          "type": "uint256"
        }
      ],
      "name": "colors",
      "outputs": [
        {
          "internalType": "string",
          "name": "",
          "type": "string"
        }
      ],
      "stateMutability": "view",
      "type": "function",
      "constant": true
    },
    {
      "inputs": [
        {
          "internalType": "uint256",
          "name": "tokenId",
          "type": "uint256"
        }
      ],
      "name": "getApproved",
      "outputs": [
        {
          "internalType": "address",
          "name": "",
          "type": "address"
        }
      ],
      "stateMutability": "view",
      "type": "function",
      "constant": true
    },
    {
      "inputs": [
        {
          "internalType": "address",
          "name": "owner",
          "type": "address"
        },
        {
          "internalType": "address",
          "name": "operator",
          "type": "address"
        }
      ],
      "name": "isApprovedForAll",
      "outputs": [
        {
          "internalType": "bool",
          "name": "",
          "type": "bool"
        }
      ],
      "stateMutability": "view",
      "type": "function",
      "constant": true
    },
    {
      "inputs": [],
      "name": "name",
      "outputs": [
        {
          "internalType": "string",
          "name": "",
          "type": "string"
        }
      ],
      "stateMutability": "view",
      "type": "function",
      "constant": true
    },
    {
      "inputs": [],
      "name": "owner",
      "outputs": [
        {
          "internalType": "address",
          "name": "",
          "type": "address"
        }
      ],
      "stateMutability": "view",
      "type": "function",
      "constant": true
    },
    {
      "inputs": [
        {
          "internalType": "uint256",
          "name": "tokenId",
          "type": "uint256"
        }
      ],
      "name": "ownerOf",
      "outputs": [
        {
          "internalType": "address",
          "name": "",
          "type": "address"
        }
      ],
      "stateMutability": "view",
      "type": "function",
      "constant": true
    },
    {
      "inputs": [
        {
          "internalType": "uint256",
          "name": "",
          "type": "uint256"
        }
      ],
      "name": "pallet",
      "outputs": [
        {
          "internalType": "string",
          "name": "",
          "type": "string"
        }
      ],
      "stateMutability": "view",
      "type": "function",
      "constant": true
    },
    {
      "inputs": [
        {
          "internalType": "uint256",
          "name": "",
          "type": "uint256"
        }
      ],
      "name": "pixels",
      "outputs": [
        {
          "internalType": "string",
          "name": "",
          "type": "string"
        }
      ],
      "stateMutability": "view",
      "type": "function",
      "constant": true
    },
    {
      "inputs": [],
      "name": "renounceOwnership",
      "outputs": [],
      "stateMutability": "nonpayable",
      "type": "function"
    },
    {
      "inputs": [
        {
          "internalType": "address",
          "name": "from",
          "type": "address"
        },
        {
          "internalType": "address",
          "name": "to",
          "type": "address"
        },
        {
          "internalType": "uint256",
          "name": "tokenId",
          "type": "uint256"
        }
      ],
      "name": "safeTransferFrom",
      "outputs": [],
      "stateMutability": "nonpayable",
      "type": "function"
    },
    {
      "inputs": [
        {
          "internalType": "address",
          "name": "from",
          "type": "address"
        },
        {
          "internalType": "address",
          "name": "to",
          "type": "address"
        },
        {
          "internalType": "uint256",
          "name": "tokenId",
          "type": "uint256"
        },
        {
          "internalType": "bytes",
          "name": "_data",
          "type": "bytes"
        }
      ],
      "name": "safeTransferFrom",
      "outputs": [],
      "stateMutability": "nonpayable",
      "type": "function"
    },
    {
      "inputs": [
        {
          "internalType": "address",
          "name": "operator",
          "type": "address"
        },
        {
          "internalType": "bool",
          "name": "approved",
          "type": "bool"
        }
      ],
      "name": "setApprovalForAll",
      "outputs": [],
      "stateMutability": "nonpayable",
      "type": "function"
    },
    {
      "inputs": [
        {
          "internalType": "bytes4",
          "name": "interfaceId",
          "type": "bytes4"
        }
      ],
      "name": "supportsInterface",
      "outputs": [
        {
          "internalType": "bool",
          "name": "",
          "type": "bool"
        }
      ],
      "stateMutability": "view",
      "type": "function",
      "constant": true
    },
    {
      "inputs": [],
      "name": "symbol",
      "outputs": [
        {
          "internalType": "string",
          "name": "",
          "type": "string"
        }
      ],
      "stateMutability": "view",
      "type": "function",
      "constant": true
    },
    {
      "inputs": [
        {
          "internalType": "uint256",
          "name": "index",
          "type": "uint256"
        }
      ],
      "name": "tokenByIndex",
      "outputs": [
        {
          "internalType": "uint256",
          "name": "",
          "type": "uint256"
        }
      ],
      "stateMutability": "view",
      "type": "function",
      "constant": true
    },
    {
      "inputs": [
        {
          "internalType": "address",
          "name": "owner",
          "type": "address"
        },
        {
          "internalType": "uint256",
          "name": "index",
          "type": "uint256"
        }
      ],
      "name": "tokenOfOwnerByIndex",
      "outputs": [
        {
          "internalType": "uint256",
          "name": "",
          "type": "uint256"
        }
      ],
      "stateMutability": "view",
      "type": "function",
      "constant": true
    },
    {
      "inputs": [
        {
          "internalType": "uint256",
          "name": "tokenId",
          "type": "uint256"
        }
      ],
      "name": "tokenURI",
      "outputs": [
        {
          "internalType": "string",
          "name": "",
          "type": "string"
        }
      ],
      "stateMutability": "view",
      "type": "function",
      "constant": true
    },
    {
      "inputs": [],
      "name": "totalSupply",
      "outputs": [
        {
          "internalType": "uint256",
          "name": "",
          "type": "uint256"
        }
      ],
      "stateMutability": "view",
      "type": "function",
      "constant": true
    },
    {
      "inputs": [
        {
          "internalType": "address",
          "name": "from",
          "type": "address"
        },
        {
          "internalType": "address",
          "name": "to",
          "type": "address"
        },
        {
          "internalType": "uint256",
          "name": "tokenId",
          "type": "uint256"
        }
      ],
      "name": "transferFrom",
      "outputs": [],
      "stateMutability": "nonpayable",
      "type": "function"
    },
    {
      "inputs": [
        {
          "internalType": "address",
          "name": "newOwner",
          "type": "address"
        }
      ],
      "name": "transferOwnership",
      "outputs": [],
      "stateMutability": "nonpayable",
      "type": "function"
    },
    {
      "inputs": [
        {
          "internalType": "uint256",
          "name": "_pixn",
          "type": "uint256"
        },
        {
          "internalType": "string",
          "name": "_pixcolor",
          "type": "string"
        }
      ],
      "name": "setPixel",
      "outputs": [],
      "stateMutability": "nonpayable",
      "type": "function"
    },
    {
      "inputs": [],
      "name": "generateSVG",
      "outputs": [
        {
          "internalType": "string",
          "name": "",
          "type": "string"
        }
      ],
      "stateMutability": "view",
      "type": "function",
      "constant": true
    },
    {
      "inputs": [],
      "name": "getjunk",
      "outputs": [
        {
          "internalType": "uint256",
          "name": "",
          "type": "uint256"
        }
      ],
      "stateMutability": "view",
      "type": "function",
      "constant": true
    },
    {
      "inputs": [
        {
          "internalType": "string",
          "name": "_color",
          "type": "string"
        }
      ],
      "name": "testReturn",
      "outputs": [
        {
          "internalType": "string",
          "name": "",
          "type": "string"
        }
      ],
      "stateMutability": "nonpayable",
      "type": "function"
    },
    {
      "inputs": [
        {
          "internalType": "string",
          "name": "_color",
          "type": "string"
        }
      ],
      "name": "mint",
      "outputs": [],
      "stateMutability": "nonpayable",
      "type": "function"
    }
  ],
  "bytecode": "0x6080604052600a600c556003600d556003600e55600e54600d5402600f553480156200002a57600080fd5b506040518060400160405280600581526020017f436f6c6f720000000000000000000000000000000000000000000000000000008152506040518060400160405280600581526020017f434f4c4f52000000000000000000000000000000000000000000000000000000815250620000af6301ffc9a760e01b6200021260201b60201c565b8160069080519060200190620000c792919062000954565b508060079080519060200190620000e092919062000954565b50620000f96380ac58cd60e01b6200021260201b60201c565b62000111635b5e139f60e01b6200021260201b60201c565b6200012963780e9d6360e01b6200021260201b60201c565b505060006200013d6200031b60201b60201c565b905080600a60006101000a81548173ffffffffffffffffffffffffffffffffffffffff021916908373ffffffffffffffffffffffffffffffffffffffff1602179055508073ffffffffffffffffffffffffffffffffffffffff16600073ffffffffffffffffffffffffffffffffffffffff167f8be0079c531659141344cd1fd0a4f28419497f9722a3daafe3b4186f6b6457e060405160405180910390a350620001ec6200032360201b60201c565b620001fc620004e560201b60201c565b6200020c6200056660201b60201c565b62000aa8565b63ffffffff60e01b817bffffffffffffffffffffffffffffffffffffffffffffffffffffffff19161415620002af576040517f08c379a000000000000000000000000000000000000000000000000000000000815260040180806020018281038252601c8152602001807f4552433136353a20696e76616c696420696e746572666163652069640000000081525060200191505060405180910390fd5b6001600080837bffffffffffffffffffffffffffffffffffffffffffffffffffffffff19167bffffffffffffffffffffffffffffffffffffffffffffffffffffffff1916815260200190815260200160002060006101000a81548160ff02191690831515021790555050565b600033905090565b601180600181540180825580915050600190039060005260206000200160006040518060400160405280600781526020017f2330303030303000000000000000000000000000000000000000000000000000815250909190915090805190602001906200039292919062000954565b50601180600181540180825580915050600190039060005260206000200160006040518060400160405280600781526020017f2366663030303000000000000000000000000000000000000000000000000000815250909190915090805190602001906200040292919062000954565b50601180600181540180825580915050600190039060005260206000200160006040518060400160405280600781526020017f2330306666303000000000000000000000000000000000000000000000000000815250909190915090805190602001906200047292919062000954565b50601180600181540180825580915050600190039060005260206000200160006040518060400160405280600781526020017f233030303066660000000000000000000000000000000000000000000000000081525090919091509080519060200190620004e292919062000954565b50565b60005b600f548110156200056357601060116000815481106200050457fe5b9060005260206000200190806001815401808255809150506001900390600052602060002001600090919091909150908054600181600116156101000203166002900462000554929190620009eb565b508080600101915050620004e8565b50565b60005b600f54811015620006535762000645816011600384816200058657fe5b06815481106200059257fe5b906000526020600020018054600181600116156101000203166002900480601f016020809104026020016040519081016040528092919081815260200182805460018160011615610100020316600290048015620006345780601f10620006085761010080835404028352916020019162000634565b820191906000526020600020905b8154815290600101906020018083116200061657829003601f168201915b50505050506200065660201b60201c565b808060010191505062000569565b50565b620006666200031b60201b60201c565b73ffffffffffffffffffffffffffffffffffffffff166200068c6200092a60201b60201c565b73ffffffffffffffffffffffffffffffffffffffff161462000716576040517f08c379a00000000000000000000000000000000000000000000000000000000081526004018080602001828103825260208152602001807f4f776e61626c653a2063616c6c6572206973206e6f7420746865206f776e657281525060200191505060405180910390fd5b6060601083815481106200072657fe5b906000526020600020018054600181600116156101000203166002900480601f016020809104026020016040519081016040528092919081815260200182805460018160011615610100020316600290048015620007c85780601f106200079c57610100808354040283529160200191620007c8565b820191906000526020600020905b815481529060010190602001808311620007aa57829003601f168201915b505050505090508160108481548110620007de57fe5b906000526020600020019080519060200190620007fd92919062000954565b503373ffffffffffffffffffffffffffffffffffffffff16837f176ff2d12d5df6e831b6cdf0336d3d96822178d039bdba36513529961b81a67d8385604051808060200180602001838103835285818151815260200191508051906020019080838360005b838110156200087f57808201518184015260208101905062000862565b50505050905090810190601f168015620008ad5780820380516001836020036101000a031916815260200191505b50838103825284818151815260200191508051906020019080838360005b83811015620008e8578082015181840152602081019050620008cb565b50505050905090810190601f168015620009165780820380516001836020036101000a031916815260200191505b5094505050505060405180910390a3505050565b6000600a60009054906101000a900473ffffffffffffffffffffffffffffffffffffffff16905090565b828054600181600116156101000203166002900490600052602060002090601f0160209004810192826200098c5760008555620009d8565b82601f10620009a757805160ff1916838001178555620009d8565b82800160010185558215620009d8579182015b82811115620009d7578251825591602001919060010190620009ba565b5b509050620009e7919062000a89565b5090565b828054600181600116156101000203166002900490600052602060002090601f01602090048101928262000a23576000855562000a76565b82601f1062000a36578054855562000a76565b8280016001018555821562000a7657600052602060002091601f016020900482015b8281111562000a7557825482559160010191906001019062000a58565b5b50905062000a85919062000a89565b5090565b5b8082111562000aa457600081600090555060010162000a8a565b5090565b613a5a8062000ab86000396000f3fe608060405234801561001057600080fd5b50600436106101c45760003560e01c80638da5cb5b116100f9578063bd11f69d11610097578063d85d3d2711610071578063d85d3d2714610cad578063e758e2f314610d68578063e985e9c514610e2d578063f2fde38b14610ea7576101c4565b8063bd11f69d14610ab8578063c87b56dd14610b5f578063d2ea1b7b14610c06576101c4565b8063a22cb465116100d3578063a22cb465146108c2578063a969e8a214610912578063ad711e9e14610930578063b88d4fde146109b3576101c4565b80638da5cb5b146107645780638da7f2321461079857806395d89b411461083f576101c4565b806342842e0e116101665780636c0360eb116101405780636c0360eb1461054b57806370a08231146105ce578063715018a6146106265780637707f21414610630576101c4565b806342842e0e146104435780634f6ccce7146104b15780636352211e146104f3576101c4565b8063095ea7b3116101a2578063095ea7b31461030757806318160ddd1461035557806323b872dd146103735780632f745c59146103e1576101c4565b806301ffc9a7146101c957806306fdde031461022c578063081812fc146102af575b600080fd5b610214600480360360208110156101df57600080fd5b8101908080357bffffffffffffffffffffffffffffffffffffffffffffffffffffffff19169060200190929190505050610eeb565b60405180821515815260200191505060405180910390f35b610234610f52565b6040518080602001828103825283818151815260200191508051906020019080838360005b83811015610274578082015181840152602081019050610259565b50505050905090810190601f1680156102a15780820380516001836020036101000a031916815260200191505b509250505060405180910390f35b6102db600480360360208110156102c557600080fd5b8101908080359060200190929190505050610ff4565b604051808273ffffffffffffffffffffffffffffffffffffffff16815260200191505060405180910390f35b6103536004803603604081101561031d57600080fd5b81019080803573ffffffffffffffffffffffffffffffffffffffff1690602001909291908035906020019092919050505061108f565b005b61035d6111d3565b6040518082815260200191505060405180910390f35b6103df6004803603606081101561038957600080fd5b81019080803573ffffffffffffffffffffffffffffffffffffffff169060200190929190803573ffffffffffffffffffffffffffffffffffffffff169060200190929190803590602001909291905050506111e4565b005b61042d600480360360408110156103f757600080fd5b81019080803573ffffffffffffffffffffffffffffffffffffffff1690602001909291908035906020019092919050505061125a565b6040518082815260200191505060405180910390f35b6104af6004803603606081101561045957600080fd5b81019080803573ffffffffffffffffffffffffffffffffffffffff169060200190929190803573ffffffffffffffffffffffffffffffffffffffff169060200190929190803590602001909291905050506112b5565b005b6104dd600480360360208110156104c757600080fd5b81019080803590602001909291905050506112d5565b6040518082815260200191505060405180910390f35b61051f6004803603602081101561050957600080fd5b81019080803590602001909291905050506112f8565b604051808273ffffffffffffffffffffffffffffffffffffffff16815260200191505060405180910390f35b61055361132f565b6040518080602001828103825283818151815260200191508051906020019080838360005b83811015610593578082015181840152602081019050610578565b50505050905090810190601f1680156105c05780820380516001836020036101000a031916815260200191505b509250505060405180910390f35b610610600480360360208110156105e457600080fd5b81019080803573ffffffffffffffffffffffffffffffffffffffff1690602001909291905050506113d1565b6040518082815260200191505060405180910390f35b61062e6114a6565b005b6106e96004803603602081101561064657600080fd5b810190808035906020019064010000000081111561066357600080fd5b82018360208201111561067557600080fd5b8035906020019184600183028401116401000000008311171561069757600080fd5b91908080601f016020809104026020016040519081016040528093929190818152602001838380828437600081840152601f19601f820116905080830192505050505050509192919290505050611616565b6040518080602001828103825283818151815260200191508051906020019080838360005b8381101561072957808201518184015260208101905061070e565b50505050905090810190601f1680156107565780820380516001836020036101000a031916815260200191505b509250505060405180910390f35b61076c611620565b604051808273ffffffffffffffffffffffffffffffffffffffff16815260200191505060405180910390f35b6107c4600480360360208110156107ae57600080fd5b810190808035906020019092919050505061164a565b6040518080602001828103825283818151815260200191508051906020019080838360005b838110156108045780820151818401526020810190506107e9565b50505050905090810190601f1680156108315780820380516001836020036101000a031916815260200191505b509250505060405180910390f35b610847611706565b6040518080602001828103825283818151815260200191508051906020019080838360005b8381101561088757808201518184015260208101905061086c565b50505050905090810190601f1680156108b45780820380516001836020036101000a031916815260200191505b509250505060405180910390f35b610910600480360360408110156108d857600080fd5b81019080803573ffffffffffffffffffffffffffffffffffffffff1690602001909291908035151590602001909291905050506117a8565b005b61091a61195e565b6040518082815260200191505060405180910390f35b610938611968565b6040518080602001828103825283818151815260200191508051906020019080838360005b8381101561097857808201518184015260208101905061095d565b50505050905090810190601f1680156109a55780820380516001836020036101000a031916815260200191505b509250505060405180910390f35b610ab6600480360360808110156109c957600080fd5b81019080803573ffffffffffffffffffffffffffffffffffffffff169060200190929190803573ffffffffffffffffffffffffffffffffffffffff1690602001909291908035906020019092919080359060200190640100000000811115610a3057600080fd5b820183602082011115610a4257600080fd5b80359060200191846001830284011164010000000083111715610a6457600080fd5b91908080601f016020809104026020016040519081016040528093929190818152602001838380828437600081840152601f19601f82011690508083019250505050505050919291929050505061196d565b005b610ae460048036036020811015610ace57600080fd5b81019080803590602001909291905050506119e5565b6040518080602001828103825283818151815260200191508051906020019080838360005b83811015610b24578082015181840152602081019050610b09565b50505050905090810190601f168015610b515780820380516001836020036101000a031916815260200191505b509250505060405180910390f35b610b8b60048036036020811015610b7557600080fd5b8101908080359060200190929190505050611aa1565b6040518080602001828103825283818151815260200191508051906020019080838360005b83811015610bcb578082015181840152602081019050610bb0565b50505050905090810190601f168015610bf85780820380516001836020036101000a031916815260200191505b509250505060405180910390f35b610c3260048036036020811015610c1c57600080fd5b8101908080359060200190929190505050611d72565b6040518080602001828103825283818151815260200191508051906020019080838360005b83811015610c72578082015181840152602081019050610c57565b50505050905090810190601f168015610c9f5780820380516001836020036101000a031916815260200191505b509250505060405180910390f35b610d6660048036036020811015610cc357600080fd5b8101908080359060200190640100000000811115610ce057600080fd5b820183602082011115610cf257600080fd5b80359060200191846001830284011164010000000083111715610d1457600080fd5b91908080601f016020809104026020016040519081016040528093929190818152602001838380828437600081840152601f19601f820116905080830192505050505050509192919290505050611e2e565b005b610e2b60048036036040811015610d7e57600080fd5b810190808035906020019092919080359060200190640100000000811115610da557600080fd5b820183602082011115610db757600080fd5b80359060200191846001830284011164010000000083111715610dd957600080fd5b91908080601f016020809104026020016040519081016040528093929190818152602001838380828437600081840152601f19601f820116905080830192505050505050509192919290505050611f88565b005b610e8f60048036036040811015610e4357600080fd5b81019080803573ffffffffffffffffffffffffffffffffffffffff169060200190929190803573ffffffffffffffffffffffffffffffffffffffff16906020019092919050505061223d565b60405180821515815260200191505060405180910390f35b610ee960048036036020811015610ebd57600080fd5b81019080803573ffffffffffffffffffffffffffffffffffffffff1690602001909291905050506122d1565b005b6000806000837bffffffffffffffffffffffffffffffffffffffffffffffffffffffff19167bffffffffffffffffffffffffffffffffffffffffffffffffffffffff1916815260200190815260200160002060009054906101000a900460ff169050919050565b606060068054600181600116156101000203166002900480601f016020809104026020016040519081016040528092919081815260200182805460018160011615610100020316600290048015610fea5780601f10610fbf57610100808354040283529160200191610fea565b820191906000526020600020905b815481529060010190602001808311610fcd57829003601f168201915b5050505050905090565b6000610fff826124c6565b611054576040517f08c379a000000000000000000000000000000000000000000000000000000000815260040180806020018281038252602c81526020018061394f602c913960400191505060405180910390fd5b6004600083815260200190815260200160002060009054906101000a900473ffffffffffffffffffffffffffffffffffffffff169050919050565b600061109a826112f8565b90508073ffffffffffffffffffffffffffffffffffffffff168373ffffffffffffffffffffffffffffffffffffffff161415611121576040517f08c379a00000000000000000000000000000000000000000000000000000000081526004018080602001828103825260218152602001806139d36021913960400191505060405180910390fd5b8073ffffffffffffffffffffffffffffffffffffffff166111406124e3565b73ffffffffffffffffffffffffffffffffffffffff16148061116f575061116e816111696124e3565b61223d565b5b6111c4576040517f08c379a00000000000000000000000000000000000000000000000000000000081526004018080602001828103825260388152602001806138a26038913960400191505060405180910390fd5b6111ce83836124eb565b505050565b60006111df60026125a4565b905090565b6111f56111ef6124e3565b826125b9565b61124a576040517f08c379a00000000000000000000000000000000000000000000000000000000081526004018080602001828103825260318152602001806139f46031913960400191505060405180910390fd5b6112558383836126ad565b505050565b60006112ad82600160008673ffffffffffffffffffffffffffffffffffffffff1673ffffffffffffffffffffffffffffffffffffffff1681526020019081526020016000206128f090919063ffffffff16565b905092915050565b6112d08383836040518060200160405280600081525061196d565b505050565b6000806112ec83600261290a90919063ffffffff16565b50905080915050919050565b6000611328826040518060600160405280602981526020016139046029913960026129369092919063ffffffff16565b9050919050565b606060098054600181600116156101000203166002900480601f0160208091040260200160405190810160405280929190818152602001828054600181600116156101000203166002900480156113c75780601f1061139c576101008083540402835291602001916113c7565b820191906000526020600020905b8154815290600101906020018083116113aa57829003601f168201915b5050505050905090565b60008073ffffffffffffffffffffffffffffffffffffffff168273ffffffffffffffffffffffffffffffffffffffff161415611458576040517f08c379a000000000000000000000000000000000000000000000000000000000815260040180806020018281038252602a8152602001806138da602a913960400191505060405180910390fd5b61149f600160008473ffffffffffffffffffffffffffffffffffffffff1673ffffffffffffffffffffffffffffffffffffffff168152602001908152602001600020612955565b9050919050565b6114ae6124e3565b73ffffffffffffffffffffffffffffffffffffffff166114cc611620565b73ffffffffffffffffffffffffffffffffffffffff1614611555576040517f08c379a00000000000000000000000000000000000000000000000000000000081526004018080602001828103825260208152602001807f4f776e61626c653a2063616c6c6572206973206e6f7420746865206f776e657281525060200191505060405180910390fd5b600073ffffffffffffffffffffffffffffffffffffffff16600a60009054906101000a900473ffffffffffffffffffffffffffffffffffffffff1673ffffffffffffffffffffffffffffffffffffffff167f8be0079c531659141344cd1fd0a4f28419497f9722a3daafe3b4186f6b6457e060405160405180910390a36000600a60006101000a81548173ffffffffffffffffffffffffffffffffffffffff021916908373ffffffffffffffffffffffffffffffffffffffff160217905550565b6060819050919050565b6000600a60009054906101000a900473ffffffffffffffffffffffffffffffffffffffff16905090565b6010818154811061165a57600080fd5b906000526020600020016000915090508054600181600116156101000203166002900480601f0160208091040260200160405190810160405280929190818152602001828054600181600116156101000203166002900480156116fe5780601f106116d3576101008083540402835291602001916116fe565b820191906000526020600020905b8154815290600101906020018083116116e157829003601f168201915b505050505081565b606060078054600181600116156101000203166002900480601f01602080910402602001604051908101604052809291908181526020018280546001816001161561010002031660029004801561179e5780601f106117735761010080835404028352916020019161179e565b820191906000526020600020905b81548152906001019060200180831161178157829003601f168201915b5050505050905090565b6117b06124e3565b73ffffffffffffffffffffffffffffffffffffffff168273ffffffffffffffffffffffffffffffffffffffff161415611851576040517f08c379a00000000000000000000000000000000000000000000000000000000081526004018080602001828103825260198152602001807f4552433732313a20617070726f766520746f2063616c6c65720000000000000081525060200191505060405180910390fd5b806005600061185e6124e3565b73ffffffffffffffffffffffffffffffffffffffff1673ffffffffffffffffffffffffffffffffffffffff16815260200190815260200160002060008473ffffffffffffffffffffffffffffffffffffffff1673ffffffffffffffffffffffffffffffffffffffff16815260200190815260200160002060006101000a81548160ff0219169083151502179055508173ffffffffffffffffffffffffffffffffffffffff1661190b6124e3565b73ffffffffffffffffffffffffffffffffffffffff167f17307eab39ab6107e8899845ad3d59bd9653f200f220920489ca2b5937696c318360405180821515815260200191505060405180910390a35050565b6000600c54905090565b606090565b61197e6119786124e3565b836125b9565b6119d3576040517f08c379a00000000000000000000000000000000000000000000000000000000081526004018080602001828103825260318152602001806139f46031913960400191505060405180910390fd5b6119df8484848461296a565b50505050565b600b81815481106119f557600080fd5b906000526020600020016000915090508054600181600116156101000203166002900480601f016020809104026020016040519081016040528092919081815260200182805460018160011615610100020316600290048015611a995780601f10611a6e57610100808354040283529160200191611a99565b820191906000526020600020905b815481529060010190602001808311611a7c57829003601f168201915b505050505081565b6060611aac826124c6565b611b01576040517f08c379a000000000000000000000000000000000000000000000000000000000815260040180806020018281038252602f8152602001806139a4602f913960400191505060405180910390fd5b6060600860008481526020019081526020016000208054600181600116156101000203166002900480601f016020809104026020016040519081016040528092919081815260200182805460018160011615610100020316600290048015611baa5780601f10611b7f57610100808354040283529160200191611baa565b820191906000526020600020905b815481529060010190602001808311611b8d57829003601f168201915b505050505090506060611bbb61132f565b9050600081511415611bd1578192505050611d6d565b600082511115611ca25780826040516020018083805190602001908083835b60208310611c135780518252602082019150602081019050602083039250611bf0565b6001836020036101000a03801982511681845116808217855250505050505090500182805190602001908083835b60208310611c645780518252602082019150602081019050602083039250611c41565b6001836020036101000a0380198251168184511680821785525050505050509050019250505060405160208183030381529060405292505050611d6d565b80611cac856129dc565b6040516020018083805190602001908083835b60208310611ce25780518252602082019150602081019050602083039250611cbf565b6001836020036101000a03801982511681845116808217855250505050505090500182805190602001908083835b60208310611d335780518252602082019150602081019050602083039250611d10565b6001836020036101000a03801982511681845116808217855250505050505090500192505050604051602081830303815290604052925050505b919050565b60118181548110611d8257600080fd5b906000526020600020016000915090508054600181600116156101000203166002900480601f016020809104026020016040519081016040528092919081815260200182805460018160011615610100020316600290048015611e265780601f10611dfb57610100808354040283529160200191611e26565b820191906000526020600020905b815481529060010190602001808311611e0957829003601f168201915b505050505081565b6012816040518082805190602001908083835b60208310611e645780518252602082019150602081019050602083039250611e41565b6001836020036101000a038019825116818451168082178552505050505050905001915050908152602001604051809103902060009054906101000a900460ff1615611eaf57600080fd5b600b81908060018154018082558091505060019003906000526020600020016000909190919091509080519060200190611eea929190613706565b5060006001600b80549050039050611f023382612b23565b60016012836040518082805190602001908083835b60208310611f3a5780518252602082019150602081019050602083039250611f17565b6001836020036101000a038019825116818451168082178552505050505050905001915050908152602001604051809103902060006101000a81548160ff0219169083151502179055505050565b611f906124e3565b73ffffffffffffffffffffffffffffffffffffffff16611fae611620565b73ffffffffffffffffffffffffffffffffffffffff1614612037576040517f08c379a00000000000000000000000000000000000000000000000000000000081526004018080602001828103825260208152602001807f4f776e61626c653a2063616c6c6572206973206e6f7420746865206f776e657281525060200191505060405180910390fd5b60606010838154811061204657fe5b906000526020600020018054600181600116156101000203166002900480601f0160208091040260200160405190810160405280929190818152602001828054600181600116156101000203166002900480156120e45780601f106120b9576101008083540402835291602001916120e4565b820191906000526020600020905b8154815290600101906020018083116120c757829003601f168201915b5050505050905081601084815481106120f957fe5b906000526020600020019080519060200190612116929190613706565b503373ffffffffffffffffffffffffffffffffffffffff16837f176ff2d12d5df6e831b6cdf0336d3d96822178d039bdba36513529961b81a67d8385604051808060200180602001838103835285818151815260200191508051906020019080838360005b8381101561219657808201518184015260208101905061217b565b50505050905090810190601f1680156121c35780820380516001836020036101000a031916815260200191505b50838103825284818151815260200191508051906020019080838360005b838110156121fc5780820151818401526020810190506121e1565b50505050905090810190601f1680156122295780820380516001836020036101000a031916815260200191505b5094505050505060405180910390a3505050565b6000600560008473ffffffffffffffffffffffffffffffffffffffff1673ffffffffffffffffffffffffffffffffffffffff16815260200190815260200160002060008373ffffffffffffffffffffffffffffffffffffffff1673ffffffffffffffffffffffffffffffffffffffff16815260200190815260200160002060009054906101000a900460ff16905092915050565b6122d96124e3565b73ffffffffffffffffffffffffffffffffffffffff166122f7611620565b73ffffffffffffffffffffffffffffffffffffffff1614612380576040517f08c379a00000000000000000000000000000000000000000000000000000000081526004018080602001828103825260208152602001807f4f776e61626c653a2063616c6c6572206973206e6f7420746865206f776e657281525060200191505060405180910390fd5b600073ffffffffffffffffffffffffffffffffffffffff168173ffffffffffffffffffffffffffffffffffffffff161415612406576040517f08c379a00000000000000000000000000000000000000000000000000000000081526004018080602001828103825260268152602001806138066026913960400191505060405180910390fd5b8073ffffffffffffffffffffffffffffffffffffffff16600a60009054906101000a900473ffffffffffffffffffffffffffffffffffffffff1673ffffffffffffffffffffffffffffffffffffffff167f8be0079c531659141344cd1fd0a4f28419497f9722a3daafe3b4186f6b6457e060405160405180910390a380600a60006101000a81548173ffffffffffffffffffffffffffffffffffffffff021916908373ffffffffffffffffffffffffffffffffffffffff16021790555050565b60006124dc826002612d1790919063ffffffff16565b9050919050565b600033905090565b816004600083815260200190815260200160002060006101000a81548173ffffffffffffffffffffffffffffffffffffffff021916908373ffffffffffffffffffffffffffffffffffffffff160217905550808273ffffffffffffffffffffffffffffffffffffffff1661255e836112f8565b73ffffffffffffffffffffffffffffffffffffffff167f8c5be1e5ebec7d5bd14f71427d1e84f3dd0314c0f7b2291e5b200ac8c7c3b92560405160405180910390a45050565b60006125b282600001612d31565b9050919050565b60006125c4826124c6565b612619576040517f08c379a000000000000000000000000000000000000000000000000000000000815260040180806020018281038252602c815260200180613876602c913960400191505060405180910390fd5b6000612624836112f8565b90508073ffffffffffffffffffffffffffffffffffffffff168473ffffffffffffffffffffffffffffffffffffffff16148061269357508373ffffffffffffffffffffffffffffffffffffffff1661267b84610ff4565b73ffffffffffffffffffffffffffffffffffffffff16145b806126a457506126a3818561223d565b5b91505092915050565b8273ffffffffffffffffffffffffffffffffffffffff166126cd826112f8565b73ffffffffffffffffffffffffffffffffffffffff1614612739576040517f08c379a000000000000000000000000000000000000000000000000000000000815260040180806020018281038252602981526020018061397b6029913960400191505060405180910390fd5b600073ffffffffffffffffffffffffffffffffffffffff168273ffffffffffffffffffffffffffffffffffffffff1614156127bf576040517f08c379a000000000000000000000000000000000000000000000000000000000815260040180806020018281038252602481526020018061382c6024913960400191505060405180910390fd5b6127ca838383612d42565b6127d56000826124eb565b61282681600160008673ffffffffffffffffffffffffffffffffffffffff1673ffffffffffffffffffffffffffffffffffffffff168152602001908152602001600020612d4790919063ffffffff16565b5061287881600160008573ffffffffffffffffffffffffffffffffffffffff1673ffffffffffffffffffffffffffffffffffffffff168152602001908152602001600020612d6190919063ffffffff16565b5061288f81836002612d7b9092919063ffffffff16565b50808273ffffffffffffffffffffffffffffffffffffffff168473ffffffffffffffffffffffffffffffffffffffff167fddf252ad1be2c89b69c2b068fc378daa952ba7f163c4a11628f55a4df523b3ef60405160405180910390a4505050565b60006128ff8360000183612db0565b60001c905092915050565b60008060008061291d8660000186612e33565b915091508160001c8160001c9350935050509250929050565b6000612949846000018460001b84612ecc565b60001c90509392505050565b600061296382600001612fc2565b9050919050565b6129758484846126ad565b61298184848484612fd3565b6129d6576040517f08c379a00000000000000000000000000000000000000000000000000000000081526004018080602001828103825260328152602001806137d46032913960400191505060405180910390fd5b50505050565b60606000821415612a24576040518060400160405280600181526020017f30000000000000000000000000000000000000000000000000000000000000008152509050612b1e565b600082905060005b60008214612a4e578080600101915050600a8281612a4657fe5b049150612a2c565b60608167ffffffffffffffff81118015612a6757600080fd5b506040519080825280601f01601f191660200182016040528015612a9a5781602001600182028036833780820191505090505b50905060006001830390508593505b60008414612b1657600a8481612abb57fe5b0660300160f81b82828060019003935081518110612ad557fe5b60200101907effffffffffffffffffffffffffffffffffffffffffffffffffffffffffffff1916908160001a905350600a8481612b0e57fe5b049350612aa9565b819450505050505b919050565b600073ffffffffffffffffffffffffffffffffffffffff168273ffffffffffffffffffffffffffffffffffffffff161415612bc6576040517f08c379a00000000000000000000000000000000000000000000000000000000081526004018080602001828103825260208152602001807f4552433732313a206d696e7420746f20746865207a65726f206164647265737381525060200191505060405180910390fd5b612bcf816124c6565b15612c42576040517f08c379a000000000000000000000000000000000000000000000000000000000815260040180806020018281038252601c8152602001807f4552433732313a20746f6b656e20616c7265616479206d696e7465640000000081525060200191505060405180910390fd5b612c4e60008383612d42565b612c9f81600160008573ffffffffffffffffffffffffffffffffffffffff1673ffffffffffffffffffffffffffffffffffffffff168152602001908152602001600020612d6190919063ffffffff16565b50612cb681836002612d7b9092919063ffffffff16565b50808273ffffffffffffffffffffffffffffffffffffffff16600073ffffffffffffffffffffffffffffffffffffffff167fddf252ad1be2c89b69c2b068fc378daa952ba7f163c4a11628f55a4df523b3ef60405160405180910390a45050565b6000612d29836000018360001b6131ec565b905092915050565b600081600001805490509050919050565b505050565b6000612d59836000018360001b61320f565b905092915050565b6000612d73836000018360001b6132f7565b905092915050565b6000612da7846000018460001b8473ffffffffffffffffffffffffffffffffffffffff1660001b613367565b90509392505050565b600081836000018054905011612e11576040517f08c379a00000000000000000000000000000000000000000000000000000000081526004018080602001828103825260228152602001806137b26022913960400191505060405180910390fd5b826000018281548110612e2057fe5b9060005260206000200154905092915050565b60008082846000018054905011612e95576040517f08c379a000000000000000000000000000000000000000000000000000000000815260040180806020018281038252602281526020018061392d6022913960400191505060405180910390fd5b6000846000018481548110612ea657fe5b906000526020600020906002020190508060000154816001015492509250509250929050565b60008084600101600085815260200190815260200160002054905060008114158390612f93576040517f08c379a00000000000000000000000000000000000000000000000000000000081526004018080602001828103825283818151815260200191508051906020019080838360005b83811015612f58578082015181840152602081019050612f3d565b50505050905090810190601f168015612f855780820380516001836020036101000a031916815260200191505b509250505060405180910390fd5b50846000016001820381548110612fa657fe5b9060005260206000209060020201600101549150509392505050565b600081600001805490509050919050565b6000612ff48473ffffffffffffffffffffffffffffffffffffffff16613443565b61300157600190506131e4565b606061316b63150b7a0260e01b6130166124e3565b888787604051602401808573ffffffffffffffffffffffffffffffffffffffff1681526020018473ffffffffffffffffffffffffffffffffffffffff16815260200183815260200180602001828103825283818151815260200191508051906020019080838360005b8381101561309a57808201518184015260208101905061307f565b50505050905090810190601f1680156130c75780820380516001836020036101000a031916815260200191505b5095505050505050604051602081830303815290604052907bffffffffffffffffffffffffffffffffffffffffffffffffffffffff19166020820180517bffffffffffffffffffffffffffffffffffffffffffffffffffffffff83818316178352505050506040518060600160405280603281526020016137d4603291398773ffffffffffffffffffffffffffffffffffffffff166134569092919063ffffffff16565b9050600081806020019051602081101561318457600080fd5b8101908080519060200190929190505050905063150b7a0260e01b7bffffffffffffffffffffffffffffffffffffffffffffffffffffffff1916817bffffffffffffffffffffffffffffffffffffffffffffffffffffffff191614925050505b949350505050565b600080836001016000848152602001908152602001600020541415905092915050565b600080836001016000848152602001908152602001600020549050600081146132eb576000600182039050600060018660000180549050039050600086600001828154811061325a57fe5b906000526020600020015490508087600001848154811061327757fe5b90600052602060002001819055506001830187600101600083815260200190815260200160002081905550866000018054806132af57fe5b600190038181906000526020600020016000905590558660010160008781526020019081526020016000206000905560019450505050506132f1565b60009150505b92915050565b6000613303838361346e565b61335c578260000182908060018154018082558091505060019003906000526020600020016000909190919091505582600001805490508360010160008481526020019081526020016000208190555060019050613361565b600090505b92915050565b600080846001016000858152602001908152602001600020549050600081141561340e5784600001604051806040016040528086815260200185815250908060018154018082558091505060019003906000526020600020906002020160009091909190915060008201518160000155602082015181600101555050846000018054905085600101600086815260200190815260200160002081905550600191505061343c565b8285600001600183038154811061342157fe5b90600052602060002090600202016001018190555060009150505b9392505050565b600080823b905060008111915050919050565b60606134658484600085613491565b90509392505050565b600080836001016000848152602001908152602001600020541415905092915050565b6060824710156134ec576040517f08c379a00000000000000000000000000000000000000000000000000000000081526004018080602001828103825260268152602001806138506026913960400191505060405180910390fd5b6134f585613443565b613567576040517f08c379a000000000000000000000000000000000000000000000000000000000815260040180806020018281038252601d8152602001807f416464726573733a2063616c6c20746f206e6f6e2d636f6e747261637400000081525060200191505060405180910390fd5b600060608673ffffffffffffffffffffffffffffffffffffffff1685876040518082805190602001908083835b602083106135b75780518252602082019150602081019050602083039250613594565b6001836020036101000a03801982511681845116808217855250505050505090500191505060006040518083038185875af1925050503d8060008114613619576040519150601f19603f3d011682016040523d82523d6000602084013e61361e565b606091505b509150915061362e82828661363a565b92505050949350505050565b6060831561364a578290506136ff565b60008351111561365d5782518084602001fd5b816040517f08c379a00000000000000000000000000000000000000000000000000000000081526004018080602001828103825283818151815260200191508051906020019080838360005b838110156136c45780820151818401526020810190506136a9565b50505050905090810190601f1680156136f15780820380516001836020036101000a031916815260200191505b509250505060405180910390fd5b9392505050565b828054600181600116156101000203166002900490600052602060002090601f01602090048101928261373c5760008555613783565b82601f1061375557805160ff1916838001178555613783565b82800160010185558215613783579182015b82811115613782578251825591602001919060010190613767565b5b5090506137909190613794565b5090565b5b808211156137ad576000816000905550600101613795565b509056fe456e756d657261626c655365743a20696e646578206f7574206f6620626f756e64734552433732313a207472616e7366657220746f206e6f6e20455243373231526563656976657220696d706c656d656e7465724f776e61626c653a206e6577206f776e657220697320746865207a65726f20616464726573734552433732313a207472616e7366657220746f20746865207a65726f2061646472657373416464726573733a20696e73756666696369656e742062616c616e636520666f722063616c6c4552433732313a206f70657261746f7220717565727920666f72206e6f6e6578697374656e7420746f6b656e4552433732313a20617070726f76652063616c6c6572206973206e6f74206f776e6572206e6f7220617070726f76656420666f7220616c6c4552433732313a2062616c616e636520717565727920666f7220746865207a65726f20616464726573734552433732313a206f776e657220717565727920666f72206e6f6e6578697374656e7420746f6b656e456e756d657261626c654d61703a20696e646578206f7574206f6620626f756e64734552433732313a20617070726f76656420717565727920666f72206e6f6e6578697374656e7420746f6b656e4552433732313a207472616e73666572206f6620746f6b656e2074686174206973206e6f74206f776e4552433732314d657461646174613a2055524920717565727920666f72206e6f6e6578697374656e7420746f6b656e4552433732313a20617070726f76616c20746f2063757272656e74206f776e65724552433732313a207472616e736665722063616c6c6572206973206e6f74206f776e6572206e6f7220617070726f766564a2646970667358221220e4f870877b63b4f840f7260b2543dd62403719a3f4ede9afa2f2636b94851a7364736f6c63430007040033",
  "immutableReferences": {},
  "source": "pragma solidity ^0.7.4;\r\n\r\nimport \"@openzeppelin/contracts/token/ERC721/ERC721.sol\";\r\nimport \"@openzeppelin/contracts/access/Ownable.sol\";\r\n\r\ncontract Color is ERC721,Ownable {\r\n\r\n\tstring[] public colors;\r\n  \tuint junk = 10;\r\n  \tuint nPixX=3;\r\n  \tuint nPixY=3;\r\n  \tuint nPix=nPixX*nPixY;\r\n  \tstring[] public pixels;\r\n  \tstring[] public pallet; \r\n\r\n\r\n\tmapping(string => bool) _colorExists;\r\n\tevent PixelChanged(uint indexed changedPixel, string from, string to, address indexed by);\r\n\t\r\n\tconstructor() ERC721(\"Color\", \"COLOR\") public {\r\n\t\tbuildLut();\r\n\t\tbuildCanvas();\r\n\t\tpaintCanvas();\r\n  \t}\r\n\r\n  \tfunction buildLut() private   {\r\n  \t\tpallet.push(\"#000000\");\r\n  \t\tpallet.push(\"#ff0000\");\r\n\t\tpallet.push(\"#00ff00\");\r\n\t\tpallet.push(\"#0000ff\");\r\n  \t}\r\n\r\n  \tfunction buildCanvas () private {\r\n  \t\tfor(uint p=0; p<nPix; p++){\r\n\r\n\t\t\t// pixels[p]=pallet[0];\r\n\t\t\t// pixels[0]=\"ack\";\r\n\t\t\tpixels.push(pallet[0]);\r\n\r\n\t\t}\t\r\n  \t}\r\n  \t\r\n\r\n\tfunction paintCanvas () private   {\r\n\t\t// uint i=0;\r\n\t\tfor(uint p=0; p<nPix; p++){\r\n\r\n\t\t\tsetPixel(p,pallet[p%3]);\r\n\t\t\t// setPixel(p,\"dick\");\r\n\r\n\t\t}\t\r\n\r\n\t}\r\n\r\n\tfunction setPixel(uint  _pixn, string memory _pixcolor) public onlyOwner {\r\n\t\tstring memory  _priorColor=pixels[_pixn];\r\n\t\t// string memory  _priorColor=pixels[0];\r\n\t\tpixels[_pixn]=_pixcolor;\r\n\t\temit PixelChanged(_pixn,_priorColor,_pixcolor, msg.sender);\r\n\t\t\r\n\t}\r\n\t\r\n  \t\r\n\r\n\r\n\r\n  \tfunction generateSVG() public view returns (string memory){\r\n  \t\t//returns the svg string of the canvas\r\n  \t}\r\n  \t// function setPixelTick(uint memory _tick) public payable \r\n\r\n    // function totalSupply\r\n    function getjunk() public view returns(uint){\r\n      return junk;\r\n    }\r\n  \r\n\tfunction testReturn(string memory _color) public returns(string memory) {\r\n\t    // _mint(msg.sender, 1);\r\n\t    return _color;\r\n\t}\r\n\r\n\tfunction mint(string memory _color) public {\r\n\t  require(!_colorExists[_color]);\r\n\t  colors.push(_color);\r\n\t  uint _id = colors.length-1;\r\n\t  _mint(msg.sender, _id);\r\n\t  _colorExists[_color] = true;\r\n\t}\r\n\r\n}\r\n",
  "sourcePath": "H:/Expermental/nft/src/contracts/Color.sol",
  "compiler": {
    "name": "solc",
    "version": "0.7.4+commit.3f05b770.Emscripten.clang"
  },
  "schemaVersion": "3.3.4",
  "updatedAt": "2021-03-13T03:48:37.564Z",
  "networkType": "ethereum",
  "devdoc": {
    "kind": "dev",
    "methods": {
      "approve(address,uint256)": {
        "details": "See {IERC721-approve}."
      },
      "balanceOf(address)": {
        "details": "See {IERC721-balanceOf}."
      },
      "baseURI()": {
        "details": "Returns the base URI set via {_setBaseURI}. This will be automatically added as a prefix in {tokenURI} to each token's URI, or to the token ID if no specific URI is set for that token ID."
      },
      "getApproved(uint256)": {
        "details": "See {IERC721-getApproved}."
      },
      "isApprovedForAll(address,address)": {
        "details": "See {IERC721-isApprovedForAll}."
      },
      "name()": {
        "details": "See {IERC721Metadata-name}."
      },
      "owner()": {
        "details": "Returns the address of the current owner."
      },
      "ownerOf(uint256)": {
        "details": "See {IERC721-ownerOf}."
      },
      "renounceOwnership()": {
        "details": "Leaves the contract without owner. It will not be possible to call `onlyOwner` functions anymore. Can only be called by the current owner. NOTE: Renouncing ownership will leave the contract without an owner, thereby removing any functionality that is only available to the owner."
      },
      "safeTransferFrom(address,address,uint256)": {
        "details": "See {IERC721-safeTransferFrom}."
      },
      "safeTransferFrom(address,address,uint256,bytes)": {
        "details": "See {IERC721-safeTransferFrom}."
      },
      "setApprovalForAll(address,bool)": {
        "details": "See {IERC721-setApprovalForAll}."
      },
      "supportsInterface(bytes4)": {
        "details": "See {IERC165-supportsInterface}. Time complexity O(1), guaranteed to always use less than 30 000 gas."
      },
      "symbol()": {
        "details": "See {IERC721Metadata-symbol}."
      },
      "tokenByIndex(uint256)": {
        "details": "See {IERC721Enumerable-tokenByIndex}."
      },
      "tokenOfOwnerByIndex(address,uint256)": {
        "details": "See {IERC721Enumerable-tokenOfOwnerByIndex}."
      },
      "tokenURI(uint256)": {
        "details": "See {IERC721Metadata-tokenURI}."
      },
      "totalSupply()": {
        "details": "See {IERC721Enumerable-totalSupply}."
      },
      "transferFrom(address,address,uint256)": {
        "details": "See {IERC721-transferFrom}."
      },
      "transferOwnership(address)": {
        "details": "Transfers ownership of the contract to a new account (`newOwner`). Can only be called by the current owner."
      }
    },
    "version": 1
  },
  "userdoc": {
    "kind": "user",
    "methods": {},
    "version": 1
  }
}