{
  "contractName": "TestColor",
  "abi": [
    {
      "inputs": [],
      "stateMutability": "nonpayable",
      "type": "constructor"
    },
    {
      "anonymous": false,
      "inputs": [
        {
          "indexed": true,
          "internalType": "uint256",
          "name": "changedPixel",
          "type": "uint256"
        },
        {
          "indexed": false,
          "internalType": "string",
          "name": "from",
          "type": "string"
        },
        {
          "indexed": false,
          "internalType": "string",
          "name": "to",
          "type": "string"
        },
        {
          "indexed": true,
          "internalType": "address",
          "name": "by",
          "type": "address"
        }
      ],
      "name": "PixelChanged",
      "type": "event"
    },
    {
      "anonymous": false,
      "inputs": [
        {
          "indexed": false,
          "internalType": "string",
          "name": "SVG",
          "type": "string"
        },
        {
          "indexed": true,
          "internalType": "address",
          "name": "by",
          "type": "address"
        }
      ],
      "name": "SVGgenerated",
      "type": "event"
    },
    {
      "inputs": [
        {
          "internalType": "uint256",
          "name": "",
          "type": "uint256"
        }
      ],
      "name": "canvasSVG",
      "outputs": [
        {
          "internalType": "string",
          "name": "",
          "type": "string"
        }
      ],
      "stateMutability": "view",
      "type": "function"
    },
    {
      "inputs": [
        {
          "internalType": "uint256",
          "name": "",
          "type": "uint256"
        }
      ],
      "name": "pallet",
      "outputs": [
        {
          "internalType": "string",
          "name": "",
          "type": "string"
        }
      ],
      "stateMutability": "view",
      "type": "function"
    },
    {
      "inputs": [
        {
          "internalType": "uint256",
          "name": "",
          "type": "uint256"
        }
      ],
      "name": "pixels",
      "outputs": [
        {
          "internalType": "string",
          "name": "",
          "type": "string"
        }
      ],
      "stateMutability": "view",
      "type": "function"
    },
    {
      "inputs": [
        {
          "internalType": "uint256",
          "name": "_pixn",
          "type": "uint256"
        },
        {
          "internalType": "string",
          "name": "_pixcolor",
          "type": "string"
        }
      ],
      "name": "setPixel",
      "outputs": [],
      "stateMutability": "nonpayable",
      "type": "function"
    },
    {
      "inputs": [],
      "name": "generateSVG",
      "outputs": [
        {
          "internalType": "string",
          "name": "",
          "type": "string"
        }
      ],
      "stateMutability": "nonpayable",
      "type": "function"
    }
  ],
  "bytecode": "0x6080604052600a600355600360045560036005556005546004540260065534801561002957600080fd5b506113d5806100396000396000f3fe608060405234801561001057600080fd5b50600436106100575760003560e01c80638da7f2321461005c5780639ff9d89414610103578063ad711e9e146101aa578063d2ea1b7b1461022d578063e758e2f3146102d4575b600080fd5b6100886004803603602081101561007257600080fd5b8101908080359060200190929190505050610399565b6040518080602001828103825283818151815260200191508051906020019080838360005b838110156100c85780820151818401526020810190506100ad565b50505050905090810190601f1680156100f55780820380516001836020036101000a031916815260200191505b509250505060405180910390f35b61012f6004803603602081101561011957600080fd5b8101908080359060200190929190505050610455565b6040518080602001828103825283818151815260200191508051906020019080838360005b8381101561016f578082015181840152602081019050610154565b50505050905090810190601f16801561019c5780820380516001836020036101000a031916815260200191505b509250505060405180910390f35b6101b2610511565b6040518080602001828103825283818151815260200191508051906020019080838360005b838110156101f25780820151818401526020810190506101d7565b50505050905090810190601f16801561021f5780820380516001836020036101000a031916815260200191505b509250505060405180910390f35b6102596004803603602081101561024357600080fd5b8101908080359060200190929190505050610eb9565b6040518080602001828103825283818151815260200191508051906020019080838360005b8381101561029957808201518184015260208101905061027e565b50505050905090810190601f1680156102c65780820380516001836020036101000a031916815260200191505b509250505060405180910390f35b610397600480360360408110156102ea57600080fd5b81019080803590602001909291908035906020019064010000000081111561031157600080fd5b82018360208201111561032357600080fd5b8035906020019184600183028401116401000000008311171561034557600080fd5b91908080601f016020809104026020016040519081016040528093929190818152602001838380828437600081840152601f19601f820116905080830192505050505050509192919290505050610f75565b005b600081815481106103a957600080fd5b906000526020600020016000915090508054600181600116156101000203166002900480601f01602080910402602001604051908101604052809291908181526020018280546001816001161561010002031660029004801561044d5780601f106104225761010080835404028352916020019161044d565b820191906000526020600020905b81548152906001019060200180831161043057829003601f168201915b505050505081565b6002818154811061046557600080fd5b906000526020600020016000915090508054600181600116156101000203166002900480601f0160208091040260200160405190810160405280929190818152602001828054600181600116156101000203166002900480156105095780601f106104de57610100808354040283529160200191610509565b820191906000526020600020905b8154815290600101906020018083116104ec57829003601f168201915b505050505081565b6060806000808154811061052157fe5b9060005260206000200160405160200180806112c260259139602501828054600181600116156101000203166002900480156105945780601f10610572576101008083540402835291820191610594565b820191906000526020600020905b815481529060010190602001808311610580575b5050806112556023913960230191505060405160208183030381529060405260006001815481106105c157fe5b90600052602060002001604051602001808061130c60259139602501828054600181600116156101000203166002900480156106345780601f10610612576101008083540402835291820191610634565b820191906000526020600020905b815481529060010190602001808311610620575b50508061125560239139602301915050604051602081830303815290604052600060028154811061066157fe5b9060005260206000200160405160200180806112e760259139602501828054600181600116156101000203166002900480156106d45780601f106106b25761010080835404028352918201916106d4565b820191906000526020600020905b8154815290600101906020018083116106c0575b50508061125560239139602301915050604051602081830303815290604052600060038154811061070157fe5b90600052602060002001604051602001808061137b60259139602501828054600181600116156101000203166002900480156107745780601f10610752576101008083540402835291820191610774565b820191906000526020600020905b815481529060010190602001808311610760575b5050806112556023913960230191505060405160208183030381529060405260006004815481106107a157fe5b90600052602060002001604051602001808061127860259139602501828054600181600116156101000203166002900480156108145780601f106107f2576101008083540402835291820191610814565b820191906000526020600020905b815481529060010190602001808311610800575b50508061125560239139602301915050604051602081830303815290604052600060058154811061084157fe5b90600052602060002001604051602001808061123060259139602501828054600181600116156101000203166002900480156108b45780601f106108925761010080835404028352918201916108b4565b820191906000526020600020905b8154815290600101906020018083116108a0575b5050806112556023913960230191505060405160208183030381529060405260006006815481106108e157fe5b90600052602060002001604051602001808061129d60259139602501828054600181600116156101000203166002900480156109545780601f10610932576101008083540402835291820191610954565b820191906000526020600020905b815481529060010190602001808311610940575b50508061125560239139602301915050604051602081830303815290604052600060078154811061098157fe5b90600052602060002001604051602001808061135660259139602501828054600181600116156101000203166002900480156109f45780601f106109d25761010080835404028352918201916109f4565b820191906000526020600020905b8154815290600101906020018083116109e0575b505080611255602391396023019150506040516020818303038152906040526000600881548110610a2157fe5b9060005260206000200160405160200180806113316025913960250182805460018160011615610100020316600290048015610a945780601f10610a72576101008083540402835291820191610a94565b820191906000526020600020905b815481529060010190602001808311610a80575b5050806112556023913960230191505060405160208183030381529060405260405160200180807f3c7376672077696474683d2731353027206865696768743d27313830273e0000815250601e018a805190602001908083835b60208310610b115780518252602082019150602081019050602083039250610aee565b6001836020036101000a03801982511681845116808217855250505050505090500189805190602001908083835b60208310610b625780518252602082019150602081019050602083039250610b3f565b6001836020036101000a03801982511681845116808217855250505050505090500188805190602001908083835b60208310610bb35780518252602082019150602081019050602083039250610b90565b6001836020036101000a03801982511681845116808217855250505050505090500187805190602001908083835b60208310610c045780518252602082019150602081019050602083039250610be1565b6001836020036101000a03801982511681845116808217855250505050505090500186805190602001908083835b60208310610c555780518252602082019150602081019050602083039250610c32565b6001836020036101000a03801982511681845116808217855250505050505090500185805190602001908083835b60208310610ca65780518252602082019150602081019050602083039250610c83565b6001836020036101000a03801982511681845116808217855250505050505090500184805190602001908083835b60208310610cf75780518252602082019150602081019050602083039250610cd4565b6001836020036101000a03801982511681845116808217855250505050505090500183805190602001908083835b60208310610d485780518252602082019150602081019050602083039250610d25565b6001836020036101000a03801982511681845116808217855250505050505090500182805190602001908083835b60208310610d995780518252602082019150602081019050602083039250610d76565b6001836020036101000a038019825116818451168082178552505050505050905001807f3c2f7376673e0000000000000000000000000000000000000000000000000000815250600601995050505050505050505060405160208183030381529060405290503373ffffffffffffffffffffffffffffffffffffffff167f73cc29bc981d0bb11f21b055e91e88c3955bbe54a252455677618cb64c31e356826040518080602001828103825283818151815260200191508051906020019080838360005b83811015610e78578082015181840152602081019050610e5d565b50505050905090810190601f168015610ea55780820380516001836020036101000a031916815260200191505b509250505060405180910390a28091505090565b60018181548110610ec957600080fd5b906000526020600020016000915090508054600181600116156101000203166002900480601f016020809104026020016040519081016040528092919081815260200182805460018160011615610100020316600290048015610f6d5780601f10610f4257610100808354040283529160200191610f6d565b820191906000526020600020905b815481529060010190602001808311610f5057829003601f168201915b505050505081565b606060008381548110610f8457fe5b906000526020600020018054600181600116156101000203166002900480601f0160208091040260200160405190810160405280929190818152602001828054600181600116156101000203166002900480156110225780601f10610ff757610100808354040283529160200191611022565b820191906000526020600020905b81548152906001019060200180831161100557829003601f168201915b50505050509050816000848154811061103757fe5b906000526020600020019080519060200190611054929190611184565b503373ffffffffffffffffffffffffffffffffffffffff16837f176ff2d12d5df6e831b6cdf0336d3d96822178d039bdba36513529961b81a67d8385604051808060200180602001838103835285818151815260200191508051906020019080838360005b838110156110d45780820151818401526020810190506110b9565b50505050905090810190601f1680156111015780820380516001836020036101000a031916815260200191505b50838103825284818151815260200191508051906020019080838360005b8381101561113a57808201518184015260208101905061111f565b50505050905090810190601f1680156111675780820380516001836020036101000a031916815260200191505b5094505050505060405180910390a361117e610511565b50505050565b828054600181600116156101000203166002900490600052602060002090601f0160209004810192826111ba5760008555611201565b82601f106111d357805160ff1916838001178555611201565b82800160010185558215611201579182015b828111156112005782518255916020019190600101906111e5565b5b50905061120e9190611212565b5090565b5b8082111561122b576000816000905550600101611213565b509056fe3c636972636c652063783d273930272063793d2736302720723d273230272066696c6c3d2727207374726f6b652d77696474683d273927207374726f6b653d27626c61636b272f3e3c636972636c652063783d273630272063793d2736302720723d273230272066696c6c3d273c636972636c652063783d273330272063793d2739302720723d273230272066696c6c3d273c636972636c652063783d273330272063793d2733302720723d273230272066696c6c3d273c636972636c652063783d273930272063793d2733302720723d273230272066696c6c3d273c636972636c652063783d273630272063793d2733302720723d273230272066696c6c3d273c636972636c652063783d273930272063793d2739302720723d273230272066696c6c3d273c636972636c652063783d273630272063793d2739302720723d273230272066696c6c3d273c636972636c652063783d273330272063793d2736302720723d273230272066696c6c3d27a264697066735822122099fd5faf711395a34034ac92b2c7e6cf93682415cdc49e250a3cea149a2857e664736f6c63430007040033",
  "immutableReferences": {},
  "source": "pragma solidity ^0.7.4;\r\n\r\n/**\r\n * The contractName contract does this and that...\r\n */\r\ncontract TestColor {\r\n\r\n\t  \tstring[] public pixels;\r\n  \tstring[] public pallet; \r\n  \tstring[] public canvasSVG;\r\n\r\n  \t  \tuint junk = 10;\r\n  \tuint nPixX=3;\r\n  \tuint nPixY=3;\r\n  \tuint nPix=nPixX*nPixY;\r\n  constructor() public {\r\n    \r\n  }\r\n  \tevent PixelChanged(uint indexed changedPixel, string from, string to, address indexed by);\r\n  \t\tevent SVGgenerated(string SVG, address indexed by);\r\n\r\n\r\n\tfunction setPixel(uint  _pixn, string memory _pixcolor) public {\r\n\t\tstring memory  _priorColor=pixels[_pixn];\r\n\t\t// string memory  _priorColor=pixels[0];\r\n\t\tpixels[_pixn]=_pixcolor;\r\n\t\temit PixelChanged(_pixn,_priorColor,_pixcolor, msg.sender);\r\n\t\tgenerateSVG();\r\n\t\t\r\n\t}\r\n    \tfunction buildLut() internal   {\r\n  \t\tpallet.push(\"#000000\");\r\n  \t\tpallet.push(\"#ff0000\");\r\n\t\tpallet.push(\"#00ff00\");\r\n\t\tpallet.push(\"#0000ff\");\r\n  \t}\r\n\r\n  \t\tfunction buildCanvas () internal {\r\n  \t\tfor(uint p=0; p<nPix; p++){\r\n\r\n\t\t\t// pixels[p]=pallet[0];\r\n\t\t\t// pixels[0]=\"ack\";\r\n\t\t\tpixels.push(pallet[0]);\r\n\r\n\t\t}\t\r\n  \t}\r\n\r\n  \t\tfunction paintCanvas () internal   {\r\n\t\t// uint i=0;\r\n\t\tfor(uint p=0; p<nPix; p++){\r\n\r\n\t\t\tsetPixel(p,pallet[(p%3)+1]);\r\n\t\t\t// setPixel(p,\"dick\");\r\n\r\n\t\t}\t\r\n\r\n\t}\r\n\r\n\t  \tfunction generateSVG() public returns (string memory){\r\n  \t\t//returns the svg string of the canvas\r\n  \t\t    string memory svg = \r\n  \t\t    string(\r\n  \t\t    \tabi.encodePacked(\r\n            \t\t\t\t\t\"<svg width='150' height='180'>\", \r\n            \t\t\t\t\tstring(abi.encodePacked(\"<circle cx='30' cy='30' r='20' fill='\",pixels[0],\"' stroke-width='9' stroke='black'/>\")),\r\n            \t\t\t\t\tstring(abi.encodePacked(\"<circle cx='60' cy='30' r='20' fill='\",pixels[1],\"' stroke-width='9' stroke='black'/>\")),\r\n            \t\t\t\t\tstring(abi.encodePacked(\"<circle cx='90' cy='30' r='20' fill='\",pixels[2],\"' stroke-width='9' stroke='black'/>\")), \r\n            \t\t\t\t\tstring(abi.encodePacked(\"<circle cx='30' cy='60' r='20' fill='\",pixels[3],\"' stroke-width='9' stroke='black'/>\")), \r\n            \t\t\t\t\tstring(abi.encodePacked(\"<circle cx='60' cy='60' r='20' fill='\",pixels[4],\"' stroke-width='9' stroke='black'/>\")), \r\n            \t\t\t\t\tstring(abi.encodePacked(\"<circle cx='90' cy='60' r='20' fill='\",pixels[5],\"' stroke-width='9' stroke='black'/>\")), \r\n            \t\t\t\t\tstring(abi.encodePacked(\"<circle cx='30' cy='90' r='20' fill='\",pixels[6],\"' stroke-width='9' stroke='black'/>\")), \r\n            \t\t\t\t\tstring(abi.encodePacked(\"<circle cx='60' cy='90' r='20' fill='\",pixels[7],\"' stroke-width='9' stroke='black'/>\")), \r\n            \t\t\t\t\tstring(abi.encodePacked(\"<circle cx='90' cy='90' r='20' fill='\",pixels[8],\"' stroke-width='9' stroke='black'/>\")),\r\n            \t\t\t\t\t\"</svg>\"\r\n        \t\t\t\t\t\t)\r\n        \t);\r\n  \t\temit SVGgenerated(svg,msg.sender);\r\n\r\n        return svg;\r\n  \t}\r\n}\r\n",
  "sourcePath": "H:/Expermental/nft/src/contracts/TestColor.sol",
  "compiler": {
    "name": "solc",
    "version": "0.7.4+commit.3f05b770.Emscripten.clang"
  },
  "schemaVersion": "3.3.4",
  "updatedAt": "2021-03-22T22:31:15.079Z",
  "devdoc": {
    "kind": "dev",
    "methods": {},
    "version": 1
  },
  "userdoc": {
    "kind": "user",
    "methods": {},
    "notice": "The contractName contract does this and that...",
    "version": 1
  }
}