{
  "contractName": "TestColor",
  "abi": [
    {
      "inputs": [],
      "stateMutability": "nonpayable",
      "type": "constructor"
    },
    {
      "anonymous": false,
      "inputs": [
        {
          "indexed": true,
          "internalType": "uint256",
          "name": "changedPixel",
          "type": "uint256"
        },
        {
          "indexed": false,
          "internalType": "string",
          "name": "from",
          "type": "string"
        },
        {
          "indexed": false,
          "internalType": "string",
          "name": "to",
          "type": "string"
        },
        {
          "indexed": true,
          "internalType": "address",
          "name": "by",
          "type": "address"
        }
      ],
      "name": "PixelChanged",
      "type": "event"
    },
    {
      "anonymous": false,
      "inputs": [
        {
          "indexed": false,
          "internalType": "string",
          "name": "SVG",
          "type": "string"
        },
        {
          "indexed": true,
          "internalType": "address",
          "name": "by",
          "type": "address"
        }
      ],
      "name": "SVGgenerated",
      "type": "event"
    },
    {
      "inputs": [
        {
          "internalType": "uint256",
          "name": "",
          "type": "uint256"
        }
      ],
      "name": "canvasSVG",
      "outputs": [
        {
          "internalType": "string",
          "name": "",
          "type": "string"
        }
      ],
      "stateMutability": "view",
      "type": "function"
    },
    {
      "inputs": [
        {
          "internalType": "uint256",
          "name": "",
          "type": "uint256"
        }
      ],
      "name": "pallet",
      "outputs": [
        {
          "internalType": "string",
          "name": "",
          "type": "string"
        }
      ],
      "stateMutability": "view",
      "type": "function"
    },
    {
      "inputs": [
        {
          "internalType": "uint256",
          "name": "",
          "type": "uint256"
        }
      ],
      "name": "pixels",
      "outputs": [
        {
          "internalType": "string",
          "name": "",
          "type": "string"
        }
      ],
      "stateMutability": "view",
      "type": "function"
    },
    {
      "inputs": [],
      "name": "getjunk",
      "outputs": [
        {
          "internalType": "uint256",
          "name": "",
          "type": "uint256"
        }
      ],
      "stateMutability": "view",
      "type": "function"
    },
    {
      "inputs": [
        {
          "internalType": "string",
          "name": "_returnString",
          "type": "string"
        }
      ],
      "name": "testReturn",
      "outputs": [
        {
          "internalType": "string",
          "name": "",
          "type": "string"
        }
      ],
      "stateMutability": "nonpayable",
      "type": "function"
    },
    {
      "inputs": [
        {
          "internalType": "uint256",
          "name": "_pixn",
          "type": "uint256"
        },
        {
          "internalType": "string",
          "name": "_pixcolor",
          "type": "string"
        }
      ],
      "name": "setPixel",
      "outputs": [],
      "stateMutability": "nonpayable",
      "type": "function"
    },
    {
      "inputs": [],
      "name": "generateSVG",
      "outputs": [
        {
          "internalType": "string",
          "name": "",
          "type": "string"
        }
      ],
      "stateMutability": "nonpayable",
      "type": "function"
    }
  ],
  "bytecode": "0x6080604052600a600355600360045560036005556005546004540260065534801561002957600080fd5b50611561806100396000396000f3fe608060405234801561001057600080fd5b506004361061007d5760003560e01c8063a969e8a21161005b578063a969e8a214610304578063ad711e9e14610322578063d2ea1b7b146103a5578063e758e2f31461044c5761007d565b80637707f214146100825780638da7f232146101b65780639ff9d8941461025d575b600080fd5b61013b6004803603602081101561009857600080fd5b81019080803590602001906401000000008111156100b557600080fd5b8201836020820111156100c757600080fd5b803590602001918460018302840111640100000000831117156100e957600080fd5b91908080601f016020809104026020016040519081016040528093929190818152602001838380828437600081840152601f19601f820116905080830192505050505050509192919290505050610511565b6040518080602001828103825283818151815260200191508051906020019080838360005b8381101561017b578082015181840152602081019050610160565b50505050905090810190601f1680156101a85780820380516001836020036101000a031916815260200191505b509250505060405180910390f35b6101e2600480360360208110156101cc57600080fd5b810190808035906020019092919050505061051b565b6040518080602001828103825283818151815260200191508051906020019080838360005b83811015610222578082015181840152602081019050610207565b50505050905090810190601f16801561024f5780820380516001836020036101000a031916815260200191505b509250505060405180910390f35b6102896004803603602081101561027357600080fd5b81019080803590602001909291905050506105d7565b6040518080602001828103825283818151815260200191508051906020019080838360005b838110156102c95780820151818401526020810190506102ae565b50505050905090810190601f1680156102f65780820380516001836020036101000a031916815260200191505b509250505060405180910390f35b61030c610693565b6040518082815260200191505060405180910390f35b61032a61069d565b6040518080602001828103825283818151815260200191508051906020019080838360005b8381101561036a57808201518184015260208101905061034f565b50505050905090810190601f1680156103975780820380516001836020036101000a031916815260200191505b509250505060405180910390f35b6103d1600480360360208110156103bb57600080fd5b8101908080359060200190929190505050611045565b6040518080602001828103825283818151815260200191508051906020019080838360005b838110156104115780820151818401526020810190506103f6565b50505050905090810190601f16801561043e5780820380516001836020036101000a031916815260200191505b509250505060405180910390f35b61050f6004803603604081101561046257600080fd5b81019080803590602001909291908035906020019064010000000081111561048957600080fd5b82018360208201111561049b57600080fd5b803590602001918460018302840111640100000000831117156104bd57600080fd5b91908080601f016020809104026020016040519081016040528093929190818152602001838380828437600081840152601f19601f820116905080830192505050505050509192919290505050611101565b005b6060819050919050565b6000818154811061052b57600080fd5b906000526020600020016000915090508054600181600116156101000203166002900480601f0160208091040260200160405190810160405280929190818152602001828054600181600116156101000203166002900480156105cf5780601f106105a4576101008083540402835291602001916105cf565b820191906000526020600020905b8154815290600101906020018083116105b257829003601f168201915b505050505081565b600281815481106105e757600080fd5b906000526020600020016000915090508054600181600116156101000203166002900480601f01602080910402602001604051908101604052809291908181526020018280546001816001161561010002031660029004801561068b5780601f106106605761010080835404028352916020019161068b565b820191906000526020600020905b81548152906001019060200180831161066e57829003601f168201915b505050505081565b6000600354905090565b606080600080815481106106ad57fe5b90600052602060002001604051602001808061144e60259139602501828054600181600116156101000203166002900480156107205780601f106106fe576101008083540402835291820191610720565b820191906000526020600020905b81548152906001019060200180831161070c575b5050806113e160239139602301915050604051602081830303815290604052600060018154811061074d57fe5b90600052602060002001604051602001808061149860259139602501828054600181600116156101000203166002900480156107c05780601f1061079e5761010080835404028352918201916107c0565b820191906000526020600020905b8154815290600101906020018083116107ac575b5050806113e16023913960230191505060405160208183030381529060405260006002815481106107ed57fe5b90600052602060002001604051602001808061147360259139602501828054600181600116156101000203166002900480156108605780601f1061083e576101008083540402835291820191610860565b820191906000526020600020905b81548152906001019060200180831161084c575b5050806113e160239139602301915050604051602081830303815290604052600060038154811061088d57fe5b90600052602060002001604051602001808061150760259139602501828054600181600116156101000203166002900480156109005780601f106108de576101008083540402835291820191610900565b820191906000526020600020905b8154815290600101906020018083116108ec575b5050806113e160239139602301915050604051602081830303815290604052600060048154811061092d57fe5b90600052602060002001604051602001808061140460259139602501828054600181600116156101000203166002900480156109a05780601f1061097e5761010080835404028352918201916109a0565b820191906000526020600020905b81548152906001019060200180831161098c575b5050806113e16023913960230191505060405160208183030381529060405260006005815481106109cd57fe5b9060005260206000200160405160200180806113bc6025913960250182805460018160011615610100020316600290048015610a405780601f10610a1e576101008083540402835291820191610a40565b820191906000526020600020905b815481529060010190602001808311610a2c575b5050806113e1602391396023019150506040516020818303038152906040526000600681548110610a6d57fe5b9060005260206000200160405160200180806114296025913960250182805460018160011615610100020316600290048015610ae05780601f10610abe576101008083540402835291820191610ae0565b820191906000526020600020905b815481529060010190602001808311610acc575b5050806113e1602391396023019150506040516020818303038152906040526000600781548110610b0d57fe5b9060005260206000200160405160200180806114e26025913960250182805460018160011615610100020316600290048015610b805780601f10610b5e576101008083540402835291820191610b80565b820191906000526020600020905b815481529060010190602001808311610b6c575b5050806113e1602391396023019150506040516020818303038152906040526000600881548110610bad57fe5b9060005260206000200160405160200180806114bd6025913960250182805460018160011615610100020316600290048015610c205780601f10610bfe576101008083540402835291820191610c20565b820191906000526020600020905b815481529060010190602001808311610c0c575b5050806113e16023913960230191505060405160208183030381529060405260405160200180807f3c7376672077696474683d2731353027206865696768743d27313830273e0000815250601e018a805190602001908083835b60208310610c9d5780518252602082019150602081019050602083039250610c7a565b6001836020036101000a03801982511681845116808217855250505050505090500189805190602001908083835b60208310610cee5780518252602082019150602081019050602083039250610ccb565b6001836020036101000a03801982511681845116808217855250505050505090500188805190602001908083835b60208310610d3f5780518252602082019150602081019050602083039250610d1c565b6001836020036101000a03801982511681845116808217855250505050505090500187805190602001908083835b60208310610d905780518252602082019150602081019050602083039250610d6d565b6001836020036101000a03801982511681845116808217855250505050505090500186805190602001908083835b60208310610de15780518252602082019150602081019050602083039250610dbe565b6001836020036101000a03801982511681845116808217855250505050505090500185805190602001908083835b60208310610e325780518252602082019150602081019050602083039250610e0f565b6001836020036101000a03801982511681845116808217855250505050505090500184805190602001908083835b60208310610e835780518252602082019150602081019050602083039250610e60565b6001836020036101000a03801982511681845116808217855250505050505090500183805190602001908083835b60208310610ed45780518252602082019150602081019050602083039250610eb1565b6001836020036101000a03801982511681845116808217855250505050505090500182805190602001908083835b60208310610f255780518252602082019150602081019050602083039250610f02565b6001836020036101000a038019825116818451168082178552505050505050905001807f3c2f7376673e0000000000000000000000000000000000000000000000000000815250600601995050505050505050505060405160208183030381529060405290503373ffffffffffffffffffffffffffffffffffffffff167f73cc29bc981d0bb11f21b055e91e88c3955bbe54a252455677618cb64c31e356826040518080602001828103825283818151815260200191508051906020019080838360005b83811015611004578082015181840152602081019050610fe9565b50505050905090810190601f1680156110315780820380516001836020036101000a031916815260200191505b509250505060405180910390a28091505090565b6001818154811061105557600080fd5b906000526020600020016000915090508054600181600116156101000203166002900480601f0160208091040260200160405190810160405280929190818152602001828054600181600116156101000203166002900480156110f95780601f106110ce576101008083540402835291602001916110f9565b820191906000526020600020905b8154815290600101906020018083116110dc57829003601f168201915b505050505081565b60606000838154811061111057fe5b906000526020600020018054600181600116156101000203166002900480601f0160208091040260200160405190810160405280929190818152602001828054600181600116156101000203166002900480156111ae5780601f10611183576101008083540402835291602001916111ae565b820191906000526020600020905b81548152906001019060200180831161119157829003601f168201915b5050505050905081600084815481106111c357fe5b9060005260206000200190805190602001906111e0929190611310565b503373ffffffffffffffffffffffffffffffffffffffff16837f176ff2d12d5df6e831b6cdf0336d3d96822178d039bdba36513529961b81a67d8385604051808060200180602001838103835285818151815260200191508051906020019080838360005b83811015611260578082015181840152602081019050611245565b50505050905090810190601f16801561128d5780820380516001836020036101000a031916815260200191505b50838103825284818151815260200191508051906020019080838360005b838110156112c65780820151818401526020810190506112ab565b50505050905090810190601f1680156112f35780820380516001836020036101000a031916815260200191505b5094505050505060405180910390a361130a61069d565b50505050565b828054600181600116156101000203166002900490600052602060002090601f016020900481019282611346576000855561138d565b82601f1061135f57805160ff191683800117855561138d565b8280016001018555821561138d579182015b8281111561138c578251825591602001919060010190611371565b5b50905061139a919061139e565b5090565b5b808211156113b757600081600090555060010161139f565b509056fe3c636972636c652063783d273930272063793d2736302720723d273230272066696c6c3d2727207374726f6b652d77696474683d273927207374726f6b653d27626c61636b272f3e3c636972636c652063783d273630272063793d2736302720723d273230272066696c6c3d273c636972636c652063783d273330272063793d2739302720723d273230272066696c6c3d273c636972636c652063783d273330272063793d2733302720723d273230272066696c6c3d273c636972636c652063783d273930272063793d2733302720723d273230272066696c6c3d273c636972636c652063783d273630272063793d2733302720723d273230272066696c6c3d273c636972636c652063783d273930272063793d2739302720723d273230272066696c6c3d273c636972636c652063783d273630272063793d2739302720723d273230272066696c6c3d273c636972636c652063783d273330272063793d2736302720723d273230272066696c6c3d27a264697066735822122028e331c5d581471370c02911692779bfd431f916d6176e4d0cea4fff8f2ec6ea64736f6c63430007040033",
  "immutableReferences": {},
  "source": "pragma solidity ^0.7.4;\r\n\r\n/**\r\n * The contractName contract does this and that...\r\n */\r\ncontract TestColor {\r\n\r\n\t  \tstring[] public pixels;\r\n  \tstring[] public pallet; \r\n  \tstring[] public canvasSVG;\r\n\r\n  \t  \tuint junk = 10;\r\n  \tuint nPixX=3;\r\n  \tuint nPixY=3;\r\n  \tuint nPix=nPixX*nPixY;\r\n  constructor() public {\r\n    \r\n  }\r\n  \tevent PixelChanged(uint indexed changedPixel, string from, string to, address indexed by);\r\n  \t\tevent SVGgenerated(string SVG, address indexed by);\r\n\r\n          function getjunk() public view returns(uint){\r\n      return junk;\r\n    }\r\n  \r\n  function testReturn(string memory _returnString) public returns(string memory) {\r\n      // _mint(msg.sender, 1);\r\n      return _returnString;\r\n  }\r\n\r\n    function toUint8(bytes memory _bytes, uint256 _start) internal pure returns (uint8) {\r\n        require(_start + 1 >= _start, \"toUint8_overflow\");\r\n        require(_bytes.length >= _start + 1 , \"toUint8_outOfBounds\");\r\n        uint8 tempUint;\r\n\r\n        assembly {\r\n            tempUint := mload(add(add(_bytes, 0x1), _start))\r\n        }\r\n\r\n        return tempUint;\r\n    }\r\n\tfunction setPixel(uint  _pixn, string memory _pixcolor) public {\r\n\t\tstring memory  _priorColor=pixels[_pixn];\r\n\t\t// string memory  _priorColor=pixels[0];\r\n\t\tpixels[_pixn]=_pixcolor;\r\n\t\temit PixelChanged(_pixn,_priorColor,_pixcolor, msg.sender);\r\n\t\tgenerateSVG();\r\n\t\t\r\n\t}\r\n    \tfunction buildLut() internal   {\r\n  \t\tpallet.push(\"#000000\");\r\n  \t\tpallet.push(\"#ff0000\");\r\n\t\tpallet.push(\"#00ff00\");\r\n\t\tpallet.push(\"#0000ff\");\r\n  \t}\r\n\r\n  \t\tfunction buildCanvas () internal {\r\n  \t\tfor(uint p=0; p<nPix; p++){\r\n\r\n\t\t\t// pixels[p]=pallet[0];\r\n\t\t\t// pixels[0]=\"ack\";\r\n\t\t\tpixels.push(pallet[0]);\r\n\r\n\t\t}\t\r\n  \t}\r\n\r\n  \t\tfunction paintCanvas () internal   {\r\n\t\t// uint i=0;\r\n\t\tfor(uint p=0; p<nPix; p++){\r\n\r\n\t\t\tsetPixel(p,pallet[(p%3)+1]);\r\n\t\t\t// setPixel(p,\"dick\");\r\n\r\n\t\t}\t\r\n\r\n\t}\r\n\r\n\t  \tfunction generateSVG() public returns (string memory){\r\n  \t\t//returns the svg string of the canvas\r\n  \t\t    string memory svg = \r\n  \t\t    string(\r\n  \t\t    \tabi.encodePacked(\r\n            \t\t\t\t\t\"<svg width='150' height='180'>\", \r\n            \t\t\t\t\tstring(abi.encodePacked(\"<circle cx='30' cy='30' r='20' fill='\",pixels[0],\"' stroke-width='9' stroke='black'/>\")),\r\n            \t\t\t\t\tstring(abi.encodePacked(\"<circle cx='60' cy='30' r='20' fill='\",pixels[1],\"' stroke-width='9' stroke='black'/>\")),\r\n            \t\t\t\t\tstring(abi.encodePacked(\"<circle cx='90' cy='30' r='20' fill='\",pixels[2],\"' stroke-width='9' stroke='black'/>\")), \r\n            \t\t\t\t\tstring(abi.encodePacked(\"<circle cx='30' cy='60' r='20' fill='\",pixels[3],\"' stroke-width='9' stroke='black'/>\")), \r\n            \t\t\t\t\tstring(abi.encodePacked(\"<circle cx='60' cy='60' r='20' fill='\",pixels[4],\"' stroke-width='9' stroke='black'/>\")), \r\n            \t\t\t\t\tstring(abi.encodePacked(\"<circle cx='90' cy='60' r='20' fill='\",pixels[5],\"' stroke-width='9' stroke='black'/>\")), \r\n            \t\t\t\t\tstring(abi.encodePacked(\"<circle cx='30' cy='90' r='20' fill='\",pixels[6],\"' stroke-width='9' stroke='black'/>\")), \r\n            \t\t\t\t\tstring(abi.encodePacked(\"<circle cx='60' cy='90' r='20' fill='\",pixels[7],\"' stroke-width='9' stroke='black'/>\")), \r\n            \t\t\t\t\tstring(abi.encodePacked(\"<circle cx='90' cy='90' r='20' fill='\",pixels[8],\"' stroke-width='9' stroke='black'/>\")),\r\n            \t\t\t\t\t\"</svg>\"\r\n        \t\t\t\t\t\t)\r\n        \t);\r\n  \t\temit SVGgenerated(svg,msg.sender);\r\n\r\n        return svg;\r\n  \t}\r\n}\r\n",
  "sourcePath": "H:/Expermental/nft/src/contracts/TestColor.sol",
  "compiler": {
    "name": "solc",
    "version": "0.7.4+commit.3f05b770.Emscripten.clang"
  },
  "schemaVersion": "3.3.4",
  "updatedAt": "2021-03-29T21:19:57.900Z",
  "devdoc": {
    "kind": "dev",
    "methods": {},
    "version": 1
  },
  "userdoc": {
    "kind": "user",
    "methods": {},
    "notice": "The contractName contract does this and that...",
    "version": 1
  }
}